:100000000C94D5010C9406020C9406020C94060282
:100010000C9406020C9406020C9406020C94060240
:100020000C9406020C9406020C9406020C94060230
:100030000C9406020C9406020C9406020C94060220
:100040000C9406020C9406020C9406020C94060210
:100050000C9406020C9406020C9406020C94CB122B
:100060000C9406020C949F130C9475130C940602C6
:100070000C9406020C9406020C9406020C940602E0
:100080000C9406020C9406020C9406020C940602D0
:100090000C943F130C9415130C9406020C94D51376
:1000A0000C9406020C9406020C9406020C940602B0
:1000B0000C9406020C9406020C9406020C940602A0
:1000C0000C9406020C9406020C9406020C94060290
:1000D0000C9406020C9406020C9406020C94060280
:1000E0000C94060207634236B79BD8A71A396856A4
:1000F00018AEBAAB558C1D3CB7CC5763BD6DEDFD4A
:10010000753EF6177231BF000000803F0800000006
:10011000BE922449123EABAAAA2ABECDCCCC4C3EFC
:1001200000000080BEABAAAAAA3E00000000BF00EB
:100130000000803F0000000000084178D3BB4387E7
:10014000D1133D190E3CC3BD4282AD2B3E68EC82FB
:1001500076BED98FE1A93E4C80EFFFBE01C4FF7F80
:100160003F00000000000C9468020C946C030C9497
:10017000E11A0C946E1B0C94B20F0C94280C0C9486
:10018000100D0C9447020C9483110C9443020C94B0
:10019000191B0C940C0C0C9401070C94DF030C94A9
:1001A0000F1B0C942C040C945F020C94F51A0C9405
:1001B0003C1B0C94AF0C0C9409020C9423070C9478
:1001C00069020C9463020C9457070C9436020C9449
:1001D00038110C944D020C942D1B0C9442110C946C
:1001E000461B0C947B030C94FF1A0C9410070C9480
:1001F0005A1B0C9479040C9428020C94D71A0C9472
:10020000EB1A0C9455020C945B020C942A070C9484
:100210003D020C94501B0C947A040C9408020C942C
:100220006D020C9451020C948F030C94630F0C9488
:100230001A200C94231B0C94A60E0C94DC1A0C941C
:100240003F030C942E020C9486070C9400070C9428
:100250003A020C94641B0C94071B0C9432020C940D
:10026000F9140C949D03005EBCE2613FDD83C29CE7
:100270007E20A3FD1F41009D23BE46DB65F88C1147
:10028000AF32CA57E97400002100240027002A0079
:100290002D003000330001010000040107010A01B4
:1002A00000002200250028002B002E003100340021
:1002B00002010000050108010B0100000A0B020900
:1002C0000C0D0E08070304010000000000000000F0
:1002D000000000000000000000000000000000001E
:1002E00000000000000012111000000000000000DB
:1002F00000000000000000000000000000000000FE
:10030000000020002300260029002C002F003200CE
:1003100000010000030106010901050505050705A7
:1003200008080808020202020A0A08080404040471
:10033000010101010101010103030303030303039D
:10034000040707070C0C0C0C0C0C0C0C020202022C
:1003500006060606060606060B0B0B0B0B0B0B0B15
:1003600001021020200808102040102040800201C7
:1003700002010804020101020408102040808040AC
:1003800020100804020180040201804020100804AB
:100390000201080402010102040810204080010249
:1003A000040810204080F9141A2011241FBECFEF3A
:1003B000D1E2DEBFCDBF00E00CBF29E0A8E5B4E08C
:1003C00001C01D92A23DB207E1F714E0A0E0B2E047
:1003D000E2E6FDE400E00BBF02C007900D92A835F5
:1003E000B107D9F711E0C4EDD1E000E006C02197D4
:1003F0000109802FFE010E94D821C33DD10780E072
:100400000807A9F70E94CA150C949F260C940000B7
:10041000089508958150823108F05AC0E82FF0E025
:100420008827EA5EFD4F8F4F0C94D82136023A029E
:1004300028022E02320268023D02430247024D02A8
:10044000510255025B025F026802630269026D029B
:10045000809180008F778093800008958091800044
:100460008F7DF9CF80918000877FF5CF84B58F771E
:1004700084BD089584B58F7DFBCF8091B0008F77C8
:100480008093B00008958091B0008F7DF9CF809166
:1004900090008F77809390000895809190008F7DD9
:1004A000F9CF80919000877FF5CF8091A0008F7762
:1004B0008093A00008958091A0008F7DF9CF809156
:1004C000A000877FF5CF809120018F778093200156
:1004D0000895809120018F7DF9CF80912001877F41
:1004E000F5CF1F93CF93DF93282F30E0F901E65427
:1004F000FD4F8491F901E05AFC4FD491F901E65E79
:10050000FC4FC491CC23A9F0162F81110E940A023E
:10051000EC2FF0E0EE0FFF1FE056FD4FA591B491D8
:100520008FB7F894EC91111108C0D095DE23DC93BD
:100530008FBFDF91CF911F910895DE2BF8CFCF931E
:10054000DF9390E0FC01E05AFC4F2491865E9C4FC3
:10055000FC0184918823C9F090E0880F991FFC0169
:10056000EA57FD4FA591B491FC01E056FD4FC591AE
:10057000D49161110DC09FB7F8948C91209582237E
:100580008C938881282328839FBFDF91CF91089582
:10059000623051F49FB7F8943C91822F8095832369
:1005A0008C93E8812E2BEFCF8FB7F894EC912E2B04
:1005B0002C938FBFEACF3FB7F89480919407909126
:1005C0009507A0919607B091970726B5A89B05C0FF
:1005D0002F3F19F00196A11DB11D3FBFBA2FA92FC2
:1005E000982F8827BC01CD01620F711D811D911DBF
:1005F00042E0660F771F881F991F4A95D1F708952B
:100600008F929F92AF92BF92CF92DF92EF92FF9222
:100610006B017C010E94DB024B015C01C114D1041F
:10062000E104F104B9F00E94DB02681979098A0932
:100630009B09683E73408105910580F321E0C21A51
:10064000D108E108F10888EE880E83E0981EA11C0D
:10065000B11CE4CFFF90EF90DF90CF90BF90AF90B0
:100660009F908F9008952FB7F894609190077091A4
:10067000910780919207909193072FBF0895AF92B1
:10068000BF92CF92DF92EF92FF920F931F93CF937F
:10069000DF936C017B018B01040F151FEB015E01E1
:1006A000AE18BF08C017D10759F06991D601ED9176
:1006B000FC910190F081E02DC6011995892B79F705
:1006C000C501DF91CF911F910F91FF90EF90DF90C7
:1006D000CF90BF90AF900895FC01538D448D252F8E
:1006E00030E0842F90E0821B930B541710F0CF96CC
:1006F000089501970895FC01918D828D981761F0FE
:10070000A28DAE0FBF2FB11D5D968C91928D9F5F14
:100710009F73928F90E008958FEF9FEF0895FC01F3
:10072000918D828D981731F0828DE80FF11D858DA6
:1007300090E008958FEF9FEF0895FC01918D228D39
:10074000892F90E0805C9F4F821B91098F739927BE
:1007500008958EE098E00E949D0321E0892B09F422
:1007600020E0822F08958BEA98E00E949D0321E00B
:10077000892B09F420E0822F0895FC01A48DA80F95
:10078000B92FB11DA35ABF4F2C91848D90E00196D3
:100790008F739927848FA689B7892C93A089B189F3
:1007A0008C91837080648C93938D848D981306C094
:1007B0000288F389E02D80818F7D80830895EF92F8
:1007C000FF920F931F93CF93DF93EC0181E0888F0B
:1007D0009B8D8C8D98131AC0E889F989808185FFDB
:1007E00015C09FB7F894EE89FF896083E889F9897D
:1007F00080818370806480839FBF81E090E0DF917F
:10080000CF911F910F91FF90EF900895F62E0B8DD1
:1008100010E00F5F1F4F0F731127E02E8C8D8E118C
:100820000CC00FB607FCFACFE889F989808185FFF3
:10083000F5CFCE010E94BD03F1CFEB8DEC0FFD2F64
:10084000F11DE35AFF4FF0829FB7F8940B8FEA89AE
:10085000FB8980818062CFCFCF93DF93EC01888DBD
:100860008823B9F0AA89BB89E889F9898C9185FD2B
:1008700003C0808186FD0DC00FB607FCF7CF8C91B9
:1008800085FFF2CF808185FFEDCFCE010E94BD03B1
:10089000E9CFDF91CF91089580E090E0892B29F096
:1008A0000E94B30381110E94000080E090E0892B38
:1008B00029F00E94A90381110E94000080E090E0CD
:1008C000892B49F080E090E0892B29F00E940000FC
:1008D00081110E94000080E090E0892B49F080E0C7
:1008E00090E0892B29F00E94000081110C940000F7
:1008F00008950895089520917904260F3327331F12
:1009000021323105ECF42091E407FC0190E080E015
:10091000243069F082E00895A09179042191AC011E
:10092000475A5B4FA40FB52FB11D2C930196861724
:1009300098F380917904680F6093790480E00895BA
:1009400081E008951092E40781E08093E30710921C
:10095000BE0761E084E10E94710261E085E10E94CE
:100960007102E9EBF0E080818E7F808380818D7F52
:10097000808388E48093B80085E48093BC00089568
:1009800010929D0710929C071092EB0710920D0891
:100990000E94A20488E092E090939B0780939A07BC
:1009A00089E092E090939907809398070895CF93F8
:1009B000DF9391E0909358048823B9F0C091B80078
:1009C000D091BA008091BC008A7B8093BC0060E02B
:1009D00084E10E94710260E085E10E9471020E9440
:1009E000A204D093BA00C093B800DF91CF910895CC
:1009F0008F929F92AF92BF92CF92DF92EF92FF922F
:100A00000F931F93CF93DF93D0910D08D13208F04D
:100A1000D7C0182FC0910C080E94DB026B017C012B
:100A20008091E40781116BC082E08093E40710930A
:100A3000E3078FEF8093E2071092E107D093E0077E
:100A4000ACEEB7E0E0ECF7E080E0D81391C0109294
:100A5000BF078091BF07CC0FC82BC093BF07809101
:100A6000BE07813009F088C01092BE070E94DB02E9
:100A70006B017C018091BF078093BB008091E607EA
:100A80009091E707A091E807B091E907892B8A2B9D
:100A90008B2BA1F00E94DB020091E6071091E70783
:100AA0002091E8073091E9076C197D098E099F09AB
:100AB000061717072807390708F442C08091BC00C1
:100AC00083FDD8CF85EC8093BC000E94DB026B01D4
:100AD0007C018091E407823009F450C08091E207E4
:100AE0008F3F09F46FC08091E207803209F46CC037
:100AF0008091E207803309F469C084E026C08091C8
:100B0000E6079091E707A091E807B091E907892BE4
:100B10008A2B8B2B09F484CF0E94DB028090E6079E
:100B20009090E707A090E807B090E9076C197D095D
:100B30008E099F0986169706A806B90608F070CF99
:100B40008091E5070E94D70485E01092EB07109290
:100B50000D081092EA07DF91CF911F910F91FF903E
:100B6000EF90DF90CF90BF90AF909F908F900895BF
:100B70009D9191938F5F69CF85EEA5CF8091E60718
:100B80009091E707A091E807B091E907892B8A2B9C
:100B90008B2B09F49ECF0E94DB020091E607109197
:100BA000E7072091E8073091E9076C197D098E0964
:100BB0009F09061717072807390708F08ACFC0CF03
:100BC00081E0C3CF80E0C1CF82E0BFCF83E0BDCF63
:100BD000CF93DF93EA01DC0111968D919C91DC01AA
:100BE000ED91FC910280F381E02D1995C817D9078A
:100BF00029F481E00E94F80491E0811190E0892FAE
:100C0000DF91CF910895CF93DF93EC018B818823FF
:100C1000A1F0888191E09093EA0780930C081092EC
:100C2000EB0710920D0881E00E94F80491E0811119
:100C300090E0892FDF91CF9108950E94C00481E058
:100C40008B83CE010E940306982F8111E2CFF1CF52
:100C50008F929F92AF92BF92CF92DF92EF92FF92CC
:100C60000F931F93CF93DF93D82FC62F142F61328A
:100C700008F09CC00E94DB026B017C018091E407BC
:100C800081116FC081E08093E4071093E3079FEF29
:100C90009093E2071092E1079C0F9093E0078093F6
:100CA000BF078091BF07DD0FD82BD093BF0780917E
:100CB000BE07813009F07CC01092BE070E94DB02A3
:100CC0006B017C018091BF078093BB008091E60798
:100CD0009091E707A091E807B091E907892B8A2B4B
:100CE0008B2BA1F00E94DB020091E6071091E70731
:100CF0002091E8073091E9076C197D098E099F0959
:100D0000061717072807390708F44CC08091BC0064
:100D100083FDD8CF85EC8093BC000E94DB026B0181
:100D20007C018091E407813009F444C08091E1079F
:100D30008C1710F4C091E107E0ECF7E0AEE9B7E002
:100D400080E08C1359C08C2FDF91CF911F910F91B0
:100D5000FF90EF90DF90CF90BF90AF909F908F90DB
:100D600008958091E6079091E707A091E807B09178
:100D7000E907892B8A2B8B2B09F480CF0E94DB0299
:100D80008090E6079090E707A090E807B090E90709
:100D90006C197D098E099F0986169706A806B90663
:100DA00008F06CCF8091E5070E94D704C0E0CBCF5C
:100DB00085EEB1CF8091E6079091E707A091E80713
:100DC000B091E907892B8A2B8B2B09F4AACF0E94BB
:100DD000DB020091E6071091E7072091E8073091C8
:100DE000E9076C197D098E099F090617170728075F
:100DF000390708F096CFD6CF91919D938F5FA1CF01
:100E00000895E0919D0780919C07E81730F4F0E089
:100E1000E256F84F808190E008958FEF9FEF08959C
:100E200090919D0780919C072FEF3FEF981748F412
:100E3000E92FF0E0E256F84F208130E09F5F909379
:100E40009D07C901089580919C0790919D07891B7A
:100E5000990B0895CF92DF92EF92FF920F931F9319
:100E6000CF93DF937C01CB018A012091EA072223F3
:100E700089F0EB016B01C40ED51ECC15DD0569F0C0
:100E80006991D701ED91FC910190F081E02DC701AE
:100E90001995F3CF642F0E947B04C801DF91CF9195
:100EA0001F910F91FF90EF90DF90CF900895CF9317
:100EB000DF931F92CDB7DEB769832091EA07222323
:100EC000F9F020910D08203258F021E030E0FC01CB
:100ED0003383228390E080E00F90DF91CF910895DB
:100EE0008091EB07E82FF0E0E451F84F998190836F
:100EF0008F5F8093EB0780930D0881E090E0ECCF4B
:100F000061E0CE0101960E947B04F7CF90E080E083
:100F10000895DC0180E0615090F09D919827E92FC1
:100F2000EF70F0E0EA59FD4F2491E92FE295EF7060
:100F3000F0E0EA58FD4FE491822F8E27ECCF089520
:100F4000DC012C911196ED91FC91F8948181822B1A
:100F500081839281322F30959323928387E090E0B2
:100F60000197F1F781818323818383E290E00197E8
:100F7000F1F790817894EFECF0E03197F1F792235C
:100F800081E009F480E00895FC0190810180F28104
:100F9000E02D292F209560FF14C0F89482818223D0
:100FA00082838181892B8183A3E2B0E01197F1F7DD
:100FB0008281982B9283789487ED90E00197F1F7E6
:100FC0000895F8948281822382838181892B818391
:100FD000AFEFB0E01197F1F78281982B928378946C
:100FE0008FE090E0EBCFDF92EF92FF920F931F9391
:100FF000CF93DF93EC01D62EE42E08E010E0FF241F
:10100000F39461E08D2D8F2109F460E0CE010E9400
:10101000C407FF0C01501109A1F7E11010C0F894AA
:10102000E981FA8191818881809589238183E98191
:10103000FA81928188818095892382837894DF91D7
:10104000CF911F910F91FF90EF90DF900895EF9255
:10105000FF920F931F93CF93DF938C017B0140E0AE
:1010600065E50E94F307E70188E0E80EF11C69914D
:1010700040E0C8010E94F307CE15DF05C1F7DF91FC
:10108000CF911F910F91FF90EF900895FC019081F7
:101090000180F281E02DF8948181292F209582230F
:1010A000818378943DE743E050E0315029F1DA0143
:1010B0001197F1F780818923C1F3F894828182230B
:1010C00082838181892B81837894ABE7B7E0119784
:1010D000F1F7F894818182238183A3E1B1E0119734
:1010E000F1F78081982381E009F080E07894E3E6CD
:1010F000F6E03197F1F7089580E008956F927F92BE
:101100008F929F92AF92BF92CF92DF92EF92FF9217
:101110000F931F93CF93DF938C01EB018091A00974
:101120009091A1090E944608882309F43FC0B801A4
:101130008091A0099091A1090E94270840E06EEBE0
:101140008091A0099091A1090E94F3077E016E0190
:1011500089E0C80ED11C8E01A090A009B090A10911
:1011600088E0882E912C712C66246394C5010E941E
:10117000A00781117628660CE1E08E1A9108B1F77C
:10118000F80171928F01CE16DF0631F78091A00928
:101190009091A1090E944608813041F4F7018191A4
:1011A0007F01811105C0E017F107C1F790E008C089
:1011B00068E0CE010E94890791E028852813F6CFC8
:1011C000892FDF91CF911F910F91FF90EF90DF90CA
:1011D000CF90BF90AF909F908F907F906F90089529
:1011E0000F931F93CF93DF93EC018B010E94330386
:1011F000EFEEF6E050E040E02481211115C025E03B
:10120000249FF001259FF00D1124E151F94FD18366
:10121000C083060F171F1383028381E08483DF914D
:10122000CF911F910F9108954F5F5F4F35964032D8
:10123000510511F780E0F3CF6F927F928F929F92CA
:10124000AF92BF92CF92DF92EF92FF920F931F93D4
:10125000CF93DF936C013B017A0110E000E0D601EF
:1012600014968D919C91E701C01BD10B8C179D07A3
:1012700008F4EC0141E0C7018C1B9D0B081719070E
:1012800008F440E06C2FC13208F060E2F601808182
:101290000E94280610929D0780939C078C171D06BC
:1012A00079F54301800E911E5401C50188199909F1
:1012B0008C179D0778F4D60111968D919C91DC01D5
:1012C000ED91FC910284F385E02D1995F501819350
:1012D0005F01EBCF0C0F1D1F0E151F0508F4BFCFCC
:1012E00081E0DF91CF911F910F91FF90EF90DF9000
:1012F000CF90BF90AF909F908F907F906F90089508
:1013000080E0EFCFCF93DF931F92CDB7DEB741E000
:1013100050E0BE016F5F7F4FFC01848595850E9480
:101320001C09882329F089810F90DF91CF910895BE
:101330008FEFFACFBF92CF92DF92EF92FF920F938F
:101340001F93CF93DF93EC01B62EC72E8D858111AD
:1013500005C0CE010E94460881110EC01B861D8665
:101360001C8680E0DF91CF911F910F91FF90EF904D
:10137000DF90CF90BF90089540E060EFCE010E94D3
:10138000F30701E0E12CD12C11E0CE010E94A0076F
:10139000F82ECE010E94A00791E0F91218C081300A
:1013A00099F51134D8F2DB86D11002C081E08D8727
:1013B0008B81882399F22396EB2DFC2DCF01089683
:1013C00029912193E817F907D9F781E0CBCFEE2DCA
:1013D000F0E0F8120FC08B851817A0F4DE01AE0FF5
:1013E000BF1F13968C91802379F4F12C193008F4E7
:1013F0001C87D12EEC0FFD1F8381902F90958923A0
:1014000083830AC08113F1CFFE01EE0DF11D8381AC
:10141000802B8383FF24F3946F2DCE010E94C40799
:101420001F5F000F11F4E39401E087E08E1508F0D0
:10143000ACCFB7CFFC0101900020E9F73197AF01A5
:10144000481B590BBC018BEA98E00C943F038F9228
:101450009F92AF92BF920F931F93CF93DF93CDB71D
:10146000DEB7A1970FB6F894DEBF0FBECDBF19A2AD
:10147000423008F44AE08E010F5D1F4F842E912CFC
:10148000B12CA12CA50194010E94B621E62FB9012F
:10149000CA01EA30F4F4E05DD801EE938D01232B0C
:1014A000242B252B79F790E080E0109719F0CD01DF
:1014B0000E941A0AA1960FB6F894DEBF0FBECDBFE8
:1014C000DF91CF911F910F91BF90AF909F908F9020
:1014D0000895E95CE1CFCF93DF930E941A0AEC01F3
:1014E00087EF92E00E941A0A8C0F9D1FDF91CF9127
:1014F00008950C941A0ACF92DF92EF92FF920F9305
:101500001F93CF93DF93C82ED62E8A0180915B095B
:10151000C22FD0E0882399F18AEF92E00E94790AE5
:101520006C2D70E090E080E040E10E94270A80E1AD
:1015300093E00E94790A6D2D70E090E080E040E138
:101540000E94270A80E293E00E94790A7801C7018D
:10155000801B910B8C179D0774F48CE193E00E9423
:10156000790AD7016D917D0170E090E080E040E163
:101570000E94270AECCF87EF92E00E941A0A80911E
:1015800054099091550921E02093EA07C0920C0874
:101590001092EB0710920D08DC01ED91FC91019087
:1015A000F081E02D6D2D1995809154099091550988
:1015B000DC01ED91FC910280F381E02DAE01B801D8
:1015C000199581E0DF91CF911F910F91FF90EF90DE
:1015D000DF90CF900C94F8041F93CF93DF931F926A
:1015E000CDB7DEB790918C09898321E0AE014F5FC2
:1015F0005F4F60E1892F0E947B0A182F80915B0961
:10160000882361F08FE293E00E94790A8BE293E0F5
:10161000111102C08BE094E00E946B0A6AE070E056
:1016200080E090E00E94000381E0111180E00F90C3
:10163000DF91CF911F910895CF93DF93462F682FAD
:1016400070E090E080E00E94270AEC0187EF92E0D2
:101650000E941A0A8C0F9D1FDF91CF9108956F92FF
:101660007F928F929F92AF92BF92CF92DF92EF9232
:10167000FF920F931F93CF93DF93E82E962E6A016C
:10168000822E80915B098823A1F08BE493E00E9475
:10169000790A6E2D70E090E080E040E10E94270A18
:1016A00080E193E00E94790A60E170E0892D0E9458
:1016B0001C0BC0E077247394D82DDC1BD13208F0CA
:1016C000D0E280915409909155097092EA07E09216
:1016D0000C081092EB0710920D08DC01ED91FC91C3
:1016E0000190F081E02D692D6C0F199581E00E9429
:1016F000F804682E41E06D2F8E2D0E94280610926E
:101700009D0780939C0710E000E0AD2EB12CFC2ECD
:10171000F00E0A151B059CF0CD0FC81568F2862D3A
:10172000DF91CF911F910F91FF90EF90DF90CF90BD
:10173000BF90AF909F908F907F906F900895809111
:10174000540990915509DC01ED91FC910284F385D7
:10175000E02D1995F601EF0DF11D80830F5F1F4FEE
:10176000D6CF0F931F93CF93DF9300D0CDB7DEB7C3
:1017700080918C091A8221E0AE014E5F5F4F62E1D9
:101780000E947B0A80918C099CEC9B8321E0AE0136
:101790004D5F5F4F62E10E947B0A182F80915B09C9
:1017A000882361F080E693E00E94790A8BE293E05F
:1017B000111102C08BE094E00E946B0A6AE070E0B5
:1017C00080E090E00E94000321E0AE014F5F5F4F98
:1017D00060E280918C090E942F0B098180915B0946
:1017E000882349F088E793E00E94790A60E170E07D
:1017F000802F0E941C0B6AE070E080E090E00E9465
:10180000000381E0111180E00F900F900F90DF91A5
:10181000CF911F910F9108950C941625CF93DF93CC
:10182000EC0188819981009711F00E941625198298
:1018300018821D821C821B821A82DF91CF9108952B
:10184000FC0180819181009711F00C941625089578
:101850000C9416250F931F93CF93DF93082F162F09
:1018600083E090E00E947A24EC0182E0888389E0A2
:1018700089830A8343E050E0BE018BEA98E00E942E
:101880003F03209719F0CE010E9416251111FFCFBA
:10189000DF91CF911F910F910895CF92DF92EF9238
:1018A000FF920F931F93CF93DF936C01DC0114968B
:1018B0000D911C917801B2E0EB0EF11C81E090E0FB
:1018C000E114F10409F0C7010E947A24EC01C80177
:1018D0000196FE0197FF17C0FE01329690E080E06E
:1018E00080179107ACF48017910780F4D6012D91F1
:1018F0003C912115310551F0280F391FD9012C9148
:1019000021930196EDCF11920197E4CF20E0F8CF1B
:101910000F5F08838AE08983A701BE018BEA98E004
:101920000E943F03E816F90621F060E08FE60E946E
:101930002A0C209759F0CE01DF91CF911F910F9182
:10194000FF90EF90DF90CF900C941625DF91CF9110
:101950001F910F91FF90EF90DF90CF9008951F930C
:10196000CF93DF9300D000D01F921F92CDB7DEB788
:1019700080915B09882321F082E993E00E946B0A41
:1019800061E070E080E090E00E94000321E0AE01A1
:101990004F5F5F4F60E280918C090E942F0B19818D
:1019A00080915B09882349F084EA93E00E94790AD8
:1019B0006AE070E0812F0E941C0B11FFE1CF27E04D
:1019C000AE014F5F5F4F61E280918C090E942F0B47
:1019D0008981809363098A819B81909365098093B3
:1019E00064098C819D819093670980936609809139
:1019F0005D09882381F08E819F819093690980938E
:101A0000680928960FB6F894DEBF0FBECDBFDF91F0
:101A1000CF911F9108951092690910926809F1CF32
:101A20007F928F929F92AF92BF92CF92DF92EF926E
:101A3000FF920F931F93CF93DF93B0906309C091F0
:101A40006409D091650900916609109167092B2DF1
:101A50002150330B2530310520F060E08BE50E94EA
:101A60002A0CD7FF04C060E08CE50E942A0C17FF07
:101A700004C060E08DE50E942A0C2AE030E0C80135
:101A8000B9010E94A221F62EE82ECE01B9010E94D2
:101A9000A221D62EC82E02EE15E08AE0982E92E002
:101AA000892E25E0722EF801A1908F01AA2079F1EC
:101AB0008BE090E00E947A24EC01988289827A82FD
:101AC000AB828091DD058C838091DF058D83BE82A2
:101AD000FF82E886D986CA86209721F460E08EE5E9
:101AE0000E942A0C4BE050E0BE018BEA98E00E9475
:101AF0003F030B9721F060E08FE50E942A0C2097AE
:101B000019F0CE010E941625F80131971082F5E0F8
:101B10000A3E1F0741F6DF91CF911F910F91FF9071
:101B2000EF90DF90CF90BF90AF909F908F907F907D
:101B300008950F931F93CF93DF93EC0188819981D0
:101B4000009759F02A813B812617370730F081E052
:101B5000DF91CF911F910F9108958B016F5F7F4FA0
:101B60000E949F25009759F0998388831B830A83DD
:101B70002C813D81232B59F7FC011082E8CF80E0B6
:101B8000E7CFEF92FF920F931F93CF93DF936115EF
:101B9000710541F480E0DF91CF911F910F91FF908B
:101BA000EF90089541155105B1F07B01EC010C81D6
:101BB0001D81040F151FB8010E94990D882351F350
:101BC000288139818C819D81B701820F931F0E94EA
:101BD00089261D830C8381E0DECFCF93DF93EC0158
:101BE000FB0144815581608171810E94C10D811189
:101BF00003C0CE010E940E0CCE01DF91CF9108955B
:101C0000EF92FF920F931F93CF93DF93EC017B0131
:101C10008A01BA010E94990D81110BC0CE010E9468
:101C20000E0CCE01DF91CF911F910F91FF90EF909D
:101C300008951D830C83B701888199810E948926AC
:101C4000F0CFEF92FF920F931F93CF93DF9300D0CB
:101C500000D000D0CDB7DEB78C01862FF8011182FD
:101C6000108213821282158214824AE09E012F5F35
:101C70003F4F7901B90190E00E944020F7010190A7
:101C80000020E9F73197AF014E195F09B701C8018C
:101C90000E94000E29960FB6F894DEBF0FBECDBF8E
:101CA000DF91CF911F910F91FF90EF900895EF92E8
:101CB000FF920F931F93CF93DF93CDB7DEB7629759
:101CC0000FB6F894DEBF0FBECDBF8C01CB01F8017B
:101CD0001182108213821282158214824AE09E01C0
:101CE0002F5F3F4F7901B9010E943520F701019024
:101CF0000020E9F73197AF014E195F09B701C8011C
:101D00000E94000E62960FB6F894DEBF0FBECDBFE4
:101D1000DF91CF911F910F91FF90EF900895CF9396
:101D2000DF93EC01FB018617970749F06081718111
:101D30006115710541F0448155810E94000ECE016C
:101D4000DF91CF9108950E940E0CF9CF0F931F934E
:101D5000CF93DF93CDB7DEB768970FB6F894DEBFA9
:101D60000FBECDBF8091DD059091DE0580579E4F5F
:101D7000833E944020F060E086E50E942A0C80912A
:101D8000DF059091E005893E934020F060E087E513
:101D90000E942A0C6091DF057091E005CE010D963E
:101DA0000E94570E6091DD057091DE05CE01079609
:101DB0000E94570E1A8219821C821B821E821D826B
:101DC00046E050E06DEA73E0CE0101960E94000EFD
:101DD000BE01695F7F4FCE0101960E94ED0D8C011F
:101DE00041E050E065E574E00E94C10D811103C03F
:101DF000C8010E940E0CBE01635F7F4FC8010E94A4
:101E0000ED0D1C8A1B8A1E8A1D8A188E1F8ABC0132
:101E1000CE0143960E948F0ECE0143960E944D0C38
:101E2000CE0143960E94200CCE0101960E94200C08
:101E3000CE0107960E94200CCE010D960E94200C28
:101E40006091DD057091DE05072E000C880B990B63
:101E50000E94712023E333E948E853E40E94E12122
:101E600020E030E040E852E40E94D0200E94C622E8
:101E70008B016091DF057091E005072E000C880B47
:101E8000990B0E94712020E030E040E054E40E9471
:101E9000D0200E94C62209831A836B837C8324E0AE
:101EA000AE014F5F5F4F63E180918C090E947B0A16
:101EB00068960FB6F894DEBF0FBECDBFDF91CF910D
:101EC0001F910F9108950F931F93CF93DF938C0170
:101ED000EB0188E2FB0111928A95E9F74BE050E0B3
:101EE00064EB73E0CE010E9490261B8681E090E0B7
:101EF000A0E0B0E08C879D87AE87BF87F801828124
:101F00009381092E000CAA0BBB0B888B998BAA8B93
:101F1000BB8B8DE090E0A0E0B0E08C8B9D8BAE8B16
:101F2000BF8B1CA21DA21EA21FA280E090E0A0E217
:101F3000B2EC8C8F9D8FAE8FBF8F80E090E0AAEACD
:101F4000B2E4888F998FAA8FBB8F8AE999E9A9E9B2
:101F5000BEE388A399A3AAA3BBA3DF91CF911F914E
:101F60000F9108950F931F93CF93DF938C01EB0193
:101F700088E2FB0111928A95E9F74BE050E06CEBA7
:101F800073E0CE010E9490261B8681E090E0A0E0E5
:101F9000B0E08C879D87AE87BF87F80182819381EF
:101FA000092E000CAA0BBB0B888B998BAA8BBB8BC1
:101FB0008CE090E0A0E0B0E08C8B9D8BAE8BBF8B73
:101FC0001CA21DA21EA21FA21C8E1D8E1E8E1F8E65
:101FD00080E090E0A8ECB2E4888F998FAA8FBB8F45
:101FE00080E090E0A0E0B0E488A399A3AAA3BBA3FB
:101FF000DF91CF911F910F9108954F925F926F9251
:102000007F92AF92BF92CF92DF92EF92FF920F93A7
:102010001F93CF93DF9300D000D000D0CDB7DEB7B1
:102020008C017B016A010E9433032B013C018091EA
:10203000060290910702A09108028F839887A987D2
:10204000D8011C968D919C91FC012481358123300F
:102050003105B8F4B12C8B2D29960FB6F894DEBF5C
:102060000FBECDBFDF91CF911F910F91FF90EF90E9
:10207000DF90CF90BF90AF907F906F905F904F9028
:102080000895208131E03093EA0720930C081092E4
:10209000EB0710920D0843E050E0BE01695F7F4FEF
:1020A0000E94E8058823B1F2C8010E94820987FFD7
:1020B00007C06AE070E080E090E00E940003F4CF87
:1020C00046E050E0BE016F5F7F4FF8018485958543
:1020D0000E941C09B82E882309F4BCCF6A817B8139
:1020E000762767277627CB01B0E0A0E09C01AD0101
:1020F00084E0220F331F441F551F8A95D1F7AC800F
:102100008A2D90E064E0959587956A95E1F7092E10
:10211000000CAA0BBB0BBC01CD01622B732B842BD3
:10212000952B0E946F2020E030E048EC52E40E94A2
:10213000D02020E030E040E855E30E94D020D801D4
:1021400014966D937D938D939C9317976A2D6F7062
:1021500070E090E080E0982F872F762F66272D8102
:10216000622B982F872F762F66272E81622B0E9455
:102170006F2020E030E048E453E40E94D02020E0CB
:1021800030E040E855E30E94D02020E030E048E411
:1021900052E40E94E021F80160837183828393837B
:1021A000C114D10481F1F601349680E2DF011D9261
:1021B0008A95E9F784E290E0A0E0B0E0F601808340
:1021C0009183A283B383D8011A968D919C91B0E03C
:1021D000A0E084839583A683B7838DE090E0A0E0A0
:1021E000B0E080879187A287B387408A518A628A4C
:1021F000738AF80180819181A281B381F601848B79
:10220000958BA68BB78BE114F10409F424CFF70169
:10221000349680E2DF011D928A95E9F784E290E02E
:10222000A0E0B0E0F70180839183A283B383D8015B
:1022300018968D919C91B0E0A0E084839583A6834D
:10224000B7838DE090E0A0E0B0E080879187A2871F
:10225000B387408A518A628A738AF80184819581A2
:10226000A681B781F701848B958BA68BB78BF3CEB4
:10227000AB0170E060E0FC01848195810E94FD0F5C
:1022800081E0089550E040E0FC01848195810E9446
:10229000FD0F81E0089585ED8093BC008091E607F5
:1022A0009091E707A091E807B091E9070796A11D73
:1022B000B11D23E0B695A795979587952A95D1F7F7
:1022C0002091BC0024FD03C01092E40708954091C2
:1022D000E6075091E7076091E8077091E907452B01
:1022E000462B472B69F30097A105B10541F02AE27F
:1022F0002A95F1F700C00197A109B109E1CF8091BA
:10230000E5070C94D7041F93CF93DF9300D000D040
:102310001F921F92CDB7DEB780915B09882321F011
:1023200082E993E00E946B0A61E070E080E090E057
:102330000E94000321E0AE014F5F5F4F60E2809199
:102340008C090E942F0B198180915B09882349F029
:1023500084EA93E00E94790A6AE070E0812F0E948B
:102360001C0B10FFE1CF28E0AE014F5F5F4F68E428
:1023700080918C090E942F0B69817A8190E080E026
:102380000E946F2020E030E040E05AE30E94D0201D
:102390009B01AC0160E070E080E090E40E94F522D7
:1023A0000E94C62260936A0970936B0980936C093E
:1023B00090936D096B817C8190E080E00E946F209A
:1023C00020E030E040E05AE30E94D0209B01AC01C5
:1023D00060E070E080E090E40E94F5220E94C62256
:1023E00060937209709373098093740990937509CF
:1023F0006D817E8190E080E00E946F2020E030E0DF
:1024000040E05AE30E94D0209B01AC0160E070E004
:1024100080E090E40E94F5220E94C62260937A092F
:1024200070937B0980937C0990937D096F817885F7
:1024300090E080E00E946F2020E030E040E05AE32E
:102440000E94D0209B01AC0160E070E080E090E44D
:102450000E94F5220E94C62260938209709383092C
:10246000809384099093850928E0AE014F5F5F4F08
:1024700068E280918C090E942F0B69817A8190E03B
:1024800080E00E946F2020E030E040E05AE30E94AC
:10249000D0209B01AC0160E070E080E090E40E94FD
:1024A000F5220E94C62260936E0970936F09809393
:1024B0007009909371096B817C8190E080E00E94AB
:1024C0006F2020E030E040E05AE30E94D0209B01E2
:1024D000AC0160E070E080E090E40E94F5220E9490
:1024E000C622609376097093770980937809909358
:1024F00079096D817E8190E080E00E946F2020E06C
:1025000030E040E05AE30E94D0209B01AC0160E043
:1025100070E080E090E40E94F5220E94C622609361
:102520007E0970937F0980938009909381096F8160
:10253000788590E080E00E946F2020E030E040E06D
:102540005AE30E94D0209B01AC0160E070E080E083
:1025500090E40E94F5220E94C6226093860970933F
:102560008709809388099093890921E0AE014F5F24
:102570005F4F68E380918C090E942F0B89818093C3
:102580008E0928960FB6F894DEBF0FBECDBFDF913F
:10259000CF911F9108951F920F920FB60F921124A1
:1025A0002F933F938F939F93AF93BF938091900707
:1025B00090919107A0919207B091930730918F0766
:1025C00023E0230F2D3758F50196A11DB11D20934F
:1025D0008F078093900790939107A0939207B093F1
:1025E00093078091940790919507A0919607B091D9
:1025F00097070196A11DB11D8093940790939507AD
:10260000A0939607B0939707BF91AF919F918F9139
:102610003F912F910F900FBE0F901F90189526E8B5
:10262000230F0296A11DB11DD2CF1F920F920FB69C
:102630000F9211240BB60F922F933F934F935F93FA
:102640006F937F938F939F93AF93BF93EF93FF937A
:102650008EE098E00E94BD03FF91EF91BF91AF9192
:102660009F918F917F916F915F914F913F912F91AA
:102670000F900BBE0F900FBE0F901F9018951F92DA
:102680000F920FB60F9211240BB60F922F938F93C8
:102690009F93EF93FF93E0911E08F0911F088081B4
:1026A000E0912408F091250882FD1DC09081809161
:1026B00027088F5F8F7320912808821741F0E091DF
:1026C0002708F0E0E25FF74F958F80932708FF918E
:1026D000EF919F918F912F910F900BBE0F900FBE96
:1026E0000F901F9018958081F2CF1F920F920FB616
:1026F0000F9211240BB60F922F933F934F935F933A
:102700006F937F938F939F93AF93BF93EF93FF93B9
:102710008BEA98E00E94BD03FF91EF91BF91AF91CA
:102720009F918F917F916F915F914F913F912F91E9
:102730000F900BBE0F900FBE0F901F9018951F9219
:102740000F920FB60F9211240BB60F922F938F9307
:102750009F93EF93FF93E091BB08F091BC088081B9
:10276000E091C108F091C20882FD1DC09081809166
:10277000C4088F5F8F732091C508821741F0E091E4
:10278000C408F0E0E555F74F958F8093C408FF919A
:10279000EF919F918F912F910F900BBE0F900FBED5
:1027A0000F901F9018958081F2CF1F920F920FB655
:1027B0000F9211240BB60F922F933F934F935F9379
:1027C0006F937F938F939F93AF93BF93EF93FF93F9
:1027D0008091B900887F803609F44DC008F040C070
:1027E000883209F4A9C028F5803109F49DC0C8F4E5
:1027F000882309F4FBC0883009F496C0FF91EF915B
:10280000BF91AF919F918F917F916F915F914F9108
:102810003F912F910F900BBE0F900FBE0F901F9006
:102820001895883109F488C0803241F78093E20717
:1028300014C0803409F49DC040F48033B9F3883368
:10284000E9F68093E20785ECB0C0803509F485C0D5
:10285000883509F496C0883489F60E944B11CECF92
:10286000883909F48CC038F5883729F050F4883657
:1028700011F0803719F683E08093E40710929B04EF
:1028800057C0883809F47BC0803919F0803809F0C6
:10289000B5CF80919B04803208F071C0E0919B0419
:1028A00081E08E0F80939B048091BB00F0E0E5589F
:1028B000FB4F80833DC0803B39F0E0F4803A09F45F
:1028C00079C0883A09F09ACF84E08093E4071092A7
:1028D0007A0410927904E0919A07F0919B07199578
:1028E0008091790481110FC081E080937904109266
:1028F000590409C0803C09F4A6CF883C09F4A3CF51
:10290000883B09F07BCFE0917A0481E08E0F8093C1
:102910007A04F0E0E75AFB4F80818093BB009091EE
:102920007A048091790429C08091BF078093BB000D
:1029300085EC8093BC0062CF9091E1078091E00725
:10294000981758F5E091E10781E08E0F8093E10739
:10295000F0E0E054F84F8081E9CFE091E10781E0B9
:102960008E0F8093E1078091BB00F0E0E054F84FB8
:1029700080839091E1078091E0079817C8F285E87D
:10298000D8CFE091E10781E08E0F8093E10780913D
:10299000BB00F0E0E054F84F80838091E3078111A1
:1029A0005CCF81E08093BE0784EA8093BC001092E4
:1029B000E40724CF85EC8093BC001092E40780915B
:1029C0009B04803230F4E0919B04F0E0E558FB4F2B
:1029D000108260919B0470E0E0919807F091990754
:1029E0008BE794E0199510929B0408CF1092E207B0
:1029F00034CFCF93DF93EEE0F8E01382128248EEFB
:102A000053E060E070E0448355836683778387ED0D
:102A100092E0918380832DEC30E0358724872CEC85
:102A200030E03787268728EC30E0318B208B29EC8B
:102A300030E0338B228B2AEC30E0358B248B2EEC6C
:102A400030E0378B268B118E128E138E148EEBEAAC
:102A5000F8E01382128244835583668377839183DF
:102A6000808385EC90E09587848784EC90E097875D
:102A7000868780EC90E0918B808B81EC90E0938B4B
:102A8000828B82EC90E0958B848B86EC90E0978B28
:102A9000868B118E128E138E148E88E499E0FC01C1
:102AA00013821282448355836683778329EE32E052
:102AB00031832083C4E5D9E01D821E821F821886DF
:102AC000198628E0E9E0F2E0AFE8B9E001900D9264
:102AD0002A95E1F723E530E039AF28AF9983888361
:102AE0001A821B821C82ECEBF9E01586148617868D
:102AF0001686118A108A60E082E00E949F02E2E658
:102B0000F3E0E491AEEAB9E0EC93ECE1F3E0E491B8
:102B1000F0E0EE0FFF1FE050FD4F8591949112966B
:102B20009C938E9311971B961C921B971D961C923B
:102B30001D971C961C921C971A961C921A97199610
:102B40001C92199718961C92189717961C92179713
:102B500016961C92169715961C92159714961C9211
:102B6000149713961C921397E7E9F9E017821086E1
:102B7000108289E0838381E0848385838683118248
:102B8000168A158A8FEF838B148AB287A187DF910B
:102B9000CF910895CF93DF93CDB7DEB7C755D10955
:102BA0000FB6F894DEBF0FBECDBF789484B58260B7
:102BB00084BD84B5816084BD85B5826085BD85B5E1
:102BC000816085BD80916E00816080936E0010925F
:102BD00081008091810082608093810080918100DA
:102BE000816080938100809180008160809380006B
:102BF0008091B10084608093B1008091B0008160C9
:102C00008093B000809191008260809391008091C8
:102C10009100816080939100809190008160809309
:102C200090008091A10082608093A1008091A1001A
:102C300081608093A1008091A00081608093A000BA
:102C40008091210182608093210180912101816026
:102C500080932101809120018160809320018091E7
:102C60007A00846080937A0080917A0082608093F9
:102C70007A0080917A00816080937A0080917A0056
:102C8000806880937A001092C100E091BB08F091B7
:102C9000BC0822E02083E091B708F091B8081082C8
:102CA000E091B908F091BA0880E180831092C308DE
:102CB000E091BF08F091C00896E09083E091BD08D4
:102CC000F091BE08808180618083E091BD08F09121
:102CD000BE08808188608083E091BD08F091BE08C5
:102CE000808180688083E091BD08F091BE0880817A
:102CF0008F7D8083E0911E08F0911F082083E09172
:102D00001A08F0911B081082E0911C08F0911D0830
:102D10008FEC808310922608E0912208F09123081E
:102D20009083E0912008F091210880818061808368
:102D3000E0912008F0912108808188608083E091F3
:102D40002008F0912108808180688083E09120082C
:102D5000F091210880818F7D808361E08BEA98E08B
:102D60000E94DF03FF24F39453E0D52E62E0E62EA9
:102D700084E090E00E947A248C01DC01DC921196C0
:102D8000EC9211971296FC9212971396EC9244E0F3
:102D900050E0BC018EE098E00E943F030115110550
:102DA00019F0C8010E941625F394BFEFFB12E0CF83
:102DB00010925B0980915609882341F061E00E94DE
:102DC0009F0260E0809156090E947102809157092C
:102DD000882319F062E00E949F028091580988239D
:102DE00041F061E00E949F0261E0809158090E94D9
:102DF00071020E94C00480915B09882321F084EC59
:102E000093E00E946B0A6AE070E080E090E00E942C
:102E1000000310925C0980918C0990EF67969FAF38
:102E2000679721E0AE014A5A5F4F60E10E947B0A3A
:102E3000182F80915B09882361F08CED93E00E944C
:102E4000790A8BE094E0112311F08BE293E00E9469
:102E50006B0A6AE070E080E090E00E94000381E08D
:102E6000111180E080935C0922E08E010F5F1F4FFB
:102E7000A80160E080918C090E942F0BE980FA8004
:102E800080915B098823B1F08DEE93E00E94790A6E
:102E900084E094E0E0E6EE16E1E0FE0649F08EE024
:102EA00094E0F1E6EF16F1E0FF0611F08BE293E01B
:102EB0000E946B0A6AE070E080E090E00E940003EC
:102EC00020E6E21621E0F20609F066C010925D09E4
:102ED00081E080935C0981E00E94EC0A80935C09A8
:102EE0000E94B10B80935C090E94B10B6AE070E014
:102EF00080E090E00E94000380918C099EE066963D
:102F00009FAF669721E0AE014B5A5F4F62E10E948E
:102F10007B0A23E0A8016CE480918C090E942F0BAE
:102F2000F82E898180935E099A8190935F099B8135
:102F300090936009873008F477C091E090935D0921
:102F400090915B099923E1F06AE070E00E941C0B0C
:102F50006AE070E080915F090E941C0B6AE070E0FB
:102F6000809160090E941C0B88E194E00E94790A1C
:102F70008BE094E0FF2011F08BE293E00E946B0A5B
:102F80006AE070E080E090E00E94000381E0F110D0
:102F900080E080935C090BC031E6E31631E0F30674
:102FA00021F481E080935D0994CF10925C098091B7
:102FB0005B09882321F08FE294E00E946B0A8091E4
:102FC0005C09811104C061E081E50E942A0C8091B6
:102FD0005C09811104C061E082E50E942A0C82E054
:102FE0000E94EC0A811104C061E083E50E942A0C72
:102FF0008BEA98E00E949D0343E0C42E892B09F4DC
:10300000B1C78BEA98E00E947B03F82E80916C0692
:1030100081110DC080E88F1520F460E08CE30E94E0
:103020002A0CF0926C06E4CF10925D0989CF809152
:103030006B0687FF04C060E08DE30E942A0CE091DC
:103040006B06EE24E394EE0EE0926B06F0E0E551A1
:10305000FA4FF08280916C06E812CACFF12C61968B
:103060001FAE1EAE619763961FAE1EAE6397659648
:103070001FAE1EAE659750E040E069EF72E0CE01F2
:10308000815B9F4F0E94000E3BEEA32E35E0B32ED6
:10309000D12CC12C470191E0891A9108CE14DF048C
:1030A00014F5D5016D915D01C8010E94210E4D817D
:1030B0005E8169817A81CE01815B9F4F0E94C10D43
:1030C000C8010E94200CC814D9044CF441E050E01F
:1030D00065E574E0CE01815B9F4F0E94C10DBFEF9B
:1030E000CB1ADB0ADBCF60916C06CE0185960E947D
:1030F000210E2B961FAE1EAE2B972D961FAE1EAE29
:103100002D972F961FAE1EAE2F974FE050E063E431
:1031100074E0CE01875B9F4F0E94000EBE016B5D85
:103120007F4FCE01875B9F4F0E94ED0D7C0143E0F6
:1031300050E063E574E00E94C10D811103C0C70136
:103140000E940E0CBE01615B7F4FC7010E94ED0D16
:103150001A8219821C821B821E821D82BC01C80138
:103160000E948F0EC8010E944D0CC8010E94200CC5
:10317000CE01875B9F4F0E94200CCE0185960E9456
:10318000200CF0906C068091EA058111D8C064E1B2
:1031900070E080E090E00E9400038091C809909167
:1031A000C909009711F00E94162586E090E00E9460
:1031B0007A246C0188E3F601808388E499E09283A5
:1031C0008183138280E290E095838483D092C90941
:1031D000C092C8090E94C004EE24E394D60113965D
:1031E000EC92C6010E940306882309F4E9C08AEB29
:1031F00089838091C8099091C909FC012481358196
:10320000232B09F4DDC02081E092EA0720930C080B
:103210001092EB0710920D0841E050E0B8010E94B7
:10322000E805882309F4CCC064E170E080E090E018
:103230000E9400038CEB99E00E94820987FF05C081
:103240006AE070E080E090E0F3CF81EE898388E06F
:103250008A831B828091C8099091C909DC01149668
:103260002D913C9115972330310578F02C9131E068
:103270003093EA0720930C081092EB0710920D0888
:1032800043E050E0B8010E94E8058CEB99E00E9411
:10329000820987FF07C06AE070E080E090E00E944A
:1032A0000003F3CF8CEB99E00E94820983FF88C072
:1032B0008091CC099091CD09009739F0DC01ED9116
:1032C000FC910280F381E02D19958091CA099091BB
:1032D000CB09009739F0DC01ED91FC910280F3817C
:1032E000E02D199586E090E00E947A24FC0189E2A5
:1032F00092E09183808380E290E1938382832CEB40
:10330000C22E29E0D22ED582C482F093CD09E0935B
:10331000CC0986E090E00E947A24FC018BE192E0E7
:103320009183808381E290E193838283D582C482FA
:10333000F093CB09E093CA0981E08093EA0580917C
:10334000EB05813009F0BCC08091EC059FEF980F30
:103350009230D8F5B2E0BF1520F060E08CE00E941A
:103360002A0CD090ED0584E090E00E947A247C0144
:1033700083E0F701808381E08183D2829091EC0524
:10338000913009F080E0D70113968C93E114F10499
:1033900021F460E08DE00E942A0C44E050E0B70187
:1033A0008EE098E00E943F03049721F060E08EE0F9
:1033B0000E942A0CE114F10409F49CC0C7014EC01C
:1033C00061E081E00E942A0CB7CF833009F049C048
:1033D000B3E0BF1520F060E08FE00E942A0CE0907F
:1033E000ED059DEFA92EAF0CECE7EA1520F460E0A7
:1033F00080E10E942A0CB12C4501F4E08F0E911C53
:10340000C4010E947A246C01892B21F460E081E1DF
:103410000E942A0CD601FC9282E011968C9311979F
:103420001296EC92129781E013968C93A5016EEEA2
:1034300075E0C60104960E948026A401B6018EE0C4
:1034400098E00E943F038816990621F060E082E12F
:103450000E942A0CC601CD2809F44CC00E941625F2
:1034600049C0843009F046C0B2E0BF1520F060E0EA
:1034700083E10E942A0CD090ED0585E090E00E9447
:103480007A247C0184E0F701808383E0818381E0FA
:103490008283D38282E08483E114F10421F460E02A
:1034A00084E10E942A0C45E050E0B7018BEA98E0E5
:1034B0000E943F03059709F47DCF60E085E178CF56
:1034C000823009F098C48091EC05811122C0F3E0AC
:1034D000FF1520F060E088E10E942A0C8091ED0544
:1034E0009091EE0560E0992319F0913069F461E064
:1034F0000E949F0210926B0610926C06CE01815BB7
:103500009F4F0E94200C74CD60E089E10E942A0C3C
:10351000F1CF813009F0EFC025E02F1520F060E0F9
:103520008AE10E942A0CD090ED058091EF05E09091
:10353000F005F12C3AE0839FE00CF11C11248091FE
:10354000EE058111D1C061E08D2D0E949F02E11432
:10355000F10429F460E08D2D0E947102CBCF8FEF32
:10356000E816F10411F461E0F6CFED2DF0E0E65439
:10357000FD4FE491E150E23108F0B0C0F0E088275F
:10358000EB53F54E8F4F0C94D821D71ADC1AE11A61
:10359000EB1AF51A6E1BFF1A071B0F1B191B231BB7
:1035A0002D1B3C1B461B6E1B501B5A1B641B84B5FA
:1035B000806884BDE7BC9ECF84B5806284BDE8BCD2
:1035C00099CF80918000806880938000F09289007C
:1035D000E09288008FCF809180008062809380008D
:1035E000F0928B00E0928A0085CF80918000886005
:1035F00080938000F0928D00E0928C007BCF8091D0
:10360000B00080688093B000E092B30073CF8091E7
:10361000B00080628093B000E092B4006BCF8091E4
:103620009000806880939000F0929900E09298005A
:1036300061CF80919000806280939000F0929B0017
:10364000E0929A0057CF809190008860809390001C
:10365000F0929D00E0929C004DCF8091A000806888
:103660008093A0008091A0008F7B8093A000F092B7
:10367000A900E092A8003ECF8091A00080628093D4
:10368000A000F092AB00E092AA0034CF8091A0009D
:1036900088608093A000F092AD00E092AC002ACF49
:1036A00080912001806880932001F0922901E092AE
:1036B000280120CF80912001806280932001F09228
:1036C0002B01E0922A0116CF80912001886080931F
:1036D0002001F0922D01E0922C010CCF90E8E91628
:1036E000F1040CF040CF36CF813011F46E2D33CF82
:1036F00060E08BE10BCF823009F078C0A4E0AF1519
:1037000020F060E08CE10E942A0CF090ED05209101
:10371000EE058091EF05811143C0263308F0265352
:1037200090917B00822F8870977F892B80937B00FC
:103730002770206420937C0080917A0080648093BD
:103740007A0080917A0086FDFCCFA0907800B0903E
:10375000790086E090E00E947A246C0185E0F60111
:10376000808382E081838283F382C5016AE070E016
:103770000E94A22164838583C114D10421F460E0F6
:103780008DE10E942A0C46E050E0B6018BEA98E0F9
:103790000E943F03069709F45DCE60E08EE158CEAB
:1037A00030E0F901E654FD4F8491F901E05AFC4FF5
:1037B000E490F901E65EFC4FD490B12CA12CDD2001
:1037C00009F4C7CF81110E940A02ED2DF0E0EE0F3F
:1037D000FF1FE050FD4FA591B491EC91EE2291E0D6
:1037E00080E009F490E0A92EB82EB3CF843009F020
:1037F0002CC2F3E0FF1520F060E08FE10E942A0C5C
:10380000B090ED05B3E0FB2EEE24E394E091A00927
:10381000F091A109138615861486128611861086EA
:103820001782168215821482138210929E091092BA
:103830009F0962E370E080E090E00E940003BE0117
:103840006B5D7F4F8091A0099091A1090E949A0918
:10385000882309F47AC067E0CE0185960E94890723
:103860009CA58913ECCF80919E098F5F80939E0960
:103870008DA1883231F008F04EC0803111F08232D3
:10388000F1F680919F098F5F80939F09809197093E
:10389000811128C08091A0099091A1090E94460839
:1038A000BE016B5D7F4F8091A0099091A1090E949C
:1038B000270840E064EB8091A0099091A1090E9443
:1038C000F3078091A0099091A1090E94A007D82E2A
:1038D0008091A0099091A1090E944608D11002C0D0
:1038E000E09297098DA1803109F1BE016F5F7F4F92
:1038F000CE0185960E947E08882359F08D819DA176
:103900009B3311F487FD12C08F3391F058F48F313F
:10391000C1F080E00EC08B3309F4B3CF823409F0DC
:103920008ECFAFCF8F3579F08F3799F78CE001C00C
:103930008AE090919A09981708F081CF80939A09AC
:103940007ECF89E0F6CF8BE0F4CF80919E09811184
:1039500003C0FA94F1105ACF8091A0099091A10967
:103960000E94460840E06CEC8091A0099091A1096A
:103970000E94F3074091970964E48091A009909117
:10398000A1090E94F3070E9433036B017C0180911F
:103990009B098823E1F080919C09882309F4E3C006
:1039A000809197098111DFC08091A0099091A109B0
:1039B0000E94A007813059F00E9433036C197D09E1
:1039C0008E099F096E3E72408105910568F38091D2
:1039D0009E09882309F484C0E091A009F091A1090F
:1039E0001386158614861286118610861782168213
:1039F000158214821382BE016B5D7F4F8091A009F6
:103A00009091A1090E949A09882309F469C067E08E
:103A1000CE0185960E9489079CA5891361C0BE01CD
:103A20006F5F7F4FCE0185960E947E08882309F440
:103A300057C08A81412C512C320187FF06C0412C8E
:103A4000512CF8EF6F2E77247A949DA149819B33F6
:103A500009F0B2C02D8127FFAFC040FD41C0C42E88
:103A6000D12CF12CE12C63E0CC0CDD1CEE1CFF1CF6
:103A70006A95D1F7B701A601407E57706627772770
:103A800090E0B0E0A0E06C017D01EBE0CC0CDD1C2F
:103A9000EE1CFF1CEA95D1F7C42AD52AE62AF72A9C
:103AA000C428D528E628F72821E8C21624EED20635
:103AB0002FEFE206F206A4F0C701B6010E947120C2
:103AC00020E030E040E05CE30E94D0206B017C010C
:103AD00020E030E04EEF52EC0E946A2081110AC0D3
:103AE00060E081E20E942A0CC12CD12C2EEFE22E44
:103AF00022ECF22E20E030E040E251E4C701B601B2
:103B00000E94D0200E94BF226B0186E090E00E94BC
:103B10007A247C0185E0D7018C9382E011968C9306
:103B2000119784E012968C9312971396BC92C6015B
:103B30006AE070E00E94A221F70164838583E114AA
:103B4000F10421F460E082E20E942A0C46E050E099
:103B5000B7018BEA98E00E943F03069709F42ACC4C
:103B600060E083E225CCE0919A09E9508EEE92E084
:103B7000E33038F4F0E0EE0FFF1FEF5EFD4F808181
:103B800091816C01F12CE12C80919809882329F016
:103B900060E0809199090E947102C701B6010E94FC
:103BA000000380919809882309F411CF61E0809186
:103BB00099090E9471020BCFC82ED12CDC2CCC2489
:103BC000DD0CDD0CDD0C38E0439FA0011124C42A7C
:103BD000D52A0D2C000CEE08FF08C428D528E628AD
:103BE000F728903109F060CF6885662309F45CCF2F
:103BF00070E08F81DB01A81BB109CD019695982F4C
:103C00008827979587950E94A221CB01770FAA0B51
:103C1000BB0B43E0CC0CDD1CEE1CFF1C4A95D1F71E
:103C2000E0E8CE22E7E0EE22FF24F0E2CF1AD1084E
:103C3000E108F1088C0D9D1DAE1DBF1D73016201D1
:103C4000C82AD92AEA2AFB2A2FCF853009F052CC7C
:103C5000F2E0FF1520F060E084E20E942A0C20913F
:103C6000ED0568962FAF6897A801BE016B5D7F4F89
:103C70008CEB99E00E94FD0F811104C060E085E2A9
:103C80000E942A0C20E030E040E251E46D897E89F8
:103C90008F89988D0E94D0200E94BF224B0120E086
:103CA00030E040E251E469AD7AAD8BAD9CAD0E944D
:103CB000D0200E94BF222B0184E090E00E947A2451
:103CC0007C0183E0D7018C9382E011968C932AE0EB
:103CD00030E0C401B9010E94A221F7016283C20150
:103CE000B9010E94A2216383E114F10421F460E090
:103CF00086E20E942A0C44E050E0B7018BEA98E08B
:103D00000E943F03049721F060E087E20E942A0CA2
:103D1000E114F10419F0C7010E941625B201550CF7
:103D2000880B990B0E94712020E030E040E251E4C2
:103D30000E944D220E94BF226B01B401990C880B96
:103D4000990B0E94712020E030E040E251E40E9493
:103D50004D220E94BF224B01E2EEF5E090E080E0B0
:103D6000219121113EC08E519A4F6896EFAD689710
:103D7000DC01EC939092DE058092DD05D092E005A7
:103D8000C092DF056CE271E086EA9EE00E94F008D6
:103D9000811104C060E081E60E942A0C68E572E0AF
:103DA0008FEA9CE00E94F008811104C060E082E686
:103DB0000E942A0C64E873E083E891E10E94F00815
:103DC000811104C060E083E60E942A0C60EB74E07D
:103DD00080E19DE00E94F00881118CCB60E084E6D8
:103DE00095CB01968830910509F0BACF60E085E562
:103DF0000E942A0CBFCF833009F07CCB8091EC0568
:103E0000813009F077CBF8E0FF1520F060E089EC15
:103E10000E942A0CB090F305A090F105F090F205F5
:103E20009090EF05E090EE058090ED058AE0D801D6
:103E30001D928A95E9F7EDE9F4E0D12CC12C878138
:103E400081112CC060E08E2D0E949F02898281E04A
:103E5000911080E08A83EB822AE08F2D90E0A29E71
:103E6000800D911D11249D838C838B2D90E09F8369
:103E70008E8381E088872C9DD0012D9DB00D11246B
:103E8000A356BB4FF80101900D922A95E1F790914E
:103E90009C0491112FCB80939C042CCBBFEFCB1AA9
:103EA000DB0A3A9620E2C216D10449F623CB809170
:103EB000ED0687FF04C060E087E40E942A0CE091D1
:103EC000ED06FF24F394FE0EF092ED06F0E0E359C8
:103ED000F94FE0828091EE06F81244C081E08F1520
:103EE00020F060E082E30E942A0C80916D06813010
:103EF00009F051C092E09F1520F060E083E30E943A
:103F00002A0CD0906F06A1E060E086E3DA1245C08B
:103F100084E090E00E947A247C01FC01C082D1827E
:103F2000D28280916E068383E114F10421F460E073
:103F300084E30E942A0C44E050E0B7018BEA98E049
:103F40000E943F03049721F060E085E30E942A0C61
:103F5000E114F10419F0C7010E9416251092ED0634
:103F60001092EE068EE098E00E949D03892BC1F02E
:103F70008EE098E00E947B03E82E8091EE0681118E
:103F800096CF30E83E1520F460E086E40E942A0CCB
:103F9000E092EE06E7CF60E087E30E942A0CDECFD6
:103FA0000E9433036B01CB0164E670E00E948E2116
:103FB000892BE1F593E3E92E92E0F92ED7011496CF
:103FC0008C911497882361F012966D917C91C601B3
:103FD0000E948E21892B21F4D701ED91FC91199536
:103FE000B5E0EB0EF11CE3EDEE16E2E0FE0631F774
:103FF0008FEEE82E86E0F82ED70114968C91149758
:10400000882361F012968D919C911397C816D9065A
:1040100028F0ED91FC911995F7011482F5E0EF0E6F
:10402000F11C2FE8E21627E0F20631F70E944C045B
:104030000C94F8178091CA099091CB09009739F038
:10404000DC01ED91FC910280F381E02D19958091C6
:10405000CC099091CD09009739F0DC01ED91FC91EC
:104060000280F381E02D19940895BB274A3031F482
:10407000992322F4BDE2909581959F4F0C944120A5
:10408000BB27FB015527AA27880F991FAA1FA41732
:1040900010F0A41B83955051B9F7A05DAA3308F026
:1040A000A95DA193009779F7B111B1931192CB015A
:1040B0000C945A20DC01FC01672F71917723E1F702
:1040C000329704C07C916D9370836291AE17BF07E5
:1040D000C8F308950E94AC2008F481E00895E894A4
:1040E00009C097FB3EF490958095709561957F4F40
:1040F0008F4F9F4F9923A9F0F92F96E9BB279395EE
:10410000F695879577956795B795F111F8CFFAF4FD
:10411000BB0F11F460FF1BC06F5F7F4F8F4F9F4F2E
:1041200016C0882311F096E911C0772321F09EE88C
:10413000872F762F05C0662371F096E8862F70E0F2
:1041400060E02AF09A95660F771F881FDAF7880FCC
:104150009695879597F90895990F0008550FAA0B22
:10416000E0E8FEEF16161706E807F907C0F012168A
:104170001306E407F50798F0621B730B840B950B8D
:1041800039F40A2661F0232B242B252B21F40895E2
:104190000A2609F4A140A6958FEF811D811D08957F
:1041A0000E94E3200C9454210E94462138F00E9482
:1041B0004D2120F0952311F00C943D210C944321C6
:1041C00011240C9488210E94652170F3959FC1F3FE
:1041D000950F50E0551F629FF001729FBB27F00DB5
:1041E000B11D639FAA27F00DB11DAA1F649F66270A
:1041F000B00DA11D661F829F2227B00DA11D621F59
:10420000739FB00DA11D621F839FA00D611D221F12
:10421000749F3327A00D611D231F849F600D211DF6
:10422000822F762F6A2F11249F5750409AF0F1F079
:1042300088234AF0EE0FFF1FBB1F661F771F881FE2
:1042400091505040A9F79E3F510580F00C943D21BC
:104250000C9488215F3FE4F3983ED4F386957795DC
:104260006795B795F795E7959F5FC1F7FE2B880F88
:10427000911D9695879597F9089597F99F6780E81E
:1042800070E060E008959FEF80EC089500240A94A8
:104290001616170618060906089500240A94121621
:1042A0001306140605060895092E0394000C11F454
:1042B000882352F0BB0F40F4BF2B11F460FF04C001
:1042C0006F5F7F4F8F4F9F4F089557FD9058440F5A
:1042D000551F59F05F3F71F04795880F97FB991F65
:1042E00061F09F3F79F08795089512161306140622
:1042F000551FF2CF4695F1DF08C0161617061806AF
:10430000991FF1CF86957105610508940895E89489
:10431000BB2766277727CB0197F90895AA1BBB1BFC
:1043200051E107C0AA1FBB1FA617B70710F0A61BB5
:10433000B70B881F991F5A95A9F780959095BC01D6
:10434000CD01089597FB072E16F4009407D077FD52
:1043500009D00E948E2107FC05D03EF490958195EE
:104360009F4F0895709561957F4F0895A1E21A2E91
:10437000AA1BBB1BFD010DC0AA1FBB1FEE1FFF1F09
:10438000A217B307E407F50720F0A21BB30BE40B59
:10439000F50B661F771F881F991F1A9469F76095A0
:1043A0007095809590959B01AC01BD01CF0108955A
:1043B000EE0FFF1F881F8BBF0790F691E02D199419
:1043C0005058BB27AA270E94F8210C9454210E9420
:1043D000462138F00E944D2120F039F49F3F19F416
:1043E00026F40C9443210EF4E095E7FB0C943D2158
:1043F000E92F0E94652158F3BA17620773078407F3
:10440000950720F079F4A6F50C9487210EF4E09539
:104410000B2EBA2FA02D0B01B90190010C01CA017E
:10442000A0011124FF27591B99F0593F50F4503E29
:1044300068F11A16F040A22F232F342F4427585F1B
:10444000F3CF469537952795A795F0405395C9F733
:104450007EF41F16BA0B620B730B840BBAF09150EB
:10446000A1F0FF0FBB1F661F771F881FC2F70EC08A
:10447000BA0F621F731F841F48F48795779567955D
:10448000B795F7959E3F08F0B0CF9395880F08F049
:104490009927EE0F9795879508950E9461220C94B5
:1044A00054210E944D2158F00E94462140F029F4E9
:1044B0005F3F29F00C943D2151110C9488210C94FC
:1044C00043210E94652168F39923B1F3552391F3A9
:1044D000951B550BBB27AA2762177307840738F073
:1044E0009F5F5F4F220F331F441FAA1FA9F335D0D0
:1044F0000E2E3AF0E0E832D091505040E695001C84
:10450000CAF72BD0FE2F29D0660F771F881FBB1F3D
:10451000261737074807AB07B0E809F0BB0B802D1B
:10452000BF01FF2793585F4F3AF09E3F510578F047
:104530000C943D210C9488215F3FE4F3983ED4F322
:10454000869577956795B795F7959F5FC9F7880F1B
:10455000911D9695879597F90895E1E0660F771F6D
:10456000881FBB1F621773078407BA0720F0621BFE
:10457000730B840BBA0BEE1F88F7E09508950E9429
:10458000C6226894B1110C94882108950E946D216F
:1045900088F09F5798F0B92F9927B751B0F0E1F004
:1045A000660F771F881F991F1AF0BA95C9F714C0B4
:1045B000B13091F00E948721B1E008950C948721D9
:1045C000672F782F8827B85F39F0B93FCCF38695ED
:1045D00077956795B395D9F73EF49095809570954A
:1045E00061957F4F8F4F9F4F0895FA01EE0FFF1F88
:1045F000309621053105A1F16115710561F480380E
:10460000BFE39B0749F168949038810561F08038D9
:10461000BFEF9B0741F099234AF5FF3FE1053105C4
:10462000210519F1E8940894E795D901AA2329F402
:10463000AB2FBE2FF85FD0F310C0FF5F70F4A695CC
:10464000E0F7F73950F019F0FF3A38F49F779F936D
:104650000DD00F9007FC9058089546F00C9443211C
:1046600060E070E080E89FE308954FE79F775F93F5
:104670004F933F932F930E94F0232F913F914F919F
:104680005F910E94D0200C944D2329F416F00C94D5
:104690003D210C9487210C9443210E946D21A8F3A5
:1046A0009638A0F707F80F92E8942BE33AEA48EB24
:1046B0005FE70E94E6200F920F920F924DB75EB710
:1046C0000F920E943824E4EEF0E00E947F234F9185
:1046D0005F91EF91FF91E595EE1FFF1F49F0FE57A7
:1046E000E0684427EE0F441FFA95E1F74195550B1A
:1046F0000E94B2230F9007FE0C94A6230895DF9327
:10470000CF931F930F93FF92EF92DF927B018C0167
:10471000689406C0DA2EEF010E94E320FE01E894BF
:10472000A5912591359145915591A6F3EF010E94F0
:10473000F821FE019701A801DA9469F7DF90EF9064
:10474000FF900F911F91CF91DF9108959B01AC01D4
:1047500060E070E080E89FE30C944D220C943D21D2
:104760000C946C240E946D21D8F39923C9F3940F03
:10477000511DA3F39150504094F059F0882332F02A
:10478000660F771F881F91505040C1F79E3F51051B
:104790002CF7880F911D9695879597F908955F3F9F
:1047A000ACF0983E9CF0BB27869577956795B795BA
:1047B00008F4B1609395C1F7BB0F58F711F460FF8F
:1047C000E8CF6F5F7F4F8F4F9F4FE3CF0C948821CF
:1047D00016F00C946C240C94432168940C943D21A5
:1047E0000E946D21A8F39923C1F3AEF3DF93CF9319
:1047F0001F930F93FF92C92FDD2788232AF021975B
:10480000660F771F881FDAF720E030E040E85FEBA3
:104810009FE3883920F0803E38F021968F770E9400
:10482000E121ECE0F1E004C00E94E121E9E3F1E0E4
:104830000E947F238B01BE01EC01FB2E6F57710993
:104840007595771F880B990B0E94712028E132E73C
:1048500041E35FE30E94E320AF2D9801AE01FF909A
:104860000F911F91CF91DF910E94F8210C94542158
:10487000FA01DC01AA0FBB1F9B01AC01BF5728F452
:10488000222733274427507820C0B75190F4AB2F0C
:104890000024469537952795011CA395D2F3002057
:1048A00071F0220F331F441FB395DAF30ED00C942E
:1048B000E02161307105A0E88A07B94630F49B0118
:1048C000AC016627772788279078309621F02083DF
:1048D00031834283538308959F3F31F0915020F4F8
:1048E000879577956795B795880F911D96958795CC
:1048F00097F908950F931F93CF93DF93823091051B
:1049000010F482E090E0E091D009F091D10930E01C
:1049100020E0B0E0A0E0309799F42115310509F4CA
:104920004AC0281B390B24303105D8F58A819B8178
:104930006115710589F1FB0193838283FE0111C02A
:10494000408151810281138148175907E0F04817CF
:10495000590799F4109761F012960C9312971396D9
:104960001C933296CF01DF91CF911F910F91089543
:104970000093D0091093D109F4CF2115310551F0DE
:104980004217530738F0A901DB019A01BD01DF018D
:10499000F801C1CFEF01F9CF9093D1098093D009ED
:1049A000CDCFFE01E20FF31F819391932250310985
:1049B00039832883D7CF2091CE093091CF09232B7B
:1049C00041F420910202309103023093CF092093E9
:1049D000CE0920910002309101022115310541F4E8
:1049E0002DB73EB74091040250910502241B350BB0
:1049F000E091CE09F091CF09E217F307A0F42E1B46
:104A00003F0B2817390778F0AC014E5F5F4F241732
:104A1000350748F04E0F5F1F5093CF094093CE09E2
:104A2000819391939FCFF0E0E0E09CCFCF93DF9311
:104A30000097E9F0FC01329713821282A091D0090D
:104A4000B091D109ED0130E020E01097A1F4208170
:104A50003181820F931F2091CE093091CF09281701
:104A6000390709F061C0F093CF09E093CE09DF91D7
:104A7000CF910895EA01CE17DF07E8F54A815B81FF
:104A80009E0141155105B1F7E901FB83EA83499184
:104A90005991C40FD51FEC17FD0761F480819181F6
:104AA0000296840F951FE9019983888382819381FF
:104AB0009B838A83F0E0E0E012968D919C9113979E
:104AC0000097B9F52D913C911197CD010296820F77
:104AD000931F2091CE093091CF092817390739F655
:104AE000309751F51092D1091092D009B093CF09A7
:104AF000A093CE09BCCFD383C28340815181840F60
:104B0000951FC817D90761F44E5F5F4F888199815F
:104B1000480F591F518340838A819B8193838283ED
:104B20002115310509F0B0CFF093D109E093D009F8
:104B30009ECFFD01DC01C0CF13821282D7CF4F92EE
:104B40005F926F927F928F929F92AF92BF92CF921D
:104B5000DF92EF92FF920F931F93CF93DF938C011D
:104B6000009799F4CB01DF91CF911F910F91FF90A6
:104B7000EF90DF90CF90BF90AF909F908F907F90FD
:104B80006F905F904F900C947A24FC01E60FF71F12
:104B90009C0122503109E217F30708F4AEC0D90195
:104BA000CD91DC911197C617D70720F1C530D105FB
:104BB00078F0CE0104978617970750F0C61BD70BE5
:104BC0002297C193D1936D937C93CF010E941625B8
:104BD000C801DF91CF911F910F91FF90EF90DF906F
:104BE000CF90BF90AF909F908F907F906F905F908D
:104BF0004F9008955B01AC1ABD0A4C018C0E9D1EAE
:104C0000A091D009B091D109512C412CF12CE12C6B
:104C1000109731F58091CE099091CF0988159905AB
:104C200009F05CC04616570608F058C08091000293
:104C300090910102009741F48DB79EB74091040214
:104C400050910502841B950BE817F90708F055C031
:104C5000F093CF09E093CE09F90171836083B8CF57
:104C60008D919C91119712966C90129713967C904F
:104C70001397A815B90559F56C0142E0C40ED11C73
:104C8000CA14DB0420F1AC014A195B09DA0112965F
:104C9000159780F06282738251834083D9016D93AE
:104CA0007C93E114F10471F0D7011396FC93EE9319
:104CB00012978ECF22968C0F9D1FF90191838083CE
:104CC000F301EFCFF093D109E093D00981CF4816DB
:104CD000590608F42C017D01D3019ACFCB010E9423
:104CE0007A247C01009749F0AE01B8010E94802629
:104CF000C8010E94162587016BCF10E000E068CF45
:104D0000FB01DC0102C001900D9241505040D8F7E8
:104D10000895FB01DC0101900D920020E1F7089558
:104D2000FB01DC014150504048F001900D92002001
:104D3000C9F701C01D9241505040E0F7089511E0BD
:104D4000C4EDD1E000E006C0802FFE010E94D82112
:104D50002196011DC53DD10780E00807A9F7F89409
:024D6000FFCF83
:104D62000000D2098000AC33007C0A7EAFAFA20003
:104D7200805E00BC007701000000007904280C7AF4
:104D8200043811630F0000000079040C0C7A04420D
:104D920011B20F000000000000000000000000003F
:104DA2000000000000000000000000000000000001
:104DB20000000000000000000000000000000000F1
:104DC20000000000000000000000000000000000E1
:104DD20000000000000000000000000000000000D1
:104DE20000000000000000000000000000000000C1
:104DF20000000000000000000000000000000000B1
:104E020000000000000000000000000000000000A0
:104E12000000000000000000000000000000000090
:104E22000000000000000000000000000000000080
:104E320000000000000000DF033F036C032C049D10
:104E4200037B038F030000000057072A0786070031
:104E5200072307100701070D0A0049324320777222
:104E620069746520616464726573733A20307800F6
:104E7200202D2072656769737465723A203078005C
:104E8200202D202076616C75653A006E6F6B007381
:104E920065744D6F64652829206163746976617455
:104EA2006520726573756C743A2000493243207232
:104EB20065616420616464726573733A20307800BE
:104EC200636C656172436F6D6D616E642829207237
:104ED2006573756C743A2000636C656172436F6D23
:104EE2006D616E642829207374617475733A203081
:104EF20078005374617274206D6561737572656DAB
:104F0200656E74005374617475733A200044617461
:104F1200613A200041485478305F54004148547847
:104F2200305F4800626567696E2829202D2049326A
:104F32004320696E697420646F6E650072657365E3
:104F420074282920726573756C743A200063686551
:104F5200636B506172744944282920726573756CC1
:104F6200743A2000454E53313630206F6B00454E67
:104F720053313631206F6B006765744669726D7705
:104F8200617265282920726573756C743A20004538
:104F92004E5331363020696E2069646C65206D6F26
:104FA20064650052656164696E67207061636B6558
:084FB200742800293A200000D8
:00000001FF
