:100000000C94D5010C9406020C9406020C94060282
:100010000C9406020C9406020C9406020C94060240
:100020000C9406020C9406020C9406020C94060230
:100030000C9406020C9406020C9406020C94060220
:100040000C9406020C9406020C9406020C94060210
:100050000C9406020C9406020C9406020C948B106D
:100060000C9406020C945F110C9435110C9406024A
:100070000C9406020C9406020C9406020C940602E0
:100080000C9406020C9406020C9406020C940602D0
:100090000C94FF100C94D5100C9406020C9495113E
:1000A0000C9406020C9406020C9406020C940602B0
:1000B0000C9406020C9406020C9406020C940602A0
:1000C0000C9406020C9406020C9406020C94060290
:1000D0000C9406020C9406020C9406020C94060280
:1000E0000C94060207634236B79BD8A71A396856A4
:1000F00018AEBAAB558C1D3CB7CC5763BD6DEDFD4A
:10010000753EF6177231BF000000803F0800000006
:10011000BE922449123EABAAAA2ABECDCCCC4C3EFC
:1001200000000080BEABAAAAAA3E00000000BF00EB
:100130000000803F0000000000084178D3BB4387E7
:10014000D1133D190E3CC3BD4282AD2B3E68EC82FB
:1001500076BED98FE1A93E4C80EFFFBE01C4FF7F80
:100160003F00000000000C94210D0C94C4170C9467
:10017000F7170C944C180C94E7170C943D020C9450
:100180006F1B0C94DD170C944D020C9447020C94D9
:100190005F020C9409020C94EF170C9456180C94FF
:1001A000B9120C9415180C9443020C942E180C944C
:1001B0000B180C9410070C9455020C9463020C94C9
:1001C0002A070C9486070C942E020C94580C0C945D
:1001D0007A040C94B90C0C94020F0C947B030C94CD
:1001E0008F030C9469020C94720D0C9428020C94E9
:1001F00051020C9436020C949D030C946C030C94E5
:10020000230D0C9423070C94BB0C0C943F030C940B
:1002100038180C946D020C943A020C9442180C9409
:10022000EB0A0C9457070C94D3170C9432020C94DD
:100230002C040C9401070C9424180C9401180C94B1
:10024000DF030C9400070C9479040C9408020C94BE
:10025000BF170C945B020C94430F0C94C9170C94B9
:10026000F80E0C946802005EBCE2613FDD83C29C24
:100270007E20A3FD1F41009D23BE46DB65F88C1147
:10028000AF32CA57E97400002100240027002A0079
:100290002D003000330001010000040107010A01B4
:1002A00000002200250028002B002E003100340021
:1002B00002010000050108010B0100000A0B020900
:1002C0000C0D0E08070304010000000000000000F0
:1002D000000000000000000000000000000000001E
:1002E00000000000000012111000000000000000DB
:1002F00000000000000000000000000000000000FE
:10030000000020002300260029002C002F003200CE
:1003100000010000030106010901050505050705A7
:1003200008080808020202020A0A08080404040471
:10033000010101010101010103030303030303039D
:10034000040707070C0C0C0C0C0C0C0C020202022C
:1003500006060606060606060B0B0B0B0B0B0B0B15
:1003600001021020200808102040102040800201C7
:1003700002010804020101020408102040808040AC
:1003800020100804020180040201804020100804AB
:100390000201080402010102040810204080010249
:1003A000040810204080B9126F1B11241FBECFEF2C
:1003B000D1E2DEBFCDBF00E00CBF13E0A0E0B2E0B1
:1003C000EEE6F1E400E00BBF02C007900D92AC39FD
:1003D000B107D9F727E0ACE9B3E001C01D92A53819
:1003E000B207E1F711E0C4EDD1E000E006C02197CB
:1003F0000109802FFE010E94D41BC33DD10780E07C
:100400000807A9F70E948A130C94A5200C940000F9
:10041000089508958150823108F05AC0E82FF0E025
:100420008827EA5EFD4F8F4F0C94D41B36023A02A8
:1004300028022E02320268023D02430247024D02A8
:10044000510255025B025F026802630269026D029B
:10045000809180008F778093800008958091800044
:100460008F7DF9CF80918000877FF5CF84B58F771E
:1004700084BD089584B58F7DFBCF8091B0008F77C8
:100480008093B00008958091B0008F7DF9CF809166
:1004900090008F77809390000895809190008F7DD9
:1004A000F9CF80919000877FF5CF8091A0008F7762
:1004B0008093A00008958091A0008F7DF9CF809156
:1004C000A000877FF5CF809120018F778093200156
:1004D0000895809120018F7DF9CF80912001877F41
:1004E000F5CF1F93CF93DF93282F30E0F901E65427
:1004F000FD4F8491F901E05AFC4FD491F901E65E79
:10050000FC4FC491CC23A9F0162F81110E940A023E
:10051000EC2FF0E0EE0FFF1FE056FD4FA591B491D8
:100520008FB7F894EC91111108C0D095DE23DC93BD
:100530008FBFDF91CF911F910895DE2BF8CFCF931E
:10054000DF9390E0FC01E05AFC4F2491865E9C4FC3
:10055000FC0184918823C9F090E0880F991FFC0169
:10056000EA57FD4FA591B491FC01E056FD4FC591AE
:10057000D49161110DC09FB7F8948C91209582237E
:100580008C938881282328839FBFDF91CF91089582
:10059000623051F49FB7F8943C91822F8095832369
:1005A0008C93E8812E2BEFCF8FB7F894EC912E2B04
:1005B0002C938FBFEACF3FB7F89480914705909175
:1005C0004805A0914905B0914A0526B5A89B05C0EC
:1005D0002F3F19F00196A11DB11D3FBFBA2FA92FC2
:1005E000982F8827BC01CD01620F711D811D911DBF
:1005F00042E0660F771F881F991F4A95D1F708952B
:100600008F929F92AF92BF92CF92DF92EF92FF9222
:100610006B017C010E94DB024B015C01C114D1041F
:10062000E104F104B9F00E94DB02681979098A0932
:100630009B09683E73408105910580F321E0C21A51
:10064000D108E108F10888EE880E83E0981EA11C0D
:10065000B11CE4CFFF90EF90DF90CF90BF90AF90B0
:100660009F908F9008952FB7F894609143057091F3
:10067000440580914505909146052FBF0895AF929E
:10068000BF92CF92DF92EF92FF920F931F93CF937F
:10069000DF936C017B018B01040F151FEB015E01E1
:1006A000AE18BF08C017D10759F06991D601ED9176
:1006B000FC910190F081E02DC6011995892B79F705
:1006C000C501DF91CF911F910F91FF90EF90DF90C7
:1006D000CF90BF90AF900895FC01538D448D252F8E
:1006E00030E0842F90E0821B930B541710F0CF96CC
:1006F000089501970895FC01918D828D981761F0FE
:10070000A28DAE0FBF2FB11D5D968C91928D9F5F14
:100710009F73928F90E008958FEF9FEF0895FC01F3
:10072000918D828D981731F0828DE80FF11D858DA6
:1007300090E008958FEF9FEF0895FC01918D228D39
:10074000892F90E0805C9F4F821B91098F739927BE
:10075000089581EC95E00E949D0321E0892B09F426
:1007600020E0822F08958EE596E00E949D0321E00F
:10077000892B09F420E0822F0895FC01A48DA80F95
:10078000B92FB11DA35ABF4F2C91848D90E00196D3
:100790008F739927848FA689B7892C93A089B189F3
:1007A0008C91837080648C93938D848D981306C094
:1007B0000288F389E02D80818F7D80830895EF92F8
:1007C000FF920F931F93CF93DF93EC0181E0888F0B
:1007D0009B8D8C8D98131AC0E889F989808185FFDB
:1007E00015C09FB7F894EE89FF896083E889F9897D
:1007F00080818370806480839FBF81E090E0DF917F
:10080000CF911F910F91FF90EF900895F62E0B8DD1
:1008100010E00F5F1F4F0F731127E02E8C8D8E118C
:100820000CC00FB607FCFACFE889F989808185FFF3
:10083000F5CFCE010E94BD03F1CFEB8DEC0FFD2F64
:10084000F11DE35AFF4FF0829FB7F8940B8FEA89AE
:10085000FB8980818062CFCFCF93DF93EC01888DBD
:100860008823B9F0AA89BB89E889F9898C9185FD2B
:1008700003C0808186FD0DC00FB607FCF7CF8C91B9
:1008800085FFF2CF808185FFEDCFCE010E94BD03B1
:10089000E9CFDF91CF91089580E090E0892B29F096
:1008A0000E94B30381110E94000080E090E0892B38
:1008B00029F00E94A90381110E94000080E090E0CD
:1008C000892B49F080E090E0892B29F00E940000FC
:1008D00081110E94000080E090E0892B49F080E0C7
:1008E00090E0892B29F00E94000081110C940000F7
:1008F0000895089508952091BD03260F3327331FCF
:1009000021323105ECF420919705FC0190E080E064
:10091000243069F082E00895A091BD032191AC01DB
:1009200043565C4FA40FB52FB11D2C93019686172B
:1009300098F38091BD03680F6093BD0380E0089534
:1009400081E008951092970581E0809396051092BA
:10095000710561E084E10E94710261E085E10E941D
:100960007102E9EBF0E080818E7F808380818D7F52
:10097000808388E48093B80085E48093BC00089568
:100980001092500510924F0510929E051092C005CE
:100990000E94A20488E092E090934E0580934D055A
:1009A00089E092E090934C0580934B050895CF9396
:1009B000DF9391E090939C038823B9F0C091B80035
:1009C000D091BA008091BC008A7B8093BC0060E02B
:1009D00084E10E94710260E085E10E9471020E9440
:1009E000A204D093BA00C093B800DF91CF910895CC
:1009F0008F929F92AF92BF92CF92DF92EF92FF922F
:100A00000F931F93CF93DF93D091C005D13208F09D
:100A1000D7C0182FC091BF050E94DB026B017C017B
:100A20008091970581116BC082E0809397051093A8
:100A300096058FEF8093950510929405D0939305BA
:100A4000AFE9B5E0E3E7F5E080E0D81391C010929C
:100A5000720580917205CC0FC82BC09372058091EE
:100A60007105813009F088C0109271050E94DB0287
:100A70006B017C01809172058093BB008091990588
:100A800090919A05A0919B05B0919C05892B8A2B8A
:100A90008B2BA1F00E94DB020091990510919A0521
:100AA00020919B0530919C056C197D098E099F0949
:100AB000061717072807390708F442C08091BC00C1
:100AC00083FDD8CF85EC8093BC000E94DB026B01D4
:100AD0007C0180919705823009F450C08091950582
:100AE0008F3F09F46FC080919505803209F46CC086
:100AF00080919505803309F469C084E026C0809117
:100B0000990590919A05A0919B05B0919C05892B20
:100B10008A2B8B2B09F484CF0E94DB0280909905ED
:100B200090909A05A0909B05B0909C056C197D094A
:100B30008E099F0986169706A806B90608F070CF99
:100B4000809198050E94D70485E010929E0510922E
:100B5000C00510929D05DF91CF911F910F91FF90DD
:100B6000EF90DF90CF90BF90AF909F908F900895BF
:100B70009D9191938F5F69CF85EEA5CF8091990567
:100B800090919A05A0919B05B0919C05892B8A2B89
:100B90008B2B09F49ECF0E94DB02009199051091E6
:100BA0009A0520919B0530919C056C197D098E0951
:100BB0009F09061717072807390708F08ACFC0CF03
:100BC00081E0C3CF80E0C1CF82E0BFCF83E0BDCF63
:100BD000CF93DF93EA01DC0111968D919C91DC01AA
:100BE000ED91FC910280F381E02D1995C817D9078A
:100BF00029F481E00E94F80491E0811190E0892FAE
:100C0000DF91CF910895CF93DF93EC018B818823FF
:100C1000A1F0888191E090939D058093BF0510928B
:100C20009E051092C00581E00E94F80491E08111B8
:100C300090E0892FDF91CF9108950E94C00481E058
:100C40008B83CE010E940306982F8111E2CFF1CF52
:100C50008F929F92AF92BF92CF92DF92EF92FF92CC
:100C60000F931F93CF93DF93D82FC62F142F61328A
:100C700008F09CC00E94DB026B017C01809197050B
:100C800081116FC081E080939705109396059FEFC7
:100C900090939505109294059C0F909393058093E3
:100CA000720580917205DD0FD82BD093720580916B
:100CB0007105813009F07CC0109271050E94DB0241
:100CC0006B017C01809172058093BB008091990536
:100CD00090919A05A0919B05B0919C05892B8A2B38
:100CE0008B2BA1F00E94DB020091990510919A05CF
:100CF00020919B0530919C056C197D098E099F09F7
:100D0000061717072807390708F44CC08091BC0064
:100D100083FDD8CF85EC8093BC000E94DB026B0181
:100D20007C0180919705813009F444C0809194053D
:100D30008C1710F4C0919405E3E7F5E0A1E5B5E068
:100D400080E08C1359C08C2FDF91CF911F910F91B0
:100D5000FF90EF90DF90CF90BF90AF909F908F90DB
:100D600008958091990590919A05A0919B05B09165
:100D70009C05892B8A2B8B2B09F480CF0E94DB02E8
:100D80008090990590909A05A0909B05B0909C0545
:100D90006C197D098E099F0986169706A806B90663
:100DA00008F06CCF809198050E94D704C0E0CBCFAB
:100DB00085EEB1CF8091990590919A05A0919B0500
:100DC000B0919C05892B8A2B8B2B09F4AACF0E940A
:100DD000DB020091990510919A0520919B053091B5
:100DE0009C056C197D098E099F09061717072807AE
:100DF000390708F096CFD6CF91919D938F5FA1CF01
:100E00000895E091500580914F05E81730F4F0E027
:100E1000EF5AFA4F808190E008958FEF9FEF089589
:100E20009091500580914F052FEF3FEF981748F4B0
:100E3000E92FF0E0EF5AFA4F208130E09F5F909366
:100E40005005C901089580914F0590915005891B67
:100E5000990B0895CF92DF92EF92FF920F931F9319
:100E6000CF93DF937C01CB018A0120919D05222342
:100E700089F0EB016B01C40ED51ECC15DD0569F0C0
:100E80006991D701ED91FC910190F081E02DC701AE
:100E90001995F3CF642F0E947B04C801DF91CF9195
:100EA0001F910F91FF90EF90DF90CF900895CF9317
:100EB000DF931F92CDB7DEB7698320919D05222372
:100EC000F9F02091C005203258F021E030E0FC011B
:100ED0003383228390E080E00F90DF91CF910895DB
:100EE00080919E05E82FF0E0E156FA4F99819083BA
:100EF0008F5F80939E058093C00581E090E0ECCFEA
:100F000061E0CE0101960E947B04F7CF90E080E083
:100F10000895DC0180E0615090F09D919827E92FC1
:100F2000EF70F0E0EA59FD4F2491E92FE295EF7060
:100F3000F0E0EA58FD4FE491822F8E27ECCF089520
:100F4000DC012C911196ED91FC91F8948181822B1A
:100F500081839281322F30959323928387E090E0B2
:100F60000197F1F781818323818383E290E00197E8
:100F7000F1F790817894EFECF0E03197F1F792235C
:100F800081E009F480E00895FC0190810180F28104
:100F9000E02D292F209560FF14C0F89482818223D0
:100FA00082838181892B8183A3E2B0E01197F1F7DD
:100FB0008281982B9283789487ED90E00197F1F7E6
:100FC0000895F8948281822382838181892B818391
:100FD000AFEFB0E01197F1F78281982B928378946C
:100FE0008FE090E0EBCFDF92EF92FF920F931F9391
:100FF000CF93DF93EC01D62EE42E08E010E0FF241F
:10100000F39461E08D2D8F2109F460E0CE010E9400
:10101000C407FF0C01501109A1F7E11010C0F894AA
:10102000E981FA8191818881809589238183E98191
:10103000FA81928188818095892382837894DF91D7
:10104000CF911F910F91FF90EF90DF900895EF9255
:10105000FF920F931F93CF93DF938C017B0140E0AE
:1010600065E50E94F307E70188E0E80EF11C69914D
:1010700040E0C8010E94F307CE15DF05C1F7DF91FC
:10108000CF911F910F91FF90EF900895FC019081F7
:101090000180F281E02DF8948181292F209582230F
:1010A000818378943DE743E050E0315029F1DA0143
:1010B0001197F1F780818923C1F3F894828182230B
:1010C00082838181892B81837894ABE7B7E0119784
:1010D000F1F7F894818182238183A3E1B1E0119734
:1010E000F1F78081982381E009F080E07894E3E6CD
:1010F000F6E03197F1F7089580E008956F927F92BE
:101100008F929F92AF92BF92CF92DF92EF92FF9217
:101110000F931F93CF93DF938C01EB0180915307C3
:10112000909154070E944608882309F43FC0B801F3
:1011300080915307909154070E94270840E06EEB7E
:1011400080915307909154070E94F3077E016E012E
:1011500089E0C80ED11C8E01A0905307B0905407AF
:1011600088E0882E912C712C66246394C5010E941E
:10117000A00781117628660CE1E08E1A9108B1F77C
:10118000F80171928F01CE16DF0631F78091530777
:10119000909154070E944608813041F4F7018191F3
:1011A0007F01811105C0E017F107C1F790E008C089
:1011B00068E0CE010E94890791E028852813F6CFC8
:1011C000892FDF91CF911F910F91FF90EF90DF90CA
:1011D000CF90BF90AF909F908F907F906F90089529
:1011E0000F931F93CF93DF93EC018B010E94330386
:1011F000E2EFF4E050E040E02481211115C025E049
:10120000249FF001259FF00D1124EE50FB4FD18358
:10121000C083060F171F1383028381E08483DF914D
:10122000CF911F910F9108954F5F5F4F35964830D2
:10123000510511F7F4CF6F927F928F929F92AF92E8
:10124000BF92CF92DF92EF92FF920F931F93CF93B3
:10125000DF936C013B017A0110E000E0D6011496A7
:101260008D919C91E701C01BD10B8C179D0708F451
:10127000EC0141E0C7018C1B9D0B0817190708F40E
:1012800040E06C2FC13208F060E2F60180810E94DC
:1012900028061092500580934F058C171D0679F58E
:1012A0004301800E911E5401C501881999098C17BC
:1012B0009D0778F4D60111968D919C91DC01ED91FA
:1012C000FC910284F385E02D1995F50181935F016E
:1012D000EBCF0C0F1D1F0E151F0508F4BFCF81E0CB
:1012E000DF91CF911F910F91FF90EF90DF90CF9002
:1012F000BF90AF909F908F907F906F90089580E007
:10130000EFCFCF93DF931F92CDB7DEB741E050E030
:10131000BE016F5F7F4FFC01848595850E941B098C
:10132000882329F089810F90DF91CF9108958FEF65
:10133000FACFBF92CF92DF92EF92FF920F931F935B
:10134000CF93DF93EC01B62EC72E8D85811105C09A
:10135000CE010E94460881110EC01B861D861C8688
:1013600080E0DF91CF911F910F91FF90EF90DF9080
:10137000CF90BF90089540E060EFCE010E94F30748
:1013800001E0E12CD12C11E0CE010E94A007F82E43
:10139000CE010E94A00791E0F91218C0813099F5A2
:1013A0001134D8F2DB86D11002C081E08D878B81A9
:1013B000882399F22396EB2DFC2DCF0108962991D5
:1013C0002193E817F907D9F781E0CBCFEE2DF0E0B4
:1013D000F8120FC08B851817A0F4DE01AE0FBF1FE7
:1013E00013968C91802379F4F12C193008F41C8722
:1013F000D12EEC0FFD1F8381902F9095892383833D
:101400000AC08113F1CFFE01EE0DF11D8381802B07
:101410008383FF24F3946F2DCE010E94C4071F5FC6
:10142000000F11F4E39401E087E08E1508F0ACCFD3
:10143000B7CFFC0101900020E9F73197AF01481BBD
:10144000590BBC018EE596E00C943F038F929F925E
:10145000AF92BF920F931F93CF93DF93CDB7DEB7B9
:10146000A1970FB6F894DEBF0FBECDBF19A24230D0
:1014700008F44AE08E010F5D1F4F842E912CB12C91
:10148000A12CA50194010E94B21BE62FB901CA014B
:10149000EA30F4F4E05DD801EE938D01232B242B88
:1014A000252B79F790E080E0109719F0CD010E948C
:1014B000190AA1960FB6F894DEBF0FBECDBFDF911B
:1014C000CF911F910F91BF90AF909F908F900895F3
:1014D000E95CE1CFCF93DF930E94190AEC0187E525
:1014E00092E00E94190A8C0F9D1FDF91CF91089501
:1014F0000C94190ACF92DF92EF92FF920F931F93F1
:10150000CF93DF93C82ED62E8A0180910E07C22F6B
:10151000D0E0882399F18AE592E00E94780A6C2D48
:1015200070E090E080E040E10E94260A80E792E0CF
:101530000E94780A6D2D70E090E080E040E10E940A
:10154000260A80E892E00E94780A7801C701801B91
:10155000910B8C179D0774F48CE792E00E94780A37
:10156000D7016D917D0170E090E080E040E10E9444
:10157000260AECCF87E592E00E94190A80910707BE
:101580009091080721E020939D05C092BF0510921D
:101590009E051092C005DC01ED91FC910190F08157
:1015A000E02D6D2D19958091070790910807DC01BA
:1015B000ED91FC910280F381E02DAE01B801199507
:1015C00081E0DF91CF911F910F91FF90EF90DF901D
:1015D000CF900C94F804EF92FF920F931F93CF9348
:1015E000DF9300D01F92CDB7DEB708EE13E0F8010D
:1015F00060817181072E000C880B990B0E94811C61
:1016000023E333E948E853E40E94DD1B20E030E0A7
:1016100040E852E40E940D1D0E94501C7B01F8011D
:1016200062817381072E000C880B990B0E94811C2C
:1016300020E030E040E054E40E940D1D0E94501C68
:10164000E982FA826B837C8324E0AE014F5F5F4FB7
:1016500063E180913F070E947A0A0F900F900F90EC
:101660000F90DF91CF911F910F91FF90EF90089510
:101670001F93CF93DF931F92CDB7DEB790913F07B3
:10168000898321E0AE014F5F5F4F60E1892F0E94A7
:101690007A0A182F80910E07882361F08FE892E074
:1016A0000E94780A8BE892E0111102C084E693E070
:1016B0000E946A0A6AE070E080E090E00E94000305
:1016C00081E0111180E00F90DF91CF911F9108957B
:1016D000CF93DF93462F682F70E090E080E00E9468
:1016E000260AEC0187E592E00E94190A8C0F9D1FE3
:1016F000DF91CF9108956F927F928F929F92AF92D8
:10170000BF92CF92DF92EF92FF920F931F93CF93EE
:10171000DF93E82E962E6A01822E80910E07882391
:10172000A1F08BEA92E00E94780A6E2D70E090E0C2
:1017300080E040E10E94260A80E792E00E94780A59
:1017400060E170E0892D0E94680BC0E077247394FB
:10175000D82DDC1BD13208F0D0E2809107079091A0
:10176000080770929D05E092BF0510929E051092A9
:10177000C005DC01ED91FC910190F081E02D692D17
:101780006C0F199581E00E94F804682E41E06D2FDE
:101790008E2D0E9428061092500580934F0510E070
:1017A00000E0AD2EB12CFC2EF00E0A151B059CF0AE
:1017B000CD0FC81568F2862DDF91CF911F910F9143
:1017C000FF90EF90DF90CF90BF90AF909F908F9061
:1017D0007F906F9008958091070790910807DC0132
:1017E000ED91FC910284F385E02D1995F601EF0D42
:1017F000F11D80830F5F1F4FD6CF0F931F93CF93A1
:10180000DF9300D0CDB7DEB780913F071A8221E089
:10181000AE014E5F5F4F62E10E947A0A80913F07FE
:101820009CEC9B8321E0AE014D5F5F4F62E10E9423
:101830007A0A182F80910E07882361F080EC92E0DD
:101840000E94780A8BE892E0111102C084E693E0CE
:101850000E946A0A6AE070E080E090E00E94000363
:1018600021E0AE014F5F5F4F60E280913F070E9431
:101870007B0B098180910E07882349F088ED92E067
:101880000E94780A60E170E0802F0E94680B6AE095
:1018900070E080E090E00E94000381E0111180E0A0
:1018A0000F900F900F90DF91CF911F910F9108959E
:1018B0001F93CF93DF9300D000D01F921F92CDB71C
:1018C000DEB780910E07882321F082EF92E00E941C
:1018D0006A0A61E070E080E090E00E94000321E08D
:1018E000AE014F5F5F4F60E280913F070E947B0B2C
:1018F000198180910E07882349F084E093E00E94CB
:10190000780A6AE070E0812F0E94680B11FFE1CF36
:1019100027E0AE014F5F5F4F61E280913F070E9479
:101920007B0B8981809316078A819B81909318078E
:10193000809317078C819D8190931A0780931907D4
:1019400080911007882381F08E819F8190931C07DE
:1019500080931B0728960FB6F894DEBF0FBECDBF4D
:10196000DF91CF911F91089510921C0710921B07D1
:10197000F1CF0C940D207F928F929F92AF92BF92E5
:10198000CF92DF92EF92FF920F931F93CF93DF934B
:10199000A0901607E0911707F0911807809119079A
:1019A00090911A072AE030E0B9010E949E1BF62EA2
:1019B000E82ECF01B9010E949E1BD62EC82E00EE44
:1019C00013E08AE0982E92E0892E25E0722EF8012D
:1019D000B1908F01BB2019F18BE090E00E94711F44
:1019E000EC01988289827A82BB828091E8038C83A1
:1019F0008091EA038D83AE82FF82E886D986CA860B
:101A00004BE050E0BE018EE596E00E943F03209738
:101A100019F0CE010E940D20F80131971082F3E0F9
:101A2000083E1F07A1F6DF91CF911F910F91FF9004
:101A3000EF90DF90CF90BF90AF909F908F907F906E
:101A400008950C940D200F931F93CF93DF938C0177
:101A5000EB0188E2FB0111928A95E9F74BE050E037
:101A60006DE073E0CE010E9496201B8681E090E03D
:101A7000A0E0B0E08C879D87AE87BF87F8018281A8
:101A80009381092E000CAA0BBB0B888B998BAA8B18
:101A9000BB8B8DE090E0A0E0B0E08C8B9D8BAE8B9B
:101AA000BF8B1CA21DA21EA21FA280E090E0A0E29C
:101AB000B2EC8C8F9D8FAE8FBF8F80E090E0AAEA52
:101AC000B2E4888F998FAA8FBB8F8AE999E9A9E937
:101AD000BEE388A399A3AAA3BBA3DF91CF911F91D3
:101AE0000F9108950F931F93CF93DF938C01EB0118
:101AF00088E2FB0111928A95E9F74BE050E065E13D
:101B000073E0CE010E9496201B8681E090E0A0E069
:101B1000B0E08C879D87AE87BF87F8018281938173
:101B2000092E000CAA0BBB0B888B998BAA8BBB8B45
:101B30008CE090E0A0E0B0E08C8B9D8BAE8BBF8BF7
:101B40001CA21DA21EA21FA21C8E1D8E1E8E1F8EE9
:101B500080E090E0A8ECB2E4888F998FAA8FBB8FC9
:101B600080E090E0A0E0B0E488A399A3AAA3BBA37F
:101B7000DF91CF911F910F9108954F925F926F92D5
:101B80007F92AF92BF92CF92DF92EF92FF920F932C
:101B90001F93CF93DF9300D000D000D0CDB7DEB736
:101BA0008C017B016A010E9433032B013C0180916F
:101BB000060290910702A09108028F839887A98757
:101BC000D8011C968D919C91FC0124813581233094
:101BD0003105B8F4B12C8B2D29960FB6F894DEBFE1
:101BE0000FBECDBFDF91CF911F910F91FF90EF906E
:101BF000DF90CF90BF90AF907F906F905F904F90AD
:101C00000895208131E030939D052093BF05109207
:101C10009E051092C00543E050E0BE01695F7F4F12
:101C20000E94E8058823B1F2C8010E94810987FF5C
:101C300007C06AE070E080E090E00E940003F4CF0B
:101C400046E050E0BE016F5F7F4FF80184859585C7
:101C50000E941B09B82E882309F4BCCF6A817B81BE
:101C6000762767277627CB01B0E0A0E09C01AD0185
:101C700084E0220F331F441F551F8A95D1F7AC8093
:101C80008A2D90E064E0959587956A95E1F7092E95
:101C9000000CAA0BBB0BBC01CD01622B732B842B58
:101CA000952B0E947F1C20E030E048EC52E40E941B
:101CB0000D1D20E030E040E855E30E940D1DD801E5
:101CC00014966D937D938D939C9317976A2D6F70E7
:101CD00070E090E080E0982F872F762F66272D8187
:101CE000622B982F872F762F66272E81622B0E94DA
:101CF0007F1C20E030E048E453E40E940D1D20E00A
:101D000030E040E855E30E940D1D20E030E048E45B
:101D100052E40E94DC1BF801608371838283938309
:101D2000C114D10481F1F601349680E2DF011D92E5
:101D30008A95E9F784E290E0A0E0B0E0F6018083C4
:101D40009183A283B383D8011A968D919C91B0E0C0
:101D5000A0E084839583A683B7838DE090E0A0E024
:101D6000B0E080879187A287B387408A518A628AD0
:101D7000738AF80180819181A281B381F601848BFD
:101D8000958BA68BB78BE114F10409F424CFF701EE
:101D9000349680E2DF011D928A95E9F784E290E0B3
:101DA000A0E0B0E0F70180839183A283B383D801E0
:101DB00018968D919C91B0E0A0E084839583A683D2
:101DC000B7838DE090E0A0E0B0E080879187A287A4
:101DD000B387408A518A628A738AF8018481958127
:101DE000A681B781F701848B958BA68BB78BF3CE39
:101DF000AB0170E060E0FC01848195810E94BD0D23
:101E000081E0089550E040E0FC01848195810E94CA
:101E1000BD0D81E0089585ED8093BC00809199050A
:101E200090919A05A0919B05B0919C050796A11DE4
:101E3000B11D23E0B695A795979587952A95D1F77B
:101E40002091BC0024FD03C0109297050895409195
:101E5000990550919A0560919B0570919C05452BC1
:101E6000462B472B69F30097A105B10541F02AE203
:101E70002A95F1F700C00197A109B109E1CF80913E
:101E800098050C94D7041F93CF93DF9300D000D014
:101E90001F921F92CDB7DEB780910E07882321F0E5
:101EA00082EF92E00E946A0A61E070E080E090E0D8
:101EB0000E94000321E0AE014F5F5F4F60E280911E
:101EC0003F070E947B0B198180910E07882349F000
:101ED00084E093E00E94780A6AE070E0812F0E941B
:101EE000680B10FFE1CF28E0AE014F5F5F4F68E461
:101EF00080913F070E947B0B69817A8190E080E0AE
:101F00000E947F1C20E030E040E05AE30E940D1D5B
:101F10009B01AC0160E070E080E090E40E947A1DDB
:101F20000E94501C60931D0770931E0780931F072B
:101F3000909320076B817C8190E080E00E947F1C61
:101F400020E030E040E05AE30E940D1D9B01AC010F
:101F500060E070E080E090E40E947A1D0E94501CD6
:101F6000609325077093260780932707909328078F
:101F70006D817E8190E080E00E947F1C20E030E057
:101F800040E05AE30E940D1D9B01AC0160E070E04F
:101F900080E090E40E947A1D0E94501C60932D07FF
:101FA00070932E0780932F07909330076F81788569
:101FB00090E080E00E947F1C20E030E040E05AE3A7
:101FC0000E940D1D9B01AC0160E070E080E090E498
:101FD0000E947A1D0E94501C60933507709336074B
:101FE000809337079093380728E0AE014F5F5F4F2B
:101FF00068E280913F070E947B0B69817A8190E0C3
:1020000080E00E947F1C20E030E040E05AE30E9424
:102010000D1D9B01AC0160E070E080E090E40E9447
:102020007A1D0E94501C60932107709322078093B1
:102030002307909324076B817C8190E080E00E94CD
:102040007F1C20E030E040E05AE30E940D1D9B0120
:10205000AC0160E070E080E090E40E947A1D0E9494
:10206000501C6093290770932A0780932B07909345
:102070002C076D817E8190E080E00E947F1C20E033
:1020800030E040E05AE30E940D1D9B01AC0160E08E
:1020900070E080E090E40E947A1D0E94501C6093E2
:1020A00031077093320780933307909334076F8121
:1020B000788590E080E00E947F1C20E030E040E0E6
:1020C0005AE30E940D1D9B01AC0160E070E080E0CE
:1020D00090E40E947A1D0E94501C6093390770930F
:1020E0003A0780933B0790933C0721E0AE014F5F96
:1020F0005F4F68E380913F070E947B0B898180934B
:10210000410728960FB6F894DEBF0FBECDBFDF9112
:10211000CF911F9108951F920F920FB60F92112425
:102120002F933F938F939F93AF93BF9380914305DA
:1021300090914405A0914505B09146053091420526
:1021400023E0230F2D3758F50196A11DB11D2093D3
:1021500042058093430590934405A0934505B093B1
:1021600046058091470590914805A0914905B09199
:102170004A050196A11DB11D80934705909348051E
:10218000A0934905B0934A05BF91AF919F918F915C
:102190003F912F910F900FBE0F901F90189526E83A
:1021A000230F0296A11DB11DD2CF1F920F920FB621
:1021B0000F9211240BB60F922F933F934F935F937F
:1021C0006F937F938F939F93AF93BF93EF93FF93FF
:1021D00081EC95E00E94BD03FF91EF91BF91AF911B
:1021E0009F918F917F916F915F914F913F912F912F
:1021F0000F900BBE0F900FBE0F901F9018951F925F
:102200000F920FB60F9211240BB60F922F938F934C
:102210009F93EF93FF93E091D105F091D2058081D8
:10222000E091D705F091D80582FD1DC09081809185
:10223000DA058F5F8F732091DB05821741F0E09103
:10224000DA05F0E0EF53FA4F958F8093DA05FF91AE
:10225000EF919F918F912F910F900BBE0F900FBE1A
:102260000F901F9018958081F2CF1F920F920FB69A
:102270000F9211240BB60F922F933F934F935F93BE
:102280006F937F938F939F93AF93BF93EF93FF933E
:102290008EE596E00E94BD03FF91EF91BF91AF9153
:1022A0009F918F917F916F915F914F913F912F916E
:1022B0000F900BBE0F900FBE0F901F9018951F929E
:1022C0000F920FB60F9211240BB60F922F938F938C
:1022D0009F93EF93FF93E0916E06F0916F068081DC
:1022E000E0917406F091750682FD1DC09081809189
:1022F00077068F5F8F7320917806821741F0E09107
:102300007706F0E0E25AF94F958F80937706FF91B8
:10231000EF919F918F912F910F900BBE0F900FBE59
:102320000F901F9018958081F2CF1F920F920FB6D9
:102330000F9211240BB60F922F933F934F935F93FD
:102340006F937F938F939F93AF93BF93EF93FF937D
:102350008091B900887F803609F44DC008F040C0F4
:10236000883209F4A9C028F5803109F49DC0C8F469
:10237000882309F4FBC0883009F496C0FF91EF91DF
:10238000BF91AF919F918F917F916F915F914F918D
:102390003F912F910F900BBE0F900FBE0F901F908B
:1023A0001895883109F488C0803241F780939505EB
:1023B00014C0803409F49DC040F48033B9F38833ED
:1023C000E9F68093950585ECB0C0803509F485C0A9
:1023D000883509F496C0883489F60E940B0FCECF59
:1023E000883909F48CC038F5883729F050F48836DC
:1023F00011F0803719F683E0809397051092DF0380
:1024000057C0883809F47BC0803919F0803809F04A
:10241000B5CF8091DF03803208F071C0E091DF0317
:1024200081E08E0F8093DF038091BB00F0E0E154E8
:10243000FC4F80833DC0803B39F0E0F4803A09F4E2
:1024400079C0883A09F09ACF84E08093970510927A
:10245000BE031092BD03E0914D05F0914E05199514
:102460008091BD0381110FC081E08093BD03109264
:102470009D0309C0803C09F4A6CF883C09F4A3CF92
:10248000883B09F07BCFE091BE0381E08E0F809303
:10249000BE03F0E0E356FC4F80818093BB00909137
:1024A000BE038091BD0329C0809172058093BB005B
:1024B00085EC8093BC0062CF909194058091930548
:1024C000981758F5E091940581E08E0F809394055C
:1024D000F0E0ED58FA4F8081E9CFE091940581E07A
:1024E0008E0F809394058091BB00F0E0ED58FA4F79
:1024F000808390919405809193059817C8F285E8A0
:10250000D8CFE091940581E08E0F8093940580915F
:10251000BB00F0E0ED58FA4F808380919605811161
:102520005CCF81E08093710584EA8093BC001092B7
:10253000970524CF85EC8093BC001092970580917D
:10254000DF03803230F4E091DF03F0E0E154FC4F30
:1025500010826091DF0370E0E0914B05F0914C0533
:102560008FEB93E019951092DF0308CF1092950539
:1025700034CFCF93DF93E1ECF5E01382128248EE83
:1025800053E060E070E0448355836683778387E39C
:1025900092E0918380832DEC30E0358724872CEC0A
:1025A00030E03787268728EC30E0318B208B29EC10
:1025B00030E0338B228B2AEC30E0358B248B2EECF1
:1025C00030E0378B268B118E128E138E148EEEE533
:1025D000F6E0138212824483558366837783918366
:1025E000808385EC90E09587848784EC90E09787E2
:1025F000868780EC90E0918B808B81EC90E0938BD0
:10260000828B82EC90E0958B848B86EC90E0978BAC
:10261000868B118E128E138E148E8BEF96E0FC013A
:1026200013821282448355836683778329E432E0E0
:1026300031832083C7E0D7E01D821E821F82188667
:10264000198628E0E9E0F2E0A2E4B7E001900D92FB
:102650002A95E1F723E530E039AF28AF99838883E5
:102660001A821B821C82EFE6F7E015861486178615
:102670001686118A108A60E082E00E949F02E2E6DC
:10268000F3E0E491A1E6B7E0EC93ECE1F3E0E49150
:10269000F0E0EE0FFF1FE050FD4F859194911296F0
:1026A0009C938E9311971B961C921B971D961C92C0
:1026B0001D971C961C921C971A961C921A97199695
:1026C0001C92199718961C92189717961C92179798
:1026D00016961C92169715961C92159714961C9296
:1026E000149713961C921397EAE4F7E0178210866A
:1026F000108289E0838381E08483858386831182CD
:10270000168A158A8FEF838B148AB287A187DF918F
:10271000CF910895CF93DF93CDB7DEB7CA54D109D7
:102720000FB6F894DEBF0FBECDBF789484B582603B
:1027300084BD84B5816084BD85B5826085BD85B565
:10274000816085BD80916E00816080936E001092E3
:10275000810080918100826080938100809181005E
:1027600081608093810080918000816080938000EF
:102770008091B10084608093B1008091B00081604D
:102780008093B0008091910082608093910080914D
:10279000910081608093910080919000816080938E
:1027A00090008091A10082608093A1008091A1009F
:1027B00081608093A1008091A00081608093A0003F
:1027C00080912101826080932101809121018160AB
:1027D000809321018091200181608093200180916C
:1027E0007A00846080937A0080917A00826080937E
:1027F0007A0080917A00816080937A0080917A00DB
:10280000806880937A001092C100E0916E06F0918A
:102810006F0622E02083E0916A06F0916B06108239
:10282000E0916C06F0916D0680E18083109276064F
:10283000E0917206F091730696E09083E091700645
:10284000F0917106808180618083E0917006F09143
:102850007106808188608083E0917006F091710636
:10286000808180688083E0917006F091710680819C
:102870008F7D8083E091D105F091D2052083E09196
:10288000CD05F091CE051082E091CF05F091D005F5
:102890008FEC80831092D905E091D505F091D60593
:1028A0009083E091D305F091D4058081806180838D
:1028B000E091D305F091D405808188608083E09118
:1028C000D305F091D405808180688083E091D305A1
:1028D000F091D40580818F7D808361E08EE596E064
:1028E0000E94DF0310920E0780910907882341F0B0
:1028F00061E00E949F0260E0809109070E947102DE
:1029000080910A07882319F062E00E949F0280915B
:102910000B07882341F061E00E949F0261E08091F3
:102920000B070E9471020E94C00480910E07882349
:1029300021F08DE193E00E946A0A6AE070E080E095
:1029400090E00E94000310920F0780913F0790EFE4
:102950002B969FAF2B9721E0AE01465B5F4F60E166
:102960000E947A0A182F80910E07882361F085E370
:1029700093E00E94780A84E693E0112311F08BE83B
:1029800092E00E946A0A6AE070E080E090E00E94B3
:10299000000381E0111180E080930F0722E0AE0177
:1029A0004F5F5F4F60E080913F070E947B0B098182
:1029B0001A8180910E078823A1F086E493E00E949B
:1029C000780A8DE593E0003621E0120741F087E6B2
:1029D00093E0013631E0130711F08BE892E00E949A
:1029E0006A0A6AE070E080E090E00E94000300362E
:1029F00081E0180709F068C01092100781E0809309
:102A00000F0781E00E94380B80930F070E94FD0B97
:102A100080930F070E94FD0B6AE070E080E090E079
:102A20000E94000380913F079EE02A969FAF2A975D
:102A300021E0AE01475B5F4F62E10E947A0A23E02A
:102A4000AE014F5F5F4F6CE480913F070E947B0BAC
:102A5000182F8981809311079A81909312079B8187
:102A600090931307873008F4B0C091E0909310075B
:102A700090910E079923E1F06AE070E00E94680BE4
:102A80006AE070E0809112070E94680B6AE070E0D3
:102A9000809113070E94680B81E793E00E94780AF7
:102AA00084E693E0112311F08BE892E00E946A0A19
:102AB0006AE070E080E090E00E94000381E0111184
:102AC00080E080930F0709C00136114021F481E0B6
:102AD0008093100794CF10920F0780910E078823E0
:102AE00021F088E893E00E946A0A82E00E94380B95
:102AF0003AE0E32E0AE010E08EE596E00E949D03A6
:102B0000892B51F08EE596E00E947B0390906F0434
:102B100091105EC080936F0481EC95E00E949D034C
:102B2000892B51F081EC95E00E947B032091F10408
:102B300021119CC58093F1040E9433035B01CB01FA
:102B400064E670E00E948A1B892BE1F59AE1C92EA8
:102B500095E0D92EF6018481882371F0628173811A
:102B6000C5010E948A1B892B39F40190F081E02D68
:102B70001995D60114961C92B5E0CB0ED11CE2E457
:102B8000CE16E5E0DE0631F782EFC82E84E0D82EBF
:102B9000D60114968C911497882361F012968D912A
:102BA0009C911397A816B90628F0ED91FC91199500
:102BB000F6011482F5E0CF0ED11C2AE1C21625E001
:102BC000D20631F70E944C0497CF1092100750CFD5
:102BD000C0906E0491E09C0D90936E04EC2DF0E09B
:102BE000E251FC4F8083991297CF8091ED038111C0
:102BF000DCC064E170E080E090E00E94000380911E
:102C00007B0790917C07009711F00E940D2086E0D1
:102C100090E00E94711F5C0188E3F50180838BEFD7
:102C200096E092838183138280E290E0958384838F
:102C3000B0927C07A0927B070E94C004FF24F3940B
:102C4000D5011396FC92C5010E940306882309F45E
:102C5000D4C08AEB898380917B0790917C07FC012B
:102C600024813581232B09F4C8C02081F0929D0571
:102C70002093BF0510929E051092C00541E050E0E0
:102C8000BE016F5F7F4F0E94E805882309F4B5C03D
:102C900064E170E080E090E00E9400038FE697E03E
:102CA0000E94810987FF05C06AE070E080E090E043
:102CB000F3CF81EE898388E08A831B8280917B0732
:102CC00090917C07DC0114962D913C91159723304F
:102CD000310588F02C9131E030939D052093BF059C
:102CE00010929E051092C00543E050E0BE016F5F58
:102CF0007F4F0E94E8058FE697E00E94810987FFD9
:102D000007C06AE070E080E090E00E940003F3CF2B
:102D10008FE697E00E94810983FF6FC080917F0753
:102D200090918007009739F0DC01ED91FC910280D1
:102D3000F381E02D199580917D0790917E07009792
:102D400039F0DC01ED91FC910280F381E02D1995C1
:102D500086E090E00E94711FFC0189E292E091837D
:102D6000808380E290E1938382832FE6A22E27E086
:102D7000B22EB582A482F0938007E0937F0786E0AD
:102D800090E00E94711FFC018BE192E091838083AF
:102D900081E290E193838283B582A482F0937E07DF
:102DA000E0937D0781E08093ED03B090EE03F1E0C6
:102DB000BF128AC0F090EF03FF1239C0B090F00349
:102DC00084E090E00E94711F6C0183E0D6018C9337
:102DD0001196FC9211971296BC9212971396FC9240
:102DE00044E050E0B60181EC95E00E943F03C1143D
:102DF000D10409F479C0C60164C083E090E00E9468
:102E0000711F8C0182E0F801808389E0818381E079
:102E1000828343E050E0B8018EE596E00E943F03D4
:102E20000115110519F0C8010E940D20FFCFB2E075
:102E3000FB120EC0F090F00384E090E00E94711F3E
:102E40006C0183E0F6018083B182F2821382C8CFE5
:102E5000F3E0FF1249C08090F0039EEFF92EFC0CC6
:102E6000C394C394D12CC601C114D10411F481E0E0
:102E700090E00E94711F5C01DC019C9282E011963F
:102E80008C93119712968C92129781E013968C93E3
:102E900013971496EEEEF3E08F2D90E09F012E5ED7
:102EA00033402817390724F423812D933196F6CF28
:102EB000A601B50181EC95E00E943F03C501AB2856
:102EC00099F00E940D2010C0B2E0BB120DC080919D
:102ED000EF0381110EC08091F0039091F10360E047
:102EE000911161E00E949F0210926E0410926F0493
:102EF00013CE813009F0E2C0F090F0038091F2032C
:102F0000C090F303D12C8E9DC00CD11C1124809154
:102F1000F1038111D1C061E08F2D0E949F02C11485
:102F2000D10429F460E08F2D0E947102DDCFEFEF14
:102F3000CE16D10411F461E0F6CFEF2DF0E0E654A7
:102F4000FD4FE491E150E23108F0B0C0F0E0882795
:102F5000E355F84E8F4F0C94D41BBF17C417C917F5
:102F6000D317DD175618E717EF17F71701180B18C7
:102F7000151824182E185618381842184C1884B5ED
:102F8000806884BDC7BCB0CF84B5806284BDC8BC36
:102F9000ABCF80918000806880938000D0928900C0
:102FA000C0928800A1CF80918000806280938000D1
:102FB000D0928B00C0928A0097CF80918000886069
:102FC00080938000D0928D00C0928C008DCF809134
:102FD000B00080688093B000C092B30085CF80912C
:102FE000B00080628093B000C092B4007DCF809129
:102FF0009000806880939000D0929900C0929800D1
:1030000073CF80919000806280939000D0929B005B
:10301000C0929A0069CF8091900088608093900060
:10302000D0929D00C0929C005FCF8091A0008068EC
:103030008093A0008091A0008F7B8093A000D0920D
:10304000A900C092A80050CF8091A0008062809318
:10305000A000D092AB00C092AA0046CF8091A00001
:1030600088608093A000D092AD00C092AC003CCFAD
:1030700080912001806880932001D0922901C09224
:10308000280132CF80912001806280932001D0926C
:103090002B01C0922A0128CF809120018860809363
:1030A0002001D0922D01C0922C011ECFF0E8CF1646
:1030B000D1040CF040CF36CF6C2D35CF823009F0E3
:1030C00067C0D090F0032091F1038091F203811149
:1030D0003AC0263308F0265390917B00822F8870E7
:1030E000977F892B80937B002770206420937C003E
:1030F00080917A00806480937A0080917A0086FDC6
:10310000FCCF809078009090790086E090E00E945B
:10311000711F5C0185E0D5018C9382E011968C9340
:10312000119712968C9312971396DC92C401B801F2
:103130000E949E1BF5016483858346E050E0B50143
:103140008EE596E0B9CE30E0F901E654FD4F84916A
:10315000F901E05AFC4FF490F901E65EFC4FC4908F
:10316000912C812CCC2089F281110E940A02EC2D35
:10317000F0E0EE0FFF1FE050FD4FA591B491EC91F0
:10318000FE2291E080E009F490E0892E982EBDCFD8
:10319000843009F002C2F090F003B3E0DB2ECC24BF
:1031A000C394E0915307F091540713861586148653
:1031B0001286118610861782168215821482138257
:1031C000109251071092520762E370E080E090E0A5
:1031D0000E940003BE016B5D7F4F80915307909169
:1031E00054070E949909882309F47AC067E0CE0148
:1031F00085960E9489079CA58913ECCF8091510781
:103200008F5F809351078DA1883231F008F04EC056
:10321000803111F08232F1F6809152078F5F8093F6
:10322000520780914A07811128C0809153079091DD
:1032300054070E944608BE016B5D7F4F8091530783
:10324000909154070E94270840E064EB8091530757
:10325000909154070E94F30780915307909154076F
:103260000E94A007B82E80915307909154070E94A6
:103270004608B11002C0C0924A078DA1803109F101
:10328000BE016F5F7F4FCE0185960E947E08882326
:1032900059F08D819DA19B3311F487FD12C08F33AE
:1032A00091F058F48F31C1F080E00EC08B3309F4F7
:1032B000B3CF823409F08ECFAFCF8F3579F08F370F
:1032C00099F78CE001C08AE090914D07981708F0BB
:1032D00081CF80934D077ECF89E0F6CF8BE0F4CF8E
:1032E00080915107811103C0DA94D1105ACF809197
:1032F0005307909154070E94460840E06CEC80917F
:103300005307909154070E94F30740914A0764E4E1
:1033100080915307909154070E94F3070E94330352
:103320004B015C0180914E078823F1F0E0914D073D
:1033300080914F07882309F447C080914A07811183
:1033400043C080915307909154070E94A007813099
:1033500059F00E943303681979098A099B096E3E66
:1033600072408105910568F380915107811153C026
:1033700060E070E08EEF92EC20E030E040E251E45B
:103380000E940D1D0E94491C5B0186E090E00E9496
:10339000711F6C0185E0D6018C9382E011968C93AD
:1033A000119784E012968C9312971396FC92C501A4
:1033B000B8010E949E1BF6016483858346E050E0BD
:1033C000B6018EE596E011CDE9508EEE92E0E33045
:1033D00038F4F0E0EE0FFF1FEF5EFD4F808191812A
:1033E0004C01B12CA12C80914B07882329F060E07F
:1033F00080914C070E947102C501B4010E94000334
:1034000080914B07882309F4AFCF61E080914C078E
:103410000E947102A9CFE0915307F09154071386DF
:1034200015861486128611861086178216821582DA
:1034300014821382BE016B5D7F4F80915307909180
:1034400054070E949909882309F492CF67E0CE01BE
:1034500085960E9489079CA589138ACFBE016F5F5C
:103460007F4FCE0185960E947E08882309F480CF85
:103470008A81412C512C320187FF06C0412C512CEE
:10348000F8EF6F2E77247A949DA149819B33F1F553
:103490002D8127FF3BC040FD6BCF842E912CB12C9A
:1034A000A12C63E0880C991CAA1CBB1C6A95D1F75F
:1034B000B501A401407E57706627772790E0B0E001
:1034C000A0E04C015D01EBE0880C991CAA1CBB1C20
:1034D000EA95D1F7842A952AA62AB72A842895281E
:1034E000A628B72821E8821624EE92062FEFA2061E
:1034F000B2060CF43DCFC501B4010E94811C20E04E
:1035000030E040E05CE30E940D1D36CF882E912C08
:10351000982C8824990C990C990C28E0429FA001C2
:103520001124842A952A092C000CAA08BB08842897
:103530009528A628B7289031A9F66885662391F2C8
:1035400070E08F81DB01A81BB109CD019695982F02
:103550008827979587950E949E1BCB01770FAA0B12
:10356000BB0B33E0880C991CAA1CBB1C3A95D1F705
:10357000E0E88E22E7E0AE22BB24F0E28F1A910849
:10358000A108B108880D991DAA1DBB1D5301420158
:10359000882A992AAA2ABB2AA5CF853009F0A4CC6B
:1035A0009090F003AE014F5F5F4FBE016B5D7F4FA8
:1035B0008FE697E00E94BD0D6D897E898F89988D79
:1035C0000E94491CA62E772E69AD7AAD8BAD9CADBD
:1035D0000E94491CF62E872E83E090E00E94711F06
:1035E0006C01DC01BC921196AC9211971296FC9280
:1035F00043E050E0BC018EE596E00E943F03C11419
:10360000D10419F0C6010E940D20A092E803709227
:10361000E903F092EA038092EB03E0EEF3E090E03E
:1036200080E0219121111DC080529C4FFC019082AD
:103630006CE271E08BEE9AE00E94F00868E572E0BF
:1036400088E59CE00E94F00864E873E083E49FE072
:103650000E94F00860EB74E08BEB9CE00E94F008A5
:1036600043CC019688309105E1F63ECCE091F00420
:1036700091E09E0F9093F004F0E0E059FB4F8083BF
:1036800029135ACA80917004813021F5F090720498
:10369000F1E0FF121FC0B090710484E090E00E943E
:1036A000711F6C0183E0D6018C931196FC921197E7
:1036B0001296FC9212971396BC9244E050E0B60129
:1036C0008EE596E00E943F03C114D10419F0C601B3
:1036D0000E940D201092F0041092F1042DCA8091E6
:1036E0007D0790917E07009739F0DC01ED91FC9108
:1036F0000280F381E02D199580917F0790918007DA
:10370000009739F0DC01ED91FC910280F381E02D0E
:1037100019940895AA1BBB1B51E107C0AA1FBB1F28
:10372000A617B70710F0A61BB70B881F991F5A954D
:10373000A9F780959095BC01CD01089597FB072EC0
:1037400016F4009407D077FD09D00E948A1B07FC6D
:1037500005D03EF4909581959F4F089570956195A1
:103760007F4F0895A1E21A2EAA1BBB1BFD010DC0BD
:10377000AA1FBB1FEE1FFF1FA217B307E407F50721
:1037800020F0A21BB30BE40BF50B661F771F881FFD
:10379000991F1A9469F760957095809590959B0193
:1037A000AC01BD01CF010895EE0FFF1F881F8BBF35
:1037B0000790F691E02D19945058BB27AA270E9434
:1037C000F41B0C94D31C0E94C51C38F00E94CC1C26
:1037D00020F039F49F3F19F426F40C94C21C0EF427
:1037E000E095E7FB0C94BC1CE92F0E94E41C58F305
:1037F000BA17620773078407950720F079F4A6F5D6
:103800000C94061D0EF4E0950B2EBA2FA02D0B0183
:10381000B90190010C01CA01A0011124FF27591B15
:1038200099F0593F50F4503E68F11A16F040A22F1B
:10383000232F342F4427585FF3CF4695379527958C
:10384000A795F0405395C9F77EF41F16BA0B620B8B
:10385000730B840BBAF09150A1F0FF0FBB1F661FD2
:10386000771F881FC2F70EC0BA0F621F731F841F15
:1038700048F4879577956795B795F7959E3F08F03B
:10388000B0CF9395880F08F09927EE0F97958795FD
:1038900008950E94501C6894B1110C94071D08955E
:1038A0000E94EC1C88F09F5798F0B92F9927B751C8
:1038B000B0F0E1F0660F771F881F991F1AF0BA95D4
:1038C000C9F714C0B13091F00E94061DB1E008950F
:1038D0000C94061D672F782F8827B85F39F0B93F01
:1038E000CCF3869577956795B395D9F73EF4909587
:1038F0008095709561957F4F8F4F9F4F0895E89405
:1039000009C097FB3EF490958095709561957F4F27
:103910008F4F9F4F9923A9F0F92F96E9BB279395D5
:10392000F695879577956795B795F111F8CFFAF4E5
:10393000BB0F11F460FF1BC06F5F7F4F8F4F9F4F16
:1039400016C0882311F096E911C0772321F09EE874
:10395000872F762F05C0662371F096E8862F70E0DA
:1039600060E02AF09A95660F771F881FDAF7880FB4
:103970009695879597F9089597F99F6780E870E085
:1039800060E008959FEF80EC089500240A941616D5
:10399000170618060906089500240A94121613063D
:1039A000140605060895092E0394000C11F48823CB
:1039B00052F0BB0F40F4BF2B11F460FF04C06F5FE7
:1039C0007F4F8F4F9F4F089557FD9058440F551FBD
:1039D00059F05F3F71F04795880F97FB991F61F091
:1039E0009F3F79F087950895121613061406551F08
:1039F000F2CF4695F1DF08C0161617061806991F74
:103A0000F1CF86957105610508940895E894BB2768
:103A100066277727CB0197F908950E94201D0C9403
:103A2000D31C0E94C51C38F00E94CC1C20F09523AA
:103A300011F00C94BC1C0C94C21C11240C94071D96
:103A40000E94E41C70F3959FC1F3950F50E0551F41
:103A5000629FF001729FBB27F00DB11D639FAA27E3
:103A6000F00DB11DAA1F649F6627B00DA11D661F32
:103A7000829F2227B00DA11D621F739FB00DA11D53
:103A8000621F839FA00D611D221F749F3327A00D0D
:103A9000611D231F849F600D211D822F762F6A2FA9
:103AA00011249F5750409AF0F1F088234AF0EE0F0E
:103AB000FF1FBB1F661F771F881F91505040A9F73B
:103AC0009E3F510580F00C94BC1C0C94071D5F3F79
:103AD000E4F3983ED4F3869577956795B795F79577
:103AE000E7959F5FC1F7FE2B880F911D96958795EF
:103AF00097F90895FA01EE0FFF1F30962105310561
:103B0000A1F16115710561F48038BFE39B0749F1AC
:103B100068949038810561F08038BFEF9B0741F0D1
:103B200099234AF5FF3FE1053105210519F1E89494
:103B30000894E795D901AA2329F4AB2FBE2FF85F8B
:103B4000D0F310C0FF5F70F4A695E0F7F73950F09E
:103B500019F0FF3A38F49F779F930DD00F9007FC30
:103B60009058089546F00C94C21C60E070E080E824
:103B70009FE308954FE79F775F934F933F932F9372
:103B80000E94751E2F913F914F915F910E940D1DD4
:103B90000C94D21D29F416F00C94BC1C0C94061D38
:103BA0000C94C21C0E94EC1CA8F39638A0F707F8EE
:103BB0000F92E8942BE33AEA48EB5FE70E94231D5B
:103BC0000F920F920F924DB75EB70F920E94BD1EDB
:103BD000E4EEF0E00E94041E4F915F91EF91FF919F
:103BE000E595EE1FFF1F49F0FE57E0684427EE0FF2
:103BF000441FFA95E1F74195550B0E94371E0F902F
:103C000007FE0C942B1E0895DF93CF931F930F9301
:103C1000FF92EF92DF927B018C01689406C0DA2E4E
:103C2000EF010E94201DFE01E894A5912591359198
:103C300045915591A6F3EF010E94F41BFE019701F7
:103C4000A801DA9469F7DF90EF90FF900F911F9130
:103C5000CF91DF9108959B01AC0160E070E080E8B6
:103C60009FE30C94F11E0C94BC1C0C94631F0E94E7
:103C7000EC1CD8F39923C9F3940F511DA3F3915071
:103C8000504094F059F0882332F0660F771F881F58
:103C900091505040C1F79E3F51052CF7880F911D60
:103CA0009695879597F908955F3FACF0983E9CF004
:103CB000BB27869577956795B79508F4B16093957E
:103CC000C1F7BB0F58F711F460FFE8CF6F5F7F4F6C
:103CD0008F4F9F4FE3CF0C94071D16F00C94631F7A
:103CE0000C94C21C68940C94BC1C0E94EC1CA8F39D
:103CF0009923C1F3AEF3DF93CF931F930F93FF92FA
:103D0000C92FDD2788232AF02197660F771F881F88
:103D1000DAF720E030E040E85FEB9FE3883920F0FD
:103D2000803E38F021968F770E94DD1BECE0F1E0B9
:103D300004C00E94DD1BE9E3F1E00E94041E8B0138
:103D4000BE01EC01FB2E6F5771097595771F880B2B
:103D5000990B0E94811C28E132E741E35FE30E9456
:103D6000201DAF2D9801AE01FF900F911F91CF91B3
:103D7000DF910E94F41B0C94D31CFA01DC01AA0F02
:103D8000BB1F9B01AC01BF5728F4222733274427D0
:103D9000507820C0B75190F4AB2F0024469537954A
:103DA0002795011CA395D2F3002071F0220F331F39
:103DB000441FB395DAF30ED00C94DC1B613071050F
:103DC000A0E88A07B94630F49B01AC016627772743
:103DD00088279078309621F0208331834283538363
:103DE00008950E94051F0C94D31C0E94CC1C58F00F
:103DF0000E94C51C40F029F45F3F29F00C94BC1CC4
:103E000051110C94071D0C94C21C0E94E41C68F311
:103E10009923B1F3552391F3951B550BBB27AA2783
:103E200062177307840738F09F5F5F4F220F331FBD
:103E3000441FAA1FA9F335D00E2E3AF0E0E832D085
:103E400091505040E695001CCAF72BD0FE2F29D088
:103E5000660F771F881FBB1F261737074807AB075A
:103E6000B0E809F0BB0B802DBF01FF2793585F4FCF
:103E70003AF09E3F510578F00C94BC1C0C94071D41
:103E80005F3FE4F3983ED4F3869577956795B795B1
:103E9000F7959F5FC9F7880F911D9695879597F9BC
:103EA0000895E1E0660F771F881FBB1F6217730735
:103EB0008407BA0720F0621B730B840BBA0BEE1F4A
:103EC00088F7E09508959F3F31F0915020F4879551
:103ED00077956795B795880F911D9695879597F972
:103EE00008950F931F93CF93DF938230910510F4C1
:103EF00082E090E0E0918307F091840730E020E0D9
:103F0000B0E0A0E0309799F42115310509F44AC0DA
:103F1000281B390B24303105D8F58A819B81611526
:103F2000710589F1FB0193838283FE0111C04081F9
:103F300051810281138148175907E0F0481759074A
:103F400099F4109761F012960C93129713961C93A4
:103F50003296CF01DF91CF911F910F910895009379
:103F6000830710938407F4CF2115310551F04217D0
:103F7000530738F0A901DB019A01BD01DF01F80107
:103F8000C1CFEF01F9CF9093840780938307CDCF02
:103F9000FE01E20FF31F819391932250310939837F
:103FA0002883D7CF2091810730918207232B41F4BA
:103FB00020910202309103023093820720938107FF
:103FC00020910002309101022115310541F42DB7F5
:103FD0003EB74091040250910502241B350BE0913D
:103FE0008107F0918207E217F307A0F42E1B3F0B25
:103FF0002817390778F0AC014E5F5F4F241735075B
:1040000048F04E0F5F1F50938207409381078193C2
:1040100091939FCFF0E0E0E09CCFCF93DF930097A8
:10402000E9F0FC01329713821282A0918307B091CC
:104030008407ED0130E020E01097A1F42081318168
:10404000820F931F2091810730918207281739072B
:1040500009F061C0F0938207E0938107DF91CF916F
:104060000895EA01CE17DF07E8F54A815B819E01DA
:1040700041155105B1F7E901FB83EA834991599153
:10408000C40FD51FEC17FD0761F480819181029662
:10409000840F951FE90199838883828193819B8393
:1040A0008A83F0E0E0E012968D919C91139700973F
:1040B000B9F52D913C911197CD010296820F931F76
:1040C00020918107309182072817390739F63097F8
:1040D00051F51092840710928307B0938207A09342
:1040E0008107BCCFD383C28340815181840F951F48
:1040F000C817D90761F44E5F5F4F88819981480FD7
:10410000591F518340838A819B8193838283211528
:10411000310509F0B0CFF0938407E09383079ECF79
:10412000FD01DC01C0CF13821282D7CFFB01DC017D
:104130004150504048F001900D920020C9F701C055
:104140001D9241505040E0F7089511E0C4EDD1E0D8
:1041500000E006C0802FFE010E94D41B2196011DA5
:0E416000C53DD10780E00807A9F7F894FFCF0E
:10416E00000085078000AC33007C0A7EAFAFA20052
:10417E00805E00BC007701000000007904210D7AFA
:10418E0004F80E230D000000007904B90C7A040225
:10419E000F720D00000000DF033F036C032C049D23
:1041AE00037B038F030000000057072A07860700D2
:1041BE00072307100701070D0A00493243207772C3
:1041CE0069746520616464726573733A2030780097
:1041DE00202D2072656769737465723A20307800FD
:1041EE00202D202076616C75653A006E6F6B007322
:1041FE0065744D6F646528292061637469766174F6
:10420E006520726573756C743A20004932432072D2
:10421E0065616420616464726573733A203078005E
:10422E00636C656172436F6D6D616E6428292072D7
:10423E006573756C743A2000636C656172436F6DC3
:10424E006D616E642829207374617475733A203021
:10425E0078005374617274206D6561737572656D4B
:10426E00656E74005374617475733A20004148543E
:10427E0078305F540041485478305F48006265677B
:10428E00696E2829202D2049324320696E697420D9
:10429E00646F6E650072657365742829207265738C
:1042AE00756C743A2000636865636B506172744973
:1042BE0044282920726573756C743A2000454E535C
:1042CE00313630206F6B00454E53313631206F6BD7
:1042DE00006765744669726D776172652829207270
:1042EE006573756C743A2000454E53313630206933
:0C42FE006E2069646C65206D6F646500C3
:00000001FF
