:100000000C94F9010C942A020C942A020C942A02F2
:100010000C942A020C942A020C942A020C942A02B0
:100020000C942A020C942A020C942A020C942A02A0
:100030000C942A020C942A020C942A020C942A0290
:100040000C942A020C942A020C942A020C942A0280
:100050000C942A020C942A020C942A020C944E133B
:100060000C942A020C9422140C94F8130C942A0277
:100070000C942A020C942A020C942A020C942A0250
:100080000C942A020C942A020C942A020C942A0240
:100090000C94C2130C9498130C942A020C945814C8
:1000A0000C942A020C942A020C942A020C942A0220
:1000B0000C942A020C942A020C942A020C942A0210
:1000C0000C942A020C942A020C942A020C942A0200
:1000D0000C942A020C942A020C942A020C942A02F0
:1000E0000C942A0207634236B79BD8A71A39685680
:1000F00018AEBAAB558C1D3CB7CC5763BD6DEDFD4A
:10010000753EF6177231BF000000803F0800000006
:10011000BE922449123EABAAAA2ABECDCCCC4C3EFC
:1001200000000080BEABAAAAAA3E00000000BF00EB
:100130000000803F0000000000084178D3BB4387E7
:10014000D1133D190E3CC3BD4282AD2B3E68EC82FB
:1001500076BED98FE1A93E4C80EFFFBE01C4FF7F80
:100160003F00000000000C94E7270C94C5110C948C
:1001700050040C944C0C0C9491020C94EC170C94BD
:100180007B070C94F2170C943C210C9447070C94B9
:10019000A1200C9469170C948D020C94CA0E0C9437
:1001A000FF200C94A9180C9423160C94BE180C94E0
:1001B0004C020C941D180C941B210C94B3030C944A
:1001C00058210C9475020C944A210C9471020C94E1
:1001D00082150C9479020C949E040C9424070C94C0
:1001E00052020C9463030C94CD200C9483260C943F
:1001F000B1200C9497170C94D30C0C947F020C94A0
:10020000B2180C94B8180C9425070C9406120C9490
:1002100074210C94340D0C9434070C947A0F0C94C4
:100220002A170C949F030C945A020C948C020C9481
:100230002C020C94C1030C949D040C9456020C9453
:10024000AA070C94F1200C9435100C94B5180C945A
:100250002D020C94BB110C9490030C9403040C9489
:1002600087020C94A0180C945E020C9466210C94E6
:10027000BF200C94A9200C944E070C942E210C94B2
:1002800049170C94DB200C9467020C94A0150C9475
:1002900083020C9461020C94E60F0C940D210C94D3
:1002A000CA160C94E6200C946B020C94300C005E81
:1002B000BCE2613FDD83C29C7E20A3FD1F41009D07
:1002C00023BE46DB65F88C11AF32CA57E9740000D3
:1002D0002100240027002A002D00300033000101F6
:1002E0000000040107010A01000022002500280087
:1002F0002B002E003100340002010000050108012E
:100300000B0100000A0B02090C0D0E080703040183
:1003100000000000000000000000000000000000DD
:1003200000000000000000000000000000001211AA
:1003300010000000000000000000000000000000AD
:100340000000000000000000000020002300260044
:1003500029002C002F0032000001000003010601DB
:10036000090105050505070508080808020202023B
:100370000A0A080804040404010101010101010141
:100380000303030303030303040707070C0C0C0C0C
:100390000C0C0C0C020202020606060606060606F5
:1003A0000B0B0B0B0B0B0B0B010210202008081082
:1003B00020401020408002010201080402010102D5
:1003C00004081020408080402010080402018004AE
:1003D0000201804020100804020108040201010209
:1003E0000408102040800102040810204080BE183C
:1003F000E72711241FBECFEFD1E2DEBFCDBF00E063
:100400000CBF28E0A8EBB3E001C01D92A339B207EE
:10041000E1F713E0A0E0B2E0E4E7FDE500E00BBFA8
:1004200002C007900D92A83BB107D9F711E0C8EFC1
:10043000D1E000E006C021970109802FFE010E9453
:10044000A529C73FD10780E00807A9F70E948F19A7
:100450000C94A82E0C9400000895089581508231C8
:1004600008F05AC0E82FF0E08827E65CFD4F8F4F78
:100470000C94A5295A025E024C02520256028C02CA
:10048000610267026B027102750279027F028302C8
:100490008C0287028D029102809180008F77809379
:1004A00080000895809180008F7DF9CF8091800039
:1004B000877FF5CF84B58F7784BD089584B58F7D10
:1004C000FBCF8091B0008F778093B000089580912A
:1004D000B0008F7DF9CF809190008F77809390004E
:1004E0000895809190008F7DF9CF80919000877F53
:1004F000F5CF8091A0008F778093A0000895809120
:10050000A0008F7DF9CF8091A000877FF5CF8091EB
:1005100020018F77809320010895809120018F7DA5
:10052000F9CF80912001877FF5CF1F93CF93DF9381
:10053000282F30E0F901EE5FFC4F8491F901E85576
:10054000FC4FD491F901EE59FC4FC491CC23A9F092
:10055000162F81110E942E02EC2FF0E0EE0FFF1FEC
:10056000E851FD4FA591B4918FB7F894EC9111111A
:1005700008C0D095DE23DC938FBFDF91CF911F9110
:100580000895DE2BF8CFCF93DF9390E0FC01E85580
:10059000FC4F24918E599C4FFC0184918823C9F013
:1005A00090E0880F991FFC01E253FD4FA591B49193
:1005B000FC01E851FD4FC591D49161110DC09FB769
:1005C000F8948C91209582238C938881282328830A
:1005D0009FBFDF91CF910895623051F49FB7F89497
:1005E0003C91822F809583238C93E8812E2BEFCF33
:1005F0008FB7F894EC912E2B2C938FBFEACF3FB797
:10060000F8948091530690915406A0915506B091AC
:10061000560626B5A89B05C02F3F19F00196A11DCF
:10062000B11D3FBFBA2FA92F982F8827BC01CD013C
:10063000620F711D811D911D42E0660F771F881F9B
:10064000991F4A95D1F708958F929F92AF92BF92CA
:10065000CF92DF92EF92FF926B017C010E94FF022A
:100660004B015C01C114D104E104F104B9F00E9412
:10067000FF02681979098A099B09683E7340810560
:10068000910580F321E0C21AD108E108F10888EE53
:10069000880E83E0981EA11CB11CE4CFFF90EF9060
:1006A000DF90CF90BF90AF909F908F9008952FB71D
:1006B000F89460914F067091500680915106909188
:1006C00052062FBF0895AF92BF92CF92DF92EF9262
:1006D000FF920F931F93CF93DF936C017B018B01EC
:1006E000040F151FEB015E01AE18BF08C017D1073C
:1006F00059F06991D601ED91FC910190F081E02DC6
:10070000C6011995892B79F7C501DF91CF911F910A
:100710000F91FF90EF90DF90CF90BF90AF90089532
:10072000FC01538D448D252F30E0842F90E0821BF7
:10073000930B541710F0CF96089501970895FC017C
:10074000918D828D981761F0A28DAE0FBF2FB11DD4
:100750005D968C91928D9F5F9F73928F90E008952C
:100760008FEF9FEF0895FC01918D828D981731F0E6
:10077000828DE80FF11D858D90E008958FEF9FEF3A
:100780000895FC01918D228D892F90E0805C9F4F10
:10079000821B91098F73992708958DEC96E00E9432
:1007A000C10321E0892B09F420E0822F08958AE615
:1007B00097E00E94C10321E0892B09F420E0822FF9
:1007C0000895FC01A48DA80FB92FB11DA35ABF4FE6
:1007D0002C91848D90E001968F739927848FA68940
:1007E000B7892C93A089B1898C91837080648C9394
:1007F000938D848D981306C00288F389E02D808143
:100800008F7D80830895EF92FF920F931F93CF9374
:10081000DF93EC0181E0888F9B8D8C8D98131AC03B
:10082000E889F989808185FF15C09FB7F894EE8922
:10083000FF896083E889F98980818370806480837F
:100840009FBF81E090E0DF91CF911F910F91FF90CA
:10085000EF900895F62E0B8D10E00F5F1F4F0F7372
:100860001127E02E8C8D8E110CC00FB607FCFACF2D
:10087000E889F989808185FFF5CFCE010E94E103E7
:10088000F1CFEB8DEC0FFD2FF11DE35AFF4FF082FE
:100890009FB7F8940B8FEA89FB8980818062CFCF64
:1008A000CF93DF93EC01888D8823B9F0AA89BB89A7
:1008B000E889F9898C9185FD03C0808186FD0DC092
:1008C0000FB607FCF7CF8C9185FFF2CF808185FFB3
:1008D000EDCFCE010E94E103E9CFDF91CF910895E2
:1008E00080E090E0892B29F00E94D70381110E94BB
:1008F000000080E090E0892B29F00E94CD03811157
:100900000E94000080E090E0892B49F080E090E0B8
:10091000892B29F00E94000081110E94000080E0D4
:1009200090E0892B49F080E090E0892B29F00E942B
:10093000000081110C9400000895089508952091FD
:10094000D903260F3327331F21323105ECF42091D0
:10095000A306FC0190E080E0243069F082E0089575
:10096000A091D9032191AC0147545C4FA40FB52F3E
:10097000B11D2C930196861798F38091D903680FC7
:100980006093D90380E0089581E008951092A30652
:1009900081E08093A20610927D0661E084E10E94CE
:1009A000950261E085E10E949502E9EBF0E080812B
:1009B0008E7F808380818D7F808388E48093B800E0
:1009C00085E48093BC00089510925C0610925B064B
:1009D0001092AA061092CC060E94C6048CE292E005
:1009E00090935A06809359068DE292E090935806B0
:1009F000809357060895CF93DF9391E09093B803C7
:100A00008823B9F0C091B800D091BA008091BC00A1
:100A10008A7B8093BC0060E084E10E94950260E0E4
:100A200085E10E9495020E94C604D093BA00C0934B
:100A3000B800DF91CF9108958F929F92AF92BF92AD
:100A4000CF92DF92EF92FF920F931F93CF93DF939A
:100A5000D091CC06D13208F0D7C0182FC091CB0668
:100A60000E94FF026B017C018091A30681116BC083
:100A700082E08093A3061093A2068FEF8093A106D5
:100A80001092A006D0939F06ABEAB6E0EFE7F6E03F
:100A900080E0D81391C010927E0680917E06CC0F24
:100AA000C82BC0937E0680917D06813009F088C0F6
:100AB00010927D060E94FF026B017C0180917E06F0
:100AC0008093BB008091A5069091A606A091A706F1
:100AD000B091A806892B8A2B8B2BA1F00E94FF02D4
:100AE0000091A5061091A6062091A7063091A806B0
:100AF0006C197D098E099F09061717072807390702
:100B000008F442C08091BC0083FDD8CF85EC80936F
:100B1000BC000E94FF026B017C018091A306823021
:100B200009F450C08091A1068F3F09F46FC08091F5
:100B3000A106803209F46CC08091A106803309F4CB
:100B400069C084E026C08091A5069091A606A09178
:100B5000A706B091A806892B8A2B8B2B09F484CF8A
:100B60000E94FF028090A5069090A606A090A7067E
:100B7000B090A8066C197D098E099F098616970604
:100B8000A806B90608F070CF8091A4060E94FB0465
:100B900085E01092AA061092CC061092A906DF9169
:100BA000CF911F910F91FF90EF90DF90CF90BF906A
:100BB000AF909F908F9008959D9191938F5F69CF93
:100BC00085EEA5CF8091A5069091A606A091A706D7
:100BD000B091A806892B8A2B8B2B09F49ECF0E94FB
:100BE000FF020091A5061091A6062091A70630915C
:100BF000A8066C197D098E099F0906171707280793
:100C0000390708F08ACFC0CF81E0C3CF80E0C1CFE1
:100C100082E0BFCF83E0BDCFCF93DF93EA01DC0159
:100C200011968D919C91DC01ED91FC910280F381F4
:100C3000E02D1995C817D90729F481E00E941C05F9
:100C400091E0811190E0892FDF91CF910895CF93AA
:100C5000DF93EC018B818823A1F0888191E0909350
:100C6000A9068093CB061092AA061092CC0681E0CA
:100C70000E941C0591E0811190E0892FDF91CF91B6
:100C800008950E94E40481E08B83CE010E94270630
:100C9000982F8111E2CFF1CF8F929F92AF92BF92A6
:100CA000CF92DF92EF92FF920F931F93CF93DF9338
:100CB000D82FC62F142F613208F09CC00E94FF026B
:100CC0006B017C018091A30681116FC081E080934C
:100CD000A3061093A2069FEF9093A1061092A00680
:100CE0009C0F90939F0680937E0680917E06DD0F79
:100CF000D82BD0937E0680917D06813009F07CC090
:100D000010927D060E94FF026B017C0180917E069D
:100D10008093BB008091A5069091A606A091A7069E
:100D2000B091A806892B8A2B8B2BA1F00E94FF0281
:100D30000091A5061091A6062091A7063091A8065D
:100D40006C197D098E099F090617170728073907AF
:100D500008F44CC08091BC0083FDD8CF85EC809313
:100D6000BC000E94FF026B017C018091A3068130D0
:100D700009F444C08091A0068C1710F4C091A0061D
:100D8000EFE7F6E0ADE5B6E080E08C1359C08C2FBC
:100D9000DF91CF911F910F91FF90EF90DF90CF9057
:100DA000BF90AF909F908F9008958091A5069091ED
:100DB000A606A091A706B091A806892B8A2B8B2B9B
:100DC00009F480CF0E94FF028090A5069090A606AD
:100DD000A090A706B090A8066C197D098E099F09FE
:100DE00086169706A806B90608F06CCF8091A4066F
:100DF0000E94FB04C0E0CBCF85EEB1CF8091A50669
:100E00009091A606A091A706B091A806892B8A2BDF
:100E10008B2B09F4AACF0E94FF020091A506109126
:100E2000A6062091A7063091A8066C197D098E09A7
:100E30009F09061717072807390708F096CFD6CF5E
:100E400091919D938F5FA1CF0895E0915C06809171
:100E50005B06E81730F4F0E0E35AF94F808190E048
:100E600008958FEF9FEF089590915C0680915B0647
:100E70002FEF3FEF981748F4E92FF0E0E35AF94FCE
:100E8000208130E09F5F90935C06C90108958091B6
:100E90005B0690915C06891B990B0895CF92DF92B7
:100EA000EF92FF920F931F93CF93DF937C01CB01BF
:100EB0008A012091A906222389F0EB016B01C40E5F
:100EC000D51ECC15DD0569F06991D701ED91FC9136
:100ED0000190F081E02DC7011995F3CF642F0E9496
:100EE0009F04C801DF91CF911F910F91FF90EF9068
:100EF000DF90CF900895CF93DF931F92CDB7DEB7E9
:100F000069832091A9062223F9F02091CC06203292
:100F100058F021E030E0FC013383228390E080E050
:100F20000F90DF91CF9108958091AA06E82FF0E00D
:100F3000E555F94F998190838F5F8093AA0680933E
:100F4000CC0681E090E0ECCF61E0CE0101960E94FA
:100F50009F04F7CF90E080E00895DC0180E06150CD
:100F600090F09D919827E92FEF70F0E0E255FD4F4A
:100F70002491E92FE295EF70F0E0E254FD4FE49107
:100F8000822F8E27ECCF0895DC012C911196ED91E4
:100F9000FC91F8948181822B81839281322F30954C
:100FA0009323928387E090E00197F1F78181832377
:100FB000818383E290E00197F1F790817894EFECE0
:100FC000F0E03197F1F7922381E009F480E0089591
:100FD000FC0190810180F281E02D292F209560FF96
:100FE00014C0F8948281822382838181892B81833A
:100FF000A3E2B0E01197F1F78281982B9283789465
:1010000087ED90E00197F1F70895F89482818223AB
:1010100082838181892B8183AFEFB0E01197F1F753
:101020008281982B928378948FE090E0EBCFDF92CF
:10103000EF92FF920F931F93CF93DF93EC01D62E85
:10104000E42E08E010E0FF24F39461E08D2D8F2161
:1010500009F460E0CE010E94E807FF0C015011097D
:10106000A1F7E11010C0F894E981FA81918188819B
:10107000809589238183E981FA8192818881809595
:10108000892382837894DF91CF911F910F91FF90F4
:10109000EF90DF900895EF92FF920F931F93CF93FD
:1010A000DF938C017B0140E065E50E941708E701B2
:1010B00088E0E80EF11C699140E0C8010E94170821
:1010C000CE15DF05C1F7DF91CF911F910F91FF90F2
:1010D000EF900895FC0190810180F281E02DF89459
:1010E0008181292F20958223818378943DE743E0F5
:1010F00050E0315029F1DA011197F1F7808189230D
:10110000C1F3F8948281822382838181892B818338
:101110007894ABE7B7E01197F1F7F89481818223D7
:101120008183A3E1B1E01197F1F78081982381E0F9
:1011300009F080E07894E3E6F6E03197F1F708955E
:1011400080E008956F927F928F929F92AF92BF92AC
:10115000CF92DF92EF92FF920F931F93CF93DF9383
:101160008C01EB0180915F08909160080E946A08F1
:10117000882309F43FC0B80180915F08909160080E
:101180000E944B0840E06EEB80915F0890916008F0
:101190000E9417087E016E0189E0C80ED11C8E01E5
:1011A000A0905F08B090600888E0882E912C712C88
:1011B00066246394C5010E94C40781117628660CD9
:1011C000E1E08E1A9108B1F7F80171928F01CE1605
:1011D000DF0631F780915F08909160080E946A08ED
:1011E000813041F4F70181917F01811105C0E01741
:1011F000F107C1F790E008C068E0CE010E94AD079A
:1012000091E028852813F6CF892FDF91CF911F9188
:101210000F91FF90EF90DF90CF90BF90AF909F9095
:101220008F907F906F9008950F931F93CF93DF93CC
:10123000EC018B010E945703EEE0F5E050E040E046
:101240002481211115C025E0249FF001259FF00D78
:101250001124E25FFA4FD183C083060F171F138357
:10126000028381E08483DF91CF911F910F910895D4
:101270004F5F5F4F35964032510511F780E0F3CF55
:101280006F927F928F929F92AF92BF92CF92DF9296
:10129000EF92FF920F931F93CF93DF936C013B016B
:1012A0007A0110E000E0D60114968D919C91E7013F
:1012B000C01BD10B8C179D0708F4EC0141E0C7015E
:1012C0008C1B9D0B0817190708F440E06C2FC132E6
:1012D00008F060E2F60180810E944C0610925C06E4
:1012E00080935B068C171D0679F54301800E911ED5
:1012F0005401C501881999098C179D0778F4D60106
:1013000011968D919C91DC01ED91FC910284F38505
:10131000E02D1995F50181935F01EBCF0C0F1D1F97
:101320000E151F0508F4BFCF81E0DF91CF911F910B
:101330000F91FF90EF90DF90CF90BF90AF909F9074
:101340008F907F906F90089580E0EFCFCF93DF93E1
:101350001F92CDB7DEB741E050E0BE016F5F7F4F17
:10136000FC01848595850E944009882329F08981A4
:101370000F90DF91CF9108958FEFFACFBF92CF9268
:10138000DF92EF92FF920F931F93CF93DF93EC01C5
:10139000B62EC72E8D85811105C0CE010E946A0828
:1013A00081110EC01B861D861C8680E0DF91CF91C7
:1013B0001F910F91FF90EF90DF90CF90BF90089515
:1013C00040E060EFCE010E94170801E0E12CD12C33
:1013D00011E0CE010E94C407F82ECE010E94C4077E
:1013E00091E0F91218C0813099F51134D8F2DB86FA
:1013F000D11002C081E08D878B81882399F22396DA
:10140000EB2DFC2DCF01089629912193E817F907C0
:10141000D9F781E0CBCFEE2DF0E0F8120FC08B852D
:101420001817A0F4DE01AE0FBF1F13968C91802316
:1014300079F4F12C193008F41C87D12EEC0FFD1F24
:101440008381902F9095892383830AC08113F1CFE4
:10145000FE01EE0DF11D8381802B8383FF24F39425
:101460006F2DCE010E94E8071F5F000F11F4E39477
:1014700001E087E08E1508F0ACCFB7CFFC010190FA
:101480000020E9F73197AF01481B590BBC018AE6F0
:1014900097E00C9463038F929F92AF92BF920F9349
:1014A0001F93CF93DF93CDB7DEB7A1970FB6F89414
:1014B000DEBF0FBECDBF19A2423008F44AE08E0154
:1014C0000F5D1F4F842E912CB12CA12CA5019401EE
:1014D0000E948329E62FB901CA01EA30F4F4E05DE5
:1014E000D801EE938D01232B242B252B79F790E047
:1014F00080E0109719F0CD010E943E0AA1960FB628
:10150000F894DEBF0FBECDBFDF91CF911F910F9139
:10151000BF90AF909F908F900895E95CE1CFCF93FB
:10152000DF930E943E0AEC0187E592E00E943E0AAA
:101530008C0F9D1FDF91CF9108950C943E0ACF929E
:10154000DF92EF92FF920F931F93CF93DF93C82EFA
:10155000D62E8A0180911A08C22FD0E0882399F1F3
:101560008AE592E00E949D0A6C2D70E090E080E098
:1015700040E10E944B0A80E792E00E949D0A6D2D97
:1015800070E090E080E040E10E944B0A80E892E049
:101590000E949D0A7801C701801B910B8C179D0743
:1015A00074F48CE792E00E949D0AD7016D917D0151
:1015B00070E090E080E040E10E944B0AECCF87E5CC
:1015C00092E00E943E0A809113089091140821E055
:1015D0002093A906C092CB061092AA061092CC06C0
:1015E000DC01ED91FC910190F081E02D6D2D1995BC
:1015F0008091130890911408DC01ED91FC91028018
:10160000F381E02DAE01B801199581E0DF91CF9112
:101610001F910F91FF90EF90DF90CF900C941C05DD
:101620001F93CF93DF931F92CDB7DEB790914B08F6
:10163000898321E0AE014F5F5F4F60E1892F0E94F7
:101640009F0A182F80911A08882361F08FE892E092
:101650000E949D0A8BE892E0111102C08BE693E094
:101660000E948F0A6AE070E080E090E00E9424030C
:1016700081E0111180E00F90DF91CF911F910895CB
:10168000CF93DF93462F682F70E090E080E00E94B8
:101690004B0AEC0187E592E00E943E0A8C0F9D1FE9
:1016A000DF91CF9108956F927F928F929F92AF9228
:1016B000BF92CF92DF92EF92FF920F931F93CF933F
:1016C000DF93E82E962E6A01822E80911A088823D5
:1016D000A1F08BEA92E00E949D0A6E2D70E090E0EE
:1016E00080E040E10E944B0A80E792E00E949D0A60
:1016F00060E170E0892D0E94400BC0E07724739474
:10170000D82DDC1BD13208F0D0E2809113089091E3
:1017100014087092A906E092CB061092AA061092C5
:10172000CC06DC01ED91FC910190F081E02D692D5A
:101730006C0F199581E00E941C05682E41E06D2F09
:101740008E2D0E944C0610925C0680935B0610E082
:1017500000E0AD2EB12CFC2EF00E0A151B059CF0FE
:10176000CD0FC81568F2862DDF91CF911F910F9193
:10177000FF90EF90DF90CF90BF90AF909F908F90B1
:101780007F906F9008958091130890911408DC0168
:10179000ED91FC910284F385E02D1995F601EF0D92
:1017A000F11D80830F5F1F4FD6CF0F931F93CF93F1
:1017B000DF9300D0CDB7DEB780914B081A8221E0CD
:1017C000AE014E5F5F4F62E10E949F0A80914B081D
:1017D0009CEC9B8321E0AE014D5F5F4F62E10E9474
:1017E0009F0A182F80911A08882361F080EC92E0FC
:1017F0000E949D0A8BE892E0111102C08BE693E0F3
:101800000E948F0A6AE070E080E090E00E9424036A
:1018100021E0AE014F5F5F4F60E280914B080E9474
:10182000530B098180911A08882349F088ED92E0D2
:101830000E949D0A60E170E0802F0E94400B6AE0E8
:1018400070E080E090E00E94240381E0111180E0CC
:101850000F900F900F90DF91CF911F910F910895EE
:101860000C941A2DCF93DF93EC0188819981009716
:1018700011F00E941A2D198218821D821C821B826F
:101880001A82DF91CF910895FC01808191810097A8
:1018900011F00C941A2D08950C941A2D0F931F9388
:1018A000CF93DF93082F162F83E090E00E947E2CC9
:1018B000EC0182E0888389E089830A8343E050E079
:1018C000BE018AE697E00E946303209719F0CE01DB
:1018D0000E941A2D1111FFCFDF91CF911F910F910F
:1018E0000895CF92DF92EF92FF920F931F93CF93C1
:1018F000DF936C01DC0114960D911C917801B2E02C
:10190000EB0EF11C81E090E0E114F10409F0C70155
:101910000E947E2CEC01C8010196FE0197FF17C0C2
:10192000FE01329690E080E080179107ACF48017BA
:10193000910780F4D6012D913C912115310551F08C
:10194000280F391FD9012C9121930196EDCF1192C7
:101950000197E4CF20E0F8CF0F5F08838AE0898306
:10196000A701BE018AE697E00E946303E816F90624
:1019700021F060E08FE60E944E0C209759F0CE01D6
:10198000DF91CF911F910F91FF90EF90DF90CF905B
:101990000C941A2DDF91CF911F910F91FF90EF9032
:1019A000DF90CF9008951F93CF93DF9300D000D0A6
:1019B0001F921F92CDB7DEB780911A08882321F0BD
:1019C00082EF92E00E948F0A61E070E080E090E098
:1019D0000E94240321E0AE014F5F5F4F60E28091DF
:1019E0004B080E94530B198180911A08882349F0F3
:1019F00084E093E00E949D0A6AE070E0812F0E94DB
:101A0000400B11FFE1CF27E0AE014F5F5F4F61E276
:101A100080914B080E94530B8981809322088A8110
:101A20009B8190932408809323088C819D819093BF
:101A300026088093250880911C08882381F08E81D8
:101A40009F81909328088093270828960FB6F894D2
:101A5000DEBF0FBECDBFDF91CF911F9108951092D1
:101A6000280810922708F1CF7F928F929F92AF9211
:101A7000BF92CF92DF92EF92FF920F931F93CF937B
:101A8000DF93B0902208C0912308D09124080091E0
:101A90002508109126082B2D2150330B25303105B8
:101AA00020F060E08BE50E944E0CD7FF04C060E0A0
:101AB0008CE50E944E0C17FF04C060E08DE50E948B
:101AC0004E0C2AE030E0C801B9010E946F29F62EC1
:101AD000E82ECE01B9010E946F29D62EC82E01E052
:101AE00014E08AE0982E92E0892E25E0722EF8010B
:101AF000A1908F01AA2079F18BE090E00E947E2CCA
:101B0000EC01988289827A82AB828091FC038C837B
:101B10008091FE038D83BE82FF82E886D986CA86C5
:101B2000209721F460E08EE50E944E0C4BE050E0DF
:101B3000BE018AE697E00E9463030B9721F060E004
:101B40008FE50E944E0C209719F0CE010E941A2DAD
:101B5000F80131971082F4E009301F0741F6DF9158
:101B6000CF911F910F91FF90EF90DF90CF90BF909A
:101B7000AF909F908F907F9008950F931F93CF9376
:101B8000DF93EC0188819981009759F02A813B818C
:101B90002617370730F081E0DF91CF911F910F9129
:101BA00008958B016F5F7F4F0E94A32D009759F01E
:101BB000998388831B830A832C813D81232B59F7CA
:101BC000FC011082E8CF80E0E7CFEF92FF920F9305
:101BD0001F93CF93DF936115710541F480E0DF918E
:101BE000CF911F910F91FF90EF90089541155105EE
:101BF000B1F07B01EC010C811D81040F151FB801B0
:101C00000E94BD0D882351F3288139818C819D81EB
:101C1000B701820F931F0E94922E1D830C8381E0D7
:101C2000DECFCF93DF93EC01FB01448155816081CE
:101C300071810E94E50D811103C0CE010E94320C1A
:101C4000CE01DF91CF910895EF92FF920F931F93F2
:101C5000CF93DF93EC017B018A01BA010E94BD0D95
:101C600081110BC0CE010E94320CCE01DF91CF91C9
:101C70001F910F91FF90EF9008951D830C83B70182
:101C8000888199810E94922EF0CFEF92FF920F935C
:101C90001F93CF93DF93CDB7DEB762970FB6F8945B
:101CA000DEBF0FBECDBF8C01CB01F80111821082C7
:101CB00013821282158214824AE09E012F5F3F4FE9
:101CC0007901B9010E940228F70101900020E9F78B
:101CD0003197AF014E195F09B701C8010E94240E68
:101CE00062960FB6F894DEBF0FBECDBFDF91CF91E5
:101CF0001F910F91FF90EF900895EF92FF920F9335
:101D00001F93CF93DF9300D000D000D0CDB7DEB7C4
:101D10008C01862FF80111821082138212821582A3
:101D200014824AE09E012F5F3F4F7901B90190E094
:101D30000E940D28F70101900020E9F73197AF01CB
:101D40004E195F09B701C8010E94240E29960FB6EB
:101D5000F894DEBF0FBECDBFDF91CF911F910F91E1
:101D6000FF90EF900895CF93DF93EC01FB0186176E
:101D7000970749F0608171816115710541F04481D7
:101D800055810E94240ECE01DF91CF9108950E94CB
:101D9000320CF9CF2F923F92CF93DF93CDB7DEB7BE
:101DA000E1970FB6F894DEBF0FBECDBF8CEE97E182
:101DB0009AA389A388EB93E09CA38BA3DEA3CDA376
:101DC0008AE79FE098A78FA32DB73EB73AA729A728
:101DD000CE0149960E9469168091FC039091FD0303
:101DE00080579E4F833E944040F08FEF9FEF9C8F33
:101DF0008B8F60E086E50E944E0C8091FE039091EF
:101E0000FF03893E934040F08FEF9FEF9C8F8B8FB5
:101E100060E087E50E944E0C6091FE037091FF0325
:101E20008FEF9FEF9C8F8B8FCE010D960E94450EFA
:101E30006091FC037091FD0381E090E09C8F8B8F9B
:101E4000CE0107960E94450E1A8219821C821B82BF
:101E50001E821D8246E050E06DE073E0CE010196E7
:101E60000E94240EBE01695F7F4FCE0101960E9441
:101E7000110E98AB8FA741E050E065EB73E00E9434
:101E8000E50D811104C08FA598A90E94320CBE01F6
:101E9000635F7F4F8FA598A90E94110E1C8A1B8A31
:101EA0001E8A1D8A188E1F8ABC01CE0143960E948D
:101EB000B30E82E090E09C8F8B8FCE0143960E9400
:101EC000710C26C0CE0143960E94440CCE010196AF
:101ED0000E94440CCE0107960E94440CCE010D9640
:101EE0000E94440C8FEF9FEF9C8F8B8F8FA598A93A
:101EF0000E9443178D8D282F880F330B38AB2FA7E7
:101F00008B8D9C8D009751F30197E1F20E94842EF6
:101F1000CE0143960E94440CCE0101960E94440CCF
:101F2000CE0107960E94440CCE010D960E94440CEF
:101F30006091FC037091FD03072E000C880B990B38
:101F40000E943E2823E333E948E853E40E94E52950
:101F500020E030E040E852E40E949D280E94CA2A16
:101F60006FA779AB6091FE037091FF03072E000C01
:101F7000880B990B0E943E2820E030E040E054E4BA
:101F80000E949D280E94CA2A3FA5398389A98A8375
:101F90006B837C838FEF9FEF9C8F8B8F24E0AE0150
:101FA0004F5F5F4F63E180914B080E949F0ACE0113
:101FB00049960E947516E1960FB6F894DEBF0FBEE3
:101FC000CDBFDF91CF913F902F9008950F931F9336
:101FD000CF93DF938C01EB0188E2FB0111928A958C
:101FE000E9F74BE050E064E173E0CE010E94992EE6
:101FF0001B8681E090E0A0E0B0E08C879D87AE87F3
:10200000BF87F80182819381092E000CAA0BBB0BBC
:10201000888B998BAA8BBB8B8DE090E0A0E0B0E021
:102020008C8B9D8BAE8BBF8B1CA21DA21EA21FA2F0
:1020300080E090E0A0E2B2EC8C8F9D8FAE8FBF8FDE
:1020400080E090E0AAEAB2E4888F998FAA8FBB8FD4
:102050008AE999E9A9E9BEE388A399A3AAA3BBA346
:10206000DF91CF911F910F9108950F931F93CF93FD
:10207000DF938C01EB0188E2FB0111928A95E9F76D
:102080004BE050E06CE173E0CE010E94992E1B867C
:1020900081E090E0A0E0B0E08C879D87AE87BF87AD
:1020A000F80182819381092E000CAA0BBB0B888B4F
:1020B000998BAA8BBB8B8CE090E0A0E0B0E08C8B7E
:1020C0009D8BAE8BBF8B1CA21DA21EA21FA21C8EBD
:1020D0001D8E1E8E1F8E80E090E0A8ECB2E4888FEB
:1020E000998FAA8FBB8F80E090E0A0E0B0E488A336
:1020F00099A3AAA3BBA3DF91CF911F910F9108953C
:102100004F925F926F927F92AF92BF92CF92DF9287
:10211000EF92FF920F931F93CF93DF9300D000D0E5
:1021200000D0CDB7DEB78C017B016A010E94570356
:102130002B013C018091060290910702A0910802B8
:102140008F839887A987D8011C968D919C91FC015B
:102150002481358123303105B8F4B12C8B2D29969B
:102160000FB6F894DEBF0FBECDBFDF91CF911F91A8
:102170000F91FF90EF90DF90CF90BF90AF907F9046
:102180006F905F904F900895208131E03093A906C1
:102190002093CB061092AA061092CC0643E050E0A2
:1021A000BE01695F7F4F0E940C068823B1F2C8010F
:1021B0000E94A60987FF07C06AE070E080E090E017
:1021C0000E942403F4CF46E050E0BE016F5F7F4FD2
:1021D000F801848595850E944009B82E882309F46A
:1021E000BCCF6A817B81762767277627CB01B0E059
:1021F000A0E09C01AD0184E0220F331F441F551F56
:102200008A95D1F7AC808A2D90E064E0959587950A
:102210006A95E1F7092E000CAA0BBB0BBC01CD019E
:10222000622B732B842B952B0E943C2820E030E0FE
:1022300048EC52E40E949D2820E030E040E855E35D
:102240000E949D28D80114966D937D938D939C9345
:1022500017976A2D6F7070E090E080E0982F872FBD
:10226000762F66272D81622B982F872F762F662752
:102270002E81622B0E943C2820E030E048E453E4A9
:102280000E949D2820E030E040E855E30E949D2810
:1022900020E030E048E452E40E94E429F801608341
:1022A000718382839383C114D10481F1F601349642
:1022B00080E2DF011D928A95E9F784E290E0A0E0D8
:1022C000B0E0F60180839183A283B383D8011A968C
:1022D0008D919C91B0E0A0E084839583A683B78321
:1022E0008DE090E0A0E0B0E080879187A287B3877F
:1022F000408A518A628A738AF80180819181A28121
:10230000B381F601848B958BA68BB78BE114F10416
:1023100009F424CFF701349680E2DF011D928A95FB
:10232000E9F784E290E0A0E0B0E0F70180839183D8
:10233000A283B383D80118968D919C91B0E0A0E060
:1023400084839583A683B7838DE090E0A0E0B0E01E
:1023500080879187A287B387408A518A628A738A6D
:10236000F80184819581A681B781F701848B958BD3
:10237000A68BB78BF3CEAB0170E060E0FC018481EB
:1023800095810E94801081E0089550E040E0FC01BA
:10239000848195810E94801081E0089585ED80936D
:1023A000BC008091A5069091A606A091A706B091C9
:1023B000A8060796A11DB11D23E0B695A795979590
:1023C00087952A95D1F72091BC0024FD03C0109277
:1023D000A30608954091A5065091A6066091A70610
:1023E0007091A806452B462B472B69F30097A10552
:1023F000B10541F02AE22A95F1F700C00197A10941
:10240000B109E1CF8091A4060C94FB041F93CF93F4
:10241000DF9300D000D01F921F92CDB7DEB780911E
:102420001A08882321F082EF92E00E948F0A61E06F
:1024300070E080E090E00E94240321E0AE014F5F55
:102440005F4F60E280914B080E94530B198180918D
:102450001A08882349F084E093E00E949D0A6AE00C
:1024600070E0812F0E94400B10FFE1CF28E0AE0109
:102470004F5F5F4F68E480914B080E94530B698166
:102480007A8190E080E00E943C2820E030E040E04B
:102490005AE30E949D289B01AC0160E070E080E05F
:1024A00090E40E94F92A0E94CA2A60932908709336
:1024B0002A0880932B0890932C086B817C8190E0F4
:1024C00080E00E943C2820E030E040E05AE30E9497
:1024D0009D289B01AC0160E070E080E090E40E94E8
:1024E000F92A0E94CA2A60933108709332088093B7
:1024F0003308909334086D817E8190E080E00E94E3
:102500003C2820E030E040E05AE30E949D289B01F7
:10251000AC0160E070E080E090E40E94F92A0E9443
:10252000CA2A6093390870933A0880933B089093C5
:102530003C086F81788590E080E00E943C2820E094
:1025400030E040E05AE30E949D289B01AC0160E02E
:1025500070E080E090E40E94F92A0E94CA2A609309
:10256000410870934208809343089093440828E000
:10257000AE014F5F5F4F68E280914B080E94530BA2
:1025800069817A8190E080E00E943C2820E030E080
:1025900040E05AE30E949D289B01AC0160E070E09E
:1025A00080E090E40E94F92A0E94CA2A60932D08D4
:1025B00070932E0880932F08909330086B817C8154
:1025C00090E080E00E943C2820E030E040E05AE3C8
:1025D0000E949D289B01AC0160E070E080E090E4E7
:1025E0000E94F92A0E94CA2A60933508709336081F
:1025F00080933708909338086D817E8190E080E069
:102600000E943C2820E030E040E05AE30E949D28F0
:102610009B01AC0160E070E080E090E40E94F92A48
:102620000E94CA2A60933D0870933E0880933F0839
:10263000909340086F81788590E080E00E943C286C
:1026400020E030E040E05AE30E949D289B01AC016D
:1026500060E070E080E090E40E94F92A0E94CA2ABB
:102660006093450870934608809347089093480804
:1026700021E0AE014F5F5F4F68E380914B080E94FD
:10268000530B898180934D0828960FB6F894DEBFCE
:102690000FBECDBFDF91CF911F9108951F920F9272
:1026A0000FB60F9211242F933F938F939F93AF9365
:1026B000BF9380914F0690915006A0915106B09122
:1026C000520630914E0623E0230F2D3758F5019620
:1026D000A11DB11D20934E0680934F069093500686
:1026E000A0935106B09352068091530690915406E0
:1026F000A0915506B09156060196A11DB11D80937B
:10270000530690935406A0935506B0935606BF9176
:10271000AF919F918F913F912F910F900FBE0F908E
:102720001F90189526E8230F0296A11DB11DD2CF48
:102730001F920F920FB60F9211240BB60F922F9388
:102740003F934F935F936F937F938F939F93AF9339
:10275000BF93EF93FF938DEC96E00E94E103FF910E
:10276000EF91BF91AF919F918F917F916F915F9109
:102770004F913F912F910F900BBE0F900FBE0F9076
:102780001F9018951F920F920FB60F9211240BB63F
:102790000F922F938F939F93EF93FF93E091DD061A
:1027A000F091DE068081E091E306F091E40682FD7F
:1027B0001DC090818091E6068F5F8F732091E706A0
:1027C000821741F0E091E606F0E0E353F94F958F70
:1027D0008093E606FF91EF919F918F912F910F903B
:1027E0000BBE0F900FBE0F901F9018958081F2CFF7
:1027F0001F920F920FB60F9211240BB60F922F93C8
:102800003F934F935F936F937F938F939F93AF9378
:10281000BF93EF93FF938AE697E00E94E103FF9155
:10282000EF91BF91AF919F918F917F916F915F9148
:102830004F913F912F910F900BBE0F900FBE0F90B5
:102840001F9018951F920F920FB60F9211240BB67E
:102850000F922F938F939F93EF93FF93E0917A07BB
:10286000F0917B078081E0918007F091810782FDE4
:102870001DC09081809183078F5F8F7320918407A3
:10288000821741F0E0918307F0E0E659F84F958F09
:1028900080938307FF91EF919F918F912F910F90DC
:1028A0000BBE0F900FBE0F901F9018958081F2CF36
:1028B0001F920F920FB60F9211240BB60F922F9307
:1028C0003F934F935F936F937F938F939F93AF93B8
:1028D000BF93EF93FF938091B900887F803609F40E
:1028E0004DC008F040C0883209F4A9C028F58031F5
:1028F00009F49DC0C8F4882309F4FBC0883009F4AA
:1029000096C0FF91EF91BF91AF919F918F917F9171
:102910006F915F914F913F912F910F900BBE0F9050
:102920000FBE0F901F901895883109F488C080322F
:1029300041F78093A10614C0803409F49DC040F48F
:102940008033B9F38833E9F68093A10685ECB0C0F3
:10295000803509F485C0883509F496C0883489F635
:102960000E94CE11CECF883909F48CC038F5883753
:1029700029F050F4883611F0803719F683E08093FF
:10298000A3061092FB0357C0883809F47BC0803936
:1029900019F0803809F0B5CF8091FB03803208F040
:1029A00071C0E091FB0381E08E0F8093FB03809167
:1029B000BB00F0E0E552FC4F80833DC0803B39F026
:1029C000E0F4803A09F479C0883A09F09ACF84E0BB
:1029D0008093A3061092DA031092D903E09159066E
:1029E000F0915A0619958091D90381110FC081E0A9
:1029F0008093D9031092B90309C0803C09F4A6CF93
:102A0000883C09F4A3CF883B09F07BCFE091DA033F
:102A100081E08E0F8093DA03F0E0E754FC4F808171
:102A20008093BB009091DA038091D90329C08091F3
:102A30007E068093BB0085EC8093BC0062CF9091B2
:102A4000A00680919F06981758F5E091A00681E0B6
:102A50008E0F8093A006F0E0E158F94F8081E9CF16
:102A6000E091A00681E08E0F8093A0068091BB00CC
:102A7000F0E0E158F94F80839091A00680919F0685
:102A80009817C8F285E8D8CFE091A00681E08E0FB4
:102A90008093A0068091BB00F0E0E158F94F80835D
:102AA0008091A20681115CCF81E080937D0684EA4B
:102AB0008093BC001092A30624CF85EC8093BC00C9
:102AC0001092A3068091FB03803230F4E091FB0367
:102AD000F0E0E552FC4F10826091FB0370E0E09162
:102AE0005706F09158068BED93E019951092FB0371
:102AF00008CF1092A10634CFB0E0A0E0E2E8F5E103
:102B00000C94BD29FC01A081B181B0938E08A093E3
:102B10008D08CD010C96FC01428153811C96CD910C
:102B2000DC91248135810FB6F8943EBF0FBE2DBFD6
:102B3000FA011994A6E0B0E0E0EAF5E10C94AD29C1
:102B40009E838D832B01DC011A968C911A97E82FB6
:102B5000F0E0FA83E9831B968C91282F30E03C83C8
:102B60002B83D201ED91FC91309709F448C0208469
:102B70003184712C612C6AE070E0ED81FE81E0808F
:102B8000F1800281138124813581468157818B80B8
:102B90009C8052016F0181E090E0E981FA811995F2
:102BA000892B09F042C0F5E06F16710409F440C0AA
:102BB000AD81BE81EC901196FC90119712960C910C
:102BC000129713961C91139714962C91149715969F
:102BD0003C91159716964C91169717965C91211477
:102BE0003104A9F4D201ED91FC911197808191817A
:102BF00090938E0880938D088D939C93B2CF312C47
:102C0000212C95E0692E712C6AE170E0B6CFCD8061
:102C1000DE806AE070E081E090E0F10119953C010E
:102C20008730910529F00897E9F282E0682E712C2F
:102C3000C3012696E2E10C94C929B0E0A0E0E3E2EA
:102C4000F6E10C94B129EC014B01F401A081B181B2
:102C5000F0E0E0E085E090E0109731F01896ED911B
:102C6000FC91199790E080E02B85712C612C2A173C
:102C70001B0619F424E0622E712C892BD1F43097B5
:102C800021F46728E9F00E94842EE880F9800A8107
:102C90001B812C813D814E815F8154016E01B30106
:102CA000626081E090E019958730910521F00897E6
:102CB00041F382E090E0CDB7DEB7EEE00C94CD2991
:102CC000D401ED91FC911197808191818D939C931A
:102CD000BCCF20918D0830918E08FC013183208378
:102CE00090938E0880938D080895FC0180819181D6
:102CF00090938E0880938D080895DC01ED91FC91EE
:102D0000E60FF71F84810895DC01ED91FC91309767
:102D100011F08089089580E00895DC01ED91FC9127
:102D2000E60FF71F44830895DC01ED91FC91828149
:102D3000938101960895DB011D921C92DC01ED91B7
:102D4000FC91309721F0828193810196089590E063
:102D500080E00895DC01ED91FC916150710973836D
:102D600062830895DC01ED91FC918285938508953D
:102D700090E080E0089590E080E0089590E080E0A9
:102D8000089590E080E00895A2E0B0E0EAECF6E17A
:102D90000C94B1294C0160908D0870908E087A8255
:102DA0006982E981FA813097B1F10084F185E02DE3
:102DB000309739F4E981FA81808191819A838983FE
:102DC000F0CFD401EC901196FC90119712960C91D3
:102DD000129713961C91139714962C91149715968D
:102DE0003C91159716964C91169717965C91CE01CB
:102DF00001965C01640161E070E081E090E019956A
:102E00008630910559F00897A9F283E090E0229668
:102E1000EEE00C94CD2985E090E0F9CFD4011A962C
:102E20001C921A9789811B968C937A826982BE01C3
:102E30006F5F7F4FC4010E941D168730910539F7DF
:102E4000CE0101960E947C15A2E0B0E0EAE2F7E133
:102E50000C94BD2920918D0830918E083A832983E6
:102E6000FC0162874387BE016F5F7F4F0E949A1506
:102E70008730910521F4CE0101960E947C1522969F
:102E8000E2E00C94D929A2E0B0E0E9E4F7E10C9487
:102E9000BD2920918D0830918E083A832983FC0149
:102EA0002285BE016F5F7F4F211106C00E941D1653
:102EB000079729F00E94842E0E949A15F9CFCE011F
:102EC00001960E947C15A2E0B0E0E9E6F7E10C94DF
:102ED000BD29FC012285222399F020918D08309193
:102EE0008E083A832983BE016F5F7F4F0E949A1537
:102EF000079711F00E94842ECE0101960E947C1546
:102F00000E94C4162296E2E00C94D929DC0118969E
:102F1000ED91FC91309721F0BC0181E090E0199592
:102F20000895A2E0B0E0E7E9F7E10C94B7297C014D
:102F30006B0180918D0890918E089A838983898195
:102F40009A8110E000E0892B11F405E010E0B60151
:102F5000CE010196F7011995892B41F40530110531
:102F600039F0E981FA8180819181E7CF03E010E0B7
:102F7000C8012296E8E00C94D329CF92DF92EF9219
:102F8000FF92CF93DF93FB01C12CD12C760130E06F
:102F900020E0EC01A8814A2F4F7750E070E060E01C
:102FA000022E04C0440F551F661F771F0A94D2F7E4
:102FB000C42AD52AE62AF72A295F3F4F0196A7FDA2
:102FC000E8CFC082D182E282F382DF91CF91FF907D
:102FD000EF90DF90CF900895AAE0B0E0E2EFF7E144
:102FE0000C94B5291A861986019709F0C4C061FDB1
:102FF00006C088E090E02A96EAE00C94D129C50149
:103000000E94B2168C01892BA1F3A114B10419F00E
:10301000C5010E94B81678018FEFE81AF80AF80186
:10302000D080FFEFDF1621F18D2D8077803291F077
:1030300030F4882391F0803181F00E94842E803416
:1030400009F461C0803549F08033B9F7C5010E94A9
:10305000BE1603C0C5010E94C11680E5D81257C034
:10306000EFEFEE1AFE0AE894E0F8F2E0EF0EF11C42
:10307000C7010196F70120812F3F29F0BE016F5F44
:103080007F4F0E94BD17BE016F5F7F4F01960E9468
:10309000BD177C01BE01675F7F4FC5010E949B1673
:1030A0008C0189859A85892B11F40150110910161C
:1030B00011060CF09ECFBE016B5F7F4FC7010E94CF
:1030C000BD17BE016F5F7F4F0E94BD177C0101508D
:1030D000110989F70D811E810F5F1F4F09F489CFF8
:1030E0004C2D70E060E0C5010E948D1640E061E06B
:1030F00070E0C5010E948D16B801C5010E94AA1694
:1031000087E090E078CFC5010E94B816A6CFED2DDC
:10311000EF70ED3008F091CFF0E08827ED56F74ED4
:103120008F4F0C94A529B218A018B218B518B8186A
:103130001D181D181D181D18A918B218B518B81893
:10314000BE016F5F7F4FC7010E94BD178C017801E0
:103150008FCF87010F5F1F4FF7018081780187FDB7
:10316000F8CFF5CF0D5F1F4FF2CF0B5F1F4FEFCFA3
:10317000075F1F4FECCF83E090E03DCFCF93DF930D
:10318000EDECF6E01382128248EE53E060E070E06E
:10319000448355836683778387E392E091838083BA
:1031A0002DEC30E0358724872CEC30E037872687FC
:1031B00028EC30E0318B208B29EC30E0338B228BF4
:1031C0002AEC30E0358B248B2EEC30E0378B268BCD
:1031D000118E128E138E148EEAE6F7E0138212829D
:1031E00044835583668377839183808385EC90E065
:1031F0009587848784EC90E09787868780EC90E0C1
:10320000918B808B81EC90E0938B828B82EC90E0B1
:10321000958B848B86EC90E0978B868B118E128E2B
:10322000138E148E87E098E0FC011382128244838F
:1032300055836683778329E432E031832083C3E1B9
:10324000D8E01D821E821F821886198628E0E9E0D8
:10325000F2E0AEE4B8E001900D922A95E1F723E5A3
:1032600030E039AF28AF998388831A821B821C8291
:10327000EBE7F8E01586148617861686118A108A01
:1032800060E082E00E94C302EAEAF3E0E491ADE686
:10329000B8E0EC93E4E6F3E0E491F0E0EE0FFF1F1A
:1032A000E85BFC4F8591949112969C938E931197B5
:1032B0001B961C921B971D961C921D971C961C9288
:1032C0001C971A961C921A9719961C921997189681
:1032D0001C92189717961C92179716961C92169781
:1032E00015961C92159714961C92149713961C927F
:1032F0001397E6E5F8E017821086108289E0838351
:1033000081E08483858386831182168A158A8FEFF4
:10331000838B148AB287A187DF91CF910895CF93D1
:10332000DF93CDB7DEB7CE57D1090FB6F894DEBF25
:103330000FBECDBF8CEE97E1A1969FAF8EAFA19748
:1033400080EC93E0A3969FAF8EAFA397A596DFAFD7
:10335000CEAFA59783E896E2A7969FAF8EAFA797CB
:103360002DB73EB7A9963FAF2EAFA997CE01895A88
:103370009F4F0E946916789484B5826084BD84B59D
:10338000816084BD85B5826085BD85B5816085BD60
:1033900080916E00816080936E0010928100809118
:1033A00081008260809381008091810081608093A0
:1033B0008100809180008160809380008091B100C5
:1033C00084608093B1008091B00081608093B000F0
:1033D0008091910082608093910080919100816042
:1033E0008093910080919000816080939000809103
:1033F000A10082608093A1008091A10081608093F0
:10340000A1008091A00081608093A00080912101A3
:10341000826080932101809121018160809321014C
:103420008091200181608093200180917A008460E6
:1034300080937A0080917A00826080937A008091F4
:103440007A00816080937A0080917A00806880930E
:103450007A001092C100E0917A07F0917B0722E098
:103460002083E0917607F09177071082E09178074A
:10347000F091790780E1808310928207E0917E07C6
:10348000F0917F0796E09083E0917C07F0917D07B3
:10349000808180618083E0917C07F0917D0780814D
:1034A00088608083E0917C07F0917D07808180684F
:1034B0008083E0917C07F0917D0780818F7D808300
:1034C000E091DD06F091DE062083E091D906F091CF
:1034D000DA061082E091DB06F091DC068FEC808347
:1034E0001092E506E091E106F091E2069083E0910A
:1034F000DF06F091E006808180618083E091DF0645
:10350000F091E006808188608083E091DF06F09191
:10351000E006808180688083E091DF06F091E0061C
:1035200080818F7D808361E08AE697E00E940304BA
:1035300010921A0880911508882341F061E00E94DA
:10354000C30260E0809115080E94950280911608E0
:10355000882319F062E00E94C30280911708882333
:1035600041F061E00E94C30261E0809117080E946F
:1035700095020E94E40480911A08882351F08FEF8D
:103580009FEF6B969FAF8EAF6B9784E293E00E94A4
:103590008F0A6AE070E080E090E00E9424031092BD
:1035A0001B0880914B0890EF67969FAF67972FEFAE
:1035B0003FEF6B963FAF2EAF6B9721E0AE014A5ABB
:1035C0005F4F60E10E949F0AAE968FAFAE978091E9
:1035D0001A088823A9F08CE393E00E949D0AAE9616
:1035E0003FADAE978BE693E0332311F08BE892E08A
:1035F0002FEF3FEF6B963FAF2EAF6B970E948F0A76
:103600006AE070E080E090E00E94240381E0AE96E2
:103610004FADAE97411180E080931B088FEF9FEF75
:103620006B969FAF8EAF6B9722E0AE014F5F5F4FFF
:1036300060E080914B080E94530BA981BA81AF963C
:10364000BFAFAEAFAF9780911A088823F9F08DE431
:1036500093E00E949D0AAF96EEADFFADAF9784E672
:1036600093E0E036F14081F0AF964EAD5FADAF979D
:103670004136514009F09AC0AFEFBFEF6B96BFAF34
:10368000AEAF6B978EE693E00E948F0A6AE070E01F
:1036900080E090E00E942403AF962EAD3FADAF973F
:1036A0002036314009F08BC010921C0881E08093D5
:1036B0001B088FEF9FEF6B969FAF8EAF6B9781E0EC
:1036C0000E94100B80931B080E94D50B80931B084F
:1036D0000E94D50B6AE070E080E090E00E94240335
:1036E00080914B089EE066969FAF669721E0AE0101
:1036F0004B5A5F4F62E10E949F0A23E0AE014F5F89
:103700005F4F6CE480914B080E94530BAE968FAFD5
:10371000AE97898180931D089A8190931E089B81A2
:1037200090931F08873008F4B8C091E090931C086C
:1037300090911A08992359F12FEF3FEF6B963FAF05
:103740002EAF6B976AE070E00E94400B6AE070E079
:1037500080911E080E94400B6AE070E080911F0873
:103760000E94400B88E793E00E949D0AAE96BFAD91
:10377000AE978BE693E0BB2311F08BE892E02FEF3E
:103780003FEF6B963FAF2EAF6B970E948F0A6AE0B8
:1037900070E080E090E00E94240381E0AE96EFADFF
:1037A000AE97E11180E080931B0816C0EFEFFFEFAA
:1037B0006B96FFAFEEAF6B978BE892E065CFAF965D
:1037C0008EAD9FADAF978136914021F481E080931B
:1037D0001C086DCF10921B0880911A08882351F0A5
:1037E0008FEF9FEF6B969FAF8EAF6B978FE893E055
:1037F0000E948F0A80911B0881110AC08FEF9FEFF2
:103800006B969FAF8EAF6B9761E081E50E944E0C87
:1038100080911B0881110AC08FEF9FEF6B969FAFBD
:103820008EAF6B9761E082E50E944E0C8FEF9FEFA9
:103830006B969FAF8EAF6B9782E00E94100B811149
:1038400004C061E083E50E944E0C8AE697E00E9486
:10385000C103892B11F40C9425278AE697E00E9476
:103860009F03AE968FAFAE9780918B04811118C0E5
:10387000AE96FFADAE97F13850F08FEF9FEF6B969D
:103880009FAF8EAF6B9760E08CE30E944E0CAE96BC
:103890002FADAE9720938B04D8CF10921C0848CF41
:1038A00080918A0487FF0AC08FEF9FEF6B969FAFCE
:1038B0008EAF6B9760E08DE30E944E0CE0918A041E
:1038C00081E08E0F80938A04F0E0E65FFB4FAE96B6
:1038D0003FADAE97308390918B048913B6CF482FBC
:1038E00050E0E3965FAF4EAFE39761961FAE1EAE1A
:1038F000619763961FAE1EAE639765961FAE1EAEB0
:10390000659750E040E069E572E0CE01815B9F4F32
:103910000E94240E8AE094E0E7969FAF8EAFE7976F
:10392000AF961FAE1EAEAF97E396AEADBFADE397B9
:103930001197EB96BFAFAEAFEB97E396EEADFFAD51
:10394000E397AF962EAD3FADAF972E173F07F4F537
:10395000E796AEADBFADE7976D91E796BFAFAEAF5F
:10396000E797E3E0F0E06B96FFAFEEAF6B97CE0129
:1039700001960E947D0E4D815E8169817A81CE0122
:10398000815B9F4F0E94E50DCE0101960E94440C81
:10399000AF962EAD3FADAF97EB964EAD5FADEB97CB
:1039A000241735074CF441E050E065EB73E0CE019D
:1039B000815B9F4F0E94E50DAF968EAD9FADAF9797
:1039C0000196AF969FAF8EAFAF97B7CF81E090E0F3
:1039D0006B969FAF8EAF6B9760918B04CE018596EF
:1039E0000E947D0E2B961FAE1EAE2B972D961FAEFE
:1039F0001EAE2D972F961FAE1EAE2F974FE050E0B4
:103A000063EA73E0CE01875B9F4F0E94240EBE01E4
:103A10006B5D7F4FCE01875B9F4F0E94110EAF966B
:103A20009FAF8EAFAF9743E050E063EB73E00E942F
:103A3000E50D811106C0AF968EAD9FADAF970E9488
:103A4000320CBE01615B7F4FAF968EAD9FADAF97DD
:103A50000E94110E1A8219821C821B821E821D82F4
:103A6000BC01CE0101960E94B30E82E090E06B96FD
:103A70009FAF8EAF6B97CE0101960E94710CCE0165
:103A800001960E94440CCE01875B9F4F0E94440C1C
:103A9000CE0185960E94440C90918B04AE969FAF08
:103AA000AE97923008F469C08091090481111FC15A
:103AB00064E170E080E090E00E9424038091870838
:103AC00090918808009711F00E941A2D86E090E0EE
:103AD0000E947E2CE3969FAF8EAFE39788E3E39638
:103AE000AEADBFADE3978C9387E098E012969C93C0
:103AF0008E93119713961C92139780E290E015967F
:103B00009C938E931497B0938808A09387080E9483
:103B1000E40421E0E396EEADFFADE3972383CF010C
:103B20000E942706882309F429C18AEB2A968FAFC1
:103B30002A978091870890918808DC0114962D912E
:103B40003C911597232B09F419C12C91B1E0B09346
:103B5000A9062093CB061092AA061092CC0621E06B
:103B600030E06B963FAF2EAF6B9741E050E0BE0167
:103B7000675B7F4F0E940C060BC081E090E06B9664
:103B80009FAF8EAF6B9760E08AE00E944E0C8CCFA7
:103B9000882309F4F3C064E170E080E090E00E94C3
:103BA0002403E1E0F0E06B96FFAFEEAF6B978BE79D
:103BB00098E00E94A60987FF05C06AE070E080E0F7
:103BC00090E0EDCF81EE2A968FAF2A9788E02B9672
:103BD0008FAF2B972C961FAE2C97809187089091D2
:103BE0008808DC0114962D913C912330310508F1B1
:103BF000FC01208131E03093A9062093CB0610927E
:103C0000AA061092CC0621E030E06B963FAF2EAFB3
:103C10006B9743E050E0BE01675B7F4F0E940C064C
:103C200008C087FF11C06AE070E080E090E00E9469
:103C3000240321E030E06B963FAF2EAF6B978BE70C
:103C400098E00E94A609EDCF81E090E06B969FAFCF
:103C50008EAF6B978BE798E00E94A60983FF8EC01A
:103C600080918B0890918C08009739F0DC01ED91E0
:103C7000FC910280F381E02D199580918908909143
:103C80008A08009739F0DC01ED91FC910280F38104
:103C9000E02D199586E090E00E947E2CFC0189E2DF
:103CA00092E09183808380E290E1938382832BE78B
:103CB00038E035832483F0938C08E0938B0886E00A
:103CC00090E00E947E2CFC018BE192E09183808346
:103CD00081E290E1938382834BE758E055834483EC
:103CE000F0938A08E093890881E080930904809129
:103CF0000A04813009F089C180910B049FEF980F6D
:103D0000923008F06EC0AE965FADAE97533008F4B7
:103D10003FC080910C04E2968FAFE29784E090E080
:103D20000E947E2CAF969FAF8EAFAF9783E0AF9689
:103D3000AEADBFADAF978C9381E011968C93119788
:103D4000E296EFADE2971296EC9390910B049130CE
:103D500009F080E0AF96AEADBFADAF9713968C93F0
:103D60001397AB2B01F581E090E06B969FAF8EAF80
:103D70006B9760E08DE00E944E0C15C081E090E0F2
:103D80006B969FAF8EAF6B9761E00E944E0CACCFED
:103D900081E090E06B969FAF8EAF6B9760E08CE018
:103DA0000E944E0CB6CF81E090E06B969FAF8EAF35
:103DB0006B9744E050E0AF966EAD7FADAF978DEC62
:103DC00096E00E946303049709F40AC681E090E03C
:103DD0006B969FAF8EAF6B9760E08EE00E944E0CAB
:103DE000FFC5833009F0A3C0AE96FFADAE97F430A7
:103DF000C8F020910C04EC962FAFEC97AE963FAD37
:103E0000AE973350E2963FAFE2973D37B0F081E096
:103E100090E06B969FAF8EAF6B9760E080E10E9461
:103E20004E0C0BC081E090E06B969FAF8EAF6B970E
:103E300060E08FE00E944E0CDCCFE2965FADE2972F
:103E4000452F50E0EB965FAF4EAFEB974C5F5F4F67
:103E5000E7965FAF4EAFE797CA010E947E2CE396CC
:103E60009FAF8EAFE397892B51F481E090E06B9682
:103E70009FAF8EAF6B9760E081E10E944E0CAE96D3
:103E8000EFADAE97E396AEADBFADE397EC9382E0B6
:103E900011968C931197EC96FFADEC971296FC93CC
:103EA000129781E013968C931397EB964EAD5FAD0E
:103EB000EB976DE074E0CD0104960E94892E81E0BD
:103EC00090E06B969FAF8EAF6B97E7964EAD5FAD70
:103ED000E797E3966EAD7FADE3978DEC96E00E9499
:103EE0006303E7962EAD3FADE7972817390751F0EA
:103EF00081E090E06B969FAF8EAF6B9760E082E1C0
:103F00000E944E0CE3964EAD5FADE397E3968EAD07
:103F10009FADE397452B09F075C010928A0410926B
:103F20008B04CE01815B9F4F0E94440C8ECC843069
:103F3000A1F7AE965FADAE97533090F180910C042F
:103F4000E2968FAFE29785E090E00E947E2CAF96DC
:103F50009FAF8EAFAF9784E0AF96AEADBFADAF97DA
:103F60008C9383E011968C93119781E012968C9339
:103F70001297E296EFADE2971396EC93139782E0D7
:103F800014968C931497AB2BB1F481E090E06B9670
:103F90009FAF8EAF6B9760E084E10E944E0C0BC028
:103FA00081E090E06B969FAF8EAF6B9760E083E10E
:103FB0000E944E0CC3CF81E090E06B969FAF8EAF16
:103FC0006B9745E050E0AF966EAD7FADAF978AE658
:103FD00097E00E946303059751F081E090E06B96B3
:103FE0009FAF8EAF6B9760E085E10E944E0CAF965D
:103FF0002EAD3FADAF97232B09F48FCFAF968EAD8B
:104000009FADAF970E941A2D88CF823009F085CFDF
:1040100080910B04811129C0AE963FADAE9734302C
:1040200050F080910C0490910D0491110FC060E04C
:104030000E94C30272CF81E090E06B969FAF8EAF7B
:104040006B9760E088E10E944E0CEBCF913011F449
:1040500061E0EECF81E090E06B969FAF8EAF6B9703
:1040600060E089E10E944E0C58CF813009F054C1C4
:10407000AE964FADAE97463030F150910C04E296BB
:104080005FAFE29720910E0480910F0490E0DC0175
:10409000EAE02E9FA00DB11D1124AF96BFAFAEAFC9
:1040A000AF9780910D04811128C161E0E2968FAD38
:1040B000E2970E94C302AF962EAD3FADAF97232B80
:1040C00069F460E013C081E090E06B969FAF8EAF23
:1040D0006B9760E08AE10E944E0CCFCFAF964EAD59
:1040E0005FADAF974F3F510539F461E0E2968FAD78
:1040F000E2970E94950211CFE2965FADE297E52F1D
:10410000F0E0EE5FFC4FE491E150E23108F0ECC0EA
:10411000F0E08827E157FF4D8F4F0C94A529A1208F
:10412000A920B120BF20CD207421DB20E620F12082
:10413000FF200D211B212E213C2174214A215821D1
:10414000662184B5806884BDAE968FADAE9787BD7D
:10415000E4CE84B5806284BDAE969FADAE9798BD27
:10416000DCCE80918000806880938000AF96AEADF9
:10417000BFADAF97B0938900A0938800CECE809159
:104180008000806280938000AF96EEADFFADAF9768
:10419000F0938B00E0938A00C0CE8091800088600D
:1041A00080938000AF962EAD3FADAF9730938D00DA
:1041B00020938C00B2CE8091B00080688093B000D4
:1041C000AE963FADAE973093B300A7CE8091B000CE
:1041D00080628093B000AE964FADAE974093B4002E
:1041E0009CCE80919000806880939000AF968EADB9
:1041F0009FADAF9790939900809398008ECE809159
:104200009000806280939000AF96AEADBFADAF9747
:10421000B0939B00A0939A0080CE8091900088601C
:1042200080939000AF96EEADFFADAF97F0939D00F9
:10423000E0939C0072CE8091A00080688093A000E3
:104240008091A0008F7B8093A000AF962EAD3FADF4
:10425000AF973093A9002093A8005FCE8091A00073
:1042600080628093A000AF964EAD5FADAF97509344
:10427000AB004093AA0051CE8091A000886080934B
:10428000A000AF968EAD9FADAF979093AD00809399
:10429000AC0043CE80912001806880932001AF96CE
:1042A000AEADBFADAF97B0932901A093280135CE35
:1042B00080912001806280932001AF96EEADFFAD2A
:1042C000AF97F0932B01E0932A0127CE8091200134
:1042D000886080932001AF962EAD3FADAF973093AD
:1042E0002D0120932C0119CEAF964EAD5FADAF9747
:1042F000403851050CF0F9CEE4CEAE966FADAE97D6
:10430000813009F4F3CE81E090E06B969FAF8EAFE1
:104310006B9760E08BE1A6CE823009F0CCC0AE9600
:104320005FADAE97553008F440C080910C04E6961E
:104330008FAFE69720910D0480910E04882309F435
:104340003FC030E0F901EE5FFC4F8491F901E85580
:10435000FC4FB491E296BFAFE297F901EE59FC4FE2
:104360002491AE962FAFAE97222309F488C0811115
:104370000E942E02AE963FADAE97E32FF0E0EE0F17
:10438000FF1FE85BFC4FA591B4918C91E2964FAD75
:10439000E297842321E090E009F420E0E2962FAF39
:1043A000E297E3969FAFE3972BC081E090E06B9696
:1043B0009FAF8EAF6B9760E08CE10E944E0CB5CF43
:1043C000263308F0265390917B00822F8870977FC8
:1043D000892B80937B002770206420937C00809140
:1043E0007A00806480937A0080917A0086FDFCCF09
:1043F000A0917800B0917900E396BFAFAEAFE3979C
:1044000086E090E00E947E2CAF969FAF8EAFAF9774
:1044100085E0AF96AEADBFADAF978C9382E01196BD
:104420008C93119712968C931297E696EFADE697C0
:104430001396EC93E3968EAD9FADE3976AE070E040
:104440000E946F29AF96AEADBFADAF9714966C9337
:10445000149715968C931597AB2B11F181E090E092
:104460006B969FAF8EAF6B9746E050E0AF966EAD08
:104470007FADAF978AE697E00E94630305C0E3969D
:104480001FAE1EAEE397BCCF069709F4A9C281E028
:1044900090E06B969FAF8EAF6B9760E08EE19ECC05
:1044A00081E090E06B969FAF8EAF6B9760E08DE1FF
:1044B0000E944E0CD3CF843009F09AC2AE96FFAD65
:1044C000AE97F43008F494C020910C04E2962FAF1C
:1044D000E29733E0AE963FAFAE97E0915F08F09180
:1044E0006008138615861486128611861086178238
:1044F000168215821482138210925D0810925E0853
:1045000062E370E080E090E00E942403BE016B5DF6
:104510007F4F80915F08909160080E94BE098823B8
:1045200009F48BC067E0CE0185960E94AD079CA57B
:104530008913ECCF80915D088F5F80935D088DA11A
:10454000883231F008F05FC0803111F08232F1F62C
:1045500080915E088F5F80935E088091560881117C
:104560002EC080915F08909160080E946A08BE0189
:104570006B5D7F4F80915F08909160080E944B08AF
:1045800040E064EB80915F08909160080E941708FA
:1045900080915F08909160080E94C407E6968FAFF3
:1045A000E69780915F08909160080E946A08E696FD
:1045B0004FADE697411103C051E0509356088DA1CD
:1045C000803161F1BE016F5F7F4FCE0185960E9401
:1045D000A208882359F08D819DA19B3311F487FD9A
:1045E0001DC08F33E9F0B0F48F3119F180E019C0AC
:1045F00081E090E06B969FAF8EAF6B9760E08FE1AC
:104600000E944E0C61CF8B3309F4A2CF823409F0A3
:104610007DCF9ECF8F3579F08F3741F78CE001C089
:104620008AE090915908981708F070CF8093590844
:104630006DCF89E0F6CF8BE0F4CF80915D088111DA
:1046400009C0AE968FADAE978150AE968FAFAE9744
:10465000811143CF80915F08909160080E946A08A1
:1046600040E06CEC80915F08909160080E94170810
:104670004091560864E480915F08909160080E9420
:1046800017080E945703E1966CAF7DAF8EAF9FAFC6
:10469000E19780915A08882311F180915B08882363
:1046A00009F4B4C0809156088111B0C080915F08B0
:1046B000909160080E94C407813089F00E945703DE
:1046C000E1962CAD3DAD4EAD5FADE197621B730B36
:1046D000840B950B6E3E72408105910538F38091F5
:1046E0005D08882309F487C0E0915F08F0916008B5
:1046F00013861586148612861186108617821682F6
:10470000158214821382BE016B5D7F4F80915F081A
:10471000909160080E94BE09882309F46CC067E08C
:10472000CE0185960E94AD079CA5891364C0BE0189
:104730006F5F7F4FCE0185960E94A208882309F4FF
:104740005AC08A81C12CD12C760187FF06C0C12CAA
:10475000D12CF8EFEF2EFF24FA949DA149819B33D1
:1047600009F087C02D8127FF84C040FD44C0042F7D
:1047700010E030E020E073E0000F111F221F331F14
:104780007A95D1F7B901A801407E5770662777273F
:1047900090E0B0E0A0E08C019D01EBE0000F111F64
:1047A000221F331FEA95D1F7042B152B262B372B0D
:1047B0000C291D292E293F29013854EE15075FEFDA
:1047C00025073507C4F0C901B8010E943E2820E042
:1047D00030E040E05CE30E949D28E1966CAF7DAF45
:1047E0008EAF9FAFE19720E030E04EEF52EC0E9499
:1047F000372881118EC081E090E06B969FAF8EAF1D
:104800006B9760E081E20E944E0C79C0E0915908FC
:10481000E9508EEE92E0E33038F4F0E0EE0FFF1F47
:10482000EF5EFD4F808191819C0150E040E0E19678
:104830002CAF3DAF4EAF5FAFE19780915708882313
:1048400029F060E0809158080E949502E1966CADD5
:104850007DAD8EAD9FADE1970E94240380915708F6
:10486000882309F43CCF61E0809158080E949502AA
:1048700036CF082F10E0102F0027110F110F110F46
:1048800038E0439FA0011124042B152B012E000CAE
:10489000220B330B0C291D292E293F29903109F0B9
:1048A0008BCF6885662309F487CF70E08F81AB01D9
:1048B000481B5109CA019695982F88279795879587
:1048C0000E946F29CB01770FAA0BBB0B53E0000F9F
:1048D000111F221F331F5A95D1F7007827703327F5
:1048E0000052110921093109800F911FA21FB31F26
:1048F00097018601082B192B2A2B3B2B5DCF80E0DB
:1049000090E0AEEFB2ECE1968CAF9DAFAEAFBFAF33
:10491000E19720E030E040E251E4E1966CAD7DADFE
:104920008EAD9FADE1970E949D280E94C32AE79615
:104930007FAF6EAFE79786E090E00E947E2CAF9647
:104940009FAF8EAFAF9785E0AF96AEADBFADAF97DF
:104950008C9382E011968C93119784E012968C933D
:104960001297E296EFADE2971396EC93E7968EAD31
:104970009FADE7976AE070E00E946F29AF96AEADF9
:10498000BFADAF9714966C93149715968C931597AB
:10499000AB2BD9F081E090E06B969FAF8EAF6B9719
:1049A00046E050E0AF966EAD7FADAF978AE697E0F8
:1049B0000E9463030697A1F081E090E06B969FAFA1
:1049C0008EAF6B9760E083E209CA81E090E06B965E
:1049D0009FAF8EAF6B9760E082E20E944E0CDACF01
:1049E000AF96EEADFFADAF97EF2B09F007CB95CAB1
:1049F000853009F092CAAE96FFADAE97F33010F154
:104A000020910C04EA962FAFEA9781E090E06B9634
:104A10009FAF8EAF6B97AE014F5F5F4FBE016B5D77
:104A20007F4F8BE798E00E948010811116C081E0D3
:104A300090E06B969FAF8EAF6B9760E085E20E942F
:104A40004E0C0BC081E090E06B969FAF8EAF6B97E2
:104A500060E084E20E944E0CD3CF20E030E040E2E0
:104A600051E46D897E898F89988D0E949D280E94CE
:104A7000C32AE5966CAF7DAF8EAF9FAFE597E39607
:104A80004EAD5FADE397ED965FAF4EAFED9720E093
:104A900030E040E251E469AD7AAD8BAD9CAD0E944F
:104AA0009D280E94C32AE9966CAF7DAF8EAF9FAF61
:104AB000E997E7968EAD9FADE797EF969FAF8EAFE4
:104AC000EF9784E090E00E947E2CAF969FAF8EAF70
:104AD000AF9783E0AF96AEADBFADAF978C9382E05A
:104AE00011968C932AE030E0ED968EAD9FADED9758
:104AF000B9010E946F29AF96EEADFFADAF9762830B
:104B0000EF968EAD9FADEF97B9010E946F29638339
:104B1000EF2B51F481E090E06B969FAF8EAF6B97D7
:104B200060E086E20E944E0C81E090E06B969FAFC1
:104B30008EAF6B9744E050E0AF966EAD7FADAF9710
:104B40008AE697E00E946303049751F081E090E0C9
:104B50006B969FAF8EAF6B9760E087E20E944E0C22
:104B6000AF962EAD3FADAF97232B09F069C0E79606
:104B70004EAD5FADE797BA01550F880B990B0E94B8
:104B80003E2820E030E040E251E40E94512A0E9499
:104B9000C32AE1966CAF7DAF8EAF9FAFE197E396EE
:104BA000AEADBFADE397BD01BB0F880B990B0E9463
:104BB0003E2820E030E040E251E40E94512A0E9469
:104BC000C32AE5966CAF7DAF8EAF9FAFE597E1E06E
:104BD000F4E090E080E02191211139C08F5F9B4F7C
:104BE000EA962FADEA97FC012083E3964EAD5FADC8
:104BF000E3975093FD034093FC03AF968EAD9FADBA
:104C0000AF979093FF038093FE036CE271E08AEC10
:104C10009EE00E941409882351F168E572E083ED5B
:104C20009CE00E94140981112DC081E090E06B96F8
:104C30009FAF8EAF6B9760E082E60E944E0C22C061
:104C4000AF968EAD9FADAF970E941A2D90CF019673
:104C50008830910509F0BFCF81E090E06B969FAF5F
:104C60008EAF6B9760E085E50E944E0CBECF81E071
:104C700090E06B969FAF8EAF6B9760E081E60E94ED
:104C80004E0CCBCF64E873E086E092E10E941409F9
:104C900081110AC081E090E06B969FAF8EAF6B9759
:104CA00060E083E60E944E0C60EB74E084E39DE0DC
:104CB0000E941409811131C981E090E06B969FAF89
:104CC0008EAF6B9760E084E6CDC9CE0101960E945D
:104CD000440CCE01875B9F4F0E94440CCE01859609
:104CE0000E94440CCE01815B9F4F0E94440C8FEFC9
:104CF0009FEF6B969FAF8EAF6B97AF968EAD9FADCC
:104D0000AF970E9443176C968FAD6C97A82F880FB2
:104D1000BB0BAF96BFAFAEAFAF976B968EAD9FADEF
:104D20006B970097F9F2019781F20197D9F20E94EF
:104D3000842E80910C0587FF0AC02FEF3FEF6B9602
:104D40003FAF2EAF6B9760E087E40E944E0CE0917E
:104D50000C0531E03E0FAE963FAFAE9730930C0599
:104D6000F0E0E457FB4FE2964FADE297408380912D
:104D70000D0538136AC0323050F48FEF9FEF6B96F9
:104D80009FAF8EAF6B9760E082E30E944E0C8091E4
:104D90008C04813009F08AC0AE969FADAE979330F7
:104DA00050F4AFEFBFEF6B96BFAFAEAF6B9760E065
:104DB00083E30E944E0CB0918E04E296BFAFE2975F
:104DC000B13009F068C084E090E00E947E2CAF967C
:104DD0009FAF8EAFAF9723E0FC012083E2963FADFB
:104DE000E2973183328380918D048383EF2B51F4DA
:104DF0004FEF5FEF6B965FAF4EAF6B9760E084E372
:104E00000E944E0C8FEF9FEF6B969FAF8EAF6B970C
:104E100044E050E0AF966EAD7FADAF978AE697E085
:104E20000E946303049721F060E085E30E944E0C2A
:104E3000AF96AEADBFADAF97109719F0CD010E9400
:104E40001A2D10920C0510920D058DEC96E00E9423
:104E5000C103892BA1F18DEC96E00E949F03E2969D
:104E60008FAFE29780910D05811163CFE296BFADC0
:104E7000E297B13850F0EFEFFFEF6B96FFAFEEAF78
:104E80006B9760E086E40E944E0CE296FFADE297DD
:104E9000F0930D05DACFEFEFFFEF6B96FFAFEEAFBC
:104EA0006B9760E086E30E944E0CCBCF2FEF3FEF75
:104EB0006B963FAF2EAF6B9760E087E3F4CF0E9415
:104EC0005703E3967FAF6EAFE397CB0164E670E0E4
:104ED0000E945B29892B09F070C04EEA55E0AF961D
:104EE0005FAF4EAFAF97AF96AEADBFADAF97149675
:104EF0008C9114978823F1F012966D917C91E39632
:104F00008EAD9FADE3970E945B29892B99F4AF96F4
:104F1000AEADBFADAF97ED91FC912FEF3FEF6B962C
:104F20003FAF2EAF6B971995AF96AEADBFADAF97B4
:104F300014961C92AF96EEADFFADAF973596AF9637
:104F4000FFAFEEAFAF97EE54F64069F64EE055E096
:104F5000AF965FAF4EAFAF97AF96AEADBFADAF9769
:104F600014968C9114978823D1F012968D919C9170
:104F70001397E396EEADFFADE397E817F90778F0E6
:104F8000ED91FC912FEF3FEF6B963FAF2EAF6B97FC
:104F90001995AF96AEADBFADAF9714961C92AF9674
:104FA000EEADFFADAF973596AF96FFAFEEAFAF97D3
:104FB0002EEA35E02E173F0779F68FEF9FEF6B96BD
:104FC0009FAF8EAF6B970E9470040C94251C80914C
:104FD000890890918A08009739F0DC01ED91FC91E5
:104FE0000280F381E02D199580918B0890918C08B7
:104FF000009739F0DC01ED91FC910280F381E02D06
:1050000019940895BB274A3031F4992322F4BDE264
:10501000909581959F4F0C940E28BB27FB01552737
:10502000AA27880F991FAA1FA41710F0A41B839505
:105030005051B9F7A05DAA3308F0A95DA19300977C
:1050400079F7B111B1931192CB010C942728DC01AF
:10505000FC01672F71917723E1F7329704C07C91AF
:105060006D9370836291AE17BF07C8F308950E94D5
:10507000792808F481E00895E89409C097FB3EF48C
:1050800090958095709561957F4F8F4F9F4F992395
:10509000A9F0F92F96E9BB279395F6958795779513
:1050A0006795B795F111F8CFFAF4BB0F11F460FFD3
:1050B0001BC06F5F7F4F8F4F9F4F16C0882311F02B
:1050C00096E911C0772321F09EE8872F762F05C03F
:1050D000662371F096E8862F70E060E02AF09A95DA
:1050E000660F771F881FDAF7880F9695879597F9CF
:1050F0000895990F0008550FAA0BE0E8FEEF161669
:105100001706E807F907C0F012161306E407F507BB
:1051100098F0621B730B840B950B39F40A2661F02F
:10512000232B242B252B21F408950A2609F4A140D2
:10513000A6958FEF811D811D08950E94B0280C94C3
:1051400021290E94132938F00E941A2920F0952362
:1051500011F00C940A290C94102911240C9455294F
:105160000E94322970F3959FC1F3950F50E0551FAF
:10517000629FF001729FBB27F00DB11D639FAA27AC
:10518000F00DB11DAA1F649F6627B00DA11D661FFB
:10519000829F2227B00DA11D621F739FB00DA11D1C
:1051A000621F839FA00D611D221F749F3327A00DD6
:1051B000611D231F849F600D211D822F762F6A2F72
:1051C00011249F5750409AF0F1F088234AF0EE0FD7
:1051D000FF1FBB1F661F771F881F91505040A9F704
:1051E0009E3F510580F00C940A290C9455295F3F8D
:1051F000E4F3983ED4F3869577956795B795F79540
:10520000E7959F5FC1F7FE2B880F911D96958795B7
:1052100097F9089597F99F6780E870E060E0089536
:105220009FEF80EC089500240A94161617061806BE
:105230000906089500240A9412161306140605069A
:105240000895092E0394000C11F4882352F0BB0F2B
:1052500040F4BF2B11F460FF04C06F5F7F4F8F4F8E
:105260009F4F089557FD9058440F551F59F05F3FC9
:1052700071F04795880F97FB991F61F09F3F79F078
:1052800087950895121613061406551FF2CF4695FA
:10529000F1DF08C0161617061806991FF1CF86957C
:1052A0007105610508940895E894BB276627772760
:1052B000CB0197F90895AA1BBB1B51E107C0AA1F98
:1052C000BB1FA617B70710F0A61BB70B881F991FA7
:1052D0005A95A9F780959095BC01CD01089597FB4B
:1052E000072E16F4009407D077FD09D00E945B29A1
:1052F00007FC05D03EF4909581959F4F08957095D9
:1053000061957F4F0895A1E21A2EAA1BBB1BFD01D8
:105310000DC0AA1FBB1FEE1FFF1FA217B307E40794
:10532000F50720F0A21BB30BE40BF50B661F771FEC
:10533000881F991F1A9469F76095709580959095CC
:105340009B01AC01BD01CF010895EE0FFF1F881F27
:105350008BBF0790F691E02D19942F923F924F92B8
:105360005F926F927F928F929F92AF92BF92CF92F5
:10537000DF92EF92FF920F931F93CF93DF93CDB7FE
:10538000DEB7CA1BDB0B0FB6F894DEBF0FBECDBF76
:1053900019942A88398848885F846E847D848C8437
:1053A0009B84AA84B984C884DF80EE80FD800C8150
:1053B0001B81AA81B981CE0FD11D0FB6F894DEBF33
:1053C0000FBECDBFED0108955058BB27AA270E94FC
:1053D000FC290C9421290E94132938F00E941A29D3
:1053E00020F039F49F3F19F426F40C9410290EF4A0
:1053F000E095E7FB0C940A29E92F0E94322958F323
:10540000BA17620773078407950720F079F4A6F5A9
:105410000C9454290EF4E0950B2EBA2FA02D0B01FD
:10542000B90190010C01CA01A0011124FF27591BE9
:1054300099F0593F50F4503E68F11A16F040A22FEF
:10544000232F342F4427585FF3CF46953795279560
:10545000A795F0405395C9F77EF41F16BA0B620B5F
:10546000730B840BBAF09150A1F0FF0FBB1F661FA6
:10547000771F881FC2F70EC0BA0F621F731F841FE9
:1054800048F4879577956795B795F7959E3F08F00F
:10549000B0CF9395880F08F09927EE0F97958795D1
:1054A00008950E94652A0C9421290E941A2958F017
:1054B0000E94132940F029F45F3F29F00C940A2937
:1054C00051110C9455290C9410290E94322968F32B
:1054D0009923B1F3552391F3951B550BBB27AA27AD
:1054E00062177307840738F09F5F5F4F220F331FE7
:1054F000441FAA1FA9F335D00E2E3AF0E0E832D0AF
:1055000091505040E695001CCAF72BD0FE2F29D0B1
:10551000660F771F881FBB1F261737074807AB0783
:10552000B0E809F0BB0B802DBF01FF2793585F4FF8
:105530003AF09E3F510578F00C940A290C945529B5
:105540005F3FE4F3983ED4F3869577956795B795DA
:10555000F7959F5FC9F7880F911D9695879597F9E5
:105560000895E1E0660F771F881FBB1F621773075E
:105570008407BA0720F0621B730B840BBA0BEE1F73
:1055800088F7E09508950E94CA2A6894B1110C9496
:10559000552908950E943A2988F09F5798F0B92F0D
:1055A0009927B751B0F0E1F0660F771F881F991F58
:1055B0001AF0BA95C9F714C0B13091F00E9454297D
:1055C000B1E008950C945429672F782F8827B85F8D
:1055D00039F0B93FCCF3869577956795B395D9F7B0
:1055E0003EF490958095709561957F4F8F4F9F4FBA
:1055F0000895FA01EE0FFF1F309621053105A1F144
:105600006115710561F48038BFE39B0749F1689427
:105610009038810561F08038BFEF9B0741F09923F6
:105620004AF5FF3FE1053105210519F1E894089499
:10563000E795D901AA2329F4AB2FBE2FF85FD0F349
:1056400010C0FF5F70F4A695E0F7F73950F019F03D
:10565000FF3A38F49F779F930DD00F9007FC905836
:10566000089546F00C94102960E070E080E89FE314
:1056700008954FE79F775F934F933F932F930E9437
:10568000F42B2F913F914F915F910E949D280C9494
:10569000512B29F416F00C940A290C9454290C94DB
:1056A00010290E943A29A8F39638A0F707F80F921C
:1056B000E8942BE33AEA48EB5FE70E94B3280F92A5
:1056C0000F920F924DB75EB70F920E943C2CE4EE02
:1056D000F0E00E94832B4F915F91EF91FF91E59550
:1056E000EE1FFF1F49F0FE57E0684427EE0F441FEE
:1056F000FA95E1F74195550B0E94B62B0F9007FEE6
:105700000C94AA2B0895DF93CF931F930F93FF92CE
:10571000EF92DF927B018C01689406C0DA2EEF01D4
:105720000E94B028FE01E894A591259135914591FC
:105730005591A6F3EF010E94FC29FE019701A801F3
:10574000DA9469F7DF90EF90FF900F911F91CF915E
:10575000DF9108959B01AC0160E070E080E89FE379
:105760000C94512A0C940A290C94702C0E943A290A
:10577000D8F39923C9F3940F511DA3F391505040CE
:1057800094F059F0882332F0660F771F881F9150EC
:105790005040C1F79E3F51052CF7880F911D9695FB
:1057A000879597F908955F3FACF0983E9CF0BB2732
:1057B000869577956795B79508F4B1609395C1F78D
:1057C000BB0F58F711F460FFE8CF6F5F7F4F8F4F2B
:1057D0009F4FE3CF0C94552916F00C94702C0C9429
:1057E000102968940C940A290E943A29A8F3992355
:1057F000C1F3AEF3DF93CF931F930F93FF92C92FA3
:10580000DD2788232AF02197660F771F881FDAF794
:1058100020E030E040E85FEB9FE3883920F0803EF5
:1058200038F021968F770E94E529ECE0F1E004C082
:105830000E94E529E9E3F1E00E94832B8B01BE0180
:10584000EC01FB2E6F5771097595771F880B990B2B
:105850000E943E2828E132E741E35FE30E94B0283E
:10586000AF2D9801AE01FF900F911F91CF91DF9165
:105870000E94FC290C942129FA01DC01AA0FBB1F0C
:105880009B01AC01BF5728F42227332744275078C7
:1058900020C0B75190F4AB2F00244695379527953B
:1058A000011CA395D2F3002071F0220F331F441F77
:1058B000B395DAF30ED00C94E42961307105A0E8B9
:1058C0008A07B94630F49B01AC0166277727882701
:1058D0009078309621F0208331834283538308955A
:1058E0009F3F31F0915020F4879577956795B79554
:1058F000880F911D9695879597F908950F931F939B
:10590000CF93DF938230910510F482E090E0E09134
:105910009108F091920830E020E0B0E0A0E03097EC
:1059200099F42115310509F44AC0281B390B24309C
:105930003105D8F58A819B816115710589F1FB01DB
:1059400093838283FE0111C04081518102811381C2
:1059500048175907E0F04817590799F4109761F074
:1059600012960C93129713961C933296CF01DF91E7
:10597000CF911F910F910895009391081093920871
:10598000F4CF2115310551F04217530738F0A90122
:10599000DB019A01BD01DF01F801C1CFEF01F9CFB1
:1059A0009093920880939108CDCFFE01E20FF31FF0
:1059B000819391932250310939832883D7CF209145
:1059C0008F0830919008232B41F4209102023091EE
:1059D00003023093900820938F08209100023091A9
:1059E00001022115310541F42DB73EB74091040263
:1059F00050910502241B350BE0918F08F09190081F
:105A0000E217F307A0F42E1B3F0B2817390778F095
:105A1000AC014E5F5F4F2417350748F04E0F5F1FF4
:105A20005093900840938F08819391939FCFF0E01B
:105A3000E0E09CCFCF93DF930097E9F0FC01329731
:105A400013821282A0919108B0919208ED0130E08A
:105A500020E01097A1F420813181820F931F2091C3
:105A60008F08309190082817390709F061C0F0932A
:105A70009008E0938F08DF91CF910895EA01CE1747
:105A8000DF07E8F54A815B819E0141155105B1F7B9
:105A9000E901FB83EA8349915991C40FD51FEC17A3
:105AA000FD0761F4808191810296840F951FE901C1
:105AB00099838883828193819B838A83F0E0E0E0ED
:105AC00012968D919C9113970097B9F52D913C9169
:105AD0001197CD010296820F931F20918F0830916C
