:100000000C94F7010C9428020C9428020C942802FA
:100010000C9428020C9428020C9428020C942802B8
:100020000C9428020C9428020C9428020C942802A8
:100030000C9428020C9428020C9428020C94280298
:100040000C9428020C9428020C9428020C94280288
:100050000C9428020C9428020C9428020C941A1375
:100060000C9428020C94EE130C94C4130C942802E4
:100070000C9428020C9428020C9428020C94280258
:100080000C9428020C9428020C9428020C94280248
:100090000C948E130C9464130C9428020C94241466
:1000A0000C9428020C9428020C9428020C94280228
:1000B0000C9428020C9428020C9428020C94280218
:1000C0000C9428020C9428020C9428020C94280208
:1000D0000C9428020C9428020C9428020C942802F8
:1000E0000C94280207634236B79BD8A71A39685682
:1000F00018AEBAAB558C1D3CB7CC5763BD6DEDFD4A
:10010000753EF6177231BF000000803F0800000006
:10011000BE922449123EABAAAA2ABECDCCCC4C3EFC
:1001200000000080BEABAAAAAA3E00000000BF00EB
:100130000000803F0000000000084178D3BB4387E7
:10014000D1133D190E3CC3BD4282AD2B3E68EC82FB
:1001500076BED98FE1A93E4C80EFFFBE01C4FF7F80
:100160003F00000000000C9422070C944E040C94F5
:1001700061030C942B020C943D1E0C9435170C94C7
:10018000B8170C9491110C9481020C94511E0C948C
:10019000E9170C946F020C94E21D0C949D030C94CF
:1001A0004A020C9486220C94F41D0C9401040C94C5
:1001B000471E0C948E030C94EC1D0C9458020C9466
:1001C00085020C948A180C9496160C942E0C0C94A0
:1001D00079070C9463170C942A020C94460F0C9424
:1001E0008A020C9415170C94D81D0C94BF030C9420
:1001F0008F020C944A0C0C94CE1D0C9481180C9414
:100200009B040C9401100C94C91D0C94A8070C9429
:100210005C020C9432070C944C070C94D2110C9491
:100220007D020C948B020C9475180C9454020C945F
:1002300077020C944E150C94EF150C946C150C94DD
:10024000331E0C941A1E0C946C180C9484180C9485
:1002500087110C94FC1D0C9423070C9473020C94CE
:10026000B20F0C94101E0C9445070C945F020C9472
:10027000C41D0C94D10C0C94320D0C94B1030C944D
:1002800065020C945B1E0C94291E0C9469020C945C
:100290009C040C946F0E0C94F6160C9450020C9463
:1002A000BE170C94061E0C947E18005EBCE2613FE3
:1002B000DD83C29C7E20A3FD1F41009D23BE46DB43
:1002C00065F88C11AF32CA57E97400002100240090
:1002D00027002A002D003000330001010000040136
:1002E00007010A0100002200250028002B002E0033
:1002F0003100340002010000050108010B0100007B
:100300000A0B02090C0D0E0807030401000000008F
:1003100000000000000000000000000000000000DD
:10032000000000000000000000001211100000009A
:1003300000000000000000000000000000000000BD
:1003400000000000000020002300260029002C00EF
:100350002F0032000001000003010601090105051C
:100360000505070508080808020202020A0A08082B
:100370000404040401010101010101010303030359
:1003800003030303040707070C0C0C0C0C0C0C0CE8
:100390000202020206060606060606060B0B0B0BF9
:1003A0000B0B0B0B0102102020080810204010201E
:1003B0004080020102010804020101020408102029
:1003C0004080804020100804020180040201804027
:1003D0002010080402010804020101020408102090
:1003E000408001020408102040808A1886221124CF
:1003F0001FBECFEFD1E2DEBFCDBF00E00CBF28E0D3
:10040000A4EAB3E001C01D92AF37B207E1F713E0F1
:10041000A0E0B2E0E2EBF2E500E00BBF02C0079023
:100420000D92A43AB107D9F711E0C6EFD1E000E090
:1004300006C021970109802FFE010E944424C53F78
:10044000D10780E00807A9F70E945B190C9447299F
:100450000C940000089508958150823108F05AC02C
:10046000E82FF0E08827E85CFD4F8F4F0C94442480
:1004700058025C024A02500254028A025F0265027C
:1004800069026F02730277027D0281028A0285028D
:100490008B028F02809180008F7780938000089577
:1004A000809180008F7DF9CF80918000877FF5CF8C
:1004B00084B58F7784BD089584B58F7DFBCF8091FF
:1004C000B0008F778093B00008958091B0008F7D49
:1004D000F9CF809190008F7780939000089580915C
:1004E00090008F7DF9CF80919000877FF5CF80912C
:1004F000A0008F778093A00008958091A0008F7D49
:10050000F9CF8091A000877FF5CF809120018F7770
:10051000809320010895809120018F7DF9CF8091F3
:100520002001877FF5CF1F93CF93DF93282F30E0F3
:10053000F901E250FD4F8491F901EC55FC4FD49143
:10054000F901E25AFC4FC491CC23A9F0162F811176
:100550000E942C02EC2FF0E0EE0FFF1FEC51FD4F3C
:10056000A591B4918FB7F894EC91111108C0D09572
:10057000DE23DC938FBFDF91CF911F910895DE2B97
:10058000F8CFCF93DF9390E0FC01EC55FC4F249122
:10059000825A9C4FFC0184918823C9F090E0880F17
:1005A000991FFC01E653FD4FA591B491FC01EC515C
:1005B000FD4FC591D49161110DC09FB7F8948C91F6
:1005C000209582238C938881282328839FBFDF91E5
:1005D000CF910895623051F49FB7F8943C91822FE7
:1005E000809583238C93E8812E2BEFCF8FB7F894DF
:1005F000EC912E2B2C938FBFEACF3FB7F8948091CC
:100600003F0690914006A0914106B091420626B562
:10061000A89B05C02F3F19F00196A11DB11D3FBF3A
:10062000BA2FA92F982F8827BC01CD01620F711D09
:10063000811D911D42E0660F771F881F991F4A9503
:10064000D1F708958F929F92AF92BF92CF92DF928F
:10065000EF92FF926B017C010E94FD024B015C0155
:10066000C114D104E104F104B9F00E94FD0268193B
:1006700079098A099B09683E73408105910580F3D9
:1006800021E0C21AD108E108F10888EE880E83E063
:10069000981EA11CB11CE4CFFF90EF90DF90CF908B
:1006A000BF90AF909F908F9008952FB7F89460916E
:1006B0003B0670913C0680913D0690913E062FBF0F
:1006C0000895AF92BF92CF92DF92EF92FF920F9375
:1006D0001F93CF93DF936C017B018B01040F151FD8
:1006E000EB015E01AE18BF08C017D10759F0699140
:1006F000D601ED91FC910190F081E02DC601199594
:10070000892B79F7C501DF91CF911F910F91FF9050
:10071000EF90DF90CF90BF90AF900895FC01538D84
:10072000448D252F30E0842F90E0821B930B5417CB
:1007300010F0CF96089501970895FC01918D828D58
:10074000981761F0A28DAE0FBF2FB11D5D968C91F1
:10075000928D9F5F9F73928F90E008958FEF9FEF30
:100760000895FC01918D828D981731F0828DE80FEC
:10077000F11D858D90E008958FEF9FEF0895FC01A6
:10078000918D228D892F90E0805C9F4F821B910973
:100790008F739927089589EB96E00E94BF0321E0AB
:1007A000892B09F420E0822F089586E597E00E94C6
:1007B000BF0321E0892B09F420E0822F0895FC017A
:1007C000A48DA80FB92FB11DA35ABF4F2C91848DB2
:1007D00090E001968F739927848FA689B7892C930F
:1007E000A089B1898C91837080648C93938D848D62
:1007F000981306C00288F389E02D80818F7D808365
:100800000895EF92FF920F931F93CF93DF93EC0124
:1008100081E0888F9B8D8C8D98131AC0E889F989A7
:10082000808185FF15C09FB7F894EE89FF896083AA
:10083000E889F98980818370806480839FBF81E02B
:1008400090E0DF91CF911F910F91FF90EF9008956D
:10085000F62E0B8D10E00F5F1F4F0F731127E02E48
:100860008C8D8E110CC00FB607FCFACFE889F98980
:10087000808185FFF5CFCE010E94DF03F1CFEB8DA4
:10088000EC0FFD2FF11DE35AFF4FF0829FB7F89454
:100890000B8FEA89FB8980818062CFCFCF93DF9372
:1008A000EC01888D8823B9F0AA89BB89E889F98988
:1008B0008C9185FD03C0808186FD0DC00FB607FCBD
:1008C000F7CF8C9185FFF2CF808185FFEDCFCE01F0
:1008D0000E94DF03E9CFDF91CF91089580E090E09F
:1008E000892B29F00E94D50381110E94000080E02D
:1008F00090E0892B29F00E94CB0381110E94000017
:1009000080E090E0892B49F080E090E0892B29F08D
:100910000E94000081110E94000080E090E0892B7D
:1009200049F080E090E0892B29F00E9400008111BD
:100930000C9400000895089508952091C503260F92
:100940003327331F21323105ECF420918F06FC014F
:1009500090E080E0243069F082E00895A091C50322
:100960002191AC014B555C4FA40FB52FB11D2C93B9
:100970000196861798F38091C503680F6093C503AD
:1009800080E0089581E0089510928F0681E08093C1
:100990008E061092690661E084E10E94930261E094
:1009A00085E10E949302E9EBF0E080818E7F8083F5
:1009B00080818D7F808388E48093B80085E4809374
:1009C000BC000895109248061092470610929606B1
:1009D0001092B8060E94C4048AE292E09093460600
:1009E000809345068BE292E0909344068093430601
:1009F0000895CF93DF9391E09093A4038823B9F0F7
:100A0000C091B800D091BA008091BC008A7B8093DD
:100A1000BC0060E084E10E94930260E085E10E94F6
:100A200093020E94C404D093BA00C093B800DF912F
:100A3000CF9108958F929F92AF92BF92CF92DF9203
:100A4000EF92FF920F931F93CF93DF93D091B8064D
:100A5000D13208F0D7C0182FC091B7060E94FD020E
:100A60006B017C0180918F0681116BC082E08093C5
:100A70008F0610938E068FEF80938D0610928C0652
:100A8000D0938B06A7E9B6E0EBE6F6E080E0D8135A
:100A900091C010926A0680916A06CC0FC82BC09351
:100AA0006A0680916906813009F088C01092690653
:100AB0000E94FD026B017C0180916A068093BB005D
:100AC0008091910690919206A0919306B091940620
:100AD000892B8A2B8B2BA1F00E94FD02009191069D
:100AE0001091920620919306309194066C197D091D
:100AF0008E099F09061717072807390708F442C00F
:100B00008091BC0083FDD8CF85EC8093BC000E940F
:100B1000FD026B017C0180918F06823009F450C088
:100B200080918D068F3F09F46FC080918D068032D1
:100B300009F46CC080918D06803309F469C084E0AB
:100B400026C08091910690919206A0919306B09153
:100B50009406892B8A2B8B2B09F484CF0E94FD02EB
:100B60008090910690909206A0909306B090940683
:100B70006C197D098E099F0986169706A806B90685
:100B800008F070CF809190060E94F90485E01092E1
:100B900096061092B80610929506DF91CF911F919C
:100BA0000F91FF90EF90DF90CF90BF90AF909F900C
:100BB0008F9008959D9191938F5F69CF85EEA5CF1A
:100BC0008091910690919206A0919306B09194061F
:100BD000892B8A2B8B2B09F49ECF0E94FD0200915A
:100BE00091061091920620919306309194066C190B
:100BF0007D098E099F09061717072807390708F08E
:100C00008ACFC0CF81E0C3CF80E0C1CF82E0BFCF29
:100C100083E0BDCFCF93DF93EA01DC0111968D9184
:100C20009C91DC01ED91FC910280F381E02D1995FE
:100C3000C817D90729F481E00E941A0591E08111B3
:100C400090E0892FDF91CF910895CF93DF93EC014E
:100C50008B818823A1F0888191E090939506809301
:100C6000B706109296061092B80681E00E941A0507
:100C700091E0811190E0892FDF91CF9108950E943A
:100C8000E20481E08B83CE010E942506982F81111A
:100C9000E2CFF1CF8F929F92AF92BF92CF92DF922D
:100CA000EF92FF920F931F93CF93DF93D82FC62F0E
:100CB000142F613208F09CC00E94FD026B017C0180
:100CC00080918F0681116FC081E080938F06109311
:100CD0008E069FEF90938D0610928C069C0F90933A
:100CE0008B0680936A0680916A06DD0FD82BD0931D
:100CF0006A0680916906813009F07CC0109269060D
:100D00000E94FD026B017C0180916A068093BB000A
:100D10008091910690919206A0919306B0919406CD
:100D2000892B8A2B8B2BA1F00E94FD02009191064A
:100D30001091920620919306309194066C197D09CA
:100D40008E099F09061717072807390708F44CC0B2
:100D50008091BC0083FDD8CF85EC8093BC000E94BD
:100D6000FD026B017C0180918F06813009F444C043
:100D700080918C068C1710F4C0918C06EBE6F6E09F
:100D8000A9E4B6E080E08C1359C08C2FDF91CF919D
:100D90001F910F91FF90EF90DF90CF90BF90AF9099
:100DA0009F908F9008958091910690919206A091C6
:100DB0009306B0919406892B8A2B8B2B09F480CF54
:100DC0000E94FD028090910690909206A09093065A
:100DD000B09094066C197D098E099F0986169706B6
:100DE000A806B90608F06CCF809190060E94F9041D
:100DF000C0E0CBCF85EEB1CF809191069091920665
:100E0000A0919306B0919406892B8A2B8B2B09F421
:100E1000AACF0E94FD0200919106109192062091A6
:100E20009306309194066C197D098E099F09061767
:100E300017072807390708F096CFD6CF91919D93D1
:100E40008F5FA1CF0895E091480680914706E8178B
:100E500030F4F0E0E75BF94F808190E008958FEF88
:100E60009FEF089590914806809147062FEF3FEF3E
:100E7000981748F4E92FF0E0E75BF94F208130E064
:100E80009F5F90934806C90108958091470690910D
:100E90004806891B990B0895CF92DF92EF92FF923B
:100EA0000F931F93CF93DF937C01CB018A01209195
:100EB0009506222389F0EB016B01C40ED51ECC15DB
:100EC000DD0569F06991D701ED91FC910190F08108
:100ED000E02DC7011995F3CF642F0E949D04C8012E
:100EE000DF91CF911F910F91FF90EF90DF90CF9006
:100EF0000895CF93DF931F92CDB7DEB7698320911A
:100F000095062223F9F02091B806203258F021E00E
:100F100030E0FC013383228390E080E00F90DF918A
:100F2000CF91089580919606E82FF0E0E956F94FA9
:100F3000998190838F5F809396068093B80681E0B5
:100F400090E0ECCF61E0CE0101960E949D04F7CFC6
:100F500090E080E00895DC0180E0615090F09D9188
:100F60009827E92FEF70F0E0E655FD4F2491E92F27
:100F7000E295EF70F0E0E654FD4FE491822F8E276A
:100F8000ECCF0895DC012C911196ED91FC91F89431
:100F90008181822B81839281322F3095932392839A
:100FA00087E090E00197F1F781818323818383E2D9
:100FB00090E00197F1F790817894EFECF0E03197B1
:100FC000F1F7922381E009F480E00895FC0190811B
:100FD0000180F281E02D292F209560FF14C0F89444
:100FE0008281822382838181892B8183A3E2B0E085
:100FF0001197F1F78281982B9283789487ED90E096
:101000000197F1F70895F894828182238283818188
:10101000892B8183AFEFB0E01197F1F78281982B94
:10102000928378948FE090E0EBCFDF92EF92FF9283
:101030000F931F93CF93DF93EC01D62EE42E08E09D
:1010400010E0FF24F39461E08D2D8F2109F460E01E
:10105000CE010E94E607FF0C01501109A1F7E11033
:1010600010C0F894E981FA81918188818095892363
:101070008183E981FA8192818881809589238283A5
:101080007894DF91CF911F910F91FF90EF90DF90B7
:101090000895EF92FF920F931F93CF93DF938C01EC
:1010A0007B0140E065E50E941508E70188E0E80E55
:1010B000F11C699140E0C8010E941508CE15DF05BA
:1010C000C1F7DF91CF911F910F91FF90EF9008959D
:1010D000FC0190810180F281E02DF8948181292F1B
:1010E00020958223818378943DE743E050E031509E
:1010F00029F1DA011197F1F780818923C1F3F8947E
:101100008281822382838181892B81837894ABE7DA
:10111000B7E01197F1F7F894818182238183A3E1ED
:10112000B1E01197F1F78081982381E009F080E028
:101130007894E3E6F6E03197F1F7089580E00895BA
:101140006F927F928F929F92AF92BF92CF92DF92D7
:10115000EF92FF920F931F93CF93DF938C01EB01DC
:1011600080914B0890914C080E946808882309F4EC
:101170003FC0B80180914B0890914C080E944908EB
:1011800040E06EEB80914B0890914C080E9415084E
:101190007E016E0189E0C80ED11C8E01A0904B0823
:1011A000B0904C0888E0882E912C712C66246394B2
:1011B000C5010E94C20781117628660CE1E08E1AF3
:1011C0009108B1F7F80171928F01CE16DF0631F761
:1011D00080914B0890914C080E946808813041F43E
:1011E000F70181917F01811105C0E017F107C1F777
:1011F00090E008C068E0CE010E94AB0791E028852E
:101200002813F6CF892FDF91CF911F910F91FF9077
:10121000EF90DF90CF90BF90AF909F908F907F9096
:101220006F9008950F931F93CF93DF93EC018B0181
:101230000E945503EAEFF4E050E040E024812111E0
:1012400015C025E0249FF001259FF00D1124E650E4
:10125000FB4FD183C083060F171F1383028381E0E6
:101260008483DF91CF911F910F9108954F5F5F4F5E
:1012700035964032510511F780E0F3CF6F927F929F
:101280008F929F92AF92BF92CF92DF92EF92FF9296
:101290000F931F93CF93DF936C013B017A0110E012
:1012A00000E0D60114968D919C91E701C01BD10BF3
:1012B0008C179D0708F4EC0141E0C7018C1B9D0BC6
:1012C0000817190708F440E06C2FC13208F060E2FB
:1012D000F60180810E944A061092480680934706D4
:1012E0008C171D0679F54301800E911E5401C5012E
:1012F000881999098C179D0778F4D60111968D915C
:101300009C91DC01ED91FC910284F385E02D19950F
:10131000F50181935F01EBCF0C0F1D1F0E151F050B
:1013200008F4BFCF81E0DF91CF911F910F91FF9023
:10133000EF90DF90CF90BF90AF909F908F907F9075
:101340006F90089580E0EFCFCF93DF931F92CDB7DA
:10135000DEB741E050E0BE016F5F7F4FFC01848546
:1013600095850E943E09882329F089810F90DF919D
:10137000CF9108958FEFFACFBF92CF92DF92EF9285
:10138000FF920F931F93CF93DF93EC01B62EC72EDE
:101390008D85811105C0CE010E94680881110EC0A3
:1013A0001B861D861C8680E0DF91CF911F910F91D7
:1013B000FF90EF90DF90CF90BF90089540E060EFF6
:1013C000CE010E94150801E0E12CD12C11E0CE01E4
:1013D0000E94C207F82ECE010E94C20791E0F912C6
:1013E00018C0813099F51134D8F2DB86D11002C0D3
:1013F00081E08D878B81882399F22396EB2DFC2D3C
:10140000CF01089629912193E817F907D9F781E0D0
:10141000CBCFEE2DF0E0F8120FC08B851817A0F49B
:10142000DE01AE0FBF1F13968C91802379F4F12C4F
:10143000193008F41C87D12EEC0FFD1F8381902FEB
:101440009095892383830AC08113F1CFFE01EE0DAD
:10145000F11D8381802B8383FF24F3946F2DCE01B4
:101460000E94E6071F5F000F11F4E39401E087E09C
:101470008E1508F0ACCFB7CFFC0101900020E9F742
:101480003197AF01481B590BBC0186E597E00C94DE
:1014900061038F929F92AF92BF920F931F93CF934E
:1014A000DF93CDB7DEB7A1970FB6F894DEBF0FBEBE
:1014B000CDBF19A2423008F44AE08E010F5D1F4FE4
:1014C000842E912CB12CA12CA50194010E942224E0
:1014D000E62FB901CA01EA30F4F4E05DD801EE93D9
:1014E0008D01232B242B252B79F790E080E010979A
:1014F00019F0CD010E943C0AA1960FB6F894DEBF08
:101500000FBECDBFDF91CF911F910F91BF90AF90D4
:101510009F908F900895E95CE1CFCF93DF930E9475
:101520003C0AEC0187E592E00E943C0A8C0F9D1F6B
:10153000DF91CF9108950C943C0ACF92DF92EF9205
:10154000FF920F931F93CF93DF93C82ED62E8A015D
:1015500080910608C22FD0E0882399F18AE592E0B5
:101560000E949B0A6C2D70E090E080E040E10E94B8
:10157000490A80E792E00E949B0A6D2D70E090E09E
:1015800080E040E10E94490A80E892E00E949B0AC4
:101590007801C701801B910B8C179D0774F48CE7B1
:1015A00092E00E949B0AD7016D917D0170E090E06E
:1015B00080E040E10E94490AECCF87E592E00E947A
:1015C0003C0A8091FF079091000821E02093950646
:1015D000C092B706109296061092B806DC01ED9103
:1015E000FC910190F081E02D6D2D19958091FF0700
:1015F00090910008DC01ED91FC910280F381E02DD7
:10160000AE01B801199581E0DF91CF911F910F9143
:10161000FF90EF90DF90CF900C941A051F93CF931B
:10162000DF931F92CDB7DEB790913708898321E011
:10163000AE014F5F5F4F60E1892F0E949D0A182F16
:1016400080910608882361F08FE892E00E949B0A4F
:101650008BE892E0111102C08BE693E00E948D0AA4
:101660006AE070E080E090E00E94220381E01111C6
:1016700080E00F90DF91CF911F910895CF93DF937A
:10168000462F682F70E090E080E00E94490AEC014C
:1016900087E592E00E943C0A8C0F9D1FDF91CF915D
:1016A00008956F927F928F929F92AF92BF92CF9246
:1016B000DF92EF92FF920F931F93CF93DF93E82E69
:1016C000962E6A01822E809106088823A1F08BEA6B
:1016D00092E00E949B0A6E2D70E090E080E040E175
:1016E0000E94490A80E792E00E949B0A60E170E054
:1016F000892D0E943E0BC0E077247394D82DDC1B0B
:10170000D13208F0D0E28091FF07909100087092EA
:101710009506E092B706109296061092B806DC0184
:10172000ED91FC910190F081E02D692D6C0F1995E0
:1017300081E00E941A05682E41E06D2F8E2D0E94D7
:101740004A06109248068093470610E000E0AD2E4E
:10175000B12CFC2EF00E0A151B059CF0CD0FC81500
:1017600068F2862DDF91CF911F910F91FF90EF903E
:10177000DF90CF90BF90AF909F908F907F906F90B1
:1017800008958091FF0790910008DC01ED91FC9194
:101790000284F385E02D1995F601EF0DF11D80838C
:1017A0000F5F1F4FD6CF0F931F93CF93DF9300D0C0
:1017B000CDB7DEB7809137081A8221E0AE014E5FC7
:1017C0005F4F62E10E949D0A809137089CEC9B83E9
:1017D00021E0AE014D5F5F4F62E10E949D0A182F2C
:1017E00080910608882361F080EC92E00E949B0AB9
:1017F0008BE892E0111102C08BE693E00E948D0A03
:101800006AE070E080E090E00E94220321E0AE01F7
:101810004F5F5F4F60E2809137080E94510B098152
:1018200080910608882349F088ED92E00E949B0A87
:1018300060E170E0802F0E943E0B6AE070E080E083
:1018400090E00E94220381E0111180E00F900F9040
:101850000F90DF91CF911F910F9108950C94B927AC
:10186000CF93DF93EC0188819981009711F00E945A
:10187000B927198218821D821C821B821A82DF916D
:10188000CF910895FC0180819181009711F00C9413
:10189000B92708950C94B9270F931F93CF93DF9323
:1018A000082F162F83E090E00E941D27EC0182E0B4
:1018B000888389E089830A8343E050E0BE0186E59E
:1018C00097E00E946103209719F0CE010E94B9278A
:1018D0001111FFCFDF91CF911F910F910895CF92FA
:1018E000DF92EF92FF920F931F93CF93DF936C01E0
:1018F000DC0114960D911C917801B2E0EB0EF11C05
:1019000081E090E0E114F10409F0C7010E941D2775
:10191000EC01C8010196FE0197FF17C0FE01329647
:1019200090E080E080179107ACF48017910780F475
:10193000D6012D913C912115310551F0280F391F09
:10194000D9012C9121930196EDCF11920197E4CF0B
:1019500020E0F8CF0F5F08838AE08983A701BE01EA
:1019600086E597E00E946103E816F90621F060E041
:101970008FE60E944C0C209759F0CE01DF91CF9159
:101980001F910F91FF90EF90DF90CF900C94B927AB
:10199000DF91CF911F910F91FF90EF90DF90CF904B
:1019A00008951F93CF93DF9300D000D01F921F9212
:1019B000CDB7DEB780910608882321F082EF92E050
:1019C0000E948D0A61E070E080E090E00E942203B6
:1019D00021E0AE014F5F5F4F60E2809137080E94C7
:1019E000510B198180910608882349F084E093E027
:1019F0000E949B0A6AE070E0812F0E943E0B11FF5B
:101A0000E1CF27E0AE014F5F5F4F61E28091370881
:101A10000E94510B898180930E088A819B8190934B
:101A2000100880930F088C819D81909312088093F9
:101A3000110880910808882381F08E819F819093FE
:101A400014088093130828960FB6F894DEBF0FBED3
:101A5000CDBFDF91CF911F9108951092140810927D
:101A60001308F1CF7F928F929F92AF92BF92CF9245
:101A7000DF92EF92FF920F931F93CF93DF93B0907B
:101A80000E08C0910F08D091100800911108109114
:101A900012082B2D2150330B2530310520F060E04A
:101AA0008BE50E944C0CD7FF04C060E08CE50E94DF
:101AB0004C0C17FF04C060E08DE50E944C0C2AE03E
:101AC00030E0C801B9010E940E24F62EE82ECE01A6
:101AD000B9010E940E24D62EC82E0DEE13E08AE026
:101AE000982E92E0892E25E0722EF801A1908F01A8
:101AF000AA2079F18BE090E00E941D27EC019882EA
:101B000089827A82AB828091E8038C838091EA0398
:101B10008D83BE82FF82E886D986CA86209721F40B
:101B200060E08EE50E944C0C4BE050E0BE0186E583
:101B300097E00E9461030B9721F060E08FE50E941F
:101B40004C0C209719F0CE010E94B927F80131976B
:101B50001082F3E0053F1F0741F6DF91CF911F91FF
:101B60000F91FF90EF90DF90CF90BF90AF909F903C
:101B70008F907F9008950F931F93CF93DF93EC0185
:101B800088819981009759F02A813B812617370770
:101B900030F081E0DF91CF911F910F9108958B017B
:101BA0006F5F7F4F0E944228009759F09983888386
:101BB0001B830A832C813D81232B59F7FC01108262
:101BC000E8CF80E0E7CFEF92FF920F931F93CF9380
:101BD000DF93EC01FB01E080F180E114F10411F1ED
:101BE0000481158101151105A9F08C819D81080FD3
:101BF000191FB801CE010E94BB0D882399F02881DE
:101C000039818C819D81B701820F931F0E943129F8
:101C10001D830C83CE01DF91CF911F910F91FF9017
:101C2000EF900895CE010E94300CF4CFEF92FF9216
:101C30000F931F93CF93DF93EC017B018A01BA01CD
:101C40000E94BB0D81110BC0CE010E94300CCE0151
:101C5000DF91CF911F910F91FF90EF9008951D8319
:101C60000C83B701888199810E943129F0CFEF92CE
:101C7000FF920F931F93CF93DF93CDB7DEB7629799
:101C80000FB6F894DEBF0FBECDBF8C01CB01F801BB
:101C90001182108213821282158214824AE09E0100
:101CA0002F5F3F4F7901B9010E94A122F7010190F6
:101CB0000020E9F73197AF014E195F09B701C8015C
:101CC0000E94160E62960FB6F894DEBF0FBECDBF0F
:101CD000DF91CF911F910F91FF90EF9008952F9278
:101CE0003F92CF93DF93CDB7DEB7E4970FB6F8946A
:101CF000DEBF0FBECDBF88EB97E19AA389A384EA2C
:101D000093E09CA38BA3DEA3CDA386E49FE098A7DA
:101D10008FA32DB73EB73AA729A7CE0149960E94B7
:101D200035168091E8039091E90380579E4F833EDA
:101D3000944040F08FEF9FEF9C8F8B8F60E086E5A3
:101D40000E944C0C8091EA039091EB03893E9340F2
:101D500040F08FEF9FEF9C8F8B8F60E087E50E94B4
:101D60004C0C6091EA037091EB038FEF9FEF9C8F17
:101D70008B8FCE010D960E94370E6091E803709113
:101D8000E90381E090E09C8F8B8FCE0107960E9443
:101D9000370E1A8219821C821B821E821D8246E027
:101DA00050E06DE073E0CE0101960E94160EBE0178
:101DB000695F7F4FCE0101960E94E30D9AAB89AB1C
:101DC000FC01848195819C012F5F3F4F3CAB2BAB85
:101DD000B901CF010E94BB0D8823D9F1E9A9FAA965
:101DE000208131818481958162E173E0820F931FAC
:101DF0000E9431292BA93CA9E9A9FAA9358324839A
:101E0000BE01635F7F4F89A99AA90E94E30D1C8AD6
:101E10001B8A1E8A1D8A188E1F8AFE017396F8ABD4
:101E2000EFA78E179F0761F0FC016081718161153A
:101E3000710531F044815581CE0143960E94160E02
:101E400082E090E09C8F8B8FCE0143960E946F0CB6
:101E50002BC089A99AA90E94300CD2CFCE014396FB
:101E60000E94420CCE0101960E94420CCE010796C0
:101E70000E94420CCE010D960E94420C8FEF9FEF04
:101E80009C8F8B8F89A99AA90E940F178D8DE82F9F
:101E9000880FFF0BFAABE9AB8B8D9C8D009751F34C
:101EA0000197E1F20E942329CE0143960E94420C41
:101EB000CE0101960E94420CCE0107960E94420C70
:101EC000CE010D960E94420C6091E8037091E903E7
:101ED000072E000C880B990B0E94DD2223E333E9C7
:101EE00048E853E40E94842420E030E040E852E4D3
:101EF0000E943C230E94692569AB7BAB6091EA0399
:101F00007091EB03072E000C880B990B0E94DD22C9
:101F100020E030E040E054E40E943C230E94692528
:101F2000F9A9F9832BA92A836B837C838FEF9FEF19
:101F30009C8F8B8F24E0AE014F5F5F4F63E18091F8
:101F400037080E949D0ACE0149960E944116E496E8
:101F50000FB6F894DEBF0FBECDBFDF91CF913F909B
:101F60002F9008950F931F93CF93DF938C01EB0174
:101F700088E2FB0111928A95E9F74BE050E064E1B9
:101F800073E0CE010E9438291B8681E090E0A0E03A
:101F9000B0E08C879D87AE87BF87F80182819381EF
:101FA000092E000CAA0BBB0B888B998BAA8BBB8BC1
:101FB0008DE090E0A0E0B0E08C8B9D8BAE8BBF8B72
:101FC0001CA21DA21EA21FA280E090E0A0E2B2EC23
:101FD0008C8F9D8FAE8FBF8F80E090E0AAEAB2E435
:101FE000888F998FAA8FBB8F8AE999E9A9E9BEE307
:101FF00088A399A3AAA3BBA3DF91CF911F910F91AF
:1020000008950F931F93CF93DF938C01EB0188E228
:10201000FB0111928A95E9F74BE050E06CE173E027
:10202000CE010E9438291B8681E090E0A0E0B0E05C
:102030008C879D87AE87BF87F80182819381092EA7
:10204000000CAA0BBB0B888B998BAA8BBB8B8CE0EB
:1020500090E0A0E0B0E08C8B9D8BAE8BBF8B1CA280
:102060001DA21EA21FA21C8E1D8E1E8E1F8E80E022
:1020700090E0A8ECB2E4888F998FAA8FBB8F80E0A4
:1020800090E0A0E0B0E488A399A3AAA3BBA3DF914A
:10209000CF911F910F9108954F925F926F927F920F
:1020A000AF92BF92CF92DF92EF92FF920F931F9366
:1020B000CF93DF9300D000D000D0CDB7DEB78C0136
:1020C0007B016A010E9455032B013C0180910602AD
:1020D00090910702A09108028F839887A987D80161
:1020E0001C968D919C91FC01248135812330310512
:1020F000B8F4B12C8B2D29960FB6F894DEBF0FBE25
:10210000CDBFDF91CF911F910F91FF90EF90DF90A6
:10211000CF90BF90AF907F906F905F904F90089559
:10212000208131E0309395062093B70610929606F1
:102130001092B80643E050E0BE01695F7F4F0E94F5
:102140000A068823B1F2C8010E94A40987FF07C0CC
:102150006AE070E080E090E00E942203F4CF46E065
:1021600050E0BE016F5F7F4FF801848595850E9426
:102170003E09B82E882309F4BCCF6A817B8176277B
:1021800067277627CB01B0E0A0E09C01AD0184E099
:10219000220F331F441F551F8A95D1F7AC808A2D1B
:1021A00090E064E0959587956A95E1F7092E000C1B
:1021B000AA0BBB0BBC01CD01622B732B842B952B7F
:1021C0000E94DB2220E030E048EC52E40E943C23F5
:1021D00020E030E040E855E30E943C23D80114960B
:1021E0006D937D938D939C9317976A2D6F7070E01C
:1021F00090E080E0982F872F762F66272D81622B25
:10220000982F872F762F66272E81622B0E94DB2244
:1022100020E030E048E453E40E943C2320E030E03A
:1022200040E855E30E943C2320E030E048E452E4DB
:102230000E948324F8016083718382839383C11495
:10224000D10481F1F601349680E2DF011D928A9576
:10225000E9F784E290E0A0E0B0E0F60180839183AA
:10226000A283B383D8011A968D919C91B0E0A0E02F
:1022700084839583A683B7838DE090E0A0E0B0E0EF
:1022800080879187A287B387408A518A628A738A3E
:10229000F80180819181A281B381F601848B958BB5
:1022A000A68BB78BE114F10409F424CFF70134961F
:1022B00080E2DF011D928A95E9F784E290E0A0E0D8
:1022C000B0E0F70180839183A283B383D80118968D
:1022D0008D919C91B0E0A0E084839583A683B78321
:1022E0008DE090E0A0E0B0E080879187A287B3877F
:1022F000408A518A628A738AF80184819581A68115
:10230000B781F701848B958BA68BB78BF3CEAB018E
:1023100070E060E0FC01848195810E944C1081E0B6
:10232000089550E040E0FC01848195810E944C10AA
:1023300081E0089585ED8093BC0080919106909195
:102340009206A0919306B09194060796A11DB11D27
:1023500023E0B695A795979587952A95D1F7209173
:10236000BC0024FD03C010928F0608954091910691
:10237000509192066091930670919406452B462BDE
:10238000472B69F30097A105B10541F02AE22A9590
:10239000F1F700C00197A109B109E1CF8091900642
:1023A0000C94F9041F93CF93DF9300D000D01F92B9
:1023B0001F92CDB7DEB780910608882321F082EF07
:1023C00092E00E948D0A61E070E080E090E00E945F
:1023D000220321E0AE014F5F5F4F60E2809137083A
:1023E0000E94510B198180910608882349F084E0EE
:1023F00093E00E949B0A6AE070E0812F0E943E0BEE
:1024000010FFE1CF28E0AE014F5F5F4F68E480919D
:1024100037080E94510B69817A8190E080E00E9428
:10242000DB2220E030E040E05AE30E943C239B01A5
:10243000AC0160E070E080E090E40E9498250E948A
:102440006925609315087093160880931708909378
:1024500018086B817C8190E080E00E94DB2220E004
:1024600030E040E05AE30E943C239B01AC0160E075
:1024700070E080E090E40E9498250E9469256093B6
:102480001D0870931E0880931F08909320086D818B
:102490007E8190E080E00E94DB2220E030E040E09E
:1024A0005AE30E943C239B01AC0160E070E080E0B5
:1024B00090E40E9498250E946925609325087093F6
:1024C000260880932708909328086F81788590E0EC
:1024D00080E00E94DB2220E030E040E05AE30E94EE
:1024E0003C239B01AC0160E070E080E090E40E943E
:1024F00098250E94692560932D0870932E0880937B
:102500002F089093300828E0AE014F5F5F4F68E2DC
:10251000809137080E94510B69817A8190E080E0B8
:102520000E94DB2220E030E040E05AE30E943C239E
:102530009B01AC0160E070E080E090E40E9498258F
:102540000E9469256093190870931A0880931B08EC
:1025500090931C086B817C8190E080E00E94DB22DC
:1025600020E030E040E05AE30E943C239B01AC01B4
:1025700060E070E080E090E40E9498250E94692568
:102580006093210870932208809323089093240875
:102590006D817E8190E080E00E94DB2220E030E0CF
:1025A00040E05AE30E943C239B01AC0160E070E0F4
:1025B00080E090E40E9498250E9469256093290894
:1025C00070932A0880932B0890932C086F8178854C
:1025D00090E080E00E94DB2220E030E040E05AE31F
:1025E0000E943C239B01AC0160E070E080E090E43D
:1025F0000E9498250E9469256093310870933208E3
:10260000809333089093340821E0AE014F5F5F4F11
:1026100068E3809137080E94510B898180933908C3
:1026200028960FB6F894DEBF0FBECDBFDF91CF91D5
:102630001F9108951F920F920FB60F9211242F939E
:102640003F938F939F93AF93BF9380913B0690915D
:102650003C06A0913D06B0913E0630913A0623E03B
:10266000230F2D3758F50196A11DB11D20933A0671
:1026700080933B0690933C06A0933D06B0933E06A4
:1026800080913F0690914006A0914106B09142068C
:102690000196A11DB11D80933F0690934006A09323
:1026A0004106B0934206BF91AF919F918F913F91A8
:1026B0002F910F900FBE0F901F90189526E8230FB3
:1026C0000296A11DB11DD2CF1F920F920FB60F928D
:1026D00011240BB60F922F933F934F935F936F93F9
:1026E0007F938F939F93AF93BF93EF93FF9389EB68
:1026F00096E00E94DF03FF91EF91BF91AF919F9110
:102700008F917F916F915F914F913F912F910F909A
:102710000BBE0F900FBE0F901F9018951F920F9237
:102720000FB60F9211240BB60F922F938F939F9396
:10273000EF93FF93E091C906F091CA068081E09182
:10274000CF06F091D00682FD1DC090818091D20607
:102750008F5F8F732091D306821741F0E091D206EC
:10276000F0E0E754F94F958F8093D206FF91EF91F7
:102770009F918F912F910F900BBE0F900FBE0F90D6
:102780001F9018958081F2CF1F920F920FB60F9273
:1027900011240BB60F922F933F934F935F936F9338
:1027A0007F938F939F93AF93BF93EF93FF9386E5B0
:1027B00097E00E94DF03FF91EF91BF91AF919F914E
:1027C0008F917F916F915F914F913F912F910F90DA
:1027D0000BBE0F900FBE0F901F9018951F920F9277
:1027E0000FB60F9211240BB60F922F938F939F93D6
:1027F000EF93FF93E0916607F09167078081E09186
:102800006C07F0916D0782FD1DC0908180916F076C
:102810008F5F8F7320917007821741F0E0916F07EF
:10282000F0E0EA5AF84F958F80936F07FF91EF9190
:102830009F918F912F910F900BBE0F900FBE0F9015
:102840001F9018958081F2CF1F920F920FB60F92B2
:1028500011240BB60F922F933F934F935F936F9377
:102860007F938F939F93AF93BF93EF93FF93809149
:10287000B900887F803609F44DC008F040C0883226
:1028800009F4A9C028F5803109F49DC0C8F4882353
:1028900009F4FBC0883009F496C0FF91EF91BF9115
:1028A000AF919F918F917F916F915F914F913F91E8
:1028B0002F910F900BBE0F900FBE0F901F90189589
:1028C000883109F488C0803241F780938D0614C0A6
:1028D000803409F49DC040F48033B9F38833E9F6BD
:1028E00080938D0685ECB0C0803509F485C08835AD
:1028F00009F496C0883489F60E949A11CECF88399F
:1029000009F48CC038F5883729F050F4883611F076
:10291000803719F683E080938F061092E70357C043
:10292000883809F47BC0803919F0803809F0B5CFB8
:102930008091E703803208F071C0E091E70381E005
:102940008E0F8093E7038091BB00F0E0E953FC4FCA
:1029500080833DC0803B39F0E0F4803A09F479C0CF
:10296000883A09F09ACF84E080938F061092C603CC
:102970001092C503E0914506F091460619958091A5
:10298000C50381110FC081E08093C5031092A50398
:1029900009C0803C09F4A6CF883C09F4A3CF883B4A
:1029A00009F07BCFE091C60381E08E0F8093C603D0
:1029B000F0E0EB55FC4F80818093BB009091C60303
:1029C0008091C50329C080916A068093BB0085EC85
:1029D0008093BC0062CF90918C0680918B069817F3
:1029E00058F5E0918C0681E08E0F80938C06F0E024
:1029F000E559F94F8081E9CFE0918C0681E08E0F97
:102A000080938C068091BB00F0E0E559F94F8083FC
:102A100090918C0680918B069817C8F285E8D8CFE4
:102A2000E0918C0681E08E0F80938C068091BB0034
:102A3000F0E0E559F94F808380918E0681115CCFDB
:102A400081E08093690684EA8093BC0010928F062F
:102A500024CF85EC8093BC0010928F068091E70311
:102A6000803230F4E091E703F0E0E953FC4F10824C
:102A70006091E70370E0E0914306F091440687EC33
:102A800093E019951092E70308CF10928D0634CF8A
:102A9000B0E0A0E0EEE4F5E10C945C24FC01A08140
:102AA000B181B0937A08A0937908CD010C96FC010E
:102AB000428153811C96CD91DC91248135810FB6E2
:102AC000F8943EBF0FBE2DBFFA011994A6E0B0E006
:102AD000ECE6F5E10C944C249E838D832B01DC0104
:102AE0001A968C911A97E82FF0E0FA83E9831B96E7
:102AF0008C91282F30E03C832B83D201ED91FC9107
:102B0000309709F448C020843184712C612C6AE02C
:102B100070E0ED81FE81E080F180028113812481EB
:102B20003581468157818B809C8052016F0181E005
:102B300090E0E981FA811995892B09F042C0F5E00E
:102B40006F16710409F440C0AD81BE81EC901196FE
:102B5000FC90119712960C91129713961C91139753
:102B600014962C91149715963C91159716964C91A6
:102B7000169717965C9121143104A9F4D201ED91B6
:102B8000FC9111978081918190937A0880937908C4
:102B90008D939C93B2CF312C212C95E0692E712C12
:102BA0006AE170E0B6CFCD80DE806AE070E081E05F
:102BB00090E0F10119953C018730910529F00897C3
:102BC000E9F282E0682E712CC3012696E2E10C94B2
:102BD0006824B0E0A0E0EFEEF5E10C945024EC01A5
:102BE0004B01F401A081B181F0E0E0E085E090E0EC
:102BF000109731F01896ED91FC91199790E080E0D4
:102C00002B85712C612C2A171B0619F424E0622EE7
:102C1000712C892BD1F4309721F46728E9F00E94B8
:102C20002329E880F9800A811B812C813D814E8116
:102C30005F8154016E01B301626081E090E01995FB
:102C40008730910521F0089741F382E090E0CDB7FD
:102C5000DEB7EEE00C946C24D401ED91FC91119759
:102C6000808191818D939C93BCCF20917908309184
:102C70007A08FC013183208390937A088093790845
:102C80000895FC018081918190937A08809379085E
:102C90000895DC01ED91FC91E60FF71F8481089502
:102CA000DC01ED91FC91309711F08089089580E06E
:102CB0000895DC01ED91FC91E60FF71F4483089520
:102CC000DC01ED91FC918281938101960895DB01F5
:102CD0001D921C92DC01ED91FC91309721F08281D4
:102CE00093810196089590E080E00895DC01ED91D4
:102CF000FC9161507109738362830895DC01ED9149
:102D0000FC9182859385089590E080E0089590E09D
:102D100080E0089590E080E0089590E080E00895DC
:102D2000A2E0B0E0E6E9F6E10C9450244C0160909A
:102D3000790870907A087A826982E981FA813097FD
:102D4000B1F10084F185E02D309739F4E981FA8101
:102D5000808191819A838983F0CFD401EC90119680
:102D6000FC90119712960C91129713961C91139741
:102D700014962C91149715963C91159716964C9194
:102D8000169717965C91CE0101965C01640161E093
:102D900070E081E090E019958630910559F0089730
:102DA000A9F283E090E02296EEE00C946C2485E09A
:102DB00090E0F9CFD4011A961C921A9789811B963C
:102DC0008C937A826982BE016F5F7F4FC4010E943B
:102DD000E9158730910539F7CE0101960E94481513
:102DE000A2E0B0E0E6EFF6E10C945C2420917908D3
:102DF00030917A083A832983FC0162874387BE01B8
:102E00006F5F7F4F0E9466158730910521F4CE01D8
:102E100001960E9448152296E2E00C947824A2E0E4
:102E2000B0E0E5E1F7E10C945C2420917908309161
:102E30007A083A832983FC012285BE016F5F7F4FA8
:102E4000211106C00E94E915079729F00E94232945
:102E50000E946615F9CFCE0101960E944815A2E0A6
:102E6000B0E0E5E3F7E10C945C24FC012285222329
:102E700099F02091790830917A083A832983BE012C
:102E80006F5F7F4F0E946615079711F00E942329FC
:102E9000CE0101960E9448150E9490162296E2E00B
:102EA0000C947824DC011896ED91FC91309721F078
:102EB000BC0181E090E019950895A2E0B0E0E3E65E
:102EC000F7E10C9456247C016B0180917908909174
:102ED0007A089A83898389819A8110E000E0892B9E
:102EE00011F405E010E0B601CE010196F701199545
:102EF000892B41F40530110539F0E981FA8180818F
:102F00009181E7CF03E010E0C8012296E8E00C943D
:102F10007224CF92DF92EF92FF92CF93DF93FB0167
:102F2000C12CD12C760130E020E0EC01A8814A2FA1
:102F30004F7750E070E060E0022E04C0440F551F50
:102F4000661F771F0A94D2F7C42AD52AE62AF72AE1
:102F5000295F3F4F0196A7FDE8CFC082D182E28270
:102F6000F382DF91CF91FF90EF90DF90CF900895A3
:102F7000AAE0B0E0EEEBF7E10C9454241A8619862F
:102F8000019709F0C4C061FD06C088E090E02A9670
:102F9000EAE00C947024C5010E947E168C01892BF6
:102FA000A1F3A114B10419F0C5010E94841678019F
:102FB0008FEFE81AF80AF801D080FFEFDF1621F151
:102FC0008D2D8077803291F030F4882391F080311C
:102FD00081F00E942329803409F461C0803549F0D2
:102FE0008033B9F7C5010E948A1603C0C5010E944B
:102FF0008D1680E5D81257C0EFEFEE1AFE0AE8945E
:10300000E0F8F2E0EF0EF11CC7010196F701208114
:103010002F3F29F0BE016F5F7F4F0E948917BE01CD
:103020006F5F7F4F01960E9489177C01BE01675F29
:103030007F4FC5010E9467168C0189859A85892B6F
:1030400011F401501109101611060CF09ECFBE01AB
:103050006B5F7F4FC7010E948917BE016F5F7F4F73
:103060000E9489177C010150110989F70D811E8189
:103070000F5F1F4F09F489CF4C2D70E060E0C50150
:103080000E94591640E061E070E0C5010E945916A7
:10309000B801C5010E94761687E090E078CFC5019F
:1030A0000E948416A6CFED2DEF70ED3008F091CF81
:1030B000F0E08827E15AF74E8F4F0C9444247E1895
:1030C0006C187E1881188418E917E917E917E917B1
:1030D00075187E1881188418BE016F5F7F4FC70175
:1030E0000E9489178C0178018FCF87010F5F1F4FD6
:1030F000F7018081780187FDF8CFF5CF0D5F1F4F75
:10310000F2CF0B5F1F4FEFCF075F1F4FECCF83E076
:1031100090E03DCFCF93DF93E9EBF6E0138212828C
:1031200048EE53E060E070E0448355836683778324
:1031300087E392E0918380832DEC30E0358724870C
:103140002CEC30E03787268728EC30E0318B208B61
:1031500029EC30E0338B228B2AEC30E0358B248B4A
:103160002EEC30E0378B268B118E128E138E148E40
:10317000E6E5F7E013821282448355836683778302
:103180009183808385EC90E09587848784EC90E040
:103190009787868780EC90E0918B808B81EC90E024
:1031A000938B828B82EC90E0958B848B86EC90E005
:1031B000978B868B118E128E138E148E83EF97E071
:1031C000FC0113821282448355836683778329E44A
:1031D00032E031832083CFEFD7E01D821E821F8231
:1031E0001886198628E0E9E0F2E0AAE3B8E0019049
:1031F0000D922A95E1F723E530E039AF28AF9983A6
:1032000088831A821B821C82E7E6F8E01586148602
:1032100017861686118A108A60E082E00E94C10239
:10322000E6EAF3E0E491A9E5B8E0EC93E0E6F3E048
:10323000E491F0E0EE0FFF1FEC5BFC4F8591949161
:1032400012969C938E9311971B961C921B971D961A
:103250001C921D971C961C921C971A961C921A97EA
:1032600019961C92199718961C92189717961C92EB
:10327000179716961C92169715961C9215971496EA
:103280001C92149713961C921397E2E4F8E01782AD
:103290001086108289E0838381E08483858386831E
:1032A0001182168A158A8FEF838B148AB287A187C1
:1032B000DF91CF910895CF93DF93CDB7DEB7CB5495
:1032C000D1090FB6F894DEBF0FBECDBF789484B598
:1032D000826084BD84B5816084BD85B5826085BD12
:1032E00085B5816085BD80916E00816080936E00A0
:1032F0001092810080918100826080938100809192
:103300008100816080938100809180008160809342
:1033100080008091B10084608093B1008091B00002
:1033200081608093B00080919100826080939100D1
:1033300080919100816080939100809190008160E4
:10334000809390008091A10082608093A100809181
:10335000A10081608093A1008091A0008160809392
:10336000A000809121018260809321018091210140
:1033700081608093210180912001816080932001F0
:1033800080917A00846080937A0080917A008260D4
:1033900080937A0080917A00816080937A00809196
:1033A0007A00806880937A001092C100E0916607ED
:1033B000F091670722E02083E0916207F0916307B4
:1033C0001082E0916407F091650780E1808310929C
:1033D0006E07E0916A07F0916B0796E09083E091A9
:1033E0006807F0916907808180618083E0916807B8
:1033F000F0916907808188608083E0916807F0918F
:103400006907808180688083E0916807F09169078F
:1034100080818F7D8083E091C906F091CA06208368
:10342000E091C506F091C6061082E091C706F091C2
:10343000C8068FEC80831092D106E091CD06F09102
:10344000CE069083E091CB06F091CC06808180611E
:103450008083E091CB06F091CC06808188608083E8
:10346000E091CB06F091CC06808180688083E0916A
:10347000CB06F091CC0680818F7D808361E086E56C
:1034800097E00E94010410920608809101088823A9
:1034900041F061E00E94C10260E0809101080E9459
:1034A000930280910208882319F062E00E94C10211
:1034B00080910308882341F061E00E94C10261E02D
:1034C000809103080E9493020E94E2048091060802
:1034D000882321F084E293E00E948D0A6AE070E084
:1034E00080E090E00E942203109207088091370844
:1034F00090EF2B969FAF2B9721E0AE01465B5F4F7D
:1035000060E10E949D0A182F80910608882361F0CF
:103510008CE393E00E949B0A8BE693E0112311F069
:103520008BE892E00E948D0A6AE070E080E090E013
:103530000E94220381E0111180E08093070822E0BD
:10354000AE014F5F5F4F60E0809137080E94510BE2
:1035500009811A81809106088823A1F08DE493E007
:103560000E949B0A84E693E0003621E0120741F0B6
:103570008EE693E0013641E0140711F08BE892E00B
:103580000E948D0A6AE070E080E090E00E942203D1
:10359000003651E0150709F068C01092080881E074
:1035A0008093070881E00E940E0B809307080E9419
:1035B000D30B809307080E94D30B6AE070E080E091
:1035C00090E00E942203809137089EE02A969FAFE8
:1035D0002A9721E0AE01475B5F4F62E10E949D0A9E
:1035E00023E0AE014F5F5F4F6CE4809137080E948B
:1035F000510B182F8981809309089A8190930A08AA
:103600009B8190930B08873008F47DC091E09093E4
:103610000808909106089923E1F06AE070E00E94A2
:103620003E0B6AE070E080910A080E943E0B6AE05F
:1036300070E080910B080E943E0B88E793E00E94A7
:103640009B0A8BE693E0112311F08BE892E00E9435
:103650008D0A6AE070E080E090E00E94220381E041
:10366000111180E08093070809C00136114021F450
:1036700081E08093080894CF109207088091060893
:10368000882321F08FE893E00E948D0A809107083B
:10369000811104C061E081E50E944C0C8091070813
:1036A000811104C061E082E50E944C0C82E00E941E
:1036B0000E0B811104C061E083E50E944C0C9AE07E
:1036C000E92EF12C86E597E00E94BF03892BF1F4E7
:1036D00083E0C82E89EB96E00E94BF03892B09F492
:1036E000D3C689EB96E00E949D03082F8091F904D0
:1036F000811168C6013820F060E086E40E944C0C1D
:103700000093F904E7CF1092080883CF86E597E08D
:103710000E949D03082F80917704811109C0013810
:1037200020F060E08CE30E944C0C00937704CACF39
:103730008091760487FF04C060E08DE30E944C0C0A
:10374000A090760411E01A0D10937604EA2DF0E0B3
:10375000EA50FC4F0083809177041813B3CF1230E6
:1037600020F460E08AE00E944C0C8091F503811106
:10377000E0C064E170E080E090E00E94220380916C
:10378000730890917408009711F00E94B92786E0A1
:1037900090E00E941D276C0188E3D6018C9383EF93
:1037A00097E012969C938E93119713961C92139701
:1037B00080E290E015969C938E931497D0927408B3
:1037C000C09273080E94E20401E0F6010383C6017F
:1037D0000E942506882309F4ECC08AEB8983809136
:1037E000730890917408DC0114962D913C91159703
:1037F000232B09F4DEC02C91009395062093B70685
:10380000109296061092B80641E050E0BE016F5F3C
:103810007F4F0E940A06882309F4CBC064E170E060
:1038200080E090E00E94220387E698E00E94A409CD
:1038300087FF05C06AE070E080E090E0F3CF81EEA2
:10384000898388E08A831B82809173089091740831
:10385000FC01248135812330310588F0208131E05D
:10386000309395062093B706109296061092B806EC
:1038700043E050E0BE016F5F7F4F0E940A0687E67B
:1038800098E00E94A40987FF07C06AE070E080E02A
:1038900090E00E942203F3CF87E698E00E94A409FB
:1038A00083FF87C08091770890917808009739F05E
:1038B000DC01ED91FC910280F381E02D199580915E
:1038C000750890917608009739F0DC01ED91FC9134
:1038D0000280F381E02D199586E090E00E941D277B
:1038E000FC0189E292E09183808380E290E19383FE
:1038F000828307E6C02E08E0D02ED582C482F093E2
:103900007808E093770886E090E00E941D27FC018C
:103910008BE192E09183808381E290E193838283C3
:10392000D582C482F0937608E093750881E0809395
:10393000F5038091F603813009F0B8C08091F70358
:103940009FEF980F9230D0F5133020F460E08CE0B8
:103950000E944C0CD090F80384E090E00E941D2758
:103960008C0183E0F801808381E08183D282909191
:10397000F703913009F080E0D80113968C9301157C
:10398000110521F460E08DE00E944C0C44E050E011
:10399000B80189EB96E00E946103049721F060E092
:1039A0008EE00E944C0C0115110509F497C0C80166
:1039B0004CC061E081E00E944C0CB8CF833009F02C
:1039C00047C0143020F460E08FE00E944C0C00915E
:1039D000F803AA94AA94BCE7BA1520F460E080E149
:1039E0000E944C0CB12C4501E4E08E0E911CC401E8
:1039F0000E941D276C01892B21F460E081E10E9467
:103A00004C0CD6011C9382E011968C931197129660
:103A10000C93129781E013968C93A50169EF73E0E4
:103A2000C60104960E942829A401B60189EB96E0FC
:103A30000E9461038816990621F060E082E10E94ED
:103A40004C0CC601CD2809F449C00E94B92746C0D4
:103A5000843009F043C0133020F460E083E10E9419
:103A60004C0CD090F80385E090E00E941D278C015B
:103A700084E0F801808383E0818381E08283D382C4
:103A800082E084830115110521F460E084E10E9445
:103A90004C0C45E050E0B80186E597E00E946103D8
:103AA000059709F480CF60E085E17BCF8230B1F4E7
:103AB0008091F70381111CC0143020F460E088E18C
:103AC0000E944C0C8091F8039091F90360E09923D7
:103AD00019F0913041F461E00E94C1021092760425
:103AE00010927704EFCD60E089E10E944C0CF6CF94
:103AF000813009F0ECC0163020F460E08AE10E94C9
:103B00004C0CD090F8038091FA030091FB0310E075
:103B1000FAE08F9F000D111D11248091F90381118E
:103B2000CFC061E08D2D0E94C1020115110529F45D
:103B300060E08D2D0E949302D1CF0F3F110511F44B
:103B400061E0F7CFED2DF0E0E250FD4FE491E15060
:103B5000E23108F0B0C0F0E08827EE54F24E8F4F0B
:103B60000C944424C41DC91DCE1DD81DE21D5B1E2E
:103B7000EC1DF41DFC1D061E101E1A1E291E331EF0
:103B80005B1E3D1E471E511E84B5806884BD07BD67
:103B9000A5CF84B5806284BD08BDA0CF8091800090
:103BA000806880938000109389000093880096CFEE
:103BB0008091800080628093800010938B0000933E
:103BC0008A008CCF80918000886080938000109361
:103BD0008D0000938C0082CF8091B000806880932C
:103BE000B0000093B3007ACF8091B00080628093E0
:103BF000B0000093B40072CF8091900080688093F1
:103C00009000109399000093980068CF80919000E5
:103C100080628093900010939B0000939A005ECF87
:103C20008091900088608093900010939D00009395
:103C30009C0054CF8091A00080688093A000809168
:103C4000A0008F7B8093A0001093A9000093A80090
:103C500045CF8091A00080628093A0001093AB00BC
:103C60000093AA003BCF8091A00088608093A000C1
:103C70001093AD000093AC0031CF8091200180689B
:103C800080932001109329010093280127CF809170
:103C9000200180628093200110932B0100932A0160
:103CA0001DCF8091200188608093200110932D0109
:103CB00000932C0113CF003811050CF041CF38CF01
:103CC000813011F4602F35CF60E08BE10ECF823070
:103CD00009F07CC0153020F460E08CE10E944C0CAF
:103CE0001091F8032091F9038091FA03811148C0E3
:103CF000263308F0265390917B00822F8870977F9F
:103D0000892B80937B002770206420937C00809116
:103D10007A00806480937A0080917A0086FDFCCFDF
:103D2000A0907800B090790086E090E00E941D2776
:103D30006C0185E0D6018C9382E011968C931197EB
:103D400012968C93129713961C93C501B7010E948B
:103D50000E24F60164838583C114D10421F460E04C
:103D60008DE10E944C0C46E050E0B60186E597E0FC
:103D70000E946103069709F464CE60E08EE15FCE95
:103D800030E0F901E250FD4F8491F901EC55FC4F10
:103D90000491F901E25AFC4FD490B12CA12CDD2002
:103DA00009F4C2CF81110E942C02ED2DF0E0EE0F3C
:103DB000FF1FEC5BFC4FA591B491EC910E2391E0B9
:103DC00080E009F490E0A92EB82EAECF843009F03F
:103DD00024C2143020F460E08FE10E944C0CD0909B
:103DE000F80313E001E0E0914B08F0914C081386D2
:103DF0001586148612861186108617821682158201
:103E0000148213821092490810924A0862E370E00B
:103E100080E090E00E942203BE016B5D7F4F8091A5
:103E20004B0890914C080E94BC09882309F47AC081
:103E300067E0CE0185960E94AB079CA58913ECCF65
:103E4000809149088F5F809349088DA1883231F0B5
:103E500008F04EC0803111F08232F1F680914A08AC
:103E60008F5F80934A0880914208811128C0809119
:103E70004B0890914C080E946808BE016B5D7F4F13
:103E800080914B0890914C080E94490840E064EBF7
:103E900080914B0890914C080E94150880914B0826
:103EA00090914C080E94C207C82E80914B089091B7
:103EB0004C080E946808C11002C0009342088DA1FE
:103EC000803109F1BE016F5F7F4FCE0185960E9460
:103ED000A008882359F08D819DA19B3311F487FDA3
:103EE00012C08F3391F058F48F31C1F080E00EC0D2
:103EF0008B3309F4B3CF823409F08ECFAFCF8F3537
:103F000079F08F3799F78CE001C08AE090914508ED
:103F1000981708F081CF809345087ECF89E0F6CFCF
:103F20008BE0F4CF80914908811103C0115009F052
:103F30005ACF80914B0890914C080E94680840E04D
:103F40006CEC80914B0890914C080E9415084091B0
:103F5000420864E480914B0890914C080E94150837
:103F60000E9455034B015C01809146088823E1F0D3
:103F700080914708882309F4E1C0809142088111AB
:103F8000DDC080914B0890914C080E94C20781309F
:103F900059F00E945503681979098A099B096E3EF8
:103FA00072408105910568F380914908882309F4DE
:103FB00083C0E0914B08F0914C0813861586148657
:103FC0001286118610861782168215821482138239
:103FD000BE016B5D7F4F80914B0890914C080E9411
:103FE000BC09882309F468C067E0CE0185960E9469
:103FF000AB079CA5891360C0BE016F5F7F4FCE01E8
:1040000085960E94A008882309F456C08A81812CD5
:10401000912C540187FF06C0812C912CF8EFAF2E14
:10402000BB24BA949DA149819B3309F0B0C02D8176
:1040300027FFADC040FD40C0042F10E030E020E07D
:1040400073E0000F111F221F331F7A95D1F7B901BA
:10405000A801407E57706627772790E0B0E0A0E087
:104060008C019D01EBE0000F111F221F331FEA9509
:10407000D1F7042B152B262B372B082919292A2990
:104080003B29013854EE15075FEF25073507A4F0EB
:10409000C901B8010E94DD2220E030E040E05CE38D
:1040A0000E943C234B015C0120E030E04EEF52ECDB
:1040B0000E94D62281110AC060E081E20E944C0C6D
:1040C000812C912C9EEFA92E92ECB92E20E030E0AD
:1040D00040E251E4C501B4010E943C230E946225E4
:1040E0005B0186E090E00E941D278C0185E0D801ED
:1040F0008C9382E011968C93119784E012968C93A6
:1041000012971396DC92C501B7010E940E24F801A4
:10411000648385830115110521F460E082E20E9429
:104120004C0C46E050E0B80186E597E00E94610340
:10413000069709F438CC60E083E233CCE09145087F
:10414000E9508EEE92E0E33038F4F0E0EE0FFF1F1E
:10415000EF5EFD4F808191814C01B12CA12C8091AB
:104160004308882329F060E0809144080E9493026C
:10417000C501B4010E94220380914308882309F4F9
:1041800013CF61E0809144080E9493020DCF082F65
:1041900010E0102F0027110F110F110F28E0429F80
:1041A000A0011124042B152B012E000C220B330B24
:1041B000082919292A293B29903109F062CF6885FD
:1041C000662309F45ECF70E08F81AB01481B510973
:1041D000CA019695982F8827979587950E940E2457
:1041E000CB01770FAA0BBB0B53E0000F111F221F4F
:1041F000331F5A95D1F700782770332700521109E1
:1042000021093109800F911FA21FB31F950184015D
:10421000082B192B2A2B3B2B34CF853009F05ECC91
:10422000133020F460E084E20E944C0CF091F8031B
:104230002C96FFAF2C97AE014F5F5F4FBE016B5DB9
:104240007F4F87E698E00E944C10811104C060E027
:1042500085E20E944C0C20E030E040E251E46D89A0
:104260007E898F89988D0E943C230E9462254B0194
:1042700020E030E040E251E469AD7AAD8BAD9CAD19
:104280000E943C230E9462252B0184E090E00E9462
:104290001D278C0183E0D8018C9382E011968C93CA
:1042A000C401B7010E940E24F8016283C201B70164
:1042B0000E940E2463830115110521F460E086E25B
:1042C0000E944C0C44E050E0B80186E597E00E9463
:1042D0006103049721F060E087E20E944C0C011515
:1042E000110519F0C8010E94B927B201550C880BBD
:1042F000990B0E94DD2220E030E040E251E40E9470
:10430000F0240E9462252B01B401990C880B990BB3
:104310000E94DD2220E030E040E251E40E94F024DF
:104320000E9462254B01EDEEF3E090E080E02191E8
:1043300021113EC083519C4F2C96EFAD2C97DC0190
:10434000EC939092E9038092E8035092EB03409241
:10435000EA036CE271E08FE69EE00E94120981118F
:1043600004C060E081E60E944C0C68E572E081EDDB
:104370009CE00E941209811104C060E082E60E9464
:104380004C0C64E873E082ED91E10E941209811106
:1043900004C060E083E60E944C0C60EB74E082E3B2
:1043A0009DE00E941209811199CB60E084E69DCBCB
:1043B00001968830910509F0BACF60E085E50E944A
:1043C0004C0CBFCF8091F80487FF04C060E087E405
:1043D0000E944C0CE091F80411E01E0F1093F804B9
:1043E000F0E0E858FB4F00838091F904181372C97C
:1043F000123020F460E082E30E944C0C809178043B
:104400008130E9F5133020F460E083E30E944C0C26
:10441000D0907A04F1E060E086E3DF1232C084E0FD
:1044200090E00E941D278C01DC01CC921196DC9259
:1044300011971296DC9212978091790413968C93BF
:104440000115110521F460E084E30E944C0C44E066
:1044500050E0B80186E597E00E946103049721F0DF
:1044600060E085E30E944C0C0115110519F0C801AC
:104470000E94B9271092F8041092F9042BC960E049
:1044800087E30E944C0CF6CF0E9455036B01CB01D1
:1044900064E670E00E94FA23892BA9F50AE915E089
:1044A000F8018481882371F062817381C6010E94C2
:1044B000FA23892B39F40190F081E02D1995D80168
:1044C00014961C920B5F1F4FB6E00A331B0741F78F
:1044D0000AEF14E08AE9A82E85E0B82EF80184815D
:1044E000882361F082819381C816D90638F0019043
:1044F000F081E02D1995D80114961C920B5F1F4F87
:10450000A016B10659F70E946E04DCC880917508A8
:1045100090917608009739F0DC01ED91FC910280D2
:10452000F381E02D19958091770890917808009794
:1045300039F0DC01ED91FC910280F381E02D1994BA
:104540000895BB274A3031F4992322F4BDE29095B7
:1045500081959F4F0C94AD22BB27FB015527AA27BD
:10456000880F991FAA1FA41710F0A41B8395505100
:10457000B9F7A05DAA3308F0A95DA193009779F778
:10458000B111B1931192CB010C94C622DC01FC0154
:10459000672F71917723E1F7329704C07C916D9377
:1045A00070836291AE17BF07C8F308950E94182365
:1045B00008F481E00895E89409C097FB3EF49095D3
:1045C0008095709561957F4F8F4F9F4F9923A9F0EC
:1045D000F92F96E9BB279395F6958795779567957B
:1045E000B795F111F8CFFAF4BB0F11F460FF1BC0BF
:1045F0006F5F7F4F8F4F9F4F16C0882311F096E952
:1046000011C0772321F09EE8872F762F05C06623FF
:1046100071F096E8862F70E060E02AF09A95660FB8
:10462000771F881FDAF7880F9695879597F9089571
:10463000990F0008550FAA0BE0E8FEEF16161706B3
:10464000E807F907C0F012161306E407F50798F01B
:10465000621B730B840B950B39F40A2661F0232B34
:10466000242B252B21F408950A2609F4A140A695B0
:104670008FEF811D811D08950E944F230C94C0234C
:104680000E94B22338F00E94B92320F0952311F044
:104690000C94A9230C94AF2311240C94F4230E94AE
:1046A000D12370F3959FC1F3950F50E0551F629F82
:1046B000F001729FBB27F00DB11D639FAA27F00D7B
:1046C000B11DAA1F649F6627B00DA11D661F829FA2
:1046D0002227B00DA11D621F739FB00DA11D621F87
:1046E000839FA00D611D221F749F3327A00D611DA4
:1046F000231F849F600D211D822F762F6A2F112486
:104700009F5750409AF0F1F088234AF0EE0FFF1FB8
:10471000BB1F661F771F881F91505040A9F79E3F0F
:10472000510580F00C94A9230C94F4235F3FE4F32B
:10473000983ED4F3869577956795B795F795E79565
:104740009F5FC1F7FE2B880F911D9695879597F96E
:10475000089597F99F6780E870E060E008959FEF03
:1047600080EC089500240A94161617061806090608
:10477000089500240A9412161306140605060895D7
:10478000092E0394000C11F4882352F0BB0F40F45F
:10479000BF2B11F460FF04C06F5F7F4F8F4F9F4F9F
:1047A000089557FD9058440F551F59F05F3F71F021
:1047B0004795880F97FB991F61F09F3F79F0879588
:1047C0000895121613061406551FF2CF4695F1DF11
:1047D00008C0161617061806991FF1CF86957105A1
:1047E000610508940895E894BB2766277727CB01D5
:1047F00097F90895AA1BBB1B51E107C0AA1FBB1F55
:10480000A617B70710F0A61BB70B881F991F5A955C
:10481000A9F780959095BC01CD01089597FB072ECF
:1048200016F4009407D077FD09D00E94FA2307FC04
:1048300005D03EF4909581959F4F089570956195B0
:104840007F4F0895A1E21A2EAA1BBB1BFD010DC0CC
:10485000AA1FBB1FEE1FFF1FA217B307E407F50730
:1048600020F0A21BB30BE40BF50B661F771F881F0C
:10487000991F1A9469F760957095809590959B01A2
:10488000AC01BD01CF010895EE0FFF1F881F8BBF44
:104890000790F691E02D19942F923F924F925F92DC
:1048A0006F927F928F929F92AF92BF92CF92DF9240
:1048B000EF92FF920F931F93CF93DF93CDB7DEB7A5
:1048C000CA1BDB0B0FB6F894DEBF0FBECDBF199429
:1048D0002A88398848885F846E847D848C849B8490
:1048E000AA84B984C884DF80EE80FD800C811B819E
:1048F000AA81B981CE0FD11D0FB6F894DEBF0FBECD
:10490000CDBFED0108955058BB27AA270E949B24D4
:104910000C94C0230E94B22338F00E94B92320F0E7
:1049200039F49F3F19F426F40C94AF230EF4E0956C
:10493000E7FB0C94A923E92F0E94D12358F3BA175F
:10494000620773078407950720F079F4A6F50C94A5
:10495000F3230EF4E0950B2EBA2FA02D0B01B90115
:1049600090010C01CA01A0011124FF27591B99F0E5
:10497000593F50F4503E68F11A16F040A22F232FF1
:10498000342F4427585FF3CF469537952795A79541
:10499000F0405395C9F77EF41F16BA0B620B730BE8
:1049A000840BBAF09150A1F0FF0FBB1F661F771F59
:1049B000881FC2F70EC0BA0F621F731F841F48F40E
:1049C000879577956795B795F7959E3F08F0B0CF97
:1049D0009395880F08F09927EE0F9795879508957E
:1049E0000E9404250C94C0230E94B92358F00E9411
:1049F000B22340F029F45F3F29F00C94A923511110
:104A00000C94F4230C94AF230E94D12368F39923D0
:104A1000B1F3552391F3951B550BBB27AA276217BA
:104A20007307840738F09F5F5F4F220F331F441FC7
:104A3000AA1FA9F335D00E2E3AF0E0E832D09150FB
:104A40005040E695001CCAF72BD0FE2F29D0660FE8
:104A5000771F881FBB1F261737074807AB07B0E82B
:104A600009F0BB0B802DBF01FF2793585F4F3AF031
:104A70009E3F510578F00C94A9230C94F4235F3FDA
:104A8000E4F3983ED4F3869577956795B795F795B7
:104A90009F5FC9F7880F911D9695879597F908959F
:104AA000E1E0660F771F881FBB1F6217730784073B
:104AB000BA0720F0621B730B840BBA0BEE1F88F74A
:104AC000E09508950E9469256894B1110C94F4232F
:104AD00008950E94D92388F09F5798F0B92F9927FD
:104AE000B751B0F0E1F0660F771F881F991F1AF0D9
:104AF000BA95C9F714C0B13091F00E94F323B1E028
:104B000008950C94F323672F782F8827B85F39F026
:104B1000B93FCCF3869577956795B395D9F73EF471
:104B200090958095709561957F4F8F4F9F4F089519
:104B3000FA01EE0FFF1F309621053105A1F1611535
:104B4000710561F48038BFE39B0749F168949038A0
:104B5000810561F08038BFEF9B0741F099234AF54A
:104B6000FF3FE1053105210519F1E8940894E79527
:104B7000D901AA2329F4AB2FBE2FF85FD0F310C0C0
:104B8000FF5F70F4A695E0F7F73950F019F0FF3A9F
:104B900038F49F779F930DD00F9007FC905808959D
:104BA00046F00C94AF2360E070E080E89FE3089546
:104BB0004FE79F775F934F933F932F930E949326E6
:104BC0002F913F914F915F910E943C230C94F025CF
:104BD00029F416F00C94A9230C94F3230C94AF231E
:104BE0000E94D923A8F39638A0F707F80F92E8940B
:104BF0002BE33AEA48EB5FE70E9452230F920F92B1
:104C00000F924DB75EB70F920E94DB26E4EEF0E004
:104C10000E9422264F915F91EF91FF91E595EE1F43
:104C2000FF1F49F0FE57E0684427EE0F441FFA9536
:104C3000E1F74195550B0E9455260F9007FE0C9405
:104C400049260895DF93CF931F930F93FF92EF921E
:104C5000DF927B018C01689406C0DA2EEF010E947E
:104C60004F23FE01E894A5912591359145915591E9
:104C7000A6F3EF010E949B24FE019701A801DA949C
:104C800069F7DF90EF90FF900F911F91CF91DF9127
:104C900008959B01AC0160E070E080E89FE30C9414
:104CA000F0240C94A9230C940F270E94D923D8F345
:104CB0009923C9F3940F511DA3F39150504094F0E0
:104CC00059F0882332F0660F771F881F91505040AB
:104CD000C1F79E3F51052CF7880F911D969587953A
:104CE00097F908955F3FACF0983E9CF0BB278695FE
:104CF00077956795B79508F4B1609395C1F7BB0FA9
:104D000058F711F460FFE8CF6F5F7F4F8F4F9F4FD1
:104D1000E3CF0C94F42316F00C940F270C94AF23DC
:104D200068940C94A9230E94D923A8F39923C1F372
:104D3000AEF3DF93CF931F930F93FF92C92FDD271D
:104D400088232AF02197660F771F881FDAF720E063
:104D500030E040E85FEB9FE3883920F0803E38F098
:104D600021968F770E948424ECE0F1E004C00E9439
:104D70008424E9E3F1E00E9422268B01BE01EC01CC
:104D8000FB2E6F5771097595771F880B990B0E9441
:104D9000DD2228E132E741E35FE30E944F23AF2D9C
:104DA0009801AE01FF900F911F91CF91DF910E946A
:104DB0009B240C94C023FA01DC01AA0FBB1F9B01AA
:104DC000AC01BF5728F4222733274427507820C04E
:104DD000B75190F4AB2F0024469537952795011CC9
:104DE000A395D2F3002071F0220F331F441FB39517
:104DF000DAF30ED00C94832461307105A0E88A07A1
:104E0000B94630F49B01AC01662777278827907854
:104E1000309621F0208331834283538308959F3F4E
:104E200031F0915020F4879577956795B795880F65
:104E3000911D9695879597F908950F931F93CF939A
:104E4000DF938230910510F482E090E0E0917D08DC
:104E5000F0917E0830E020E0B0E0A0E0309799F4D7
:104E60002115310509F44AC0281B390B24303105BE
:104E7000D8F58A819B816115710589F1FB019383C6
:104E80008283FE0111C04081518102811381481744
:104E90005907E0F04817590799F4109761F01296F6
:104EA0000C93129713961C933296CF01DF91CF91FA
:104EB0001F910F91089500937D0810937E08F4CF01
:104EC0002115310551F04217530738F0A901DB01D4
:104ED0009A01BD01DF01F801C1CFEF01F9CF909335
:104EE0007E0880937D08CDCFFE01E20FF31F8193F2
:104EF00091932250310939832883D7CF20917B08A1
:104F000030917C08232B41F420910202309103025E
:104F100030937C0820937B0820910002309101029D
:104F20002115310541F42DB73EB74091040250914F
:104F30000502241B350BE0917B08F0917C08E217F9
:104F4000F307A0F42E1B3F0B2817390778F0AC01AC
:104F50004E5F5F4F2417350748F04E0F5F1F509389
:104F60007C0840937B08819391939FCFF0E0E0E031
:104F70009CCFCF93DF930097E9F0FC013297138227
:104F80001282A0917D08B0917E08ED0130E020E012
:104F90001097A1F420813181820F931F20917B080B
:104FA00030917C082817390709F061C0F0937C081C
:104FB000E0937B08DF91CF910895EA01CE17DF07D8
:104FC000E8F54A815B819E0141155105B1F7E90180
:104FD000FB83EA8349915991C40FD51FEC17FD0754
:104FE00061F4808191810296840F951FE901998374
:104FF0008883828193819B838A83F0E0E0E012962C
:105000008D919C9113970097B9F52D913C91119733
:10501000CD010296820F931F20917B0830917C086E
:105020002817390739F6309751F510927E081092FB
:105030007D08B0937C08A0937B08BCCFD383C28348
:1050400040815181840F951FC817D90761F44E5FC5
:105050005F4F88819981480F591F518340838A810E
:105060009B81938382832115310509F0B0CFF093A2
:105070007E08E0937D089ECFFD01DC01C0CF138246
:105080001282D7CF4F925F926F927F928F929F92B0
:10509000AF92BF92CF92DF92EF92FF920F931F9346
:1050A000CF93DF938C01009799F4CB01DF91CF91DF
:1050B0001F910F91FF90EF90DF90CF90BF90AF9036
:1050C0009F908F907F906F905F904F900C941D27D2
:1050D000FC01E60FF71F9C0122503109E217F3078C
:1050E00008F4AEC0D901CD91DC911197C617D7074E
:1050F00020F1C530D10578F0CE01049786179707C7
:1051000050F0C61BD70B2297C193D1936D937C931C
:10511000CF010E94B927C801DF91CF911F910F9154
:10512000FF90EF90DF90CF90BF90AF909F908F90C7
:105130007F906F905F904F9008955B01AC1ABD0A0D
:105140004C018C0E9D1EA0917D08B0917E08512CC3
:10515000412CF12CE12C109731F580917B08909136
:105160007C088815990509F05CC04616570608F0BA
:1051700058C08091000290910102009741F48DB7D0
:105180009EB74091040250910502841B950BE817CD
:10519000F90708F055C0F0937C08E0937B08F9010B
:1051A00071836083B8CF8D919C91119712966C900A
:1051B000129713967C901397A815B90559F56C01B1
:1051C00042E0C40ED11CCA14DB0420F1AC014A1920
:1051D0005B09DA011296159780F06282738251831F
:1051E0004083D9016D937C93E114F10471F0D701F0
:1051F0001396FC93EE9312978ECF22968C0F9D1FE1
:10520000F90191838083F301EFCFF0937E08E0935F
:105210007D0881CF4816590608F42C017D01D30181
:105220009ACFCB010E941D277C01009749F0AE0167
:10523000B8010E942829C8010E94B92787016BCFB5
:1052400010E000E068CF81E090E0F8940C944729EA
:10525000FB01DC0102C001900D9241505040D8F793
:105260000895FB01DC0101900D920020E1F7089503
:10527000FB01DC014150504048F001900D920020AC
:10528000C9F701C01D9241505040E0F7089511E068
:10529000C6EFD1E000E006C0802FFE010E9444244A
:1052A0002196011DC73FD10780E00807A9F7F894B0
:0252B000FFCF2E
:1052B20000007F088000AC33007C0A7EAFAFA20002
:1052C200805E00BC007701000000009B044A0C9C39
:1052D200048711B20F000000009B042E0C9C049165
:1052E20011011000000000010461038E034E04BF8F
:1052F200039D03B1030000000079074C07A80722B1
:10530200074507320723070D0A0049324320777207
:1053120069746520616464726573733A2030780041
:10532200202D2072656769737465723A20307800A7
:10533200202D202076616C75653A006E6F6B0073CC
:1053420065744D6F646528292061637469766174A0
:105352006520726573756C743A200049324320727D
:1053620065616420616464726573733A2030780009
:10537200636C656172436F6D6D616E642829207282
:105382006573756C743A2000636C656172436F6D6E
:105392006D616E642829207374617475733A2030CC
:1053A20078005374617274206D6561737572656DF6
:1053B200656E74005374617475733A2000446174AD
:1053C200613A200041485478305F54004148547893
:1053D200305F4800626567696E2829202D204932B6
:1053E2004320696E697420646F6E6500726573652F
:1053F20074282920726573756C743A20006368659D
:10540200636B506172744944282920726573756C0C
:10541200743A2000454E53313630206F6B00454EB2
:1054220053313631206F6B006765744669726D7750
:10543200617265282920726573756C743A20004583
:105442004E5331363020696E2069646C65206D6F71
:04545200646500008D
:08545600FFFF0104000001004A
:00000001FF
