:100000000C94F9010C942A020C942A020C942A02F2
:100010000C942A020C942A020C942A020C942A02B0
:100020000C942A020C942A020C942A020C942A02A0
:100030000C942A020C942A020C942A020C942A0290
:100040000C942A020C942A020C942A020C942A0280
:100050000C942A020C942A020C942A020C94181371
:100060000C942A020C94EC130C94C2130C942A02E4
:100070000C942A020C942A020C942A020C942A0250
:100080000C942A020C942A020C942A020C942A0240
:100090000C948C130C9462130C942A020C9422146A
:1000A0000C942A020C942A020C942A020C942A0220
:1000B0000C942A020C942A020C942A020C942A0210
:1000C0000C942A020C942A020C942A020C942A0200
:1000D0000C942A020C942A020C942A020C942A02F0
:1000E0000C942A0207634236B79BD8A71A39685680
:1000F00018AEBAAB558C1D3CB7CC5763BD6DEDFD4A
:10010000753EF6177231BF000000803F0800000006
:10011000BE922449123EABAAAA2ABECDCCCC4C3EFC
:1001200000000080BEABAAAAAA3E00000000BF00EB
:100130000000803F0000000000084178D3BB4387E7
:10014000D1133D190E3CC3BD4282AD2B3E68EC82FB
:1001500076BED98FE1A93E4C80EFFFBE01C4FF7F80
:100160003F00000000000C9499270C940F210C9480
:1001700050040C94A8200C944C0C0C9491020C94F8
:10018000B6170C947B070C94BC170C9485110C9437
:10019000440F0C9468200C94940E0C9447070C9414
:1001A00033170C9476200C948D020C94D0110C947F
:1001B00073180C941D210C948F110C94ED150C9454
:1001C00088180C944C020C94E7170C94E5200C94BE
:1001D000B3030C9475020C9471020C944C150C949E
:1001E000F3200C9479020C949E040C9424070C9434
:1001F00052020C9463030C9435260C9492200C94B8
:100200009D200C9461170C94D30C0C947F020C94D9
:10021000B00F0C947C180C9482180C9425070C9445
:1002200084200C94FF0F0C94340D0C9434070C9420
:10023000F4160C949F030C945A020C948C020C94A8
:100240002C020C94C1030C949D040C9456020C9443
:10025000D2200C94AA070C942B210C94B6200C9459
:1002600060200C94C4200C947F180C942D020C94E4
:1002700090030C9403040C9487020C946A180C9459
:100280005E020C9401210C9458200C944E070C949F
:1002900013170C9467020C946A150C9483020C9447
:1002A00061020C9494160C946B020C94300C005E5A
:1002B000BCE2613FDD83C29C7E20A3FD1F41009D07
:1002C00023BE46DB65F88C11AF32CA57E9740000D3
:1002D0002100240027002A002D00300033000101F6
:1002E0000000040107010A01000022002500280087
:1002F0002B002E003100340002010000050108012E
:100300000B0100000A0B02090C0D0E080703040183
:1003100000000000000000000000000000000000DD
:1003200000000000000000000000000000001211AA
:1003300010000000000000000000000000000000AD
:100340000000000000000000000020002300260044
:1003500029002C002F0032000001000003010601DB
:10036000090105050505070508080808020202023B
:100370000A0A080804040404010101010101010141
:100380000303030303030303040707070C0C0C0C0C
:100390000C0C0C0C020202020606060606060606F5
:1003A0000B0B0B0B0B0B0B0B010210202008081082
:1003B00020401020408002010201080402010102D5
:1003C00004081020408080402010080402018004AE
:1003D0000201804020100804020108040201010209
:1003E0000408102040800102040810204080881872
:1003F000992711241FBECFEFD1E2DEBFCDBF00E0B1
:100400000CBF28E0A4EBB3E001C01D92AF38B207E7
:10041000E1F713E0A0E0B2E0E8EDFCE500E00BBF9F
:1004200002C007900D92A43BB107D9F711E0C8EFC5
:10043000D1E000E006C021970109802FFE010E9453
:100440005729C73FD10780E00807A9F70E9459192B
:100450000C945A2E0C940000089508958150823116
:1004600008F05AC0E82FF0E08827E65CFD4F8F4F78
:100470000C9457295A025E024C02520256028C0218
:10048000610267026B027102750279027F028302C8
:100490008C0287028D029102809180008F77809379
:1004A00080000895809180008F7DF9CF8091800039
:1004B000877FF5CF84B58F7784BD089584B58F7D10
:1004C000FBCF8091B0008F778093B000089580912A
:1004D000B0008F7DF9CF809190008F77809390004E
:1004E0000895809190008F7DF9CF80919000877F53
:1004F000F5CF8091A0008F778093A0000895809120
:10050000A0008F7DF9CF8091A000877FF5CF8091EB
:1005100020018F77809320010895809120018F7DA5
:10052000F9CF80912001877FF5CF1F93CF93DF9381
:10053000282F30E0F901EE5FFC4F8491F901E85576
:10054000FC4FD491F901EE59FC4FC491CC23A9F092
:10055000162F81110E942E02EC2FF0E0EE0FFF1FEC
:10056000E851FD4FA591B4918FB7F894EC9111111A
:1005700008C0D095DE23DC938FBFDF91CF911F9110
:100580000895DE2BF8CFCF93DF9390E0FC01E85580
:10059000FC4F24918E599C4FFC0184918823C9F013
:1005A00090E0880F991FFC01E253FD4FA591B49193
:1005B000FC01E851FD4FC591D49161110DC09FB769
:1005C000F8948C91209582238C938881282328830A
:1005D0009FBFDF91CF910895623051F49FB7F89497
:1005E0003C91822F809583238C93E8812E2BEFCF33
:1005F0008FB7F894EC912E2B2C938FBFEACF3FB797
:10060000F89480914F0690915006A0915106B091B8
:10061000520626B5A89B05C02F3F19F00196A11DD3
:10062000B11D3FBFBA2FA92F982F8827BC01CD013C
:10063000620F711D811D911D42E0660F771F881F9B
:10064000991F4A95D1F708958F929F92AF92BF92CA
:10065000CF92DF92EF92FF926B017C010E94FF022A
:100660004B015C01C114D104E104F104B9F00E9412
:10067000FF02681979098A099B09683E7340810560
:10068000910580F321E0C21AD108E108F10888EE53
:10069000880E83E0981EA11CB11CE4CFFF90EF9060
:1006A000DF90CF90BF90AF909F908F9008952FB71D
:1006B000F89460914B0670914C0680914D06909194
:1006C0004E062FBF0895AF92BF92CF92DF92EF9266
:1006D000FF920F931F93CF93DF936C017B018B01EC
:1006E000040F151FEB015E01AE18BF08C017D1073C
:1006F00059F06991D601ED91FC910190F081E02DC6
:10070000C6011995892B79F7C501DF91CF911F910A
:100710000F91FF90EF90DF90CF90BF90AF90089532
:10072000FC01538D448D252F30E0842F90E0821BF7
:10073000930B541710F0CF96089501970895FC017C
:10074000918D828D981761F0A28DAE0FBF2FB11DD4
:100750005D968C91928D9F5F9F73928F90E008952C
:100760008FEF9FEF0895FC01918D828D981731F0E6
:10077000828DE80FF11D858D90E008958FEF9FEF3A
:100780000895FC01918D228D892F90E0805C9F4F10
:10079000821B91098F739927089589EC96E00E9436
:1007A000C10321E0892B09F420E0822F089586E619
:1007B00097E00E94C10321E0892B09F420E0822FF9
:1007C0000895FC01A48DA80FB92FB11DA35ABF4FE6
:1007D0002C91848D90E001968F739927848FA68940
:1007E000B7892C93A089B1898C91837080648C9394
:1007F000938D848D981306C00288F389E02D808143
:100800008F7D80830895EF92FF920F931F93CF9374
:10081000DF93EC0181E0888F9B8D8C8D98131AC03B
:10082000E889F989808185FF15C09FB7F894EE8922
:10083000FF896083E889F98980818370806480837F
:100840009FBF81E090E0DF91CF911F910F91FF90CA
:10085000EF900895F62E0B8D10E00F5F1F4F0F7372
:100860001127E02E8C8D8E110CC00FB607FCFACF2D
:10087000E889F989808185FFF5CFCE010E94E103E7
:10088000F1CFEB8DEC0FFD2FF11DE35AFF4FF082FE
:100890009FB7F8940B8FEA89FB8980818062CFCF64
:1008A000CF93DF93EC01888D8823B9F0AA89BB89A7
:1008B000E889F9898C9185FD03C0808186FD0DC092
:1008C0000FB607FCF7CF8C9185FFF2CF808185FFB3
:1008D000EDCFCE010E94E103E9CFDF91CF910895E2
:1008E00080E090E0892B29F00E94D70381110E94BB
:1008F000000080E090E0892B29F00E94CD03811157
:100900000E94000080E090E0892B49F080E090E0B8
:10091000892B29F00E94000081110E94000080E0D4
:1009200090E0892B49F080E090E0892B29F00E942B
:10093000000081110C9400000895089508952091FD
:10094000D503260F3327331F21323105ECF42091D4
:100950009F06FC0190E080E0243069F082E0089579
:10096000A091D5032191AC014B545C4FA40FB52F3E
:10097000B11D2C930196861798F38091D503680FCB
:100980006093D50380E0089581E0089510929F065A
:1009900081E080939E061092790661E084E10E94D6
:1009A000950261E085E10E949502E9EBF0E080812B
:1009B0008E7F808380818D7F808388E48093B800E0
:1009C00085E48093BC000895109258061092570653
:1009D0001092A6061092C8060E94C6048CE292E00D
:1009E00090935606809355068DE292E090935406BC
:1009F000809353060895CF93DF9391E09093B403CF
:100A00008823B9F0C091B800D091BA008091BC00A1
:100A10008A7B8093BC0060E084E10E94950260E0E4
:100A200085E10E9495020E94C604D093BA00C0934B
:100A3000B800DF91CF9108958F929F92AF92BF92AD
:100A4000CF92DF92EF92FF920F931F93CF93DF939A
:100A5000D091C806D13208F0D7C0182FC091C70670
:100A60000E94FF026B017C0180919F0681116BC087
:100A700082E080939F0610939E068FEF80939D06E1
:100A800010929C06D0939B06A7EAB6E0EBE7F6E04F
:100A900080E0D81391C010927A0680917A06CC0F2C
:100AA000C82BC0937A0680917906813009F088C0FE
:100AB000109279060E94FF026B017C0180917A06F8
:100AC0008093BB008091A1069091A206A091A306FD
:100AD000B091A406892B8A2B8B2BA1F00E94FF02D8
:100AE0000091A1061091A2062091A3063091A406C0
:100AF0006C197D098E099F09061717072807390702
:100B000008F442C08091BC0083FDD8CF85EC80936F
:100B1000BC000E94FF026B017C0180919F06823025
:100B200009F450C080919D068F3F09F46FC08091F9
:100B30009D06803209F46CC080919D06803309F4D3
:100B400069C084E026C08091A1069091A206A09180
:100B5000A306B091A406892B8A2B8B2B09F484CF92
:100B60000E94FF028090A1069090A206A090A3068A
:100B7000B090A4066C197D098E099F098616970608
:100B8000A806B90608F070CF8091A0060E94FB0469
:100B900085E01092A6061092C8061092A506DF9175
:100BA000CF911F910F91FF90EF90DF90CF90BF906A
:100BB000AF909F908F9008959D9191938F5F69CF93
:100BC00085EEA5CF8091A1069091A206A091A306E3
:100BD000B091A406892B8A2B8B2B09F49ECF0E94FF
:100BE000FF020091A1061091A2062091A306309168
:100BF000A4066C197D098E099F0906171707280797
:100C0000390708F08ACFC0CF81E0C3CF80E0C1CFE1
:100C100082E0BFCF83E0BDCFCF93DF93EA01DC0159
:100C200011968D919C91DC01ED91FC910280F381F4
:100C3000E02D1995C817D90729F481E00E941C05F9
:100C400091E0811190E0892FDF91CF910895CF93AA
:100C5000DF93EC018B818823A1F0888191E0909350
:100C6000A5068093C7061092A6061092C80681E0DA
:100C70000E941C0591E0811190E0892FDF91CF91B6
:100C800008950E94E40481E08B83CE010E94270630
:100C9000982F8111E2CFF1CF8F929F92AF92BF92A6
:100CA000CF92DF92EF92FF920F931F93CF93DF9338
:100CB000D82FC62F142F613208F09CC00E94FF026B
:100CC0006B017C0180919F0681116FC081E0809350
:100CD0009F0610939E069FEF90939D0610929C0690
:100CE0009C0F90939B0680937A0680917A06DD0F85
:100CF000D82BD0937A0680917906813009F07CC098
:100D0000109279060E94FF026B017C0180917A06A5
:100D10008093BB008091A1069091A206A091A306AA
:100D2000B091A406892B8A2B8B2BA1F00E94FF0285
:100D30000091A1061091A2062091A3063091A4066D
:100D40006C197D098E099F090617170728073907AF
:100D500008F44CC08091BC0083FDD8CF85EC809313
:100D6000BC000E94FF026B017C0180919F068130D4
:100D700009F444C080919C068C1710F4C0919C0625
:100D8000EBE7F6E0A9E5B6E080E08C1359C08C2FC4
:100D9000DF91CF911F910F91FF90EF90DF90CF9057
:100DA000BF90AF909F908F9008958091A1069091F1
:100DB000A206A091A306B091A406892B8A2B8B2BA7
:100DC00009F480CF0E94FF028090A1069090A206B5
:100DD000A090A306B090A4066C197D098E099F0906
:100DE00086169706A806B90608F06CCF8091A00673
:100DF0000E94FB04C0E0CBCF85EEB1CF8091A1066D
:100E00009091A206A091A306B091A406892B8A2BEB
:100E10008B2B09F4AACF0E94FF020091A10610912A
:100E2000A2062091A3063091A4066C197D098E09B3
:100E30009F09061717072807390708F096CFD6CF5E
:100E400091919D938F5FA1CF0895E0915806809175
:100E50005706E81730F4F0E0E75AF94F808190E048
:100E600008958FEF9FEF089590915806809157064F
:100E70002FEF3FEF981748F4E92FF0E0E75AF94FCA
:100E8000208130E09F5F90935806C90108958091BA
:100E9000570690915806891B990B0895CF92DF92BF
:100EA000EF92FF920F931F93CF93DF937C01CB01BF
:100EB0008A012091A506222389F0EB016B01C40E63
:100EC000D51ECC15DD0569F06991D701ED91FC9136
:100ED0000190F081E02DC7011995F3CF642F0E9496
:100EE0009F04C801DF91CF911F910F91FF90EF9068
:100EF000DF90CF900895CF93DF931F92CDB7DEB7E9
:100F000069832091A5062223F9F02091C80620329A
:100F100058F021E030E0FC013383228390E080E050
:100F20000F90DF91CF9108958091A606E82FF0E011
:100F3000E955F94F998190838F5F8093A60680933E
:100F4000C80681E090E0ECCF61E0CE0101960E94FE
:100F50009F04F7CF90E080E00895DC0180E06150CD
:100F600090F09D919827E92FEF70F0E0E255FD4F4A
:100F70002491E92FE295EF70F0E0E254FD4FE49107
:100F8000822F8E27ECCF0895DC012C911196ED91E4
:100F9000FC91F8948181822B81839281322F30954C
:100FA0009323928387E090E00197F1F78181832377
:100FB000818383E290E00197F1F790817894EFECE0
:100FC000F0E03197F1F7922381E009F480E0089591
:100FD000FC0190810180F281E02D292F209560FF96
:100FE00014C0F8948281822382838181892B81833A
:100FF000A3E2B0E01197F1F78281982B9283789465
:1010000087ED90E00197F1F70895F89482818223AB
:1010100082838181892B8183AFEFB0E01197F1F753
:101020008281982B928378948FE090E0EBCFDF92CF
:10103000EF92FF920F931F93CF93DF93EC01D62E85
:10104000E42E08E010E0FF24F39461E08D2D8F2161
:1010500009F460E0CE010E94E807FF0C015011097D
:10106000A1F7E11010C0F894E981FA81918188819B
:10107000809589238183E981FA8192818881809595
:10108000892382837894DF91CF911F910F91FF90F4
:10109000EF90DF900895EF92FF920F931F93CF93FD
:1010A000DF938C017B0140E065E50E941708E701B2
:1010B00088E0E80EF11C699140E0C8010E94170821
:1010C000CE15DF05C1F7DF91CF911F910F91FF90F2
:1010D000EF900895FC0190810180F281E02DF89459
:1010E0008181292F20958223818378943DE743E0F5
:1010F00050E0315029F1DA011197F1F7808189230D
:10110000C1F3F8948281822382838181892B818338
:101110007894ABE7B7E01197F1F7F89481818223D7
:101120008183A3E1B1E01197F1F78081982381E0F9
:1011300009F080E07894E3E6F6E03197F1F708955E
:1011400080E008956F927F928F929F92AF92BF92AC
:10115000CF92DF92EF92FF920F931F93CF93DF9383
:101160008C01EB0180915B0890915C080E946A08F9
:10117000882309F43FC0B80180915B0890915C0816
:101180000E944B0840E06EEB80915B0890915C08F8
:101190000E9417087E016E0189E0C80ED11C8E01E5
:1011A000A0905B08B0905C0888E0882E912C712C90
:1011B00066246394C5010E94C40781117628660CD9
:1011C000E1E08E1A9108B1F7F80171928F01CE1605
:1011D000DF0631F780915B0890915C080E946A08F5
:1011E000813041F4F70181917F01811105C0E01741
:1011F000F107C1F790E008C068E0CE010E94AD079A
:1012000091E028852813F6CF892FDF91CF911F9188
:101210000F91FF90EF90DF90CF90BF90AF909F9095
:101220008F907F906F9008950F931F93CF93DF93CC
:10123000EC018B010E945703EAE0F5E050E040E04A
:101240002481211115C025E0249FF001259FF00D78
:101250001124E65FFA4FD183C083060F171F138353
:10126000028381E08483DF91CF911F910F910895D4
:101270004F5F5F4F35964032510511F780E0F3CF55
:101280006F927F928F929F92AF92BF92CF92DF9296
:10129000EF92FF920F931F93CF93DF936C013B016B
:1012A0007A0110E000E0D60114968D919C91E7013F
:1012B000C01BD10B8C179D0708F4EC0141E0C7015E
:1012C0008C1B9D0B0817190708F440E06C2FC132E6
:1012D00008F060E2F60180810E944C0610925806E8
:1012E000809357068C171D0679F54301800E911ED9
:1012F0005401C501881999098C179D0778F4D60106
:1013000011968D919C91DC01ED91FC910284F38505
:10131000E02D1995F50181935F01EBCF0C0F1D1F97
:101320000E151F0508F4BFCF81E0DF91CF911F910B
:101330000F91FF90EF90DF90CF90BF90AF909F9074
:101340008F907F906F90089580E0EFCFCF93DF93E1
:101350001F92CDB7DEB741E050E0BE016F5F7F4F17
:10136000FC01848595850E944009882329F08981A4
:101370000F90DF91CF9108958FEFFACFBF92CF9268
:10138000DF92EF92FF920F931F93CF93DF93EC01C5
:10139000B62EC72E8D85811105C0CE010E946A0828
:1013A00081110EC01B861D861C8680E0DF91CF91C7
:1013B0001F910F91FF90EF90DF90CF90BF90089515
:1013C00040E060EFCE010E94170801E0E12CD12C33
:1013D00011E0CE010E94C407F82ECE010E94C4077E
:1013E00091E0F91218C0813099F51134D8F2DB86FA
:1013F000D11002C081E08D878B81882399F22396DA
:10140000EB2DFC2DCF01089629912193E817F907C0
:10141000D9F781E0CBCFEE2DF0E0F8120FC08B852D
:101420001817A0F4DE01AE0FBF1F13968C91802316
:1014300079F4F12C193008F41C87D12EEC0FFD1F24
:101440008381902F9095892383830AC08113F1CFE4
:10145000FE01EE0DF11D8381802B8383FF24F39425
:101460006F2DCE010E94E8071F5F000F11F4E39477
:1014700001E087E08E1508F0ACCFB7CFFC010190FA
:101480000020E9F73197AF01481B590BBC0186E6F4
:1014900097E00C9463038F929F92AF92BF920F9349
:1014A0001F93CF93DF93CDB7DEB7A1970FB6F89414
:1014B000DEBF0FBECDBF19A2423008F44AE08E0154
:1014C0000F5D1F4F842E912CB12CA12CA5019401EE
:1014D0000E943529E62FB901CA01EA30F4F4E05D33
:1014E000D801EE938D01232B242B252B79F790E047
:1014F00080E0109719F0CD010E943E0AA1960FB628
:10150000F894DEBF0FBECDBFDF91CF911F910F9139
:10151000BF90AF909F908F900895E95CE1CFCF93FB
:10152000DF930E943E0AEC0187E592E00E943E0AAA
:101530008C0F9D1FDF91CF9108950C943E0ACF929E
:10154000DF92EF92FF920F931F93CF93DF93C82EFA
:10155000D62E8A0180911608C22FD0E0882399F1F7
:101560008AE592E00E949D0A6C2D70E090E080E098
:1015700040E10E944B0A80E792E00E949D0A6D2D97
:1015800070E090E080E040E10E944B0A80E892E049
:101590000E949D0A7801C701801B910B8C179D0743
:1015A00074F48CE792E00E949D0AD7016D917D0151
:1015B00070E090E080E040E10E944B0AECCF87E5CC
:1015C00092E00E943E0A80910F089091100821E05D
:1015D0002093A506C092C7061092A6061092C806D0
:1015E000DC01ED91FC910190F081E02D6D2D1995BC
:1015F00080910F0890911008DC01ED91FC91028020
:10160000F381E02DAE01B801199581E0DF91CF9112
:101610001F910F91FF90EF90DF90CF900C941C05DD
:101620001F93CF93DF931F92CDB7DEB790914708FA
:10163000898321E0AE014F5F5F4F60E1892F0E94F7
:101640009F0A182F80911608882361F08FE892E096
:101650000E949D0A8BE892E0111102C08BE693E094
:101660000E948F0A6AE070E080E090E00E9424030C
:1016700081E0111180E00F90DF91CF911F910895CB
:10168000CF93DF93462F682F70E090E080E00E94B8
:101690004B0AEC0187E592E00E943E0A8C0F9D1FE9
:1016A000DF91CF9108956F927F928F929F92AF9228
:1016B000BF92CF92DF92EF92FF920F931F93CF933F
:1016C000DF93E82E962E6A01822E809116088823D9
:1016D000A1F08BEA92E00E949D0A6E2D70E090E0EE
:1016E00080E040E10E944B0A80E792E00E949D0A60
:1016F00060E170E0892D0E94400BC0E07724739474
:10170000D82DDC1BD13208F0D0E280910F089091E7
:1017100010087092A506E092C7061092A6061092D5
:10172000C806DC01ED91FC910190F081E02D692D5E
:101730006C0F199581E00E941C05682E41E06D2F09
:101740008E2D0E944C06109258068093570610E08A
:1017500000E0AD2EB12CFC2EF00E0A151B059CF0FE
:10176000CD0FC81568F2862DDF91CF911F910F9193
:10177000FF90EF90DF90CF90BF90AF909F908F90B1
:101780007F906F90089580910F0890911008DC0170
:10179000ED91FC910284F385E02D1995F601EF0D92
:1017A000F11D80830F5F1F4FD6CF0F931F93CF93F1
:1017B000DF9300D0CDB7DEB7809147081A8221E0D1
:1017C000AE014E5F5F4F62E10E949F0A8091470821
:1017D0009CEC9B8321E0AE014D5F5F4F62E10E9474
:1017E0009F0A182F80911608882361F080EC92E000
:1017F0000E949D0A8BE892E0111102C08BE693E0F3
:101800000E948F0A6AE070E080E090E00E9424036A
:1018100021E0AE014F5F5F4F60E2809147080E9478
:10182000530B098180911608882349F088ED92E0D6
:101830000E949D0A60E170E0802F0E94400B6AE0E8
:1018400070E080E090E00E94240381E0111180E0CC
:101850000F900F900F90DF91CF911F910F910895EE
:101860000C94CC2CCF93DF93EC0188819981009765
:1018700011F00E94CC2C198218821D821C821B82BE
:101880001A82DF91CF910895FC01808191810097A8
:1018900011F00C94CC2C08950C94CC2C0F931F9326
:1018A000CF93DF93082F162F83E090E00E94302C17
:1018B000EC0182E0888389E089830A8343E050E079
:1018C000BE0186E697E00E946303209719F0CE01DF
:1018D0000E94CC2C1111FFCFDF91CF911F910F915E
:1018E0000895CF92DF92EF92FF920F931F93CF93C1
:1018F000DF936C01DC0114960D911C917801B2E02C
:10190000EB0EF11C81E090E0E114F10409F0C70155
:101910000E94302CEC01C8010196FE0197FF17C010
:10192000FE01329690E080E080179107ACF48017BA
:10193000910780F4D6012D913C912115310551F08C
:10194000280F391FD9012C9121930196EDCF1192C7
:101950000197E4CF20E0F8CF0F5F08838AE0898306
:10196000A701BE0186E697E00E946303E816F90628
:1019700021F060E08FE60E944E0C209759F0CE01D6
:10198000DF91CF911F910F91FF90EF90DF90CF905B
:101990000C94CC2CDF91CF911F910F91FF90EF9081
:1019A000DF90CF9008951F93CF93DF9300D000D0A6
:1019B0001F921F92CDB7DEB780911608882321F0C1
:1019C00082EF92E00E948F0A61E070E080E090E098
:1019D0000E94240321E0AE014F5F5F4F60E28091DF
:1019E00047080E94530B198180911608882349F0FB
:1019F00084E093E00E949D0A6AE070E0812F0E94DB
:101A0000400B11FFE1CF27E0AE014F5F5F4F61E276
:101A1000809147080E94530B898180931E088A8118
:101A20009B819093200880931F088C819D819093C7
:101A300022088093210880911808882381F08E81E4
:101A40009F81909324088093230828960FB6F894DA
:101A5000DEBF0FBECDBFDF91CF911F9108951092D1
:101A6000240810922308F1CF7F928F929F92AF9219
:101A7000BF92CF92DF92EF92FF920F931F93CF937B
:101A8000DF93B0901E08C0911F08D09120080091EC
:101A90002108109122082B2D2150330B25303105C0
:101AA00020F060E08BE50E944E0CD7FF04C060E0A0
:101AB0008CE50E944E0C17FF04C060E08DE50E948B
:101AC0004E0C2AE030E0C801B9010E942129F62E0F
:101AD000E82ECE01B9010E942129D62EC82E0DEF85
:101AE00013E08AE0982E92E0892E25E0722EF8010C
:101AF000A1908F01AA2079F18BE090E00E94302C18
:101B0000EC01988289827A82AB828091F8038C837F
:101B10008091FA038D83BE82FF82E886D986CA86C9
:101B2000209721F460E08EE50E944E0C4BE050E0DF
:101B3000BE0186E697E00E9463030B9721F060E008
:101B40008FE50E944E0C209719F0CE010E94CC2CFC
:101B5000F80131971082F4E005301F0741F6DF915C
:101B6000CF911F910F91FF90EF90DF90CF90BF909A
:101B7000AF909F908F907F9008950F931F93CF9376
:101B8000DF93EC0188819981009759F02A813B818C
:101B90002617370730F081E0DF91CF911F910F9129
:101BA00008958B016F5F7F4F0E94552D009759F06C
:101BB000998388831B830A832C813D81232B59F7CA
:101BC000FC011082E8CF80E0E7CFEF92FF920F9305
:101BD0001F93CF93DF936115710541F480E0DF918E
:101BE000CF911F910F91FF90EF90089541155105EE
:101BF000B1F07B01EC010C811D81040F151FB801B0
:101C00000E94BD0D882351F3288139818C819D81EB
:101C1000B701820F931F0E94442E1D830C8381E025
:101C2000DECFCF93DF93EC01FB01448155816081CE
:101C300071810E94E50D811103C0CE010E94320C1A
:101C4000CE01DF91CF910895EF92FF920F931F93F2
:101C5000CF93DF93EC017B018A01BA010E94BD0D95
:101C600081110BC0CE010E94320CCE01DF91CF91C9
:101C70001F910F91FF90EF9008951D830C83B70182
:101C8000888199810E94442EF0CFEF92FF920F93AA
:101C90001F93CF93DF93CDB7DEB762970FB6F8945B
:101CA000DEBF0FBECDBF8C01CB01F80111821082C7
:101CB00013821282158214824AE09E012F5F3F4FE9
:101CC0007901B9010E94B427F70101900020E9F7DA
:101CD0003197AF014E195F09B701C8010E94240E68
:101CE00062960FB6F894DEBF0FBECDBFDF91CF91E5
:101CF0001F910F91FF90EF900895CF93DF93EC0128
:101D0000FB018617970749F06081718161157105A4
:101D100041F0448155810E94240ECE01DF91CF9184
:101D200008950E94320CF9CF2F923F92CF93DF9308
:101D3000CDB7DEB7E1970FB6F894DEBF0FBECDBFCB
:101D400086EB97E19AA389A384EB93E09CA38BA3F2
:101D5000DEA3CDA384E49FE098A78FA32DB73EB761
:101D60003AA729A7CE0149960E9433168091F8031D
:101D70009091F90380579E4F833E944040F08FEF3F
:101D80009FEF9C8F8B8F60E086E50E944E0C8091C8
:101D9000FA039091FB03893E934040F08FEF9FEF51
:101DA0009C8F8B8F60E087E50E944E0C6091FA0358
:101DB0007091FB038FEF9FEF9C8F8B8FCE010D9661
:101DC0000E94450E6091F8037091F90381E090E064
:101DD0009C8F8B8FCE0107960E94450E1A82198226
:101DE0001C821B821E821D8246E050E06DE073E083
:101DF000CE0101960E94240EBE01695F7F4FCE0185
:101E000001960E94110E98AB8FA741E050E062E16D
:101E100073E00E94E50D811104C08FA598A90E946E
:101E2000320CBE01635F7F4F8FA598A90E94110EEF
:101E30001C8A1B8A1E8A1D8A188E1F8ABC01CE012D
:101E400043960E947D0E82E090E09C8F8B8FCE01A6
:101E500043960E94710C26C0CE0143960E94440C0A
:101E6000CE0101960E94440CCE0107960E94440CBC
:101E7000CE010D960E94440C8FEF9FEF9C8F8B8FAD
:101E80008FA598A90E940D178D8D282F880F330BD1
:101E900038AB2FA78B8D9C8D009751F30197E1F202
:101EA0000E94362ECE0143960E94440CCE0101962C
:101EB0000E94440CCE0107960E94440CCE010D9660
:101EC0000E94440C6091F8037091F903072E000CF6
:101ED000880B990B0E94F02723E333E948E853E489
:101EE0000E94972920E030E040E852E40E944F2809
:101EF0000E947C2A6FA779AB6091FA037091FB0373
:101F0000072E000C880B990B0E94F02720E030E090
:101F100040E054E40E944F280E947C2A3FA5398368
:101F200089A98A836B837C838FEF9FEF9C8F8B8F34
:101F300024E0AE014F5F5F4F63E1809147080E944C
:101F40009F0ACE0149960E943F16E1960FB6F8947B
:101F5000DEBF0FBECDBFDF91CF913F902F90089590
:101F60000F931F93CF93DF938C01EB0188E2FB016A
:101F700011928A95E9F74BE050E064E173E0CE01FD
:101F80000E944B2E1B8681E090E0A0E0B0E08C87A1
:101F90009D87AE87BF87F80182819381092E000C4F
:101FA000AA0BBB0B888B998BAA8BBB8B8DE090E027
:101FB000A0E0B0E08C8B9D8BAE8BBF8B1CA21DA2D2
:101FC0001EA21FA280E090E0A0E2B2EC8C8F9D8F59
:101FD000AE8FBF8F80E090E0AAEAB2E4888F998F3D
:101FE000AA8FBB8F8AE999E9A9E9BEE388A399A3DF
:101FF000AAA3BBA3DF91CF911F910F9108950F93D7
:102000001F93CF93DF938C01EB0188E2FB011192C8
:102010008A95E9F74BE050E06CE173E0CE010E9455
:102020004B2E1B8681E090E0A0E0B0E08C879D877E
:10203000AE87BF87F80182819381092E000CAA0B1D
:10204000BB0B888B998BAA8BBB8B8CE090E0A0E0BC
:10205000B0E08C8B9D8BAE8BBF8B1CA21DA21EA2F1
:102060001FA21C8E1D8E1E8E1F8E80E090E0A8EC9D
:10207000B2E4888F998FAA8FBB8F80E090E0A0E0B8
:10208000B0E488A399A3AAA3BBA3DF91CF911F912A
:102090000F9108954F925F926F927F92AF92BF928D
:1020A000CF92DF92EF92FF920F931F93CF93DF9324
:1020B00000D000D000D0CDB7DEB78C017B016A0123
:1020C0000E9457032B013C01809106029091070268
:1020D000A09108028F839887A987D8011C968D91BB
:1020E0009C91FC012481358123303105B8F4B12C59
:1020F0008B2D29960FB6F894DEBF0FBECDBFDF91B2
:10210000CF911F910F91FF90EF90DF90CF90BF90F4
:10211000AF907F906F905F904F900895208131E055
:102120003093A5062093C7061092A6061092C80603
:1021300043E050E0BE01695F7F4F0E940C06882398
:10214000B1F2C8010E94A60987FF07C06AE070E0EB
:1021500080E090E00E942403F4CF46E050E0BE010E
:102160006F5F7F4FF801848595850E944009B82EE6
:10217000882309F4BCCF6A817B817627672776277D
:10218000CB01B0E0A0E09C01AD0184E0220F331F41
:10219000441F551F8A95D1F7AC808A2D90E064E0EA
:1021A000959587956A95E1F7092E000CAA0BBB0B54
:1021B000BC01CD01622B732B842B952B0E94EE2743
:1021C00020E030E048EC52E40E944F2820E030E06C
:1021D00040E855E30E944F28D80114966D937D93F3
:1021E0008D939C9317976A2D6F7070E090E080E05C
:1021F000982F872F762F66272D81622B982F872F78
:10220000762F66272E81622B0E94EE2720E030E099
:1022100048E453E40E944F2820E030E040E855E3D2
:102220000E944F2820E030E048E452E40E949629C2
:10223000F8016083718382839383C114D10481F197
:10224000F601349680E2DF011D928A95E9F784E277
:1022500090E0A0E0B0E0F60180839183A283B38395
:10226000D8011A968D919C91B0E0A0E0848395836B
:10227000A683B7838DE090E0A0E0B0E080879187EF
:10228000A287B387408A518A628A738AF801808163
:102290009181A281B381F601848B958BA68BB78B3C
:1022A000E114F10409F424CFF701349680E2DF0150
:1022B0001D928A95E9F784E290E0A0E0B0E0F70192
:1022C00080839183A283B383D80118968D919C91CA
:1022D000B0E0A0E084839583A683B7838DE090E08F
:1022E000A0E0B0E080879187A287B387408A518AB7
:1022F000628A738AF80184819581A681B781F7018A
:10230000848B958BA68BB78BF3CEAB0170E060E02E
:10231000FC01848195810E944A1081E0089550E07B
:1023200040E0FC01848195810E944A1081E008957B
:1023300085ED8093BC008091A1069091A206A091AA
:10234000A306B091A4060796A11DB11D23E0B69582
:10235000A795979587952A95D1F72091BC0024FDE4
:1023600003C010929F0608954091A1065091A206C5
:102370006091A3067091A406452B462B472B69F369
:102380000097A105B10541F02AE22A95F1F700C0B6
:102390000197A109B109E1CF8091A0060C94FB043B
:1023A0001F93CF93DF9300D000D01F921F92CDB721
:1023B000DEB780911608882321F082EF92E00E9418
:1023C0008F0A61E070E080E090E00E94240321E049
:1023D000AE014F5F5F4F60E2809147080E94530B50
:1023E000198180911608882349F084E093E00E94C7
:1023F0009D0A6AE070E0812F0E94400B10FFE1CF40
:1024000028E0AE014F5F5F4F68E4809147080E946B
:10241000530B69817A8190E080E00E94EE2720E0F2
:1024200030E040E05AE30E944F289B01AC0160E09D
:1024300070E080E090E40E94AB2A0E947C2A6093C6
:1024400025087093260880932708909328086B81AD
:102450007C8190E080E00E94EE2720E030E040E0C8
:102460005AE30E944F289B01AC0160E070E080E0DD
:1024700090E40E94AB2A0E947C2A60932D087093FE
:102480002E0880932F08909330086D817E8190E014
:1024900080E00E94EE2720E030E040E05AE30E9416
:1024A0004F289B01AC0160E070E080E090E40E9466
:1024B000AB2A0E947C2A609335087093360880937B
:1024C0003708909338086F81788590E080E00E940B
:1024D000EE2720E030E040E05AE30E944F289B01C5
:1024E000AC0160E070E080E090E40E94AB2A0E94C2
:1024F0007C2A60933D0870933E0880933F08909338
:10250000400828E0AE014F5F5F4F68E280914708C6
:102510000E94530B69817A8190E080E00E94EE274F
:1025200020E030E040E05AE30E944F289B01AC01DC
:1025300060E070E080E090E40E94AB2A0E947C2A78
:102540006093290870932A0880932B0890932C0895
:102550006B817C8190E080E00E94EE2720E030E0FB
:1025600040E05AE30E944F289B01AC0160E070E01C
:1025700080E090E40E94AB2A0E947C2A609331089C
:102580007093320880933308909334086D817E8174
:1025900090E080E00E94EE2720E030E040E05AE347
:1025A0000E944F289B01AC0160E070E080E090E465
:1025B0000E94AB2A0E947C2A6093390870933A08E3
:1025C00080933B0890933C086F81788590E080E091
:1025D0000E94EE2720E030E040E05AE30E944F28BE
:1025E0009B01AC0160E070E080E090E40E94AB2AC7
:1025F0000E947C2A609341087093420880934308AC
:102600009093440821E0AE014F5F5F4F68E38091F3
:1026100047080E94530B89818093490828960FB67A
:10262000F894DEBF0FBECDBFDF91CF911F9108950B
:102630001F920F920FB60F9211242F933F938F93F7
:102640009F93AF93BF9380914B0690914C06A091BE
:102650004D06B0914E0630914A0623E0230F2D37E8
:1026600058F50196A11DB11D20934A0680934B0693
:1026700090934C06A0934D06B0934E0680914F0662
:1026800090915006A0915106B09152060196A11D5D
:10269000B11D80934F0690935006A0935106B093BE
:1026A0005206BF91AF919F918F913F912F910F90C3
:1026B0000FBE0F901F90189526E8230F0296A11DBC
:1026C000B11DD2CF1F920F920FB60F9211240BB6ED
:1026D0000F922F933F934F935F936F937F938F93BB
:1026E0009F93AF93BF93EF93FF9389EC96E00E9483
:1026F000E103FF91EF91BF91AF919F918F917F91F6
:102700006F915F914F913F912F910F900BBE0F9062
:102710000FBE0F901F9018951F920F920FB60F9239
:1027200011240BB60F922F938F939F93EF93FF93E8
:10273000E091D906F091DA068081E091DF06F09110
:10274000E00682FD1DC090818091E2068F5F8F734D
:102750002091E306821741F0E091E206F0E0E753B2
:10276000F94F958F8093E206FF91EF919F918F91A2
:102770002F910F900BBE0F900FBE0F901F901895CA
:102780008081F2CF1F920F920FB60F9211240BB6D9
:102790000F922F933F934F935F936F937F938F93FA
:1027A0009F93AF93BF93EF93FF9386E697E00E94CA
:1027B000E103FF91EF91BF91AF919F918F917F9135
:1027C0006F915F914F913F912F910F900BBE0F90A2
:1027D0000FBE0F901F9018951F920F920FB60F9279
:1027E00011240BB60F922F938F939F93EF93FF9328
:1027F000E0917607F09177078081E0917C07F09176
:102800007D0782FD1DC0908180917F078F5F8F7350
:1028100020918007821741F0E0917F07F0E0EA59AC
:10282000F84F958F80937F07FF91EF919F918F9144
:102830002F910F900BBE0F900FBE0F901F90189509
:102840008081F2CF1F920F920FB60F9211240BB618
:102850000F922F933F934F935F936F937F938F9339
:102860009F93AF93BF93EF93FF938091B900887FBD
:10287000803609F44DC008F040C0883209F4A9C080
:1028800028F5803109F49DC0C8F4882309F4FBC001
:10289000883009F496C0FF91EF91BF91AF919F915D
:1028A0008F917F916F915F914F913F912F910F90F9
:1028B0000BBE0F900FBE0F901F901895883109F432
:1028C00088C0803241F780939D0614C0803409F49B
:1028D0009DC040F48033B9F38833E9F680939D06B8
:1028E00085ECB0C0803509F485C0883509F496C000
:1028F000883489F60E949811CECF883909F48CC0AB
:1029000038F5883729F050F4883611F0803719F6F9
:1029100083E080939F061092F70357C0883809F42C
:102920007BC0803919F0803809F0B5CF8091F7036A
:10293000803208F071C0E091F70381E08E0F809340
:10294000F7038091BB00F0E0E952FC4F80833DC06B
:10295000803B39F0E0F4803A09F479C0883A09F014
:102960009ACF84E080939F061092D6031092D503ED
:10297000E0915506F091560619958091D503811185
:102980000FC081E08093D5031092B50309C0803C4D
:1029900009F4A6CF883C09F4A3CF883B09F07BCF8C
:1029A000E091D60381E08E0F8093D603F0E0EB54E4
:1029B000FC4F80818093BB009091D6038091D5031A
:1029C00029C080917A068093BB0085EC8093BC007F
:1029D00062CF90919C0680919B06981758F5E091E4
:1029E0009C0681E08E0F80939C06F0E0E558F94F3D
:1029F0008081E9CFE0919C0681E08E0F80939C0658
:102A00008091BB00F0E0E558F94F808390919C06DF
:102A100080919B069817C8F285E8D8CFE0919C0674
:102A200081E08E0F80939C068091BB00F0E0E5581A
:102A3000F94F808380919E0681115CCF81E0809365
:102A4000790684EA8093BC0010929F0624CF85EC1F
:102A50008093BC0010929F068091F703803230F47F
:102A6000E091F703F0E0E952FC4F10826091F70328
:102A700070E0E0915306F091540687ED93E01995CC
:102A80001092F70308CF10929D0634CFB0E0A0E07B
:102A9000ECE4F5E10C946F29FC01A081B181B093C5
:102AA0008A08A0938908CD010C96FC0142815381CC
:102AB0001C96CD91DC91248135810FB6F8943EBFF0
:102AC0000FBE2DBFFA011994A6E0B0E0EAE6F5E1E9
:102AD0000C945F299E838D832B01DC011A968C91C7
:102AE0001A97E82FF0E0FA83E9831B968C91282F40
:102AF00030E03C832B83D201ED91FC91309709F4B7
:102B000048C020843184712C612C6AE070E0ED8132
:102B1000FE81E080F180028113812481358146812C
:102B200057818B809C8052016F0181E090E0E981A8
:102B3000FA811995892B09F042C0F5E06F167104EE
:102B400009F440C0AD81BE81EC901196FC901197C4
:102B500012960C91129713961C91139714962C9120
:102B6000149715963C91159716964C9116971796B3
:102B70005C9121143104A9F4D201ED91FC911197DB
:102B80008081918190938A08809389088D939C938A
:102B9000B2CF312C212C95E0692E712C6AE170E0C6
:102BA000B6CFCD80DE806AE070E081E090E0F10198
:102BB00019953C018730910529F00897E9F282E0E8
:102BC000682E712CC3012696E2E10C947B29B0E0BB
:102BD000A0E0EDEEF5E10C946329EC014B01F4016A
:102BE000A081B181F0E0E0E085E090E0109731F065
:102BF0001896ED91FC91199790E080E02B85712C4F
:102C0000612C2A171B0619F424E0622E712C892BE3
:102C1000D1F4309721F46728E9F00E94362EE8803D
:102C2000F9800A811B812C813D814E815F81540195
:102C30006E01B301626081E090E0199587309105E3
:102C400021F0089741F382E090E0CDB7DEB7EEE0E7
:102C50000C947F29D401ED91FC9111978081918191
:102C60008D939C93BCCF2091890830918A08FC01F8
:102C70003183208390938A08809389080895FC010A
:102C80008081918190938A08809389080895DC015E
:102C9000ED91FC91E60FF71F84810895DC01ED9121
:102CA000FC91309711F08089089580E00895DC014F
:102CB000ED91FC91E60FF71F44830895DC01ED913F
:102CC000FC918281938101960895DB011D921C92F3
:102CD000DC01ED91FC91309721F082819381019686
:102CE000089590E080E00895DC01ED91FC91615041
:102CF0007109738362830895DC01ED91FC918285F3
:102D00009385089590E080E0089590E080E0089534
:102D100090E080E0089590E080E00895A2E0B0E0C7
:102D2000E4E9F6E10C9463294C0160908908709005
:102D30008A087A826982E981FA813097B1F1008448
:102D4000F185E02D309739F4E981FA818081918114
:102D50009A838983F0CFD401EC901196FC9011975F
:102D600012960C91129713961C91139714962C910E
:102D7000149715963C91159716964C9116971796A1
:102D80005C91CE0101965C01640161E070E081E03C
:102D900090E019958630910559F00897A9F283E0E3
:102DA00090E02296EEE00C947F2985E090E0F9CF48
:102DB000D4011A961C921A9789811B968C937A8259
:102DC0006982BE016F5F7F4FC4010E94E7158730A3
:102DD000910539F7CE0101960E944615A2E0B0E0B8
:102DE000E4EFF6E10C946F292091890830918A086C
:102DF0003A832983FC0162874387BE016F5F7F4F5F
:102E00000E9464158730910521F4CE0101960E943D
:102E100046152296E2E00C948B29A2E0B0E0E3E1B3
:102E2000F7E10C946F292091890830918A083A8340
:102E30002983FC012285BE016F5F7F4F211106C0EF
:102E40000E94E715079729F00E94362E0E9464150C
:102E5000F9CFCE0101960E944615A2E0B0E0E3E36F
:102E6000F7E10C946F29FC012285222399F020912F
:102E7000890830918A083A832983BE016F5F7F4FAA
:102E80000E946415079711F00E94362ECE0101961C
:102E90000E9446150E948E162296E2E00C948B2921
:102EA000DC011896ED91FC91309721F0BC0181E096
:102EB00090E019950895A2E0B0E0E1E6F7E10C9406
:102EC00069297C016B018091890890918A089A8315
:102ED000898389819A8110E000E0892B11F405E053
:102EE00010E0B601CE010196F7011995892B41F446
:102EF0000530110539F0E981FA8180819181E7CFB0
:102F000003E010E0C8012296E8E00C948529CF92F6
:102F1000DF92EF92FF92CF93DF93FB01C12CD12C74
:102F2000760130E020E0EC01A8814A2F4F7750E095
:102F300070E060E0022E04C0440F551F661F771F2B
:102F40000A94D2F7C42AD52AE62AF72A295F3F4FE6
:102F50000196A7FDE8CFC082D182E282F382DF91A1
:102F6000CF91FF90EF90DF90CF900895AAE0B0E06E
:102F7000ECEBF7E10C9467291A861986019709F0A2
:102F8000C4C061FD06C088E090E02A96EAE00C9497
:102F90008329C5010E947C168C01892BA1F3A11401
:102FA000B10419F0C5010E94821678018FEFE81A6A
:102FB000F80AF801D080FFEFDF1621F18D2D807720
:102FC000803291F030F4882391F0803181F00E94BA
:102FD000362E803409F461C0803549F08033B9F76A
:102FE000C5010E94881603C0C5010E948B1680E5AA
:102FF000D81257C0EFEFEE1AFE0AE894E0F8F2E0BC
:10300000EF0EF11CC7010196F70120812F3F29F037
:10301000BE016F5F7F4F0E948717BE016F5F7F4FBA
:1030200001960E9487177C01BE01675F7F4FC50133
:103030000E9465168C0189859A85892B11F40150AF
:103040001109101611060CF09ECFBE016B5F7F4F69
:10305000C7010E948717BE016F5F7F4F0E948717CD
:103060007C010150110989F70D811E810F5F1F4FEF
:1030700009F489CF4C2D70E060E0C5010E9457161D
:1030800040E061E070E0C5010E945716B801C5013B
:103090000E94741687E090E078CFC5010E948216E6
:1030A000A6CFED2DEF70ED3008F091CFF0E088273E
:1030B000E35AF74E8F4F0C9457297C186A187C18E6
:1030C0007F188218E717E717E717E71773187C18B8
:1030D0007F188218BE016F5F7F4FC7010E9487175C
:1030E0008C0178018FCF87010F5F1F4FF70180811F
:1030F000780187FDF8CFF5CF0D5F1F4FF2CF0B5F43
:103100001F4FEFCF075F1F4FECCF83E090E03DCF25
:10311000CF93DF93E9ECF6E01382128248EE53E09E
:1031200060E070E0448355836683778387E392E0B1
:10313000918380832DEC30E0358724872CEC30E0C0
:103140003787268728EC30E0318B208B29EC30E064
:10315000338B228B2AEC30E0358B248B2EEC30E045
:10316000378B268B118E128E138E148EE6E6F7E0C7
:10317000138212824483558366837783918380838D
:1031800085EC90E09587848784EC90E0978786872C
:1031900080EC90E0918B808B81EC90E0938B828B24
:1031A00082EC90E0958B848B86EC90E0978B868BFD
:1031B000118E128E138E148E83E098E0FC01138220
:1031C0001282448355836683778329E432E0318316
:1031D0002083CFE0D8E01D821E821F8218861986C8
:1031E00028E0E9E0F2E0AAE4B8E001900D922A9527
:1031F000E1F723E530E039AF28AF998388831A825D
:103200001B821C82E7E7F8E015861486178616866F
:10321000118A108A60E082E00E94C302EAEAF3E0C9
:10322000E491A9E6B8E0EC93E4E6F3E0E491F0E0A1
:10323000EE0FFF1FE85BFC4F8591949112969C93D3
:103240008E9311971B961C921B971D961C921D978F
:103250001C961C921C971A961C921A9719961C92EF
:10326000199718961C92189717961C9217971696EE
:103270001C92169715961C92159714961C921497EB
:1032800013961C921397E2E5F8E0178210861082DD
:1032900089E0838381E08483858386831182168A13
:1032A000158A8FEF838B148AB287A187DF91CF9124
:1032B0000895CF93DF93CDB7DEB7CD57D1090FB6C1
:1032C000F894DEBF0FBECDBF86EB97E16E969FAF41
:1032D0008EAF6E978CEB93E0A0969FAF8EAFA097CA
:1032E000A296DFAFCEAFA29785E396E2A4969FAFFA
:1032F0008EAFA4972DB73EB7A6963FAF2EAFA69739
:10330000CE018C5A9F4F0E943316789484B5826008
:1033100084BD84B5816084BD85B5826085BD85B579
:10332000816085BD80916E00816080936E001092F7
:103330008100809181008260809381008091810072
:103340008160809381008091800081608093800003
:103350008091B10084608093B1008091B000816061
:103360008093B00080919100826080939100809161
:1033700091008160809391008091900081608093A2
:1033800090008091A10082608093A1008091A100B3
:1033900081608093A1008091A00081608093A00053
:1033A00080912101826080932101809121018160BF
:1033B0008093210180912001816080932001809180
:1033C0007A00846080937A0080917A008260809392
:1033D0007A0080917A00816080937A0080917A00EF
:1033E000806880937A001092C100E0917607F09196
:1033F000770722E02083E0917207F0917307108233
:10340000E0917407F091750780E1808310927E0748
:10341000E0917A07F0917B0796E09083E09178073E
:10342000F0917907808180618083E0917807F09145
:103430007907808188608083E0917807F09179072F
:10344000808180688083E0917807F091790780819E
:103450008F7D8083E091D906F091DA062083E09198
:10346000D506F091D6061082E091D706F091D806E5
:103470008FEC80831092E106E091DD06F091DE068C
:103480009083E091DB06F091DC068081806180838F
:10349000E091DB06F091DC06808188608083E0911A
:1034A000DB06F091DC06808180688083E091DB069A
:1034B000F091DC0680818F7D808361E086E697E075
:1034C0000E9403041092160880911108882341F08D
:1034D00061E00E94C30260E0809111080E949502A1
:1034E00080911208882319F062E00E94C302809143
:1034F0001308882341F061E00E94C30261E08091DB
:1035000013080E9495020E94E40480911608882303
:1035100051F08FEF9FEF68969FAF8EAF689784E270
:1035200093E00E948F0A6AE070E080E090E00E94E1
:103530002403109217088091470890EF64969FAF7C
:1035400064972FEF3FEF68963FAF2EAF689721E06B
:10355000AE014D5A5F4F60E10E949F0AAD968FAF5A
:10356000AD97809116088823A9F08CE393E00E9420
:103570009D0AAD963FADAD978BE693E0332311F0F6
:103580008BE892E02FEF3FEF68963FAF2EAF689742
:103590000E948F0A6AE070E080E090E00E942403BD
:1035A00081E0AD964FADAD97411180E08093170853
:1035B0008FEF9FEF68969FAF8EAF689722E0DE0196
:1035C0001196AC96BFAFAEAFAC97AD0160E0809105
:1035D00047080E94530BE981FA81AE96FFAFEEAF28
:1035E000AE97809116088823F9F08DE493E00E944D
:1035F0009D0AAE962EAD3FADAE9784E693E02036A1
:10360000314081F0AE968EAD9FADAE978136914040
:1036100009F09AC0EFEFFFEF6896FFAFEEAF689743
:103620008EE693E00E948F0A6AE070E080E090E00E
:103630000E942403AE964EAD5FADAE97403651402A
:1036400009F08BC01092180881E0809317088FEF63
:103650009FEF68969FAF8EAF689781E00E94100B36
:10366000809317080E94D50B809317080E94D50BF2
:103670006AE070E080E090E00E94240380914708B7
:103680009EE063969FAF639721E0AE014E5A5F4F75
:1036900062E10E949F0A23E0AE014F5F5F4F6CE43E
:1036A000809147080E94530BAD968FAFAD978981EB
:1036B000809319089A8190931A089B8190931B0814
:1036C000873008F4B8C091E09093180890911608DC
:1036D000992359F12FEF3FEF68963FAF2EAF6897D0
:1036E0006AE070E00E94400B6AE070E080911A0886
:1036F0000E94400B6AE070E080911B080E94400B22
:1037000088E793E00E949D0AAD96FFADAD978BE6EA
:1037100093E0FF2311F08BE892E02FEF3FEF6896E4
:103720003FAF2EAF68970E948F0A6AE070E080E09A
:1037300090E00E94240381E0AD962FADAD9721115A
:1037400080E08093170816C02FEF3FEF68963FAFD9
:103750002EAF68978BE892E065CFAE96AEADBFAD69
:10376000AE97A136B14021F481E0809318086DCF67
:103770001092170880911608882351F08FEF9FEF61
:1037800068969FAF8EAF68978FE893E00E948F0A8C
:103790008091170881110AC08FEF9FEF68969FAF45
:1037A0008EAF689761E081E50E944E0C809117080A
:1037B00081110AC08FEF9FEF68969FAF8EAF689719
:1037C00061E082E50E944E0C8FEF9FEF68969FAFFD
:1037D0008EAF689782E00E94100B811104C061E0F7
:1037E00083E50E944E0C86E697E00E94C103892B78
:1037F00011F40C94D72686E697E00E949F03AD96BD
:103800008FAFAD9780918704811118C0AD963FAD01
:10381000AD97313850F08FEF9FEF68969FAF8EAF26
:10382000689760E08CE30E944E0CAD964FADAD976B
:1038300040938704D8CF1092180848CF809186040F
:1038400087FF0AC08FEF9FEF68969FAF8EAF689794
:1038500060E08DE30E944E0CE091860481E08E0FC3
:1038600080938604F0E0EA5FFB4FAD965FADAD97C5
:103870005083909187048913B6CFA82FB0E0E296C9
:10388000BFAFAEAFE2972B961FAE1EAE2B972D9615
:103890001FAE1EAE2D972F961FAE1EAE2F9750E077
:1038A00040E069E572E0CE01875B9F4F0E94240EE5
:1038B000E6E0F4E0E696FFAFEEAFE697AE961FAE19
:1038C0001EAEAE97E2962EAD3FADE2972150310984
:1038D000EA963FAF2EAFEA97E2964EAD5FADE29724
:1038E000AE968EAD9FADAE97841795070CF05DC078
:1038F000E696AEADBFADE6978D91E696BFAFAEAFA3
:10390000E6971EA21DA218A61FA21AA619A6E3E0FA
:10391000F0E06896FFAFEEAF68974AE0BE016F5FD8
:103920007F4F90E00E94BF27AC96EEADFFADAC9705
:1039300001900020E9F73197AF01AC962EAD3FAD75
:10394000AC97421B530BBE016F5F7F4FCE01859634
:103950000E94240E49A55AA56DA17EA1CE01875BC8
:103960009F4F0E94E50DCE0185960E94440CAE96B5
:103970004EAD5FADAE97EA968EAD9FADEA97481714
:1039800059074CF441E050E062E173E0CE01875BFF
:103990009F4F0E94E50DAE96AEADBFADAE971196AE
:1039A000AE96BFAFAEAFAE9797CF1EA21DA218A620
:1039B0001FA21AA619A640E150E063EA73E0CE0107
:1039C00085960E94240EBE01675B7F4FCE018596CF
:1039D0000E94110E1A8219821C821B821E821D8275
:1039E000BC01CE0101960E947D0E82E090E06896B7
:1039F0009FAF8EAF6897CE0101960E94710CCE01E9
:103A000001960E94440CCE0185960E94440CB09110
:103A10008704AD96BFAFAD97B23008F465C0809112
:103A2000050481111BC164E170E080E090E00E9418
:103A300024038091830890918408009711F00E94DC
:103A4000CC2C86E090E00E94302CE2969FAF8EAFA7
:103A5000E29788E3E296EEADFFADE297808383E0E4
:103A600098E092838183138280E290E0958384833F
:103A7000F0938408E09383080E94E404E1E0E29676
:103A8000AEADBFADE2971396EC931397CD010E94B4
:103A90002706882309F429C18AEB60968FAF6097C7
:103AA0008091830890918408DC0114962D913C91BB
:103AB0001597232B09F419C12C91B1E0B093A506F9
:103AC0002093C7061092A6061092C80621E030E0A7
:103AD00068963FAF2EAF689741E050E0BE01615B52
:103AE0007F4F0E940C060BC081E090E068969FAF6C
:103AF0008EAF689760E08AE00E944E0C90CF8823DA
:103B000009F4F3C064E170E080E090E00E942403D7
:103B1000E1E0F0E06896FFAFEEAF689787E798E0E6
:103B20000E94A60987FF05C06AE070E080E090E08F
:103B3000EDCF81EE60968FAF609788E061968FAF92
:103B4000619762961FAE6297809183089091840876
:103B5000DC0114962D913C912330310508F1FC01D4
:103B6000208131E03093A5062093C7061092A60667
:103B70001092C80621E030E068963FAF2EAF6897FC
:103B800043E050E0BE01615B7F4F0E940C0608C01D
:103B900087FF11C06AE070E080E090E00E9424039B
:103BA00021E030E068963FAF2EAF689787E798E056
:103BB0000E94A609EDCF81E090E068969FAF8EAF9E
:103BC000689787E798E00E94A60983FF8EC08091DE
:103BD000870890918808009739F0DC01ED91FC91FD
:103BE0000280F381E02D19958091850890918608D7
:103BF000009739F0DC01ED91FC910280F381E02D1A
:103C0000199586E090E00E94302CFC0189E292E058
:103C10009183808380E290E19383828327E738E079
:103C200035832483F0938808E093870886E090E04A
:103C30000E94302CFC018BE192E09183808381E231
:103C400090E19383828347E758E055834483F09360
:103C50008608E093850881E080930504809106043E
:103C6000813009F089C1809107049FEF980F92304D
:103C700008F06EC0AD965FADAD97533008F43FC00D
:103C800080910804E1968FAFE19784E090E00E9474
:103C9000302CAE969FAF8EAFAE9783E0AE96AEADB2
:103CA000BFADAE978C9381E011968C931197E196FE
:103CB000EFADE1971296EC9390910704913009F0E3
:103CC00080E0AE96AEADBFADAE9713968C931397D2
:103CD000AB2B01F581E090E068969FAF8EAF6897BF
:103CE00060E08DE00E944E0C15C081E090E0689687
:103CF0009FAF8EAF689761E00E944E0CACCF81E021
:103D000090E068969FAF8EAF689760E08CE00E946D
:103D10004E0CB6CF81E090E068969FAF8EAF68976B
:103D200044E050E0AE966EAD7FADAE9789EC96E084
:103D30000E946303049709F40AC681E090E0689644
:103D40009FAF8EAF689760E08EE00E944E0CFFC57B
:103D5000833009F0A3C0AD96FFADAD97F430C8F045
:103D600020910804EB962FAFEB97AD963FADAD9742
:103D70003350E1963FAFE1973D37B0F081E090E0FE
:103D800068969FAF8EAF689760E080E10E944E0C0E
:103D90000BC081E090E068969FAF8EAF689760E0BF
:103DA0008FE00E944E0CDCCFE1965FADE197452F8E
:103DB00050E0EA965FAF4EAFEA974C5F5F4FE696F2
:103DC0005FAF4EAFE697CA010E94302CE2969FAFDC
:103DD0008EAFE297892B51F481E090E068969FAF17
:103DE0008EAF689760E081E10E944E0CAD96EFAD1A
:103DF000AD97E296AEADBFADE297EC9382E011963F
:103E00008C931197EB96FFADEB971296FC9312975C
:103E100081E013968C931397EA964EAD5FADEA97C7
:103E200069E074E0CD0104960E943B2E81E090E0B1
:103E300068969FAF8EAF6897E6964EAD5FADE697FA
:103E4000E2966EAD7FADE29789EC96E00E94630347
:103E5000E6962EAD3FADE6972817390751F081E081
:103E600090E068969FAF8EAF689760E082E10E9415
:103E70004E0CE2964EAD5FADE297E2968EAD9FADF1
:103E8000E297452B09F075C01092860410928704C2
:103E9000CE01875B9F4F0E94440CA5CC8430A1F7D4
:103EA000AD965FADAD97533090F180910804E196E7
:103EB0008FAFE19785E090E00E94302CAE969FAFE7
:103EC0008EAFAE9784E0AE96AEADBFADAE978C939D
:103ED00083E011968C93119781E012968C93129740
:103EE000E196EFADE1971396EC93139782E0149669
:103EF0008C931497AB2BB1F481E090E068969FAF60
:103F00008EAF689760E084E10E944E0C0BC081E0A8
:103F100090E068969FAF8EAF689760E083E10E9463
:103F20004E0CC3CF81E090E068969FAF8EAF68974C
:103F300045E050E0AE966EAD7FADAE9786E697E079
:103F40000E946303059751F081E090E068969FAF6F
:103F50008EAF689760E085E10E944E0CAE962EAD64
:103F60003FADAE97232B09F48FCFAE968EAD9FADAC
:103F7000AE970E94CC2C88CF823009F085CF8091FB
:103F80000704811129C0AD963FADAD97343050F094
:103F9000809108049091090491110FC060E00E9483
:103FA000C30272CF81E090E068969FAF8EAF6897B2
:103FB00060E088E10E944E0CEBCF913011F461E09B
:103FC000EECF81E090E068969FAF8EAF689760E09B
:103FD00089E10E944E0C58CF813009F054C1AD9652
:103FE0004FADAD97463030F150910804E1965FAF88
:103FF000E19720910A0480910B0490E0DC01EAE053
:104000002E9FA00DB11D1124AE96BFAFAEAFAE97DF
:1040100080910904811128C161E0E1968FADE1979B
:104020000E94C302AE962EAD3FADAE97232B69F42E
:1040300060E013C081E090E068969FAF8EAF689714
:1040400060E08AE10E944E0CCFCFAE964EAD5FADE0
:10405000AE974F3F510539F461E0E1968FADE1979E
:104060000E94950211CFE1965FADE197E52FF0E058
:10407000EE5FFC4FE491E150E23108F0ECC0F0E07B
:104080008827EA5BFF4D8F4F0C94572958206020FA
:104090006820762084202B2192209D20A820B62005
:1040A000C420D220E520F3202B2101210F211D2146
:1040B00084B5806884BDAD968FADAD9787BDE4CEE5
:1040C00084B5806284BDAD969FADAD9798BDDCCEC2
:1040D00080918000806880938000AE96AEADBFADC9
:1040E000AE97B0938900A0938800CECE80918000D7
:1040F000806280938000AE96EEADFFADAE97F093F8
:104100008B00E0938A00C0CE80918000886080930D
:104110008000AE962EAD3FADAE9730938D002093CC
:104120008C00B2CE8091B00080688093B000AD96D4
:104130003FADAD973093B300A7CE8091B0008062C1
:104140008093B000AD964FADAD974093B4009CCE38
:1041500080919000806880939000AE968EAD9FAD68
:10416000AE9790939900809398008ECE80919000A6
:10417000806280939000AE96AEADBFADAE97B09327
:104180009B00A0939A0080CE8091900088608093DD
:104190009000AE96EEADFFADAE97F0939D00E0932C
:1041A0009C0072CE8091A00080688093A0008091D6
:1041B000A0008F7B8093A000AE962EAD3FADAE9752
:1041C0003093A9002093A8005FCE8091A000806268
:1041D0008093A000AE964EAD5FADAE975093AB000E
:1041E0004093AA0051CE8091A00088608093A000E7
:1041F000AE968EAD9FADAE979093AD008093AC0020
:1042000043CE80912001806880932001AE96AEADB0
:10421000BFADAE97B0932901A093280135CE809110
:104220002001806280932001AE96EEADFFADAE9787
:10423000F0932B01E0932A0127CE80912001886022
:1042400080932001AE962EAD3FADAE9730932D01F9
:1042500020932C0119CEAE964EAD5FADAE9740388F
:1042600051050CF0F9CEE4CEAD966FADAD9781302F
:1042700009F4F3CE81E090E068969FAF8EAF689727
:1042800060E08BE1A6CE823009F0CCC0AD965FAD88
:10429000AD97553008F440C080910804E5968FAF83
:1042A000E5972091090480910A04882309F43FC00E
:1042B00030E0F901EE5FFC4F8491F901E855FC4FC5
:1042C000B491E196BFAFE197F901EE59FC4F24910B
:1042D000AD962FAFAD97222309F488C081110E94BB
:1042E0002E02AD963FADAD97E32FF0E0EE0FFF1F2E
:1042F000E85BFC4FA591B4918C91E1964FADE197AD
:10430000842321E090E009F420E0E1962FAFE197CB
:10431000E2969FAFE2972BC081E090E068969FAF56
:104320008EAF689760E08CE10E944E0CB5CF2633CB
:1043300008F0265390917B00822F8870977F892BFD
:1043400080937B002770206420937C0080917A000A
:10435000806480937A0080917A0086FDFCCFA091E2
:104360007800B0917900E296BFAFAEAFE29786E0F9
:1043700090E00E94302CAE969FAF8EAFAE9785E056
:10438000AE96AEADBFADAE978C9382E011968C9396
:10439000119712968C931297E596EFADE5971396C9
:1043A000EC93E2968EAD9FADE2976AE070E00E94DA
:1043B0002129AE96AEADBFADAE9714966C9314970F
:1043C00015968C931597AB2B11F181E090E06896D0
:1043D0009FAF8EAF689746E050E0AE966EAD7FAD72
:1043E000AE9786E697E00E94630305C0E2961FAE93
:1043F0001EAEE297BCCF069709F4A9C281E090E017
:1044000068969FAF8EAF689760E08EE19ECC81E0AA
:1044100090E068969FAF8EAF689760E08DE10E9454
:104420004E0CD3CF843009F09AC2AD96FFADAD9754
:10443000F43008F494C020910804E1962FAFE1977E
:1044400033E0AD963FAFAD97E0915B08F0915C082B
:104450001386158614861286118610861782168298
:104460001582148213821092590810925A0862E33E
:1044700070E080E090E00E942403BE016B5D7F4FFE
:1044800080915B0890915C080E94BE09882309F422
:104490008BC067E0CE0185960E94AD079CA589136D
:1044A000ECCF809159088F5F809359088DA1883295
:1044B00031F008F05FC0803111F08232F1F6809166
:1044C0005A088F5F80935A088091520881112EC03C
:1044D00080915B0890915C080E946A08BE016B5D48
:1044E0007F4F80915B0890915C080E944B0840E0F0
:1044F00064EB80915B0890915C080E9417088091A2
:104500005B0890915C080E94C407E5968FAFE59721
:1045100080915B0890915C080E946A08E5964FAD17
:10452000E597411103C051E0509352088DA18031AD
:1045300061F1BE016F5F7F4FCE0185960E94A20898
:10454000882359F08D819DA19B3311F487FD1DC0F7
:104550008F33E9F0B0F48F3119F180E019C081E0B8
:1045600090E068969FAF8EAF689760E08FE10E9401
:104570004E0C61CF8B3309F4A2CF823409F07DCF8A
:104580009ECF8F3579F08F3741F78CE001C08AE0FC
:1045900090915508981708F070CF809355086DCF0B
:1045A00089E0F6CF8BE0F4CF80915908811109C0E2
:1045B000AD968FADAD978150AD968FAFAD97811110
:1045C00043CF80915B0890915C080E946A0840E0AC
:1045D0006CEC80915B0890915C080E9417084091F8
:1045E000520864E480915B0890915C080E9417086F
:1045F0000E945703E0966CAF7DAF8EAF9FAFE09700
:1046000080915608882311F180915708882309F476
:10461000B4C0809152088111B0C080915B08909124
:104620005C080E94C407813089F00E945703E0961D
:104630002CAD3DAD4EAD5FADE097621B730B840BAF
:10464000950B6E3E72408105910538F380915908B3
:10465000882309F487C0E0915B08F0915C08138619
:104660001586148612861186108617821682158288
:1046700014821382BE016B5D7F4F80915B08909125
:104680005C080E94BE09882309F46CC067E0CE0173
:1046900085960E94AD079CA5891364C0BE016F5F1B
:1046A0007F4FCE0185960E94A208882309F45AC044
:1046B0008A81C12CD12C760187FF06C0C12CD12C58
:1046C000F8EFEF2EFF24FA949DA149819B3309F066
:1046D00087C02D8127FF84C040FD44C0042F10E017
:1046E00030E020E073E0000F111F221F331F7A9586
:1046F000D1F7B901A801407E57706627772790E06F
:10470000B0E0A0E08C019D01EBE0000F111F221F23
:10471000331FEA95D1F7042B152B262B372B0C29A9
:104720001D292E293F29013854EE15075FEF250773
:104730003507C4F0C901B8010E94F02720E030E03D
:1047400040E05CE30E944F28E0966CAF7DAF8EAFF7
:104750009FAFE09720E030E04EEF52EC0E94E92757
:1047600081118EC081E090E068969FAF8EAF689710
:1047700060E081E20E944E0C79C0E0915508E9505A
:104780008EEE92E0E33038F4F0E0EE0FFF1FEF5EC4
:10479000FD4F808191819C0150E040E0E0962CAF7C
:1047A0003DAF4EAF5FAFE09780915308882329F06B
:1047B00060E0809154080E949502E0966CAD7DAD5A
:1047C0008EAD9FADE0970E9424038091530888230B
:1047D00009F43CCF61E0809154080E94950236CFE5
:1047E000082F10E0102F0027110F110F110F38E0C4
:1047F000439FA0011124042B152B012E000C220B2A
:10480000330B0C291D292E293F29903109F08BCF1C
:104810006885662309F487CF70E08F81AB01481B60
:104820005109CA019695982F8827979587950E94D8
:104830002129CB01770FAA0BBB0B53E0000F111FEF
:10484000221F331F5A95D1F7007827703327005263
:10485000110921093109800F911FA21FB31F970170
:104860008601082B192B2A2B3B2B5DCF80E090E093
:10487000AEEFB2ECE0968CAF9DAFAEAFBFAFE097BE
:1048800020E030E040E251E4E0966CAD7DAD8EADCD
:104890009FADE0970E944F280E94752AE6967FAF51
:1048A0006EAFE69786E090E00E94302CAE969FAF08
:1048B0008EAFAE9785E0AE96AEADBFADAE978C93A2
:1048C00082E011968C93119784E012968C93129744
:1048D000E196EFADE1971396EC93E6968EAD9FAD22
:1048E000E6976AE070E00E942129AE96AEADBFADBA
:1048F000AE9714966C93149715968C931597AB2BD3
:10490000D9F081E090E068969FAF8EAF689746E05F
:1049100050E0AE966EAD7FADAE9786E697E00E9412
:1049200063030697A1F081E090E068969FAF8EAF99
:10493000689760E083E209CA81E090E068969FAFE3
:104940008EAF689760E082E20E944E0CDACFAE969E
:10495000EEADFFADAE97EF2B09F007CB95CA8530D2
:1049600009F092CAAD96FFADAD97F33010F12091EA
:104970000804E9962FAFE99781E090E068969FAF31
:104980008EAF6897AE014F5F5F4FBE016B5D7F4F8B
:1049900087E798E00E944A10811116C081E090E0FC
:1049A00068969FAF8EAF689760E085E20E944E0CDC
:1049B0000BC081E090E068969FAF8EAF689760E093
:1049C00084E20E944E0CD3CF20E030E040E251E47C
:1049D0006D897E898F89988D0E944F280E94752A43
:1049E000E4966CAF7DAF8EAF9FAFE497E2964EAD8D
:1049F0005FADE297EC965FAF4EAFEC9720E030E012
:104A000040E251E469AD7AAD8BAD9CAD0E944F2878
:104A10000E94752AE8966CAF7DAF8EAF9FAFE89786
:104A2000E6968EAD9FADE697EE969FAF8EAFEE9772
:104A300084E090E00E94302CAE969FAF8EAFAE9790
:104A400083E0AE96AEADBFADAE978C9382E011968B
:104A50008C932AE030E0EC968EAD9FADEC97B901D7
:104A60000E942129AE96EEADFFADAE976283EE9621
:104A70008EAD9FADEE97B9010E9421296383EF2B84
:104A800051F481E090E068969FAF8EAF689760E048
:104A900086E20E944E0C81E090E068969FAF8EAF58
:104AA000689744E050E0AE966EAD7FADAE9786E677
:104AB00097E00E946303049751F081E090E06896CC
:104AC0009FAF8EAF689760E087E20E944E0CAE9673
:104AD0002EAD3FADAE97232B09F069C0E6964EADE3
:104AE0005FADE697BA01550F880B990B0E94F0272E
:104AF00020E030E040E251E40E94032A0E94752A3F
:104B0000E0966CAF7DAF8EAF9FAFE097E296AEAD13
:104B1000BFADE297BD01BB0F880B990B0E94F02738
:104B200020E030E040E251E40E94032A0E94752A0E
:104B3000E4966CAF7DAF8EAF9FAFE497EDEFF3E0FF
:104B400090E080E02191211139C083509C4FE9967B
:104B50002FADE997FC012083E2964EAD5FADE29761
:104B60005093F9034093F803AE968EAD9FADAE9788
:104B70009093FB038093FA036CE271E084E99EE07A
:104B80000E941409882351F168E572E083ED9CE0EE
:104B90000E94140981112DC081E090E068969FAFBA
:104BA0008EAF689760E082E60E944E0C22C0AE96FF
:104BB0008EAD9FADAE970E94CC2C90CF01968830E1
:104BC000910509F0BFCF81E090E068969FAF8EAF6E
:104BD000689760E085E50E944E0CBECF81E090E0D2
:104BE00068969FAF8EAF689760E081E60E944E0C9A
:104BF000CBCF64E873E080ED91E10E94140981114C
:104C00000AC081E090E068969FAF8EAF689760E041
:104C100083E60E944E0C60EB74E084E39DE00E940A
:104C20001409811131C981E090E068969FAF8EAF81
:104C3000689760E084E6CDC9CE0101960E94440CDD
:104C4000CE0185960E94440CCE01875B9F4F0E9447
:104C5000440C8FEF9FEF68969FAF8EAF6897AE962C
:104C60008EAD9FADAE970E940D1769968FAD699777
:104C7000A82F880FBB0BAE96BFAFAEAFAE976896AE
:104C80008EAD9FAD68970097F9F20197A9F2019751
:104C9000D9F20E94362E8091080587FF0AC02FEFB7
:104CA0003FEF68963FAF2EAF689760E087E40E94C1
:104CB0004E0CE091080531E03E0FAD963FAFAD9749
:104CC00030930805F0E0E857FB4FE1964FADE197D0
:104CD00040838091090538136AC0323050F48FEF59
:104CE0009FEF68969FAF8EAF689760E082E30E9467
:104CF0004E0C80918804813009F08AC0AD969FAD3A
:104D0000AD97933050F4AFEFBFEF6896BFAFAEAF43
:104D1000689760E083E30E944E0CB0918A04E196AC
:104D2000BFAFE197B13009F068C084E090E00E9425
:104D3000302CAE969FAF8EAFAE9723E0FC01208360
:104D4000E1963FADE197318332838091890483837B
:104D5000EF2B51F44FEF5FEF68965FAF4EAF689760
:104D600060E084E30E944E0C8FEF9FEF68969FAF48
:104D70008EAF689744E050E0AE966EAD7FADAE97D3
:104D800086E697E00E946303049721F060E085E3E4
:104D90000E944E0CAE96AEADBFADAE97109719F017
:104DA000CD010E94CC2C109208051092090589ECC7
:104DB00096E00E94C103892BA1F189EC96E00E9444
:104DC0009F03E1968FAFE19780910905811163CF31
:104DD000E196BFADE197B13850F0EFEFFFEF689685
:104DE000FFAFEEAF689760E086E40E944E0CE1965C
:104DF000FFADE197F0930905DACFEFEFFFEF68968B
:104E0000FFAFEEAF689760E086E30E944E0CCBCF19
:104E10002FEF3FEF68963FAF2EAF689760E087E3D4
:104E2000F4CF0E945703E2967FAF6EAFE297CB01BB
:104E300064E670E00E940D29892B09F070C04AEAEF
:104E400055E0AE965FAF4EAFAE97AE96AEADBFAD8E
:104E5000AE9714968C9114978823F1F012966D9169
:104E60007C91E2968EAD9FADE2970E940D29892B31
:104E700099F4AE96AEADBFADAE97ED91FC912FEF2C
:104E80003FEF68963FAF2EAF68971995AE96AEADDF
:104E9000BFADAE9714961C92AE96EEADFFADAE9739
:104EA0003596AE96FFAFEEAFAE97EA54F64069F690
:104EB0004AE055E0AE965FAF4EAFAE97AE96AEAD60
:104EC000BFADAE9714968C9114978823D1F01296AB
:104ED0008D919C911397E296EEADFFADE297E817A6
:104EE000F90778F0ED91FC912FEF3FEF68963FAF17
:104EF0002EAF68971995AE96AEADBFADAE9714962E
:104F00001C92AE96EEADFFADAE973596AE96FFAF66
:104F1000EEAFAE972AEA35E02E173F0779F68FEF0E
:104F20009FEF68969FAF8EAF68970E9470040C94B5
:104F3000F31B8091850890918608009739F0DC0179
:104F4000ED91FC910280F381E02D19958091870805
:104F500090918808009739F0DC01ED91FC91028076
:104F6000F381E02D19940895BB274A3031F4992339
:104F700022F4BDE2909581959F4F0C94C027BB27EA
:104F8000FB015527AA27880F991FAA1FA41710F005
:104F9000A41B83955051B9F7A05DAA3308F0A95D11
:104FA000A193009779F7B111B1931192CB010C94B1
:104FB000D927DC01FC01672F71917723E1F7329744
:104FC00004C07C916D9370836291AE17BF07C8F3E4
:104FD00008950E942B2808F481E00895E89409C000
:104FE00097FB3EF490958095709561957F4F8F4F1C
:104FF0009F4F9923A9F0F92F96E9BB279395F69532
:10500000879577956795B795F111F8CFFAF4BB0FAF
:1050100011F460FF1BC06F5F7F4F8F4F9F4F16C013
:10502000882311F096E911C0772321F09EE8872F9D
:10503000762F05C0662371F096E8862F70E060E059
:105040002AF09A95660F771F881FDAF7880F9695D2
:10505000879597F90895990F0008550FAA0BE0E876
:10506000FEEF16161706E807F907C0F0121613062A
:10507000E407F50798F0621B730B840B950B39F46A
:105080000A2661F0232B242B252B21F408950A26D0
:1050900009F4A140A6958FEF811D811D08950E94FE
:1050A00062280C94D3280E94C52838F00E94CC288E
:1050B00020F0952311F00C94BC280C94C2281124E4
:1050C0000C9407290E94E42870F3959FC1F3950F73
:1050D00050E0551F629FF001729FBB27F00DB11D7C
:1050E000639FAA27F00DB11DAA1F649F6627B00D0C
:1050F000A11D661F829F2227B00DA11D621F739FF5
:10510000B00DA11D621F839FA00D611D221F749F02
:105110003327A00D611D231F849F600D211D822F49
:10512000762F6A2F11249F5750409AF0F1F0882370
:105130004AF0EE0FFF1FBB1F661F771F881F91509D
:105140005040A9F79E3F510580F00C94BC280C9468
:1051500007295F3FE4F3983ED4F3869577956795EA
:10516000B795F795E7959F5FC1F7FE2B880F911DC7
:105170009695879597F9089597F99F6780E870E06D
:1051800060E008959FEF80EC089500240A941616BD
:10519000170618060906089500240A941216130625
:1051A000140605060895092E0394000C11F48823B3
:1051B00052F0BB0F40F4BF2B11F460FF04C06F5FCF
:1051C0007F4F8F4F9F4F089557FD9058440F551FA5
:1051D00059F05F3F71F04795880F97FB991F61F079
:1051E0009F3F79F087950895121613061406551FF0
:1051F000F2CF4695F1DF08C0161617061806991F5C
:10520000F1CF86957105610508940895E894BB2750
:1052100066277727CB0197F90895AA1BBB1B51E19D
:1052200007C0AA1FBB1FA617B70710F0A61BB70B16
:10523000881F991F5A95A9F780959095BC01CD01BB
:10524000089597FB072E16F4009407D077FD09D038
:105250000E940D2907FC05D03EF4909581959F4F43
:105260000895709561957F4F0895A1E21A2EAA1BAB
:10527000BB1BFD010DC0AA1FBB1FEE1FFF1FA21706
:10528000B307E407F50720F0A21BB30BE40BF50B03
:10529000661F771F881F991F1A9469F7609570958C
:1052A000809590959B01AC01BD01CF010895EE0F53
:1052B000FF1F881F8BBF0790F691E02D19942F9246
:1052C0003F924F925F926F927F928F929F92AF9296
:1052D000BF92CF92DF92EF92FF920F931F93CF93E3
:1052E000DF93CDB7DEB7CA1BDB0B0FB6F894DEBF7A
:1052F0000FBECDBF19942A88398848885F846E8490
:105300007D848C849B84AA84B984C884DF80EE80E9
:10531000FD800C811B81AA81B981CE0FD11D0FB6F2
:10532000F894DEBF0FBECDBFED0108955058BB27E6
:10533000AA270E94AE290C94D3280E94C52838F0D1
:105340000E94CC2820F039F49F3F19F426F40C94E5
:10535000C2280EF4E095E7FB0C94BC28E92F0E94CC
:10536000E42858F3BA17620773078407950720F0FB
:1053700079F4A6F50C9406290EF4E0950B2EBA2FBD
:10538000A02D0B01B90190010C01CA01A00111244B
:10539000FF27591B99F0593F50F4503E68F11A16F7
:1053A000F040A22F232F342F4427585FF3CF469588
:1053B00037952795A795F0405395C9F77EF41F16AA
:1053C000BA0B620B730B840BBAF09150A1F0FF0F74
:1053D000BB1F661F771F881FC2F70EC0BA0F621F60
:1053E000731F841F48F4879577956795B795F79550
:1053F0009E3F08F0B0CF9395880F08F09927EE0FE5
:105400009795879508950E94172A0C94D3280E9497
:10541000CC2858F00E94C52840F029F45F3F29F0BD
:105420000C94BC2851110C9407290C94C2280E949A
:10543000E42868F39923B1F3552391F3951B550B99
:10544000BB27AA2762177307840738F09F5F5F4F57
:10545000220F331F441FAA1FA9F335D00E2E3AF096
:10546000E0E832D091505040E695001CCAF72BD0AE
:10547000FE2F29D0660F771F881FBB1F26173707FF
:105480004807AB07B0E809F0BB0B802DBF01FF2731
:1054900093585F4F3AF09E3F510578F00C94BC282A
:1054A0000C9407295F3FE4F3983ED4F386957795F3
:1054B0006795B795F7959F5FC9F7880F911D9695EA
:1054C000879597F90895E1E0660F771F881FBB1F46
:1054D000621773078407BA0720F0621B730B840BF3
:1054E000BA0BEE1F88F7E09508950E947C2A689415
:1054F000B1110C94072908950E94EC2888F09F5759
:1055000098F0B92F9927B751B0F0E1F0660F771FE7
:10551000881F991F1AF0BA95C9F714C0B13091F0DD
:105520000E940629B1E008950C940629672F782F70
:105530008827B85F39F0B93FCCF3869577956795A2
:10554000B395D9F73EF490958095709561957F4F0E
:105550008F4F9F4F0895FA01EE0FFF1F30962105E0
:105560003105A1F16115710561F48038BFE39B0736
:1055700049F168949038810561F08038BFEF9B074E
:1055800041F099234AF5FF3FE1053105210519F165
:10559000E8940894E795D901AA2329F4AB2FBE2FEC
:1055A000F85FD0F310C0FF5F70F4A695E0F7F7390D
:1055B00050F019F0FF3A38F49F779F930DD00F9079
:1055C00007FC9058089546F00C94C22860E070E003
:1055D00080E89FE308954FE79F775F934F933F9352
:1055E0002F930E94A62B2F913F914F915F910E9484
:1055F0004F280C94032B29F416F00C94BC280C941F
:1056000006290C94C2280E94EC28A8F39638A0F72B
:1056100007F80F92E8942BE33AEA48EB5FE70E9421
:1056200065280F920F920F924DB75EB70F920E94AE
:10563000EE2BE4EEF0E00E94352B4F915F91EF915D
:10564000FF91E595EE1FFF1F49F0FE57E0684427E4
:10565000EE0F441FFA95E1F74195550B0E94682B18
:105660000F9007FE0C945C2B0895DF93CF931F934C
:105670000F93FF92EF92DF927B018C01689406C03A
:10568000DA2EEF010E946228FE01E894A59125918F
:10569000359145915591A6F3EF010E94AE29FE0187
:1056A0009701A801DA9469F7DF90EF90FF900F91CE
:1056B0001F91CF91DF9108959B01AC0160E070E0F4
:1056C00080E89FE30C94032A0C94BC280C94222CB1
:1056D0000E94EC28D8F39923C9F3940F511DA3F32A
:1056E0009150504094F059F0882332F0660F771FA4
:1056F000881F91505040C1F79E3F51052CF7880FED
:10570000911D9695879597F908955F3FACF0983E67
:105710009CF0BB27869577956795B79508F4B1609F
:105720009395C1F7BB0F58F711F460FFE8CF6F5F97
:105730007F4F8F4F9F4FE3CF0C94072916F00C94A7
:10574000222C0C94C22868940C94BC280E94EC284B
:10575000A8F39923C1F3AEF3DF93CF931F930F9375
:10576000FF92C92FDD2788232AF02197660F771F24
:10577000881FDAF720E030E040E85FEB9FE38839EC
:1057800020F0803E38F021968F770E949729ECE038
:10579000F1E004C00E949729E9E3F1E00E94352B73
:1057A0008B01BE01EC01FB2E6F5771097595771FB8
:1057B000880B990B0E94F02728E132E741E35FE371
:1057C0000E946228AF2D9801AE01FF900F911F91AA
:1057D000CF91DF910E94AE290C94D328FA01DC010D
:1057E000AA0FBB1F9B01AC01BF5728F42227332708
:1057F0004427507820C0B75190F4AB2F0024469531
:1058000037952795011CA395D2F3002071F0220F44
:10581000331F441FB395DAF30ED00C9496296130F0
:105820007105A0E88A07B94630F49B01AC016627F0
:10583000772788279078309621F020833183428320
:10584000538308959F3F31F0915020F487957795C9
:105850006795B795880F911D9695879597F9089547
:105860000F931F93CF93DF938230910510F482E062
:1058700090E0E0918D08F0918E0830E020E0B0E0FB
:10588000A0E0309799F42115310509F44AC0281B8E
:10589000390B24303105D8F58A819B81611571055A
:1058A00089F1FB0193838283FE0111C04081518104
:1058B0000281138148175907E0F04817590799F4F6
:1058C000109761F012960C93129713961C933296D0
:1058D000CF01DF91CF911F910F91089500938D0813
:1058E00010938E08F4CF2115310551F0421753075C
:1058F00038F0A901DB019A01BD01DF01F801C1CF38
:10590000EF01F9CF90938E0880938D08CDCFFE01E3
:10591000E20FF31F81939193225031093983288339
:10592000D7CF20918B0830918C08232B41F4209104
:1059300002023091030230938C0820938B0820914F
:105940000002309101022115310541F42DB73EB717
:105950004091040250910502241B350BE0918B0805
:10596000F0918C08E217F307A0F42E1B3F0B2817C9
:10597000390778F0AC014E5F5F4F2417350748F0C8
:105980004E0F5F1F50938C0840938B088193919327
:105990009FCFF0E0E0E09CCFCF93DF930097E9F05A
:1059A000FC01329713821282A0918D08B0918E086B
:1059B000ED0130E020E01097A1F420813181820FC9
:1059C000931F20918B0830918C082817390709F014
:1059D00061C0F0938C08E0938B08DF91CF9108951C
:1059E000EA01CE17DF07E8F54A815B819E01411588
:1059F0005105B1F7E901FB83EA8349915991C40F3D
:105A0000D51FEC17FD0761F4808191810296840F08
:105A1000951FE90199838883828193819B838A837F
:105A2000F0E0E0E012968D919C9113970097B9F504
:105A30002D913C911197CD010296820F931F2091D9
:105A40008B0830918C082817390739F6309751F5B3
:105A500010928E0810928D08B0938C08A0938B083A
:105A6000BCCFD383C28340815181840F951FC81757
:105A7000D90761F44E5F5F4F88819981480F591FA4
:105A8000518340838A819B819383828321153105D1
:105A900009F0B0CFF0938E08E0938D089ECFFD0102
:105AA000DC01C0CF13821282D7CF4F925F926F92E8
:105AB0007F928F929F92AF92BF92CF92DF92EF929E
:105AC000FF920F931F93CF93DF938C01009799F46C
:105AD000CB01DF91CF911F910F91FF90EF90DF905D
