:100000000C9458000C9480000C9480000C94800098
:100010000C9480000C9480000C9480000C94800060
:100020000C9480000C9480000C9480000C94800050
:100030000C9480000C9480000C9480000C94800040
:100040000C94DE050C9480000C944E060C9428064B
:100050000C9480000C9480000C9480000C94800020
:100060000C94BF040C9480000000000025002800C0
:100070002B00040404040404040402020202020229
:10008000030303030303010204081020408001025C
:1000900004081020010204081020000000080002DB
:1000A00001000003040700000000000000008006BB
:1000B00011241FBECFEFD8E0DEBFCDBF11E0A0E01E
:1000C000B1E0EEE6F4E102C005900D92AE33B10767
:1000D000D9F723E0AEE3B1E001C01D92A33CB20723
:1000E000E1F710E0C8E5D0E004C02197FE010E94CE
:1000F000E808C735D107C9F70E94C9060C94350A2C
:100100000C94000090E0FC01E656FF4F2491FC01A6
:10011000EA57FF4F3491FC01EE58FF4FE491EE2374
:10012000C9F0222339F0233001F1A8F4213019F16C
:10013000223029F1F0E0EE0FFF1FE859FF4FA591A3
:10014000B4918FB7F894EC91611126C030953E239D
:100150003C938FBF08952730A9F02830C9F0243090
:1001600049F7809180008F7D03C0809180008F7758
:1001700080938000DFCF84B58F7784BDDBCF84B5DB
:100180008F7DFBCF8091B0008F778093B000D2CF6E
:100190008091B0008F7DF9CF3E2BDACF2091BD0248
:1001A000260F3327331F21323105ECF42091E3026F
:1001B000FC0190E080E0243069F082E00895A09195
:1001C000BD022191AC0145565D4FA40FB52FB11D65
:1001D0002C930196861798F38091BD02680F609367
:1001E000BD0280E0089581E008951092E30281E06D
:1001F0008093E5021092E40261E082E10E948200B5
:1002000061E083E10E948200E9EBF0E080818E7F73
:10021000808380818D7F808388E48093B80085E42B
:100220008093BC000895CF93DF9391E090939A025E
:100230008823B9F0C091B800D091BA008091BC0079
:100240008A7B8093BC0060E082E10E94820060E0D3
:1002500083E10E9482000E94F500D093BA00C0930F
:10026000B800DF91CF910895089508950895E09121
:10027000920280919102E81730F4F0E0EF58FD4FC0
:10028000808190E008958FEF9FEF08959091920202
:10029000809191022FEF3FEF981748F4E92FF0E09B
:1002A000EF58FD4F208130E09F5F90939202C9018B
:1002B00008958091910290919202891B990B089563
:1002C000CF92DF92EF92FF920F931F93CF93DF9322
:1002D0007C01CB018A0120917002222389F0EB017D
:1002E0006B01C40ED51ECC15DD0569F06991D701EF
:1002F000ED91FC910190F081E02DC7010995F3CFBC
:10030000642F0E94CE00C801DF91CF911F910F9101
:10031000FF90EF90DF90CF900895CF93DF931F92DF
:10032000CDB7DEB76983209170022223F9F02091C6
:100330009302203258F021E030E0FC013383228325
:1003400090E080E00F90DF91CF910895809194022A
:10035000E82FF0E0E05BFD4F998190838F5F809301
:1003600094028093930281E090E0ECCF61E0CE01B3
:1003700001960E94CE00F7CF3FB7F89480914C02CF
:1003800090914D02A0914E02B0914F0226B5A89BCC
:1003900005C02F3F19F00196A11DB11D3FBFBA2F17
:1003A000A92F982F8827BC01CD01620F711D811DD7
:1003B000911D42E0660F771F881F991F4A95D1F75C
:1003C00008958F929F92AF92BF92CF92DF92EF9259
:1003D000FF924B015C010E94BC016B017C010E94F9
:1003E000BC016C197D098E099F09683E7340810527
:1003F0009105A8F321E0821A9108A108B10888EEBE
:10040000C80E83E0D81EE11CF11C81149104A104E4
:10041000B10429F7FF90EF90DF90CF90BF90AF909D
:100420009F908F900895AF92BF92CF92DF92EF92FC
:10043000FF920F931F93CF93DF936C017B018B018E
:10044000040F151FEB015E01AE18BF08C017D107DE
:1004500059F06991D601ED91FC910190F081E02D68
:10046000C6010995892B79F7C501DF91CF911F91BD
:100470000F91FF90EF90DF90CF90BF90AF900895D5
:10048000FC01538D448D252F30E0842F90E0821B9A
:10049000930B541710F0CF96089501970895FC011F
:1004A000918D828D981761F0A28DAE0FBF2FB11D77
:1004B0005D968C91928D9F5F9F73928F90E00895CF
:1004C0008FEF9FEF0895FC01918D828D981731F089
:1004D000828DE80FF11D858D90E008958FEF9FEFDD
:1004E0000895FC01918D228D892F90E0805C9F4FB3
:1004F000821B91098F739927089585E193E00E94EB
:10050000710221E0892B09F420E0822F089580E018
:1005100090E0892B29F00E947D0281110C9400004B
:100520000895FC01A48DA80FB92FB11DA35ABF4F88
:100530002C91848D90E001968F739927848FA689E2
:10054000B7892C93A089B1898C91837080648C9336
:10055000938D848D981306C00288F389E02D8081E5
:100560008F7D80830895EF92FF920F931F93CF9317
:10057000DF93EC0181E0888F9B8D8C8D98131AC0DE
:10058000E889F989808185FF15C09FB7F894EE89C5
:10059000FF896083E889F989808183708064808322
:1005A0009FBF81E090E0DF91CF911F910F91FF906D
:1005B000EF900895F62E0B8D10E00F5F1F4F0F7315
:1005C0001127E02E8C8D8E110CC00FB607FCFACFD0
:1005D000E889F989808185FFF5CFCE010E949102DB
:1005E000F1CFEB8DEC0FFD2FF11DE35AFF4FF082A1
:1005F0009FB7F8940B8FEA89FB8980818062CFCF07
:10060000CF93DF93EC01888D8823B9F0AA89BB8949
:10061000E889F9898C9185FD03C0808186FD0DC034
:100620000FB607FCF7CF8C9185FFF2CF808185FF55
:10063000EDCFCE010E949102E9CFDF91CF910895D5
:10064000CF92DF92EF92FF920F931F93CF93DF939E
:10065000FC01C48121E020937002C0933E011092FE
:100660009402109293028485682B89E093E00E94A3
:100670008D01D0919302D13208F092C00E94BC014A
:100680006B017C018091E302811165C082E080935F
:10069000E30281E08093E5028FEF8093E202109203
:1006A0000703D0930603A0E5B2E0E6EEF2E080E0B7
:1006B000D81385C01092080380910803CC0FC82B73
:1006C000C09308038091E402813009F07CC010924D
:1006D000E4020E94BC016B017C01809108038093BD
:1006E000BB008091960290919702A0919802B091E0
:1006F0009902892B8A2B8B2B99F00E94BC010091C7
:1007000096021091970220919802309199026C19EB
:100710007D098E099F090617170728073907E0F199
:100720008091BC0083FDD9CF85EC8093BC000E94F2
:10073000BC016B017C018091E302823009F445C069
:100740008091E2028F3F61F18091E202803241F1BB
:100750008091E20225C08091960290919702A0912B
:100760009802B0919902892B8A2B8B2B09F48ACF9E
:100770000E94BC010091960210919702209198026C
:10078000309199026C197D098E099F090617170788
:100790002807390708F076CF809195020E9413014F
:1007A000109294021092930210927002DF91CF91F6
:1007B0001F910F91FF90EF90DF90CF9008959D9142
:1007C00091938F5F75CF85EEB0CF80919602909117
:1007D0009702A0919802B0919902892B8A2B8B2BBA
:1007E00009F4A9CF0E94BC010091960210919702D2
:1007F00020919802309199026C197D098E099F0908
:10080000061717072807390708F095CFC5CF0895B1
:1008100090E080E0089585ED8093BC008091960281
:1008200090919702A0919802B09199020796A11D0C
:10083000B11D23E0B695A795979587952A95D1F791
:100840002091BC0024FD03C01092E3020895409162
:100850009602509197026091980270919902452BEF
:10086000462B472B69F30097A105B10541F02AE219
:100870002A95F1F700C00197A109B109E1CF809154
:1008800095020C9413010F931F93CF938C01C62FE5
:100890000E9420036C2F6460C8010E9420036C2F0B
:1008A0006B7FC8010E94200383EC90E00197F1F771
:1008B000CF911F910F9108950F931F93CF93DF93C3
:1008C0008C01D62FC42F607F642B0E94430480E1EB
:1008D000D89FB00111246C2BC801DF91CF911F91DB
:1008E0000F910C94430440E0682F82EB93E00C944A
:1008F0005C04CF93DF93CDB7DEB728970FB6F8949B
:10090000DEBF0FBECDBF98E0E6E0F1E0DE0111965C
:1009100001900D929A95E1F79091BA03961710F411
:100920006FEF690F70E0660F771F21E030E02C0F4A
:100930003D1F620F731FFB019081890F806828960D
:100940000FB6F894DEBF0FBECDBFDF91CF910C94F0
:10095000730481E00E9473048BE39FE10197F1F738
:100960008091BB03882321F060E080E00C9479043F
:10097000089541E00E945C0481E090E008951F9298
:100980000F920FB60F9211242F933F934F935F93C3
:100990006F937F938F939F93AF93BF93EF93FF9347
:1009A0008091B900887F803609F44AC0F0F588321A
:1009B00009F4A7C018F5803109F49BC0B8F4882366
:1009C00009F4F9C0883009F494C0FF91EF91BF9108
:1009D000AF919F918F917F916F915F914F913F91D7
:1009E0002F910F900FBE0F901F901895883109F42A
:1009F00088C0803251F78093E20214C0803409F439
:100A00009DC040F48033B9F38833F9F68093E20255
:100A100085ECB0C0803509F485C0883509F496C0EE
:100A2000883499F60E940B04D0CF883909F48CC021
:100A300038F5883729F050F4883611F0803729F6D8
:100A400083E08093E3021092E10257C0883809F4F2
:100A50007BC0803919F0803809F0B7CF8091E1026E
:100A6000803208F071C0E091E10281E08E0F809346
:100A7000E1028091BB00F0E0EF53FD4F80833DC069
:100A8000803B39F0E0F4803A09F479C0883A09F003
:100A90009CCF84E08093E3021092BE021092BD02CC
:100AA000E091BB02F091BC0209958091BD028111D9
:100AB0000FC081E08093BD0210929B0209C0803C70
:100AC00009F4A6CF883C09F4A3CF883B09F07DCF79
:100AD000E091BE0281E08E0F8093BE02F0E0E55609
:100AE000FD4F80818093BB009091BE028091BD023A
:100AF00029C0809108038093BB0085EC8093BC00E3
:100B000064CF9091070380910603981758F5E09100
:100B1000070381E08E0F80930703F0E0EA51FD4F59
:100B20008081E9CFE091070381E08E0F8093070376
:100B30008091BB00F0E0EA51FD4F80839091070364
:100B4000809106039817C8F285E8D8CFE091070393
:100B500081E08E0F809307038091BB00F0E0EA51A3
:100B6000FD4F80838091E50281115CCF81E080930D
:100B7000E40284EA8093BC001092E30226CF85EC65
:100B80008093BC001092E3028091E102803230F445
:100B9000E091E102F0E0EF53FD4F10826091E1023D
:100BA00070E0E091BF02F091C00281EC92E0099503
:100BB0001092E1020ACF1092E20234CF1F920F92FC
:100BC0000FB60F9211242F933F938F939F93AF9360
:100BD000BF938091480290914902A0914A02B0913E
:100BE0004B023091470223E0230F2D3758F5019631
:100BF000A11DB11D209347028093480290934902A2
:100C0000A0934A02B0934B0280914C0290914D0206
:100C1000A0914E02B0914F020196A11DB11D80938B
:100C20004C0290934D02A0934E02B0934F02BF919D
:100C3000AF919F918F913F912F910F900FBE0F9089
:100C40001F90189526E8230F0296A11DB11DD2CF43
:100C50001F920F920FB60F9211242F933F934F9331
:100C60005F936F937F938F939F93AF93BF93EF9314
:100C7000FF9385E193E00E949102FF91EF91BF9174
:100C8000AF919F918F917F916F915F914F913F9124
:100C90002F910F900FBE0F901F9018951F920F92DB
:100CA0000FB60F9211242F938F939F93EF93FF937F
:100CB000E0912503F09126038081E0912B03F091D0
:100CC0002C0382FD1BC0908180912E038F5F8F7358
:100CD00020912F03821741F0E0912E03F0E0EB5EAC
:100CE000FC4F958F80932E03FF91EF919F918F91F1
:100CF0002F910F900FBE0F901F9018958081F4CF09
:100D0000E9E0F3E01382128288EE93E0A0E0B0E025
:100D100084839583A683B78322E131E031832083E6
:100D2000E5E1F3E01382128284839583A683B7837F
:100D300084E291E09183808385EC90E095878487BD
:100D400084EC90E09787868780EC90E0918B808B95
:100D500081EC90E0938B828B82EC90E0958B848B7E
:100D600086EC90E0978B868B118E128E138E148EEC
:100D7000E2EBF3E01382128286E391E091838083B9
:100D8000118687E2848380E1828782E083871486EC
:100D90000895789484B5826084BD84B5816084BDF3
:100DA00085B5826085BD85B5816085BD80916E0009
:100DB000816080936E00109281008091810082603A
:100DC0008093810080918100816080938100809177
:100DD00080008160809380008091B1008460809366
:100DE000B1008091B00081608093B00080917A0062
:100DF000846080937A0080917A00826080937A0088
:100E000080917A00816080937A0080917A00806876
:100E100080937A001092C100E0912503F09126039F
:100E200082E08083E0912103F09122031082E0911F
:100E30002303F09124038FEC808310922D03E09123
:100E40002903F0912A0386E08083E0912703F09143
:100E50002803808180618083E0912703F09128033B
:100E6000808188608083E0912703F091280380814E
:100E700080688083E0912703F091280380818F7D33
:100E8000808310929202109291021092940210921A
:100E900093020E94F50084E391E09093BC0280935A
:100EA000BB0285E391E09093C0028093BF02109251
:100EB000B7038091BD03823018F098E09093B70398
:100EC0008093BA0362E370E080E090E00E94E10169
:100ED0006091BE0382EB93E00E94200368EE73E012
:100EE00080E090E00E94E10160E382EB93E00E94E9
:100EF0004304CBE4D6E4CE010197F1F760E382EB43
:100F000093E00E9443042197F1F760E382EB93E0C2
:100F10000E94430483E592E00197F1F760E282EBDF
:100F200093E00E9443048091B70380620E9473049F
:100F300084E08093B8038CE00E9473040E94A904AB
:100F400082E08093B90386E00E94730482E00E94ED
:100F500073048BE39FE10197F1F788E08093BE0370
:100F600060E082EB93E00E94200368EE73E080E093
:100F700090E00E94E10180EA482E8FE0582E612C1B
:100F8000712C93E0292E01E0B12CA12C20E0C22E7F
:100F900020E0D22E3324339438E0932E8091460201
:100FA000811133C0609142027091430280914402EA
:100FB000909145029B01AC012F5F3F4F4F4F5F4F18
:100FC00020934202309343024093440250934502DF
:100FD000A30192010E94C908672B682B692BA9F411
:100FE00084E090E00E941009EC01288209830A83C2
:100FF0000B8344E050E0BC0185E193E00E941302C2
:10100000209719F0CE010E94AC0985E193E00E947F
:101010007102892B61F03092460285E193E00E94D3
:101020004F029091410291110EC080934102C11470
:10103000D10409F4B3CF0E947D02882309F4AECF16
:101040000E940000ABCF1091400221E0210F2093BD
:101050004002E12FF0E0E05CFE4F80839213E7CF87
:1010600080914101813009F067C0933031F4809163
:101070004201813029F580933F0180913F0188230F
:1010800009F45AC080914001823009F055C0809027
:101090004201F1E08F1250C01250812F09F481E01B
:1010A00090E00E941009EC01A3E4B1E0982FEC2F2E
:1010B000FD2F8E2F891B811740F48D918193F9CFDD
:1010C0008230D9F6F5010995D8CFF880E8E0EF1520
:1010D00070F16AE070E080E090E00E94E101EFEFE3
:1010E000EF0DE830E8F4F0E0E858F74F0C94E8082A
:1010F000A108A408A708B108B808C008C408800857
:101100007E01FFEFEF1AFF0A811688F4F701619163
:101110007F0141E082EB93E00E945C048394F4CF72
:101120001092BE0360E082EB93E00E9420032097C0
:1011300019F0CE010E94AC091092400210924102B7
:1011400076CF9092BE03EECF0E94A904F0CF80919B
:10115000B803982F91609093B80389600E9473043C
:10116000E6CF8091B8038E7F8093B8038860F6CF76
:101170008091B803982F92609093B8038A60EECF65
:101180008091B8038D7FF0CF6A8189810E947904B4
:10119000CECF052E97FB1EF400940E94E00857FD69
:1011A00007D00E94EE0807FC03D04EF40C94E00830
:1011B00050954095309521953F4F4F4F5F4F089583
:1011C00090958095709561957F4F8F4F9F4F0895B3
:1011D000EE0FFF1F0590F491E02D0994A1E21A2E65
:1011E000AA1BBB1BFD010DC0AA1FBB1FEE1FFF1FCB
:1011F000A217B307E407F50720F0A21BB30BE40B1B
:10120000F50B661F771F881F991F1A9469F7609561
:101210007095809590959B01AC01BD01CF0108951B
:101220000F931F93CF93DF938230910510F482E0E8
:1012300090E0E091C103F091C20330E020E0B0E023
:10124000A0E0309799F42115310509F44AC0281B14
:10125000390B24303105D8F58A819B8161157105E0
:1012600089F1FB0193838283FE0111C0408151818A
:101270000281138148175907E0F04817590799F47C
:10128000109761F012960C93129713961C93329656
:10129000CF01DF91CF911F910F9108950093C1036A
:1012A0001093C203F4CF2115310551F042175307B3
:1012B00038F0A901DB019A01BD01DF01F801C1CFBE
:1012C000EF01F9CF9093C2038093C103CDCFFE010C
:1012D000E20FF31F819391932250310939832883C0
:1012E000D7CF2091BF033091C003232B41F420912D
:1012F0000201309103013093C0032093BF0320917A
:101300000001309101012115310541F42DB73EB79F
:101310004091040150910501241B350BE091BF035E
:10132000F091C003E217F307A0F42E1B3F0B281720
:10133000390778F0AC014E5F5F4F2417350748F04E
:101340004E0F5F1F5093C0034093BF03819391934F
:101350009FCFF0E0E0E09CCFCF93DF930097E9F0E0
:10136000FC01329713821282A091C103B091C20393
:10137000ED0130E020E01097A1F420813181820F4F
:10138000931F2091BF033091C0032817390709F03C
:1013900061C0F093C003E093BF03DF91CF91089544
:1013A000EA01CE17DF07E8F54A815B819E0141150E
:1013B0005105B1F7E901FB83EA8349915991C40FC3
:1013C000D51FEC17FD0761F4808191810296840F8F
:1013D000951FE90199838883828193819B838A8306
:1013E000F0E0E0E012968D919C9113970097B9F58B
:1013F0002D913C911197CD010296820F931F209160
:10140000BF033091C0032817390739F6309751F5DB
:101410001092C2031092C103B093C003A093BF0304
:10142000BCCFD383C28340815181840F951FC817DD
:10143000D90761F44E5F5F4F88819981480F591F2A
:10144000518340838A819B81938382832115310557
:1014500009F0B0CFF093C203E093C1039ECFFD012A
:0E146000DC01C0CF13821282D7CFF894FFCFE9
:10146E000000C30380000000400014005400000080
:10147E0000008D0160010804360159014601370153
:10148E0000000000B30213024002000371024F027B
:0E149E00630200000000B904130208040704F2
:00000001FF
